{
  "contractName": "PatentRegistry",
  "abi": [
    {
      "anonymous": false,
      "inputs": [
        {
          "indexed": false,
          "internalType": "uint256",
          "name": "patentId",
          "type": "uint256"
        },
        {
          "indexed": false,
          "internalType": "string",
          "name": "name",
          "type": "string"
        },
        {
          "indexed": true,
          "internalType": "address",
          "name": "owner",
          "type": "address"
        },
        {
          "indexed": false,
          "internalType": "string",
          "name": "description",
          "type": "string"
        },
        {
          "indexed": false,
          "internalType": "uint256",
          "name": "price",
          "type": "uint256"
        },
        {
          "indexed": false,
          "internalType": "bool",
          "name": "isForSale",
          "type": "bool"
        },
        {
          "indexed": false,
          "internalType": "uint256",
          "name": "registrationTime",
          "type": "uint256"
        },
        {
          "indexed": false,
          "internalType": "uint256",
          "name": "expiryTime",
          "type": "uint256"
        }
      ],
      "name": "PatentRegistered",
      "type": "event"
    },
    {
      "inputs": [],
      "name": "patentCount",
      "outputs": [
        {
          "internalType": "uint256",
          "name": "",
          "type": "uint256"
        }
      ],
      "stateMutability": "view",
      "type": "function",
      "constant": true
    },
    {
      "inputs": [
        {
          "internalType": "uint256",
          "name": "",
          "type": "uint256"
        }
      ],
      "name": "patents",
      "outputs": [
        {
          "internalType": "uint256",
          "name": "patentId",
          "type": "uint256"
        },
        {
          "internalType": "string",
          "name": "patentName",
          "type": "string"
        },
        {
          "internalType": "address",
          "name": "currentOwner",
          "type": "address"
        },
        {
          "internalType": "string",
          "name": "description",
          "type": "string"
        },
        {
          "internalType": "uint256",
          "name": "price",
          "type": "uint256"
        },
        {
          "internalType": "bool",
          "name": "isForSale",
          "type": "bool"
        },
        {
          "internalType": "uint256",
          "name": "registrationTime",
          "type": "uint256"
        },
        {
          "internalType": "uint256",
          "name": "expiryTime",
          "type": "uint256"
        }
      ],
      "stateMutability": "view",
      "type": "function",
      "constant": true
    },
    {
      "inputs": [
        {
          "internalType": "string",
          "name": "name",
          "type": "string"
        },
        {
          "internalType": "string",
          "name": "description",
          "type": "string"
        },
        {
          "internalType": "uint256",
          "name": "duration",
          "type": "uint256"
        },
        {
          "internalType": "uint256",
          "name": "price",
          "type": "uint256"
        }
      ],
      "name": "registerPatent",
      "outputs": [
        {
          "internalType": "uint256",
          "name": "",
          "type": "uint256"
        }
      ],
      "stateMutability": "nonpayable",
      "type": "function"
    },
    {
      "inputs": [
        {
          "internalType": "uint256",
          "name": "patentId",
          "type": "uint256"
        }
      ],
      "name": "getPatent",
      "outputs": [
        {
          "internalType": "uint256",
          "name": "",
          "type": "uint256"
        },
        {
          "internalType": "string",
          "name": "",
          "type": "string"
        },
        {
          "internalType": "string",
          "name": "",
          "type": "string"
        },
        {
          "internalType": "address",
          "name": "",
          "type": "address"
        },
        {
          "internalType": "uint256",
          "name": "",
          "type": "uint256"
        },
        {
          "internalType": "uint256",
          "name": "",
          "type": "uint256"
        }
      ],
      "stateMutability": "view",
      "type": "function",
      "constant": true
    },
    {
      "inputs": [
        {
          "internalType": "uint256",
          "name": "patentId",
          "type": "uint256"
        }
      ],
      "name": "isPatentExpired",
      "outputs": [
        {
          "internalType": "bool",
          "name": "",
          "type": "bool"
        }
      ],
      "stateMutability": "view",
      "type": "function",
      "constant": true
    },
    {
      "inputs": [],
      "name": "getUserPatents",
      "outputs": [
        {
          "internalType": "uint256[]",
          "name": "",
          "type": "uint256[]"
        }
      ],
      "stateMutability": "view",
      "type": "function",
      "constant": true
    }
  ],
  "bytecode": "0x608060405234801561001057600080fd5b506112bb806100206000396000f3fe608060405234801561001057600080fd5b506004361061007f576000357c01000000000000000000000000000000000000000000000000000000009004806309e6baf1146100845780639c6d0d78146100a2578063b084c841146100d7578063bf7b6404146100f5578063c5cf911314610125578063f422bc6814610155575b600080fd5b61008c61018c565b6040516100999190610924565b60405180910390f35b6100bc60048036038101906100b79190610986565b610221565b6040516100ce96959493929190610a93565b60405180910390f35b6100df61043e565b6040516100ec9190610b02565b60405180910390f35b61010f600480360381019061010a9190610986565b610444565b60405161011c9190610b38565b60405180910390f35b61013f600480360381019061013a9190610c88565b610466565b60405161014c9190610b02565b60405180910390f35b61016f600480360381019061016a9190610986565b6106d7565b604051610183989796959493929190610d27565b60405180910390f35b6060600260003373ffffffffffffffffffffffffffffffffffffffff1673ffffffffffffffffffffffffffffffffffffffff16815260200190815260200160002080548060200260200160405190810160405280929190818152602001828054801561021757602002820191906000526020600020905b815481526020019060010190808311610203575b5050505050905090565b600060608060008060008060016000898152602001908152602001600020604051806101000160405290816000820154815260200160018201805461026590610de2565b80601f016020809104026020016040519081016040528092919081815260200182805461029190610de2565b80156102de5780601f106102b3576101008083540402835291602001916102de565b820191906000526020600020905b8154815290600101906020018083116102c157829003601f168201915b505050505081526020016002820160009054906101000a900473ffffffffffffffffffffffffffffffffffffffff1673ffffffffffffffffffffffffffffffffffffffff1673ffffffffffffffffffffffffffffffffffffffff16815260200160038201805461034d90610de2565b80601f016020809104026020016040519081016040528092919081815260200182805461037990610de2565b80156103c65780601f1061039b576101008083540402835291602001916103c6565b820191906000526020600020905b8154815290600101906020018083116103a957829003601f168201915b50505050508152602001600482015481526020016005820160009054906101000a900460ff1615151515815260200160068201548152602001600782015481525050905080600001518160200151826060015183604001518460c001518560e001519650965096509650965096505091939550919395565b60005481565b6000600160008381526020019081526020016000206007015442119050919050565b60008083116104aa576040517f08c379a00000000000000000000000000000000000000000000000000000000081526004016104a190610e85565b60405180910390fd5b60405180610100016040528060005481526020018681526020013373ffffffffffffffffffffffffffffffffffffffff16815260200185815260200183815260200160011515815260200142815260200184426105079190610ed4565b815250600160008054815260200190815260200160002060008201518160000155602082015181600101908161053d91906110ba565b5060408201518160020160006101000a81548173ffffffffffffffffffffffffffffffffffffffff021916908373ffffffffffffffffffffffffffffffffffffffff160217905550606082015181600301908161059a91906110ba565b506080820151816004015560a08201518160050160006101000a81548160ff02191690831515021790555060c0820151816006015560e08201518160070155905050600260003373ffffffffffffffffffffffffffffffffffffffff1673ffffffffffffffffffffffffffffffffffffffff16815260200190815260200160002060005490806001815401808255809150506001900390600052602060002001600090919091909150556000808154809291906106569061118c565b91905055503373ffffffffffffffffffffffffffffffffffffffff167ffe35dd0a2a2b1a13a2ecfe9e9714cbb3430db7ca9c258e25e74ba7c432721fbb60016000546106a291906111d4565b8787866001428a426106b49190610ed4565b6040516106c79796959493929190611208565b60405180910390a2949350505050565b600160205280600052604060002060009150905080600001549080600101805461070090610de2565b80601f016020809104026020016040519081016040528092919081815260200182805461072c90610de2565b80156107795780601f1061074e57610100808354040283529160200191610779565b820191906000526020600020905b81548152906001019060200180831161075c57829003601f168201915b5050505050908060020160009054906101000a900473ffffffffffffffffffffffffffffffffffffffff16908060030180546107b490610de2565b80601f01602080910402602001604051908101604052809291908181526020018280546107e090610de2565b801561082d5780601f106108025761010080835404028352916020019161082d565b820191906000526020600020905b81548152906001019060200180831161081057829003601f168201915b5050505050908060040154908060050160009054906101000a900460ff16908060060154908060070154905088565b600081519050919050565b600082825260208201905092915050565b6000819050602082019050919050565b6000819050919050565b61089b81610888565b82525050565b60006108ad8383610892565b60208301905092915050565b6000602082019050919050565b60006108d18261085c565b6108db8185610867565b93506108e683610878565b8060005b838110156109175781516108fe88826108a1565b9750610909836108b9565b9250506001810190506108ea565b5085935050505092915050565b6000602082019050818103600083015261093e81846108c6565b905092915050565b6000604051905090565b600080fd5b600080fd5b61096381610888565b811461096e57600080fd5b50565b6000813590506109808161095a565b92915050565b60006020828403121561099c5761099b610950565b5b60006109aa84828501610971565b91505092915050565b6109bc81610888565b82525050565b600081519050919050565b600082825260208201905092915050565b60005b838110156109fc5780820151818401526020810190506109e1565b60008484015250505050565b6000601f19601f8301169050919050565b6000610a24826109c2565b610a2e81856109cd565b9350610a3e8185602086016109de565b610a4781610a08565b840191505092915050565b600073ffffffffffffffffffffffffffffffffffffffff82169050919050565b6000610a7d82610a52565b9050919050565b610a8d81610a72565b82525050565b600060c082019050610aa860008301896109b3565b8181036020830152610aba8188610a19565b90508181036040830152610ace8187610a19565b9050610add6060830186610a84565b610aea60808301856109b3565b610af760a08301846109b3565b979650505050505050565b6000602082019050610b1760008301846109b3565b92915050565b60008115159050919050565b610b3281610b1d565b82525050565b6000602082019050610b4d6000830184610b29565b92915050565b600080fd5b600080fd5b7f4e487b7100000000000000000000000000000000000000000000000000000000600052604160045260246000fd5b610b9582610a08565b810181811067ffffffffffffffff82111715610bb457610bb3610b5d565b5b80604052505050565b6000610bc7610946565b9050610bd38282610b8c565b919050565b600067ffffffffffffffff821115610bf357610bf2610b5d565b5b610bfc82610a08565b9050602081019050919050565b82818337600083830152505050565b6000610c2b610c2684610bd8565b610bbd565b905082815260208101848484011115610c4757610c46610b58565b5b610c52848285610c09565b509392505050565b600082601f830112610c6f57610c6e610b53565b5b8135610c7f848260208601610c18565b91505092915050565b60008060008060808587031215610ca257610ca1610950565b5b600085013567ffffffffffffffff811115610cc057610cbf610955565b5b610ccc87828801610c5a565b945050602085013567ffffffffffffffff811115610ced57610cec610955565b5b610cf987828801610c5a565b9350506040610d0a87828801610971565b9250506060610d1b87828801610971565b91505092959194509250565b600061010082019050610d3d600083018b6109b3565b8181036020830152610d4f818a610a19565b9050610d5e6040830189610a84565b8181036060830152610d708188610a19565b9050610d7f60808301876109b3565b610d8c60a0830186610b29565b610d9960c08301856109b3565b610da660e08301846109b3565b9998505050505050505050565b7f4e487b7100000000000000000000000000000000000000000000000000000000600052602260045260246000fd5b60006002820490506001821680610dfa57607f821691505b602082108103610e0d57610e0c610db3565b5b50919050565b7f4475726174696f6e206d7573742062652067726561746572207468616e207a6560008201527f726f000000000000000000000000000000000000000000000000000000000000602082015250565b6000610e6f6022836109cd565b9150610e7a82610e13565b604082019050919050565b60006020820190508181036000830152610e9e81610e62565b9050919050565b7f4e487b7100000000000000000000000000000000000000000000000000000000600052601160045260246000fd5b6000610edf82610888565b9150610eea83610888565b9250828201905080821115610f0257610f01610ea5565b5b92915050565b60008190508160005260206000209050919050565b60006020601f8301049050919050565b60008160020a8302905092915050565b600060088302610f6d7fffffffffffffffffffffffffffffffffffffffffffffffffffffffffffffffff82610f2d565b610f778683610f2d565b95508019841693508086168417925050509392505050565b6000819050919050565b6000610fb4610faf610faa84610888565b610f8f565b610888565b9050919050565b6000819050919050565b610fce83610f99565b610fe2610fda82610fbb565b848454610f3d565b825550505050565b600090565b610ff7610fea565b611002818484610fc5565b505050565b5b818110156110265761101b600082610fef565b600181019050611008565b5050565b601f82111561106b5761103c81610f08565b61104584610f1d565b81016020851015611054578190505b61106861106085610f1d565b830182611007565b50505b505050565b60008160020a8304905092915050565b600061109160001984600802611070565b1980831691505092915050565b60006110aa8383611080565b9150826002028217905092915050565b6110c3826109c2565b67ffffffffffffffff8111156110dc576110db610b5d565b5b6110e68254610de2565b6110f182828561102a565b600060209050601f8311600181146111245760008415611112578287015190505b61111c858261109e565b865550611184565b601f19841661113286610f08565b60005b8281101561115a57848901518255600182019150602085019450602081019050611135565b868310156111775784890151611173601f891682611080565b8355505b6001600288020188555050505b505050505050565b600061119782610888565b91507fffffffffffffffffffffffffffffffffffffffffffffffffffffffffffffffff82036111c9576111c8610ea5565b5b600182019050919050565b60006111df82610888565b91506111ea83610888565b925082820390508181111561120257611201610ea5565b5b92915050565b600060e08201905061121d600083018a6109b3565b818103602083015261122f8189610a19565b905081810360408301526112438188610a19565b905061125260608301876109b3565b61125f6080830186610b29565b61126c60a08301856109b3565b61127960c08301846109b3565b9897505050505050505056fea2646970667358221220a2540297f1b46ff44fb49fcecabeb797ea33d1542fc1cc7548a68cc34d55678a64736f6c63430008150033",
  "immutableReferences": {},
  "source": "// SPDX-License-Identifier: MIT\r\npragma solidity ^0.8.0;\r\n\r\nimport \"./PatentBase.sol\";  // \r\n\r\ncontract PatentRegistry is PatentBase {\r\n    // \r\n     event PatentRegistered(\r\n        uint256 patentId,\r\n        string name,\r\n        address indexed owner,\r\n        string description,\r\n        uint256 price,\r\n        bool isForSale,\r\n        uint256 registrationTime,\r\n        uint256 expiryTime\r\n    );\r\n\r\n    mapping(address => uint256[]) private userPatents; //  => ID\r\n\r\n    function registerPatent(\r\n        string memory name,\r\n        string memory description,\r\n        uint256 duration,\r\n        uint256 price\r\n    ) public returns (uint256) {\r\n        // require(patents[patentCount].patentId == 0, \"Patent ID already exists\");\r\n        require(duration > 0, \"Duration must be greater than zero\");\r\n\r\n        // \r\n        patents[patentCount] = Patent({\r\n            patentId: patentCount,\r\n            patentName: name,              // \r\n            currentOwner: msg.sender,      // \r\n            description: description,      // \r\n            price: price,                  // \r\n            isForSale: true,          // \r\n            registrationTime: block.timestamp,  // \r\n            expiryTime: block.timestamp + duration  // \r\n        });\r\n\r\n        userPatents[msg.sender].push(patentCount);\r\n        patentCount++;\r\n\r\n        // \r\n        emit PatentRegistered(\r\n            patentCount - 1,\r\n            name,\r\n            msg.sender,\r\n            description,\r\n            price,\r\n            true,\r\n            block.timestamp,\r\n            block.timestamp + duration\r\n        );\r\n    }\r\n\r\n    // \r\n    function getPatent(uint256 patentId) public view returns (\r\n        uint256,\r\n        string memory,\r\n        string memory,\r\n        address,\r\n        uint256,\r\n        uint256\r\n    ) {\r\n        // require(patents[patentId].patentId != 0, \"Patent does not exist\");\r\n\r\n        Patent memory patent = patents[patentId];\r\n        return (\r\n            patent.patentId,\r\n            patent.patentName,\r\n            patent.description,\r\n            patent.currentOwner,\r\n            patent.registrationTime,\r\n            patent.expiryTime\r\n        );\r\n    }\r\n\r\n    // \r\n    function isPatentExpired(uint256 patentId) public view returns (bool) {\r\n        // require(patents[patentId].patentId != 0, \"Patent does not exist\");\r\n\r\n        return block.timestamp > patents[patentId].expiryTime;\r\n    }\r\n\r\n    // ID\r\n    function getUserPatents() public view returns (uint256[] memory) {\r\n        return userPatents[msg.sender];\r\n    }\r\n}\r\n",
  "sourcePath": "/Users/ethan/Education/Blockchain/patent-dapp/contracts/PatentRegistry.sol",
  "compiler": {
    "name": "solc",
    "version": "0.8.21+commit.d9974bed.Emscripten.clang"
  },
  "schemaVersion": "3.4.16",
  "updatedAt": "2024-12-21T10:24:52.275Z",
  "networkType": "ethereum",
  "devdoc": {
    "kind": "dev",
    "methods": {},
    "version": 1
  },
  "userdoc": {
    "kind": "user",
    "methods": {},
    "version": 1
  }
}