{
  "contractName": "PatentMarket",
  "abi": [
    {
      "anonymous": false,
      "inputs": [
        {
          "indexed": true,
          "internalType": "uint256",
          "name": "patentId",
          "type": "uint256"
        },
        {
          "indexed": true,
          "internalType": "address",
          "name": "infringer",
          "type": "address"
        }
      ],
      "name": "LegalActionTriggered",
      "type": "event"
    },
    {
      "anonymous": false,
      "inputs": [
        {
          "indexed": true,
          "internalType": "uint256",
          "name": "patentId",
          "type": "uint256"
        },
        {
          "indexed": true,
          "internalType": "address",
          "name": "user",
          "type": "address"
        }
      ],
      "name": "PatentAuthorizationRejected",
      "type": "event"
    },
    {
      "anonymous": false,
      "inputs": [
        {
          "indexed": true,
          "internalType": "uint256",
          "name": "patentId",
          "type": "uint256"
        },
        {
          "indexed": true,
          "internalType": "address",
          "name": "applicant",
          "type": "address"
        }
      ],
      "name": "PatentAuthorizationRequested",
      "type": "event"
    },
    {
      "anonymous": false,
      "inputs": [
        {
          "indexed": true,
          "internalType": "uint256",
          "name": "patentId",
          "type": "uint256"
        },
        {
          "indexed": true,
          "internalType": "address",
          "name": "user",
          "type": "address"
        }
      ],
      "name": "PatentAuthorized",
      "type": "event"
    },
    {
      "anonymous": false,
      "inputs": [
        {
          "indexed": true,
          "internalType": "uint256",
          "name": "patentId",
          "type": "uint256"
        },
        {
          "indexed": true,
          "internalType": "address",
          "name": "infringer",
          "type": "address"
        }
      ],
      "name": "PatentInfringementDetected",
      "type": "event"
    },
    {
      "anonymous": false,
      "inputs": [
        {
          "indexed": true,
          "internalType": "uint256",
          "name": "patentId",
          "type": "uint256"
        },
        {
          "indexed": false,
          "internalType": "string",
          "name": "name",
          "type": "string"
        },
        {
          "indexed": true,
          "internalType": "address",
          "name": "owner",
          "type": "address"
        },
        {
          "indexed": false,
          "internalType": "uint256",
          "name": "price",
          "type": "uint256"
        }
      ],
      "name": "PatentListed",
      "type": "event"
    },
    {
      "anonymous": false,
      "inputs": [
        {
          "indexed": false,
          "internalType": "uint256",
          "name": "patentId",
          "type": "uint256"
        },
        {
          "indexed": false,
          "internalType": "string",
          "name": "name",
          "type": "string"
        },
        {
          "indexed": true,
          "internalType": "address",
          "name": "owner",
          "type": "address"
        },
        {
          "indexed": false,
          "internalType": "string",
          "name": "description",
          "type": "string"
        },
        {
          "indexed": false,
          "internalType": "uint256",
          "name": "price",
          "type": "uint256"
        },
        {
          "indexed": false,
          "internalType": "bool",
          "name": "isForSale",
          "type": "bool"
        },
        {
          "indexed": false,
          "internalType": "uint256",
          "name": "registrationTime",
          "type": "uint256"
        },
        {
          "indexed": false,
          "internalType": "uint256",
          "name": "expiryTime",
          "type": "uint256"
        }
      ],
      "name": "PatentRegistered",
      "type": "event"
    },
    {
      "anonymous": false,
      "inputs": [
        {
          "indexed": true,
          "internalType": "uint256",
          "name": "patentId",
          "type": "uint256"
        },
        {
          "indexed": false,
          "internalType": "string",
          "name": "name",
          "type": "string"
        },
        {
          "indexed": true,
          "internalType": "address",
          "name": "previousOwner",
          "type": "address"
        },
        {
          "indexed": true,
          "internalType": "address",
          "name": "newOwner",
          "type": "address"
        },
        {
          "indexed": false,
          "internalType": "uint256",
          "name": "price",
          "type": "uint256"
        }
      ],
      "name": "PatentSold",
      "type": "event"
    },
    {
      "anonymous": false,
      "inputs": [
        {
          "indexed": false,
          "internalType": "uint256",
          "name": "patentId",
          "type": "uint256"
        },
        {
          "indexed": false,
          "internalType": "address",
          "name": "user",
          "type": "address"
        },
        {
          "indexed": false,
          "internalType": "uint256",
          "name": "useTime",
          "type": "uint256"
        }
      ],
      "name": "PatentUsed",
      "type": "event"
    },
    {
      "inputs": [
        {
          "internalType": "uint256",
          "name": "",
          "type": "uint256"
        },
        {
          "internalType": "uint256",
          "name": "",
          "type": "uint256"
        }
      ],
      "name": "authorizationRequests",
      "outputs": [
        {
          "internalType": "address",
          "name": "applicant",
          "type": "address"
        },
        {
          "internalType": "uint256",
          "name": "patentId",
          "type": "uint256"
        },
        {
          "internalType": "uint256",
          "name": "requestTime",
          "type": "uint256"
        },
        {
          "internalType": "bool",
          "name": "approved",
          "type": "bool"
        }
      ],
      "stateMutability": "view",
      "type": "function",
      "constant": true
    },
    {
      "inputs": [
        {
          "internalType": "uint256",
          "name": "",
          "type": "uint256"
        },
        {
          "internalType": "address",
          "name": "",
          "type": "address"
        }
      ],
      "name": "authorizedUsers",
      "outputs": [
        {
          "internalType": "bool",
          "name": "",
          "type": "bool"
        }
      ],
      "stateMutability": "view",
      "type": "function",
      "constant": true
    },
    {
      "inputs": [
        {
          "internalType": "uint256",
          "name": "patentId",
          "type": "uint256"
        }
      ],
      "name": "getPatent",
      "outputs": [
        {
          "internalType": "uint256",
          "name": "",
          "type": "uint256"
        },
        {
          "internalType": "string",
          "name": "",
          "type": "string"
        },
        {
          "internalType": "string",
          "name": "",
          "type": "string"
        },
        {
          "internalType": "address",
          "name": "",
          "type": "address"
        },
        {
          "internalType": "uint256",
          "name": "",
          "type": "uint256"
        },
        {
          "internalType": "uint256",
          "name": "",
          "type": "uint256"
        }
      ],
      "stateMutability": "view",
      "type": "function",
      "constant": true
    },
    {
      "inputs": [],
      "name": "getUserPatents",
      "outputs": [
        {
          "internalType": "uint256[]",
          "name": "",
          "type": "uint256[]"
        }
      ],
      "stateMutability": "view",
      "type": "function",
      "constant": true
    },
    {
      "inputs": [
        {
          "internalType": "uint256",
          "name": "patentId",
          "type": "uint256"
        }
      ],
      "name": "isPatentExpired",
      "outputs": [
        {
          "internalType": "bool",
          "name": "",
          "type": "bool"
        }
      ],
      "stateMutability": "view",
      "type": "function",
      "constant": true
    },
    {
      "inputs": [],
      "name": "patentCount",
      "outputs": [
        {
          "internalType": "uint256",
          "name": "",
          "type": "uint256"
        }
      ],
      "stateMutability": "view",
      "type": "function",
      "constant": true
    },
    {
      "inputs": [
        {
          "internalType": "uint256",
          "name": "",
          "type": "uint256"
        }
      ],
      "name": "patents",
      "outputs": [
        {
          "internalType": "uint256",
          "name": "patentId",
          "type": "uint256"
        },
        {
          "internalType": "string",
          "name": "patentName",
          "type": "string"
        },
        {
          "internalType": "address",
          "name": "currentOwner",
          "type": "address"
        },
        {
          "internalType": "string",
          "name": "description",
          "type": "string"
        },
        {
          "internalType": "uint256",
          "name": "price",
          "type": "uint256"
        },
        {
          "internalType": "bool",
          "name": "isForSale",
          "type": "bool"
        },
        {
          "internalType": "uint256",
          "name": "registrationTime",
          "type": "uint256"
        },
        {
          "internalType": "uint256",
          "name": "expiryTime",
          "type": "uint256"
        }
      ],
      "stateMutability": "view",
      "type": "function",
      "constant": true
    },
    {
      "inputs": [
        {
          "internalType": "string",
          "name": "name",
          "type": "string"
        },
        {
          "internalType": "string",
          "name": "description",
          "type": "string"
        },
        {
          "internalType": "uint256",
          "name": "duration",
          "type": "uint256"
        }
      ],
      "name": "registerPatent",
      "outputs": [
        {
          "internalType": "uint256",
          "name": "",
          "type": "uint256"
        }
      ],
      "stateMutability": "nonpayable",
      "type": "function"
    },
    {
      "inputs": [
        {
          "internalType": "uint256",
          "name": "",
          "type": "uint256"
        },
        {
          "internalType": "uint256",
          "name": "",
          "type": "uint256"
        }
      ],
      "name": "useRecords",
      "outputs": [
        {
          "internalType": "uint256",
          "name": "patentId",
          "type": "uint256"
        },
        {
          "internalType": "address",
          "name": "user",
          "type": "address"
        },
        {
          "internalType": "uint256",
          "name": "useTime",
          "type": "uint256"
        },
        {
          "internalType": "bool",
          "name": "isAuthorized",
          "type": "bool"
        }
      ],
      "stateMutability": "view",
      "type": "function",
      "constant": true
    },
    {
      "inputs": [
        {
          "internalType": "uint256",
          "name": "patentId",
          "type": "uint256"
        },
        {
          "internalType": "uint256",
          "name": "price",
          "type": "uint256"
        }
      ],
      "name": "listForSale",
      "outputs": [],
      "stateMutability": "nonpayable",
      "type": "function"
    },
    {
      "inputs": [
        {
          "internalType": "uint256",
          "name": "patentId",
          "type": "uint256"
        }
      ],
      "name": "buyPatent",
      "outputs": [],
      "stateMutability": "payable",
      "type": "function",
      "payable": true
    },
    {
      "inputs": [
        {
          "internalType": "uint256",
          "name": "patentId",
          "type": "uint256"
        },
        {
          "internalType": "address",
          "name": "user",
          "type": "address"
        }
      ],
      "name": "canApplyForAuthorization",
      "outputs": [
        {
          "internalType": "bool",
          "name": "",
          "type": "bool"
        }
      ],
      "stateMutability": "view",
      "type": "function",
      "constant": true
    },
    {
      "inputs": [
        {
          "internalType": "uint256",
          "name": "patentId",
          "type": "uint256"
        }
      ],
      "name": "requestPatentAuthorization",
      "outputs": [],
      "stateMutability": "nonpayable",
      "type": "function"
    },
    {
      "inputs": [
        {
          "internalType": "uint256",
          "name": "patentId",
          "type": "uint256"
        },
        {
          "internalType": "address",
          "name": "user",
          "type": "address"
        }
      ],
      "name": "approveAuthorization",
      "outputs": [],
      "stateMutability": "nonpayable",
      "type": "function"
    },
    {
      "inputs": [
        {
          "internalType": "uint256",
          "name": "patentId",
          "type": "uint256"
        },
        {
          "internalType": "address",
          "name": "user",
          "type": "address"
        }
      ],
      "name": "rejectAuthorization",
      "outputs": [],
      "stateMutability": "nonpayable",
      "type": "function"
    },
    {
      "inputs": [
        {
          "internalType": "uint256",
          "name": "patentId",
          "type": "uint256"
        }
      ],
      "name": "usePatent",
      "outputs": [],
      "stateMutability": "nonpayable",
      "type": "function"
    },
    {
      "inputs": [
        {
          "internalType": "address",
          "name": "user",
          "type": "address"
        }
      ],
      "name": "getOwnedPatentsUseRecords",
      "outputs": [
        {
          "components": [
            {
              "internalType": "uint256",
              "name": "patentId",
              "type": "uint256"
            },
            {
              "internalType": "address",
              "name": "user",
              "type": "address"
            },
            {
              "internalType": "uint256",
              "name": "useTime",
              "type": "uint256"
            },
            {
              "internalType": "bool",
              "name": "isAuthorized",
              "type": "bool"
            }
          ],
          "internalType": "struct PatentMarket.UseRecord[]",
          "name": "",
          "type": "tuple[]"
        }
      ],
      "stateMutability": "view",
      "type": "function",
      "constant": true
    },
    {
      "inputs": [
        {
          "internalType": "uint256",
          "name": "patentId",
          "type": "uint256"
        },
        {
          "internalType": "address",
          "name": "user",
          "type": "address"
        }
      ],
      "name": "detectIllegalUse",
      "outputs": [
        {
          "internalType": "bool",
          "name": "",
          "type": "bool"
        }
      ],
      "stateMutability": "view",
      "type": "function",
      "constant": true
    },
    {
      "inputs": [
        {
          "internalType": "uint256",
          "name": "patentId",
          "type": "uint256"
        },
        {
          "internalType": "address",
          "name": "infringer",
          "type": "address"
        }
      ],
      "name": "triggerInfringementWarning",
      "outputs": [],
      "stateMutability": "nonpayable",
      "type": "function"
    },
    {
      "inputs": [
        {
          "internalType": "uint256",
          "name": "patentId",
          "type": "uint256"
        }
      ],
      "name": "getPatentInfo",
      "outputs": [
        {
          "components": [
            {
              "internalType": "uint256",
              "name": "patentId",
              "type": "uint256"
            },
            {
              "internalType": "string",
              "name": "patentName",
              "type": "string"
            },
            {
              "internalType": "address",
              "name": "currentOwner",
              "type": "address"
            },
            {
              "internalType": "string",
              "name": "description",
              "type": "string"
            },
            {
              "internalType": "uint256",
              "name": "price",
              "type": "uint256"
            },
            {
              "internalType": "bool",
              "name": "isForSale",
              "type": "bool"
            },
            {
              "internalType": "uint256",
              "name": "registrationTime",
              "type": "uint256"
            },
            {
              "internalType": "uint256",
              "name": "expiryTime",
              "type": "uint256"
            }
          ],
          "internalType": "struct PatentBase.Patent",
          "name": "",
          "type": "tuple"
        }
      ],
      "stateMutability": "view",
      "type": "function",
      "constant": true
    },
    {
      "inputs": [
        {
          "internalType": "uint256",
          "name": "patentId",
          "type": "uint256"
        }
      ],
      "name": "isPatentForSale",
      "outputs": [
        {
          "internalType": "bool",
          "name": "",
          "type": "bool"
        }
      ],
      "stateMutability": "view",
      "type": "function",
      "constant": true
    },
    {
      "inputs": [
        {
          "internalType": "uint256",
          "name": "patentId",
          "type": "uint256"
        },
        {
          "internalType": "address",
          "name": "user",
          "type": "address"
        }
      ],
      "name": "isAuthorizedUser",
      "outputs": [
        {
          "internalType": "bool",
          "name": "",
          "type": "bool"
        }
      ],
      "stateMutability": "view",
      "type": "function",
      "constant": true
    },
    {
      "inputs": [
        {
          "internalType": "address",
          "name": "user",
          "type": "address"
        }
      ],
      "name": "fetchMarketPatents",
      "outputs": [
        {
          "components": [
            {
              "internalType": "uint256",
              "name": "patentId",
              "type": "uint256"
            },
            {
              "internalType": "string",
              "name": "patentName",
              "type": "string"
            },
            {
              "internalType": "address",
              "name": "currentOwner",
              "type": "address"
            },
            {
              "internalType": "string",
              "name": "description",
              "type": "string"
            },
            {
              "internalType": "uint256",
              "name": "price",
              "type": "uint256"
            },
            {
              "internalType": "bool",
              "name": "isForSale",
              "type": "bool"
            },
            {
              "internalType": "uint256",
              "name": "registrationTime",
              "type": "uint256"
            },
            {
              "internalType": "uint256",
              "name": "expiryTime",
              "type": "uint256"
            }
          ],
          "internalType": "struct PatentBase.Patent[]",
          "name": "",
          "type": "tuple[]"
        }
      ],
      "stateMutability": "view",
      "type": "function",
      "constant": true
    },
    {
      "inputs": [
        {
          "internalType": "address",
          "name": "user",
          "type": "address"
        }
      ],
      "name": "fetchPatentsCanSale",
      "outputs": [
        {
          "components": [
            {
              "internalType": "uint256",
              "name": "patentId",
              "type": "uint256"
            },
            {
              "internalType": "string",
              "name": "patentName",
              "type": "string"
            },
            {
              "internalType": "address",
              "name": "currentOwner",
              "type": "address"
            },
            {
              "internalType": "string",
              "name": "description",
              "type": "string"
            },
            {
              "internalType": "uint256",
              "name": "price",
              "type": "uint256"
            },
            {
              "internalType": "bool",
              "name": "isForSale",
              "type": "bool"
            },
            {
              "internalType": "uint256",
              "name": "registrationTime",
              "type": "uint256"
            },
            {
              "internalType": "uint256",
              "name": "expiryTime",
              "type": "uint256"
            }
          ],
          "internalType": "struct PatentBase.Patent[]",
          "name": "",
          "type": "tuple[]"
        }
      ],
      "stateMutability": "view",
      "type": "function",
      "constant": true
    }
  ],
  "bytecode": "0x608060405234801561001057600080fd5b5060016000819055506142ef806100286000396000f3fe608060405260043610610168576000357c0100000000000000000000000000000000000000000000000000000000900480639c6d0d78116100d3578063bf7b64041161008c578063bf7b640414610541578063cdba68b91461057e578063e80d7fec146105bb578063f1d908dd146105e4578063f422bc681461060d578063fdc4294f1461065157610168565b80639c6d0d78146103f4578063a1ab74b914610436578063a20b7d1b14610473578063a5663a9f1461049c578063b084c841146104d9578063b735a3ff1461050457610168565b806357cbe3cf1161012557806357cbe3cf1461029757806361d38b17146102d45780636cd5ae34146102fd578063763d19d41461033a5780638c20cc4d1461037a57806396a6bb32146103b757610168565b806309e6baf11461016d57806313b356ad146101985780631c1bff89146101b45780632807745f146101dd5780634864810d1461021d578063540ce76b1461025a575b600080fd5b34801561017957600080fd5b5061018261067a565b60405161018f9190612dc2565b60405180910390f35b6101b260048036038101906101ad9190612e24565b61070f565b005b3480156101c057600080fd5b506101db60048036038101906101d69190612eaf565b610902565b005b3480156101e957600080fd5b5061020460048036038101906101ff9190612eef565b610bfd565b6040516102149493929190612f68565b60405180910390f35b34801561022957600080fd5b50610244600480360381019061023f91906130f3565b610c77565b604051610251919061317e565b60405180910390f35b34801561026657600080fd5b50610281600480360381019061027c9190613199565b610ee8565b60405161028e91906132e8565b60405180910390f35b3480156102a357600080fd5b506102be60048036038101906102b99190613199565b611197565b6040516102cb9190613502565b60405180910390f35b3480156102e057600080fd5b506102fb60048036038101906102f69190612eaf565b61156a565b005b34801561030957600080fd5b50610324600480360381019061031f9190612e24565b6117fc565b60405161033191906135db565b60405180910390f35b34801561034657600080fd5b50610361600480360381019061035c9190612eef565b6119e7565b60405161037194939291906135fd565b60405180910390f35b34801561038657600080fd5b506103a1600480360381019061039c9190612eaf565b611a61565b6040516103ae9190613642565b60405180910390f35b3480156103c357600080fd5b506103de60048036038101906103d99190613199565b611b3b565b6040516103eb9190613502565b60405180910390f35b34801561040057600080fd5b5061041b60048036038101906104169190612e24565b611f29565b60405161042d969594939291906136a7565b60405180910390f35b34801561044257600080fd5b5061045d60048036038101906104589190612e24565b61219f565b60405161046a9190613642565b60405180910390f35b34801561047f57600080fd5b5061049a60048036038101906104959190612e24565b6121cc565b005b3480156104a857600080fd5b506104c360048036038101906104be9190612eaf565b6123fc565b6040516104d09190613642565b60405180910390f35b3480156104e557600080fd5b506104ee61242b565b6040516104fb919061317e565b60405180910390f35b34801561051057600080fd5b5061052b60048036038101906105269190612eaf565b612431565b6040516105389190613642565b60405180910390f35b34801561054d57600080fd5b5061056860048036038101906105639190612e24565b61254e565b6040516105759190613642565b60405180910390f35b34801561058a57600080fd5b506105a560048036038101906105a09190612eaf565b6125c8565b6040516105b29190613642565b60405180910390f35b3480156105c757600080fd5b506105e260048036038101906105dd9190612eef565b612630565b005b3480156105f057600080fd5b5061060b60048036038101906106069190612e24565b6127b0565b005b34801561061957600080fd5b50610634600480360381019061062f9190612e24565b612a47565b604051610648989796959493929190613716565b60405180910390f35b34801561065d57600080fd5b5061067860048036038101906106739190612eaf565b612bcc565b005b6060600260003373ffffffffffffffffffffffffffffffffffffffff1673ffffffffffffffffffffffffffffffffffffffff16815260200190815260200160002080548060200260200160405190810160405280929190818152602001828054801561070557602002820191906000526020600020905b8154815260200190600101908083116106f1575b5050505050905090565b60006001600083815260200190815260200160002090508060050160009054906101000a900460ff16610777576040517f08c379a000000000000000000000000000000000000000000000000000000000815260040161076e906137ee565b60405180910390fd5b80600401543410156107be576040517f08c379a00000000000000000000000000000000000000000000000000000000081526004016107b59061385a565b60405180910390fd5b60008160020160009054906101000a900473ffffffffffffffffffffffffffffffffffffffff169050338260020160006101000a81548173ffffffffffffffffffffffffffffffffffffffff021916908373ffffffffffffffffffffffffffffffffffffffff16021790555060008260050160006101000a81548160ff0219169083151502179055508073ffffffffffffffffffffffffffffffffffffffff166108fc349081150290604051600060405180830381858888f1935050505015801561088d573d6000803e3d6000fd5b503373ffffffffffffffffffffffffffffffffffffffff168173ffffffffffffffffffffffffffffffffffffffff16847fd4087db499dd31cfde1d9403da6a531c3913cb1197f78312d5ca5eff555082f78560010186600401546040516108f5929190613973565b60405180910390a4505050565b3373ffffffffffffffffffffffffffffffffffffffff166001600084815260200190815260200160002060020160009054906101000a900473ffffffffffffffffffffffffffffffffffffffff1673ffffffffffffffffffffffffffffffffffffffff16146109a6576040517f08c379a000000000000000000000000000000000000000000000000000000000815260040161099d906139ef565b60405180910390fd5b6000805b6004600085815260200190815260200160002080549050811015610bb7578273ffffffffffffffffffffffffffffffffffffffff16600460008681526020019081526020016000208281548110610a0457610a03613a0f565b5b906000526020600020906004020160000160009054906101000a900473ffffffffffffffffffffffffffffffffffffffff1673ffffffffffffffffffffffffffffffffffffffff16148015610a9a5750600460008581526020019081526020016000208181548110610a7957610a78613a0f565b5b906000526020600020906004020160030160009054906101000a900460ff16155b15610ba4576001600460008681526020019081526020016000208281548110610ac657610ac5613a0f565b5b906000526020600020906004020160030160006101000a81548160ff02191690831515021790555060016003600086815260200190815260200160002060008573ffffffffffffffffffffffffffffffffffffffff1673ffffffffffffffffffffffffffffffffffffffff16815260200190815260200160002060006101000a81548160ff0219169083151502179055508273ffffffffffffffffffffffffffffffffffffffff16847f26273e1af82ccbf7153502c23c0b3d69e41c3e2f27a9f6d1472bab8eeb878f3b60405160405180910390a360019150610bb7565b8080610baf90613a6d565b9150506109aa565b5080610bf8576040517f08c379a0000000000000000000000000000000000000000000000000000000008152600401610bef90613b27565b60405180910390fd5b505050565b60046020528160005260406000208181548110610c1957600080fd5b9060005260206000209060040201600091509150508060000160009054906101000a900473ffffffffffffffffffffffffffffffffffffffff16908060010154908060020154908060030160009054906101000a900460ff16905084565b6000808211610cbb576040517f08c379a0000000000000000000000000000000000000000000000000000000008152600401610cb290613bb9565b60405180910390fd5b60405180610100016040528060005481526020018581526020013373ffffffffffffffffffffffffffffffffffffffff168152602001848152602001600081526020016000151581526020014281526020018342610d199190613bd9565b8152506001600080548152602001908152602001600020600082015181600001556020820151816001019081610d4f9190613daa565b5060408201518160020160006101000a81548173ffffffffffffffffffffffffffffffffffffffff021916908373ffffffffffffffffffffffffffffffffffffffff1602179055506060820151816003019081610dac9190613daa565b506080820151816004015560a08201518160050160006101000a81548160ff02191690831515021790555060c0820151816006015560e08201518160070155905050600260003373ffffffffffffffffffffffffffffffffffffffff1673ffffffffffffffffffffffffffffffffffffffff1681526020019081526020016000206000549080600181540180825580915050600190039060005260206000200160009091909190915055600080815480929190610e6890613a6d565b91905055503373ffffffffffffffffffffffffffffffffffffffff167ffe35dd0a2a2b1a13a2ecfe9e9714cbb3430db7ca9c258e25e74ba7c432721fbb6001600054610eb49190613e7c565b8686600080428942610ec69190613bd9565b604051610ed99796959493929190613eeb565b60405180910390a29392505050565b60606000805b600054811015610f83578373ffffffffffffffffffffffffffffffffffffffff166001600083815260200190815260200160002060020160009054906101000a900473ffffffffffffffffffffffffffffffffffffffff1673ffffffffffffffffffffffffffffffffffffffff1603610f70578180610f6c90613a6d565b9250505b8080610f7b90613a6d565b915050610eee565b5060008167ffffffffffffffff811115610fa057610f9f612fc8565b5b604051908082528060200260200182016040528015610fd957816020015b610fc6612c5d565b815260200190600190039081610fbe5790505b5090506000805b60005481101561118b578573ffffffffffffffffffffffffffffffffffffffff166001600083815260200190815260200160002060020160009054906101000a900473ffffffffffffffffffffffffffffffffffffffff1673ffffffffffffffffffffffffffffffffffffffff16036111785760005b60056000838152602001908152602001600020805490508110156111765760056000838152602001908152602001600020818154811061109957611098613a0f565b5b9060005260206000209060040201604051806080016040529081600082015481526020016001820160009054906101000a900473ffffffffffffffffffffffffffffffffffffffff1673ffffffffffffffffffffffffffffffffffffffff1673ffffffffffffffffffffffffffffffffffffffff168152602001600282015481526020016003820160009054906101000a900460ff16151515158152505084848151811061114a57611149613a0f565b5b6020026020010181905250828061116090613a6d565b935050808061116e90613a6d565b915050611056565b505b808061118390613a6d565b915050610fe0565b50819350505050919050565b6060600080805467ffffffffffffffff8111156111b7576111b6612fc8565b5b6040519080825280602002602001820160405280156111e55781602001602082028036833780820191505090505b50905060005b60005481116112cd576001600082815260200190815260200160002060050160009054906101000a900460ff16801561128657508473ffffffffffffffffffffffffffffffffffffffff166001600083815260200190815260200160002060020160009054906101000a900473ffffffffffffffffffffffffffffffffffffffff1673ffffffffffffffffffffffffffffffffffffffff1614155b156112ba578082848151811061129f5761129e613a0f565b5b60200260200101818152505082806112b690613a6d565b9350505b80806112c590613a6d565b9150506111eb565b5060008267ffffffffffffffff8111156112ea576112e9612fc8565b5b60405190808252806020026020018201604052801561132357816020015b611310612c9d565b8152602001906001900390816113085790505b50905060005b8381101561155e57600083828151811061134657611345613a0f565b5b60200260200101519050600160008281526020019081526020016000206040518061010001604052908160008201548152602001600182018054611389906138a9565b80601f01602080910402602001604051908101604052809291908181526020018280546113b5906138a9565b80156114025780601f106113d757610100808354040283529160200191611402565b820191906000526020600020905b8154815290600101906020018083116113e557829003601f168201915b505050505081526020016002820160009054906101000a900473ffffffffffffffffffffffffffffffffffffffff1673ffffffffffffffffffffffffffffffffffffffff1673ffffffffffffffffffffffffffffffffffffffff168152602001600382018054611471906138a9565b80601f016020809104026020016040519081016040528092919081815260200182805461149d906138a9565b80156114ea5780601f106114bf576101008083540402835291602001916114ea565b820191906000526020600020905b8154815290600101906020018083116114cd57829003601f168201915b50505050508152602001600482015481526020016005820160009054906101000a900460ff161515151581526020016006820154815260200160078201548152505083838151811061153f5761153e613a0f565b5b602002602001018190525050808061155690613a6d565b915050611329565b50809350505050919050565b3373ffffffffffffffffffffffffffffffffffffffff166001600084815260200190815260200160002060020160009054906101000a900473ffffffffffffffffffffffffffffffffffffffff1673ffffffffffffffffffffffffffffffffffffffff161461160e576040517f08c379a000000000000000000000000000000000000000000000000000000000815260040161160590613fb4565b60405180910390fd5b6000805b60046000858152602001908152602001600020805490508110156117b6578273ffffffffffffffffffffffffffffffffffffffff1660046000868152602001908152602001600020828154811061166c5761166b613a0f565b5b906000526020600020906004020160000160009054906101000a900473ffffffffffffffffffffffffffffffffffffffff1673ffffffffffffffffffffffffffffffffffffffff1614801561170257506004600085815260200190815260200160002081815481106116e1576116e0613a0f565b5b906000526020600020906004020160030160009054906101000a900460ff16155b156117a357600060046000868152602001908152602001600020828154811061172e5761172d613a0f565b5b906000526020600020906004020160030160006101000a81548160ff0219169083151502179055508273ffffffffffffffffffffffffffffffffffffffff16847f7f199c4b273ac707d8aaef42f3549b0b7b0293254783ddb899c8e82bbb5bddce60405160405180910390a3600191506117b6565b80806117ae90613a6d565b915050611612565b50806117f7576040517f08c379a00000000000000000000000000000000000000000000000000000000081526004016117ee90613b27565b60405180910390fd5b505050565b611804612c9d565b60016000838152602001908152602001600020604051806101000160405290816000820154815260200160018201805461183d906138a9565b80601f0160208091040260200160405190810160405280929190818152602001828054611869906138a9565b80156118b65780601f1061188b576101008083540402835291602001916118b6565b820191906000526020600020905b81548152906001019060200180831161189957829003601f168201915b505050505081526020016002820160009054906101000a900473ffffffffffffffffffffffffffffffffffffffff1673ffffffffffffffffffffffffffffffffffffffff1673ffffffffffffffffffffffffffffffffffffffff168152602001600382018054611925906138a9565b80601f0160208091040260200160405190810160405280929190818152602001828054611951906138a9565b801561199e5780601f106119735761010080835404028352916020019161199e565b820191906000526020600020905b81548152906001019060200180831161198157829003601f168201915b50505050508152602001600482015481526020016005820160009054906101000a900460ff16151515158152602001600682015481526020016007820154815250509050919050565b60056020528160005260406000208181548110611a0357600080fd5b9060005260206000209060040201600091509150508060000154908060010160009054906101000a900473ffffffffffffffffffffffffffffffffffffffff16908060020154908060030160009054906101000a900460ff16905084565b6000806001600085815260200190815260200160002060020160009054906101000a900473ffffffffffffffffffffffffffffffffffffffff1673ffffffffffffffffffffffffffffffffffffffff168373ffffffffffffffffffffffffffffffffffffffff161480611b2e57506003600085815260200190815260200160002060008473ffffffffffffffffffffffffffffffffffffffff1673ffffffffffffffffffffffffffffffffffffffff16815260200190815260200160002060009054906101000a900460ff165b9050801591505092915050565b60606000805b600054811015611c04578373ffffffffffffffffffffffffffffffffffffffff166001600083815260200190815260200160002060020160009054906101000a900473ffffffffffffffffffffffffffffffffffffffff1673ffffffffffffffffffffffffffffffffffffffff16148015611bdd57506001600082815260200190815260200160002060050160009054906101000a900460ff16155b15611bf1578180611bed90613a6d565b9250505b8080611bfc90613a6d565b915050611b41565b5060008167ffffffffffffffff811115611c2157611c20612fc8565b5b604051908082528060200260200182016040528015611c5a57816020015b611c47612c9d565b815260200190600190039081611c3f5790505b5090506000805b600054811015611f1d578573ffffffffffffffffffffffffffffffffffffffff166001600083815260200190815260200160002060020160009054906101000a900473ffffffffffffffffffffffffffffffffffffffff1673ffffffffffffffffffffffffffffffffffffffff16148015611cfc57506001600082815260200190815260200160002060050160009054906101000a900460ff165b15611f0a57600160008281526020019081526020016000206040518061010001604052908160008201548152602001600182018054611d3a906138a9565b80601f0160208091040260200160405190810160405280929190818152602001828054611d66906138a9565b8015611db35780601f10611d8857610100808354040283529160200191611db3565b820191906000526020600020905b815481529060010190602001808311611d9657829003601f168201915b505050505081526020016002820160009054906101000a900473ffffffffffffffffffffffffffffffffffffffff1673ffffffffffffffffffffffffffffffffffffffff1673ffffffffffffffffffffffffffffffffffffffff168152602001600382018054611e22906138a9565b80601f0160208091040260200160405190810160405280929190818152602001828054611e4e906138a9565b8015611e9b5780601f10611e7057610100808354040283529160200191611e9b565b820191906000526020600020905b815481529060010190602001808311611e7e57829003601f168201915b50505050508152602001600482015481526020016005820160009054906101000a900460ff1615151515815260200160068201548152602001600782015481525050838381518110611ef057611eef613a0f565b5b60200260200101819052508180611f0690613a6d565b9250505b8080611f1590613a6d565b915050611c61565b50819350505050919050565b6000606080600080600080600160008981526020019081526020016000206000015403611f8b576040517f08c379a0000000000000000000000000000000000000000000000000000000008152600401611f8290614020565b60405180910390fd5b6000600160008981526020019081526020016000206040518061010001604052908160008201548152602001600182018054611fc6906138a9565b80601f0160208091040260200160405190810160405280929190818152602001828054611ff2906138a9565b801561203f5780601f106120145761010080835404028352916020019161203f565b820191906000526020600020905b81548152906001019060200180831161202257829003601f168201915b505050505081526020016002820160009054906101000a900473ffffffffffffffffffffffffffffffffffffffff1673ffffffffffffffffffffffffffffffffffffffff1673ffffffffffffffffffffffffffffffffffffffff1681526020016003820180546120ae906138a9565b80601f01602080910402602001604051908101604052809291908181526020018280546120da906138a9565b80156121275780601f106120fc57610100808354040283529160200191612127565b820191906000526020600020905b81548152906001019060200180831161210a57829003601f168201915b50505050508152602001600482015481526020016005820160009054906101000a900460ff1615151515815260200160068201548152602001600782015481525050905080600001518160200151826060015183604001518460c001518560e001519650965096509650965096505091939550919395565b60006001600083815260200190815260200160002060050160009054906101000a900460ff169050919050565b80600160008381526020019081526020016000206000015414612224576040517f08c379a000000000000000000000000000000000000000000000000000000000815260040161221b90614020565b60405180910390fd5b6003600082815260200190815260200160002060003373ffffffffffffffffffffffffffffffffffffffff1673ffffffffffffffffffffffffffffffffffffffff16815260200190815260200160002060009054906101000a900460ff16156122c2576040517f08c379a00000000000000000000000000000000000000000000000000000000081526004016122b99061408c565b60405180910390fd5b6004600082815260200190815260200160002060405180608001604052803373ffffffffffffffffffffffffffffffffffffffff16815260200183815260200142815260200160001515815250908060018154018082558091505060019003906000526020600020906004020160009091909190915060008201518160000160006101000a81548173ffffffffffffffffffffffffffffffffffffffff021916908373ffffffffffffffffffffffffffffffffffffffff160217905550602082015181600101556040820151816002015560608201518160030160006101000a81548160ff02191690831515021790555050503373ffffffffffffffffffffffffffffffffffffffff16817fe9e3c8549c5502ab4b191ecaed1656277f749183703fe647e892b34c6cd8b7d160405160405180910390a350565b60036020528160005260406000206020528060005260406000206000915091509054906101000a900460ff1681565b60005481565b60006001600084815260200190815260200160002060020160009054906101000a900473ffffffffffffffffffffffffffffffffffffffff1673ffffffffffffffffffffffffffffffffffffffff168273ffffffffffffffffffffffffffffffffffffffff16036124a55760009050612548565b6003600084815260200190815260200160002060008373ffffffffffffffffffffffffffffffffffffffff1673ffffffffffffffffffffffffffffffffffffffff16815260200190815260200160002060009054906101000a900460ff16156125115760009050612548565b6001600084815260200190815260200160002060050160009054906101000a900460ff16156125435760009050612548565b600190505b92915050565b6000806001600084815260200190815260200160002060000154036125a8576040517f08c379a000000000000000000000000000000000000000000000000000000000815260040161259f90614020565b60405180910390fd5b600160008381526020019081526020016000206007015442119050919050565b60006003600084815260200190815260200160002060008373ffffffffffffffffffffffffffffffffffffffff1673ffffffffffffffffffffffffffffffffffffffff16815260200190815260200160002060009054906101000a900460ff16905092915050565b60006001600084815260200190815260200160002090503373ffffffffffffffffffffffffffffffffffffffff168160020160009054906101000a900473ffffffffffffffffffffffffffffffffffffffff1673ffffffffffffffffffffffffffffffffffffffff16146126d9576040517f08c379a00000000000000000000000000000000000000000000000000000000081526004016126d0906140f8565b60405180910390fd5b600015158160050160009054906101000a900460ff16151514612731576040517f08c379a000000000000000000000000000000000000000000000000000000000815260040161272890614164565b60405180910390fd5b81816004018190555060018160050160006101000a81548160ff0219169083151502179055503373ffffffffffffffffffffffffffffffffffffffff16837fa8c5d983dc7078455ae436e4ed5b3b05a1adbac2a83405e0c3af5b07b22620e683600101856040516127a3929190613973565b60405180910390a3505050565b80600160008381526020019081526020016000206000015414612808576040517f08c379a00000000000000000000000000000000000000000000000000000000081526004016127ff90614020565b60405180910390fd5b60006001600083815260200190815260200160002060020160009054906101000a900473ffffffffffffffffffffffffffffffffffffffff1673ffffffffffffffffffffffffffffffffffffffff163373ffffffffffffffffffffffffffffffffffffffff1614806128d457506003600083815260200190815260200160002060003373ffffffffffffffffffffffffffffffffffffffff1673ffffffffffffffffffffffffffffffffffffffff16815260200190815260200160002060009054906101000a900460ff165b90506005600083815260200190815260200160002060405180608001604052808481526020013373ffffffffffffffffffffffffffffffffffffffff16815260200142815260200183151581525090806001815401808255809150506001900390600052602060002090600402016000909190919091506000820151816000015560208201518160010160006101000a81548173ffffffffffffffffffffffffffffffffffffffff021916908373ffffffffffffffffffffffffffffffffffffffff1602179055506040820151816002015560608201518160030160006101000a81548160ff021916908315150217905550505080612a08576040517f08c379a00000000000000000000000000000000000000000000000000000000081526004016129ff906141f6565b60405180910390fd5b7fc083bacf997f451c75aafe358644c360f105a04631d5fea550402e38a1c5f76e823342604051612a3b93929190614216565b60405180910390a15050565b6001602052806000526040600020600091509050806000015490806001018054612a70906138a9565b80601f0160208091040260200160405190810160405280929190818152602001828054612a9c906138a9565b8015612ae95780601f10612abe57610100808354040283529160200191612ae9565b820191906000526020600020905b815481529060010190602001808311612acc57829003601f168201915b5050505050908060020160009054906101000a900473ffffffffffffffffffffffffffffffffffffffff1690806003018054612b24906138a9565b80601f0160208091040260200160405190810160405280929190818152602001828054612b50906138a9565b8015612b9d5780601f10612b7257610100808354040283529160200191612b9d565b820191906000526020600020905b815481529060010190602001808311612b8057829003601f168201915b5050505050908060040154908060050160009054906101000a900460ff16908060060154908060070154905088565b612bd68282611a61565b612c15576040517f08c379a0000000000000000000000000000000000000000000000000000000008152600401612c0c90614299565b60405180910390fd5b8073ffffffffffffffffffffffffffffffffffffffff16827fdfaf16f598115f57c2553188dd0d6de487047f89c9529b994266f45c892b415960405160405180910390a35050565b604051806080016040528060008152602001600073ffffffffffffffffffffffffffffffffffffffff168152602001600081526020016000151581525090565b6040518061010001604052806000815260200160608152602001600073ffffffffffffffffffffffffffffffffffffffff168152602001606081526020016000815260200160001515815260200160008152602001600081525090565b600081519050919050565b600082825260208201905092915050565b6000819050602082019050919050565b6000819050919050565b612d3981612d26565b82525050565b6000612d4b8383612d30565b60208301905092915050565b6000602082019050919050565b6000612d6f82612cfa565b612d798185612d05565b9350612d8483612d16565b8060005b83811015612db5578151612d9c8882612d3f565b9750612da783612d57565b925050600181019050612d88565b5085935050505092915050565b60006020820190508181036000830152612ddc8184612d64565b905092915050565b6000604051905090565b600080fd5b600080fd5b612e0181612d26565b8114612e0c57600080fd5b50565b600081359050612e1e81612df8565b92915050565b600060208284031215612e3a57612e39612dee565b5b6000612e4884828501612e0f565b91505092915050565b600073ffffffffffffffffffffffffffffffffffffffff82169050919050565b6000612e7c82612e51565b9050919050565b612e8c81612e71565b8114612e9757600080fd5b50565b600081359050612ea981612e83565b92915050565b60008060408385031215612ec657612ec5612dee565b5b6000612ed485828601612e0f565b9250506020612ee585828601612e9a565b9150509250929050565b60008060408385031215612f0657612f05612dee565b5b6000612f1485828601612e0f565b9250506020612f2585828601612e0f565b9150509250929050565b612f3881612e71565b82525050565b612f4781612d26565b82525050565b60008115159050919050565b612f6281612f4d565b82525050565b6000608082019050612f7d6000830187612f2f565b612f8a6020830186612f3e565b612f976040830185612f3e565b612fa46060830184612f59565b95945050505050565b600080fd5b600080fd5b6000601f19601f8301169050919050565b7f4e487b7100000000000000000000000000000000000000000000000000000000600052604160045260246000fd5b61300082612fb7565b810181811067ffffffffffffffff8211171561301f5761301e612fc8565b5b80604052505050565b6000613032612de4565b905061303e8282612ff7565b919050565b600067ffffffffffffffff82111561305e5761305d612fc8565b5b61306782612fb7565b9050602081019050919050565b82818337600083830152505050565b600061309661309184613043565b613028565b9050828152602081018484840111156130b2576130b1612fb2565b5b6130bd848285613074565b509392505050565b600082601f8301126130da576130d9612fad565b5b81356130ea848260208601613083565b91505092915050565b60008060006060848603121561310c5761310b612dee565b5b600084013567ffffffffffffffff81111561312a57613129612df3565b5b613136868287016130c5565b935050602084013567ffffffffffffffff81111561315757613156612df3565b5b613163868287016130c5565b925050604061317486828701612e0f565b9150509250925092565b60006020820190506131936000830184612f3e565b92915050565b6000602082840312156131af576131ae612dee565b5b60006131bd84828501612e9a565b91505092915050565b600081519050919050565b600082825260208201905092915050565b6000819050602082019050919050565b6131fb81612e71565b82525050565b61320a81612f4d565b82525050565b6080820160008201516132266000850182612d30565b50602082015161323960208501826131f2565b50604082015161324c6040850182612d30565b50606082015161325f6060850182613201565b50505050565b60006132718383613210565b60808301905092915050565b6000602082019050919050565b6000613295826131c6565b61329f81856131d1565b93506132aa836131e2565b8060005b838110156132db5781516132c28882613265565b97506132cd8361327d565b9250506001810190506132ae565b5085935050505092915050565b60006020820190508181036000830152613302818461328a565b905092915050565b600081519050919050565b600082825260208201905092915050565b6000819050602082019050919050565b600081519050919050565b600082825260208201905092915050565b60005b83811015613370578082015181840152602081019050613355565b60008484015250505050565b600061338782613336565b6133918185613341565b93506133a1818560208601613352565b6133aa81612fb7565b840191505092915050565b6000610100830160008301516133ce6000860182612d30565b50602083015184820360208601526133e6828261337c565b91505060408301516133fb60408601826131f2565b5060608301518482036060860152613413828261337c565b91505060808301516134286080860182612d30565b5060a083015161343b60a0860182613201565b5060c083015161344e60c0860182612d30565b5060e083015161346160e0860182612d30565b508091505092915050565b600061347883836133b5565b905092915050565b6000602082019050919050565b60006134988261330a565b6134a28185613315565b9350836020820285016134b485613326565b8060005b858110156134f057848403895281516134d1858261346c565b94506134dc83613480565b925060208a019950506001810190506134b8565b50829750879550505050505092915050565b6000602082019050818103600083015261351c818461348d565b905092915050565b60006101008301600083015161353d6000860182612d30565b5060208301518482036020860152613555828261337c565b915050604083015161356a60408601826131f2565b5060608301518482036060860152613582828261337c565b91505060808301516135976080860182612d30565b5060a08301516135aa60a0860182613201565b5060c08301516135bd60c0860182612d30565b5060e08301516135d060e0860182612d30565b508091505092915050565b600060208201905081810360008301526135f58184613524565b905092915050565b60006080820190506136126000830187612f3e565b61361f6020830186612f2f565b61362c6040830185612f3e565b6136396060830184612f59565b95945050505050565b60006020820190506136576000830184612f59565b92915050565b600082825260208201905092915050565b600061367982613336565b613683818561365d565b9350613693818560208601613352565b61369c81612fb7565b840191505092915050565b600060c0820190506136bc6000830189612f3e565b81810360208301526136ce818861366e565b905081810360408301526136e2818761366e565b90506136f16060830186612f2f565b6136fe6080830185612f3e565b61370b60a0830184612f3e565b979650505050505050565b60006101008201905061372c600083018b612f3e565b818103602083015261373e818a61366e565b905061374d6040830189612f2f565b818103606083015261375f818861366e565b905061376e6080830187612f3e565b61377b60a0830186612f59565b61378860c0830185612f3e565b61379560e0830184612f3e565b9998505050505050505050565b7f506174656e74206973206e6f7420666f722073616c6500000000000000000000600082015250565b60006137d860168361365d565b91506137e3826137a2565b602082019050919050565b60006020820190508181036000830152613807816137cb565b9050919050565b7f496e73756666696369656e742066756e647320746f2062757920706174656e74600082015250565b600061384460208361365d565b915061384f8261380e565b602082019050919050565b6000602082019050818103600083015261387381613837565b9050919050565b7f4e487b7100000000000000000000000000000000000000000000000000000000600052602260045260246000fd5b600060028204905060018216806138c157607f821691505b6020821081036138d4576138d361387a565b5b50919050565b60008190508160005260206000209050919050565b600081546138fc816138a9565b613906818661365d565b9450600182166000811461392157600181146139375761396a565b60ff19831686528115156020028601935061396a565b613940856138da565b60005b8381101561396257815481890152600182019150602081019050613943565b808801955050505b50505092915050565b6000604082019050818103600083015261398d81856138ef565b905061399c6020830184612f3e565b9392505050565b7f4f6e6c7920746865206f776e65722063616e20617070726f7665000000000000600082015250565b60006139d9601a8361365d565b91506139e4826139a3565b602082019050919050565b60006020820190508181036000830152613a08816139cc565b9050919050565b7f4e487b7100000000000000000000000000000000000000000000000000000000600052603260045260246000fd5b7f4e487b7100000000000000000000000000000000000000000000000000000000600052601160045260246000fd5b6000613a7882612d26565b91507fffffffffffffffffffffffffffffffffffffffffffffffffffffffffffffffff8203613aaa57613aa9613a3e565b5b600182019050919050565b7f417574686f72697a6174696f6e2072657175657374206e6f7420666f756e642060008201527f6f7220616c726561647920617070726f76656400000000000000000000000000602082015250565b6000613b1160338361365d565b9150613b1c82613ab5565b604082019050919050565b60006020820190508181036000830152613b4081613b04565b9050919050565b7f4475726174696f6e206d7573742062652067726561746572207468616e207a6560008201527f726f000000000000000000000000000000000000000000000000000000000000602082015250565b6000613ba360228361365d565b9150613bae82613b47565b604082019050919050565b60006020820190508181036000830152613bd281613b96565b9050919050565b6000613be482612d26565b9150613bef83612d26565b9250828201905080821115613c0757613c06613a3e565b5b92915050565b60006020601f8301049050919050565b60008160020a8302905092915050565b600060088302613c5d7fffffffffffffffffffffffffffffffffffffffffffffffffffffffffffffffff82613c1d565b613c678683613c1d565b95508019841693508086168417925050509392505050565b6000819050919050565b6000613ca4613c9f613c9a84612d26565b613c7f565b612d26565b9050919050565b6000819050919050565b613cbe83613c89565b613cd2613cca82613cab565b848454613c2d565b825550505050565b600090565b613ce7613cda565b613cf2818484613cb5565b505050565b5b81811015613d1657613d0b600082613cdf565b600181019050613cf8565b5050565b601f821115613d5b57613d2c816138da565b613d3584613c0d565b81016020851015613d44578190505b613d58613d5085613c0d565b830182613cf7565b50505b505050565b60008160020a8304905092915050565b6000613d8160001984600802613d60565b1980831691505092915050565b6000613d9a8383613d70565b9150826002028217905092915050565b613db382613336565b67ffffffffffffffff811115613dcc57613dcb612fc8565b5b613dd682546138a9565b613de1828285613d1a565b600060209050601f831160018114613e145760008415613e02578287015190505b613e0c8582613d8e565b865550613e74565b601f198416613e22866138da565b60005b82811015613e4a57848901518255600182019150602085019450602081019050613e25565b86831015613e675784890151613e63601f891682613d70565b8355505b6001600288020188555050505b505050505050565b6000613e8782612d26565b9150613e9283612d26565b9250828203905081811115613eaa57613ea9613a3e565b5b92915050565b6000819050919050565b6000613ed5613ed0613ecb84613eb0565b613c7f565b612d26565b9050919050565b613ee581613eba565b82525050565b600060e082019050613f00600083018a612f3e565b8181036020830152613f12818961366e565b90508181036040830152613f26818861366e565b9050613f356060830187613edc565b613f426080830186612f59565b613f4f60a0830185612f3e565b613f5c60c0830184612f3e565b98975050505050505050565b7f4f6e6c7920746865206f776e65722063616e2072656a65637400000000000000600082015250565b6000613f9e60198361365d565b9150613fa982613f68565b602082019050919050565b60006020820190508181036000830152613fcd81613f91565b9050919050565b7f506174656e7420646f6573206e6f742065786973740000000000000000000000600082015250565b600061400a60158361365d565b915061401582613fd4565b602082019050919050565b6000602082019050818103600083015261403981613ffd565b9050919050565b7f596f752061726520616c726561647920617574686f72697a6564000000000000600082015250565b6000614076601a8361365d565b915061408182614040565b602082019050919050565b600060208201905081810360008301526140a581614069565b9050919050565b7f596f7520617265206e6f7420746865206f776e65720000000000000000000000600082015250565b60006140e260158361365d565b91506140ed826140ac565b602082019050919050565b60006020820190508181036000830152614111816140d5565b9050919050565b7f506174656e7420697320616c726561647920666f722073616c65000000000000600082015250565b600061414e601a8361365d565b915061415982614118565b602082019050919050565b6000602082019050818103600083015261417d81614141565b9050919050565b7f596f7520646f206e6f742068617665207065726d697373696f6e20746f20757360008201527f65207468697320706174656e7400000000000000000000000000000000000000602082015250565b60006141e0602d8361365d565b91506141eb82614184565b604082019050919050565b6000602082019050818103600083015261420f816141d3565b9050919050565b600060608201905061422b6000830186612f3e565b6142386020830185612f2f565b6142456040830184612f3e565b949350505050565b7f4e6f20696e6672696e67656d656e742064657465637465640000000000000000600082015250565b600061428360188361365d565b915061428e8261424d565b602082019050919050565b600060208201905081810360008301526142b281614276565b905091905056fea26469706673582212202bf386ea77fbfd53e273c59673d46244f30e390616ec54aedff7459ad6c3b73564736f6c63430008150033",
  "immutableReferences": {},
  "source": "// SPDX-License-Identifier: MIT\r\npragma solidity ^0.8.0;\r\n\r\nimport \"./PatentRegistry.sol\";  // \r\n\r\ncontract PatentMarket is PatentRegistry {\r\n    // \r\n    struct AuthorizationRequest {\r\n        address applicant;       // \r\n        uint256 patentId;        //  ID\r\n        uint256 requestTime;     // \r\n        bool approved;           // \r\n    }\r\n\r\n    // \r\n    struct UseRecord {\r\n        uint256 patentId;       //  ID\r\n        address user;           // \r\n        uint256 useTime;        // \r\n        bool isAuthorized;      // \r\n    }\r\n\r\n    // ID\r\n    mapping(uint => mapping(address => bool)) public authorizedUsers;\r\n    mapping(uint256 => AuthorizationRequest[]) public authorizationRequests; // \r\n    mapping(uint256 => UseRecord[]) public useRecords; // \r\n    // \r\n    event PatentListed(uint indexed patentId, string name, address indexed owner, uint price);\r\n    event PatentSold(uint indexed patentId, string name, address indexed previousOwner, address indexed newOwner, uint price);\r\n    event PatentAuthorized(uint indexed patentId, address indexed user);\r\n    event PatentInfringementDetected(uint indexed patentId, address indexed infringer);\r\n    event LegalActionTriggered(uint indexed patentId, address indexed infringer);\r\n    // \r\n    event PatentAuthorizationRequested(uint256 indexed patentId, address indexed applicant);\r\n    // \r\n    event PatentAuthorizationRejected(uint256 indexed patentId, address indexed user);\r\n    \r\n    // \r\n    function listForSale(uint patentId, uint price) public {\r\n        Patent storage patent = patents[patentId];\r\n        require(patent.currentOwner == msg.sender, \"You are not the owner\");\r\n        require(patent.isForSale == false, \"Patent is already for sale\");\r\n\r\n        patent.price = price;\r\n        patent.isForSale = true;\r\n\r\n        emit PatentListed(patentId, patent.patentName, msg.sender, price);\r\n    }\r\n\r\n    // \r\n    function buyPatent(uint patentId) public payable {\r\n        Patent storage patent = patents[patentId];\r\n        require(patent.isForSale, \"Patent is not for sale\");\r\n        require(msg.value >= patent.price, \"Insufficient funds to buy patent\");\r\n\r\n        address previousOwner = patent.currentOwner;\r\n        patent.currentOwner = msg.sender;\r\n        patent.isForSale = false;\r\n\r\n        // \r\n        payable(previousOwner).transfer(msg.value);\r\n\r\n        emit PatentSold(patentId, patent.patentName, previousOwner, msg.sender, patent.price);\r\n    }\r\n\r\n    // \r\n    function canApplyForAuthorization(uint256 patentId, address user) public view returns (bool) {\r\n        // 1. \r\n        if (user == patents[patentId].currentOwner) {\r\n            return false;  // \r\n        }\r\n        \r\n        // 2. \r\n        if (authorizedUsers[patentId][user]) {\r\n            return false;  // \r\n        }\r\n\r\n        // 3. \r\n        if (patents[patentId].isForSale) {\r\n            return false;  // \r\n        }\r\n\r\n        // \r\n        return true;\r\n    }\r\n\r\n    // \r\n    function requestPatentAuthorization(uint256 patentId) public {\r\n        // \r\n        require(patents[patentId].patentId == patentId, \"Patent does not exist\");\r\n\r\n        // \r\n        require(!authorizedUsers[patentId][msg.sender], \"You are already authorized\");\r\n\r\n        // \r\n        authorizationRequests[patentId].push(AuthorizationRequest({\r\n            applicant: msg.sender,\r\n            patentId: patentId,      //  ID\r\n            requestTime: block.timestamp,\r\n            approved: false // \r\n        }));\r\n\r\n        emit PatentAuthorizationRequested(patentId, msg.sender);\r\n    }\r\n\r\n    // \r\n    function approveAuthorization(uint256 patentId, address user) public {\r\n        // \r\n        require(patents[patentId].currentOwner == msg.sender, \"Only the owner can approve\");\r\n\r\n        // \r\n        bool applicationFound = false;\r\n        for (uint i = 0; i < authorizationRequests[patentId].length; i++) {\r\n            if (authorizationRequests[patentId][i].applicant == user && !authorizationRequests[patentId][i].approved) {\r\n                // \r\n                authorizationRequests[patentId][i].approved = true;\r\n                authorizedUsers[patentId][user] = true;\r\n\r\n                emit PatentAuthorized(patentId, user);\r\n                applicationFound = true;\r\n                break;\r\n            }\r\n        }\r\n\r\n        require(applicationFound, \"Authorization request not found or already approved\");\r\n    }\r\n\r\n    // \r\n    function rejectAuthorization(uint256 patentId, address user) public {\r\n        // \r\n        require(patents[patentId].currentOwner == msg.sender, \"Only the owner can reject\");\r\n\r\n        // \r\n        bool applicationFound = false;\r\n        for (uint i = 0; i < authorizationRequests[patentId].length; i++) {\r\n            if (authorizationRequests[patentId][i].applicant == user && !authorizationRequests[patentId][i].approved) {\r\n                // \r\n                authorizationRequests[patentId][i].approved = false;\r\n\r\n                emit PatentAuthorizationRejected(patentId, user);\r\n                applicationFound = true;\r\n                break;\r\n            }\r\n        }\r\n        require(applicationFound, \"Authorization request not found or already approved\");\r\n    }\r\n\r\n    // \r\n    function usePatent(uint256 patentId) public {\r\n        // \r\n        require(patents[patentId].patentId == patentId, \"Patent does not exist\");\r\n\r\n        // \r\n        bool hasPermission = (msg.sender == patents[patentId].currentOwner || authorizedUsers[patentId][msg.sender]);\r\n\r\n        // \r\n        useRecords[patentId].push(UseRecord({\r\n            patentId: patentId,\r\n            user: msg.sender, \r\n            useTime: block.timestamp,\r\n            isAuthorized: hasPermission\r\n        }));\r\n\r\n        // \r\n        require(hasPermission, \"You do not have permission to use this patent\");\r\n\r\n        emit PatentUsed(patentId, msg.sender, block.timestamp);\r\n    }\r\n\r\n    // \r\n    function getOwnedPatentsUseRecords(address user) public view returns (UseRecord[] memory) {\r\n        uint256 ownedPatentsCount = 0;\r\n        // \r\n        for (uint256 i = 0; i < patentCount; i++) {\r\n            if (patents[i].currentOwner == user) {\r\n                ownedPatentsCount++;\r\n            }\r\n        }\r\n\r\n        // \r\n        UseRecord[] memory allUseRecords = new UseRecord[](ownedPatentsCount);\r\n\r\n        uint256 index = 0;\r\n        for (uint256 i = 0; i < patentCount; i++) {\r\n            if (patents[i].currentOwner == user) {\r\n                // \r\n                for (uint256 j = 0; j < useRecords[i].length; j++) {\r\n                    allUseRecords[index] = useRecords[i][j];\r\n                    index++;\r\n                }\r\n            }\r\n        }\r\n\r\n        return allUseRecords;\r\n    }\r\n\r\n    // \r\n    event PatentUsed(uint256 patentId, address user, uint256 useTime);\r\n\r\n    // \r\n    function detectIllegalUse(uint256 patentId, address user) public view returns (bool) {\r\n        // \r\n        bool hasPermission = (user == patents[patentId].currentOwner || authorizedUsers[patentId][user]);\r\n        return !hasPermission;\r\n    }\r\n\r\n    // \r\n    function triggerInfringementWarning(uint patentId, address infringer) public {\r\n        require(detectIllegalUse(patentId, infringer), \"No infringement detected\");\r\n\r\n        emit PatentInfringementDetected(patentId, infringer);\r\n    }\r\n\r\n    // \r\n    function getPatentInfo(uint patentId) public view returns (Patent memory) {\r\n        return patents[patentId];\r\n    }\r\n\r\n    // \r\n    function isPatentForSale(uint patentId) public view returns (bool) {\r\n        return patents[patentId].isForSale;\r\n    }\r\n\r\n    // \r\n    function isAuthorizedUser(uint patentId, address user) public view returns (bool) {\r\n        return authorizedUsers[patentId][user];\r\n    }\r\n\r\n    // \r\n    function fetchMarketPatents(address user) public view returns (Patent[] memory) {\r\n        uint count = 0;\r\n        uint[] memory availablePatentIds = new uint[](patentCount);\r\n\r\n        // \r\n        for (uint i = 0; i <= patentCount; i++) {\r\n            if (patents[i].isForSale  && patents[i].currentOwner != user) {\r\n                availablePatentIds[count] = i;\r\n                count++;\r\n            }\r\n        }\r\n\r\n        // Patent\r\n        Patent[] memory availablePatents = new Patent[](count);\r\n        for (uint i = 0; i < count; i++) {\r\n            uint patentId = availablePatentIds[i];\r\n            availablePatents[i] = patents[patentId];\r\n        }\r\n\r\n        return availablePatents;\r\n    }\r\n    // \r\n    function fetchPatentsCanSale(address user) public view returns (Patent[] memory) {\r\n        uint count = 0;\r\n        \r\n        // \r\n        for (uint i = 0; i < patentCount; i++) {\r\n            if (patents[i].currentOwner == user && !patents[i].isForSale) {\r\n                count++;\r\n            }\r\n        }\r\n\r\n        // \r\n        Patent[] memory userPatentsForSale = new Patent[](count);\r\n        uint index = 0;\r\n\r\n        // \r\n        for (uint i = 0; i < patentCount; i++) {\r\n            if (patents[i].currentOwner == user && patents[i].isForSale) {\r\n                userPatentsForSale[index] = patents[i];\r\n                index++;\r\n            }\r\n        }\r\n        return userPatentsForSale;\r\n    }\r\n}\r\n",
  "sourcePath": "/Users/ethan/Education/Blockchain/patent-dapp/contracts/PatentMarket.sol",
  "compiler": {
    "name": "solc",
    "version": "0.8.21+commit.d9974bed.Emscripten.clang"
  },
  "schemaVersion": "3.4.16",
  "updatedAt": "2024-12-21T08:17:38.290Z",
  "networkType": "ethereum",
  "devdoc": {
    "kind": "dev",
    "methods": {},
    "version": 1
  },
  "userdoc": {
    "kind": "user",
    "methods": {},
    "version": 1
  }
}