{
  "contractName": "PatentMarket",
  "abi": [
    {
      "anonymous": false,
      "inputs": [
        {
          "indexed": true,
          "internalType": "uint256",
          "name": "patentId",
          "type": "uint256"
        },
        {
          "indexed": true,
          "internalType": "address",
          "name": "infringer",
          "type": "address"
        }
      ],
      "name": "LegalActionTriggered",
      "type": "event"
    },
    {
      "anonymous": false,
      "inputs": [
        {
          "indexed": true,
          "internalType": "uint256",
          "name": "patentId",
          "type": "uint256"
        },
        {
          "indexed": true,
          "internalType": "address",
          "name": "user",
          "type": "address"
        }
      ],
      "name": "PatentAuthorizationRejected",
      "type": "event"
    },
    {
      "anonymous": false,
      "inputs": [
        {
          "indexed": true,
          "internalType": "uint256",
          "name": "patentId",
          "type": "uint256"
        },
        {
          "indexed": true,
          "internalType": "address",
          "name": "applicant",
          "type": "address"
        }
      ],
      "name": "PatentAuthorizationRequested",
      "type": "event"
    },
    {
      "anonymous": false,
      "inputs": [
        {
          "indexed": true,
          "internalType": "uint256",
          "name": "patentId",
          "type": "uint256"
        },
        {
          "indexed": true,
          "internalType": "address",
          "name": "user",
          "type": "address"
        }
      ],
      "name": "PatentAuthorized",
      "type": "event"
    },
    {
      "anonymous": false,
      "inputs": [
        {
          "indexed": true,
          "internalType": "uint256",
          "name": "patentId",
          "type": "uint256"
        },
        {
          "indexed": true,
          "internalType": "address",
          "name": "infringer",
          "type": "address"
        }
      ],
      "name": "PatentInfringementDetected",
      "type": "event"
    },
    {
      "anonymous": false,
      "inputs": [
        {
          "indexed": true,
          "internalType": "uint256",
          "name": "patentId",
          "type": "uint256"
        },
        {
          "indexed": false,
          "internalType": "string",
          "name": "name",
          "type": "string"
        },
        {
          "indexed": true,
          "internalType": "address",
          "name": "owner",
          "type": "address"
        },
        {
          "indexed": false,
          "internalType": "uint256",
          "name": "price",
          "type": "uint256"
        }
      ],
      "name": "PatentListed",
      "type": "event"
    },
    {
      "anonymous": false,
      "inputs": [
        {
          "indexed": false,
          "internalType": "uint256",
          "name": "patentId",
          "type": "uint256"
        },
        {
          "indexed": false,
          "internalType": "string",
          "name": "name",
          "type": "string"
        },
        {
          "indexed": true,
          "internalType": "address",
          "name": "owner",
          "type": "address"
        },
        {
          "indexed": false,
          "internalType": "string",
          "name": "description",
          "type": "string"
        },
        {
          "indexed": false,
          "internalType": "uint256",
          "name": "price",
          "type": "uint256"
        },
        {
          "indexed": false,
          "internalType": "bool",
          "name": "isForSale",
          "type": "bool"
        },
        {
          "indexed": false,
          "internalType": "uint256",
          "name": "registrationTime",
          "type": "uint256"
        },
        {
          "indexed": false,
          "internalType": "uint256",
          "name": "expiryTime",
          "type": "uint256"
        }
      ],
      "name": "PatentRegistered",
      "type": "event"
    },
    {
      "anonymous": false,
      "inputs": [
        {
          "indexed": true,
          "internalType": "uint256",
          "name": "patentId",
          "type": "uint256"
        },
        {
          "indexed": false,
          "internalType": "string",
          "name": "name",
          "type": "string"
        },
        {
          "indexed": true,
          "internalType": "address",
          "name": "previousOwner",
          "type": "address"
        },
        {
          "indexed": true,
          "internalType": "address",
          "name": "newOwner",
          "type": "address"
        },
        {
          "indexed": false,
          "internalType": "uint256",
          "name": "price",
          "type": "uint256"
        }
      ],
      "name": "PatentSold",
      "type": "event"
    },
    {
      "anonymous": false,
      "inputs": [
        {
          "indexed": false,
          "internalType": "uint256",
          "name": "patentId",
          "type": "uint256"
        },
        {
          "indexed": false,
          "internalType": "address",
          "name": "user",
          "type": "address"
        },
        {
          "indexed": false,
          "internalType": "uint256",
          "name": "useTime",
          "type": "uint256"
        }
      ],
      "name": "PatentUsed",
      "type": "event"
    },
    {
      "anonymous": false,
      "inputs": [
        {
          "indexed": true,
          "internalType": "uint256",
          "name": "patentId",
          "type": "uint256"
        },
        {
          "indexed": false,
          "internalType": "string",
          "name": "patentName",
          "type": "string"
        },
        {
          "indexed": true,
          "internalType": "address",
          "name": "owner",
          "type": "address"
        }
      ],
      "name": "PatentWithdrawn",
      "type": "event"
    },
    {
      "inputs": [
        {
          "internalType": "uint256",
          "name": "",
          "type": "uint256"
        },
        {
          "internalType": "uint256",
          "name": "",
          "type": "uint256"
        }
      ],
      "name": "authorizationRequests",
      "outputs": [
        {
          "internalType": "address",
          "name": "applicant",
          "type": "address"
        },
        {
          "internalType": "uint256",
          "name": "patentId",
          "type": "uint256"
        },
        {
          "internalType": "uint256",
          "name": "requestTime",
          "type": "uint256"
        },
        {
          "internalType": "bool",
          "name": "approved",
          "type": "bool"
        }
      ],
      "stateMutability": "view",
      "type": "function",
      "constant": true
    },
    {
      "inputs": [
        {
          "internalType": "uint256",
          "name": "",
          "type": "uint256"
        },
        {
          "internalType": "address",
          "name": "",
          "type": "address"
        }
      ],
      "name": "authorizedUsers",
      "outputs": [
        {
          "internalType": "bool",
          "name": "",
          "type": "bool"
        }
      ],
      "stateMutability": "view",
      "type": "function",
      "constant": true
    },
    {
      "inputs": [
        {
          "internalType": "uint256",
          "name": "patentId",
          "type": "uint256"
        }
      ],
      "name": "getPatent",
      "outputs": [
        {
          "internalType": "uint256",
          "name": "",
          "type": "uint256"
        },
        {
          "internalType": "string",
          "name": "",
          "type": "string"
        },
        {
          "internalType": "address",
          "name": "",
          "type": "address"
        },
        {
          "internalType": "uint256",
          "name": "",
          "type": "uint256"
        },
        {
          "internalType": "uint256",
          "name": "",
          "type": "uint256"
        }
      ],
      "stateMutability": "view",
      "type": "function",
      "constant": true
    },
    {
      "inputs": [],
      "name": "getUserPatents",
      "outputs": [
        {
          "internalType": "uint256[]",
          "name": "",
          "type": "uint256[]"
        }
      ],
      "stateMutability": "view",
      "type": "function",
      "constant": true
    },
    {
      "inputs": [
        {
          "internalType": "uint256",
          "name": "patentId",
          "type": "uint256"
        }
      ],
      "name": "isPatentExpired",
      "outputs": [
        {
          "internalType": "bool",
          "name": "",
          "type": "bool"
        }
      ],
      "stateMutability": "view",
      "type": "function",
      "constant": true
    },
    {
      "inputs": [],
      "name": "patentCount",
      "outputs": [
        {
          "internalType": "uint256",
          "name": "",
          "type": "uint256"
        }
      ],
      "stateMutability": "view",
      "type": "function",
      "constant": true
    },
    {
      "inputs": [
        {
          "internalType": "uint256",
          "name": "",
          "type": "uint256"
        }
      ],
      "name": "patents",
      "outputs": [
        {
          "internalType": "uint256",
          "name": "patentId",
          "type": "uint256"
        },
        {
          "internalType": "string",
          "name": "patentName",
          "type": "string"
        },
        {
          "internalType": "address",
          "name": "currentOwner",
          "type": "address"
        },
        {
          "internalType": "string",
          "name": "description",
          "type": "string"
        },
        {
          "internalType": "uint256",
          "name": "price",
          "type": "uint256"
        },
        {
          "internalType": "bool",
          "name": "isForSale",
          "type": "bool"
        },
        {
          "internalType": "uint256",
          "name": "registrationTime",
          "type": "uint256"
        },
        {
          "internalType": "uint256",
          "name": "expiryTime",
          "type": "uint256"
        }
      ],
      "stateMutability": "view",
      "type": "function",
      "constant": true
    },
    {
      "inputs": [
        {
          "internalType": "string",
          "name": "name",
          "type": "string"
        },
        {
          "internalType": "string",
          "name": "description",
          "type": "string"
        },
        {
          "internalType": "uint256",
          "name": "duration",
          "type": "uint256"
        }
      ],
      "name": "registerPatent",
      "outputs": [
        {
          "internalType": "uint256",
          "name": "",
          "type": "uint256"
        }
      ],
      "stateMutability": "nonpayable",
      "type": "function"
    },
    {
      "inputs": [
        {
          "internalType": "uint256",
          "name": "",
          "type": "uint256"
        },
        {
          "internalType": "uint256",
          "name": "",
          "type": "uint256"
        }
      ],
      "name": "useRecords",
      "outputs": [
        {
          "internalType": "uint256",
          "name": "patentId",
          "type": "uint256"
        },
        {
          "internalType": "address",
          "name": "user",
          "type": "address"
        },
        {
          "internalType": "uint256",
          "name": "useTime",
          "type": "uint256"
        },
        {
          "internalType": "bool",
          "name": "isAuthorized",
          "type": "bool"
        }
      ],
      "stateMutability": "view",
      "type": "function",
      "constant": true
    },
    {
      "inputs": [
        {
          "internalType": "uint256",
          "name": "patentId",
          "type": "uint256"
        },
        {
          "internalType": "uint256",
          "name": "price",
          "type": "uint256"
        }
      ],
      "name": "listForSale",
      "outputs": [],
      "stateMutability": "nonpayable",
      "type": "function"
    },
    {
      "inputs": [
        {
          "internalType": "uint256",
          "name": "patentId",
          "type": "uint256"
        }
      ],
      "name": "buyPatent",
      "outputs": [],
      "stateMutability": "payable",
      "type": "function",
      "payable": true
    },
    {
      "inputs": [
        {
          "internalType": "uint256",
          "name": "patentId",
          "type": "uint256"
        },
        {
          "internalType": "address",
          "name": "user",
          "type": "address"
        }
      ],
      "name": "canApplyForAuthorization",
      "outputs": [
        {
          "internalType": "bool",
          "name": "",
          "type": "bool"
        }
      ],
      "stateMutability": "view",
      "type": "function",
      "constant": true
    },
    {
      "inputs": [
        {
          "internalType": "uint256",
          "name": "patentId",
          "type": "uint256"
        }
      ],
      "name": "requestPatentAuthorization",
      "outputs": [],
      "stateMutability": "nonpayable",
      "type": "function"
    },
    {
      "inputs": [
        {
          "internalType": "uint256",
          "name": "patentId",
          "type": "uint256"
        },
        {
          "internalType": "address",
          "name": "user",
          "type": "address"
        }
      ],
      "name": "approveAuthorization",
      "outputs": [],
      "stateMutability": "nonpayable",
      "type": "function"
    },
    {
      "inputs": [
        {
          "internalType": "uint256",
          "name": "patentId",
          "type": "uint256"
        },
        {
          "internalType": "address",
          "name": "user",
          "type": "address"
        }
      ],
      "name": "rejectAuthorization",
      "outputs": [],
      "stateMutability": "nonpayable",
      "type": "function"
    },
    {
      "inputs": [
        {
          "internalType": "uint256",
          "name": "patentId",
          "type": "uint256"
        }
      ],
      "name": "usePatent",
      "outputs": [],
      "stateMutability": "nonpayable",
      "type": "function"
    },
    {
      "inputs": [
        {
          "internalType": "address",
          "name": "user",
          "type": "address"
        }
      ],
      "name": "getOwnedPatentsUseRecords",
      "outputs": [
        {
          "components": [
            {
              "internalType": "uint256",
              "name": "patentId",
              "type": "uint256"
            },
            {
              "internalType": "address",
              "name": "user",
              "type": "address"
            },
            {
              "internalType": "uint256",
              "name": "useTime",
              "type": "uint256"
            },
            {
              "internalType": "bool",
              "name": "isAuthorized",
              "type": "bool"
            }
          ],
          "internalType": "struct PatentMarket.UseRecord[]",
          "name": "",
          "type": "tuple[]"
        }
      ],
      "stateMutability": "view",
      "type": "function",
      "constant": true
    },
    {
      "inputs": [
        {
          "internalType": "uint256",
          "name": "patentId",
          "type": "uint256"
        },
        {
          "internalType": "address",
          "name": "user",
          "type": "address"
        }
      ],
      "name": "detectIllegalUse",
      "outputs": [
        {
          "internalType": "bool",
          "name": "",
          "type": "bool"
        }
      ],
      "stateMutability": "view",
      "type": "function",
      "constant": true
    },
    {
      "inputs": [
        {
          "internalType": "uint256",
          "name": "patentId",
          "type": "uint256"
        },
        {
          "internalType": "address",
          "name": "infringer",
          "type": "address"
        }
      ],
      "name": "triggerInfringementWarning",
      "outputs": [],
      "stateMutability": "nonpayable",
      "type": "function"
    },
    {
      "inputs": [
        {
          "internalType": "uint256",
          "name": "patentId",
          "type": "uint256"
        }
      ],
      "name": "getPatentInfo",
      "outputs": [
        {
          "components": [
            {
              "internalType": "uint256",
              "name": "patentId",
              "type": "uint256"
            },
            {
              "internalType": "string",
              "name": "patentName",
              "type": "string"
            },
            {
              "internalType": "address",
              "name": "currentOwner",
              "type": "address"
            },
            {
              "internalType": "string",
              "name": "description",
              "type": "string"
            },
            {
              "internalType": "uint256",
              "name": "price",
              "type": "uint256"
            },
            {
              "internalType": "bool",
              "name": "isForSale",
              "type": "bool"
            },
            {
              "internalType": "uint256",
              "name": "registrationTime",
              "type": "uint256"
            },
            {
              "internalType": "uint256",
              "name": "expiryTime",
              "type": "uint256"
            }
          ],
          "internalType": "struct PatentBase.Patent",
          "name": "",
          "type": "tuple"
        }
      ],
      "stateMutability": "view",
      "type": "function",
      "constant": true
    },
    {
      "inputs": [
        {
          "internalType": "uint256",
          "name": "patentId",
          "type": "uint256"
        }
      ],
      "name": "isPatentForSale",
      "outputs": [
        {
          "internalType": "bool",
          "name": "",
          "type": "bool"
        }
      ],
      "stateMutability": "view",
      "type": "function",
      "constant": true
    },
    {
      "inputs": [
        {
          "internalType": "uint256",
          "name": "patentId",
          "type": "uint256"
        },
        {
          "internalType": "address",
          "name": "user",
          "type": "address"
        }
      ],
      "name": "isAuthorizedUser",
      "outputs": [
        {
          "internalType": "bool",
          "name": "",
          "type": "bool"
        }
      ],
      "stateMutability": "view",
      "type": "function",
      "constant": true
    },
    {
      "inputs": [
        {
          "internalType": "address",
          "name": "user",
          "type": "address"
        }
      ],
      "name": "fetchMarketPatents",
      "outputs": [
        {
          "components": [
            {
              "internalType": "uint256",
              "name": "patentId",
              "type": "uint256"
            },
            {
              "internalType": "string",
              "name": "patentName",
              "type": "string"
            },
            {
              "internalType": "address",
              "name": "currentOwner",
              "type": "address"
            },
            {
              "internalType": "string",
              "name": "description",
              "type": "string"
            },
            {
              "internalType": "uint256",
              "name": "price",
              "type": "uint256"
            },
            {
              "internalType": "bool",
              "name": "isForSale",
              "type": "bool"
            },
            {
              "internalType": "uint256",
              "name": "registrationTime",
              "type": "uint256"
            },
            {
              "internalType": "uint256",
              "name": "expiryTime",
              "type": "uint256"
            }
          ],
          "internalType": "struct PatentBase.Patent[]",
          "name": "",
          "type": "tuple[]"
        }
      ],
      "stateMutability": "view",
      "type": "function",
      "constant": true
    },
    {
      "inputs": [
        {
          "internalType": "address",
          "name": "user",
          "type": "address"
        }
      ],
      "name": "fetchPatentsCanSale",
      "outputs": [
        {
          "components": [
            {
              "internalType": "uint256",
              "name": "patentId",
              "type": "uint256"
            },
            {
              "internalType": "string",
              "name": "patentName",
              "type": "string"
            },
            {
              "internalType": "address",
              "name": "currentOwner",
              "type": "address"
            },
            {
              "internalType": "string",
              "name": "description",
              "type": "string"
            },
            {
              "internalType": "uint256",
              "name": "price",
              "type": "uint256"
            },
            {
              "internalType": "bool",
              "name": "isForSale",
              "type": "bool"
            },
            {
              "internalType": "uint256",
              "name": "registrationTime",
              "type": "uint256"
            },
            {
              "internalType": "uint256",
              "name": "expiryTime",
              "type": "uint256"
            }
          ],
          "internalType": "struct PatentBase.Patent[]",
          "name": "",
          "type": "tuple[]"
        }
      ],
      "stateMutability": "view",
      "type": "function",
      "constant": true
    },
    {
      "inputs": [
        {
          "internalType": "address",
          "name": "user",
          "type": "address"
        }
      ],
      "name": "fetchSoldPatents",
      "outputs": [
        {
          "components": [
            {
              "internalType": "uint256",
              "name": "patentId",
              "type": "uint256"
            },
            {
              "internalType": "string",
              "name": "patentName",
              "type": "string"
            },
            {
              "internalType": "address",
              "name": "currentOwner",
              "type": "address"
            },
            {
              "internalType": "string",
              "name": "description",
              "type": "string"
            },
            {
              "internalType": "uint256",
              "name": "price",
              "type": "uint256"
            },
            {
              "internalType": "bool",
              "name": "isForSale",
              "type": "bool"
            },
            {
              "internalType": "uint256",
              "name": "registrationTime",
              "type": "uint256"
            },
            {
              "internalType": "uint256",
              "name": "expiryTime",
              "type": "uint256"
            }
          ],
          "internalType": "struct PatentBase.Patent[]",
          "name": "",
          "type": "tuple[]"
        }
      ],
      "stateMutability": "view",
      "type": "function",
      "constant": true
    },
    {
      "inputs": [
        {
          "internalType": "uint256",
          "name": "patentId",
          "type": "uint256"
        }
      ],
      "name": "withdrawPatentFromSale",
      "outputs": [],
      "stateMutability": "nonpayable",
      "type": "function"
    }
  ],
  "bytecode": "0x608060405234801561001057600080fd5b50614a4c806100206000396000f3fe60806040526004361061019e576000357c01000000000000000000000000000000000000000000000000000000009004806396a6bb32116100ee578063b735a3ff116100a7578063e80d7fec11610081578063e80d7fec14610656578063f1d908dd1461067f578063f422bc68146106a8578063fdc4294f146106ec5761019e565b8063b735a3ff1461059f578063bf7b6404146105dc578063cdba68b9146106195761019e565b806396a6bb32146104535780639c6d0d7814610490578063a1ab74b9146104d1578063a20b7d1b1461050e578063a5663a9f14610537578063b084c841146105745761019e565b80634864810d1161015b57806361d38b171161013557806361d38b17146103705780636cd5ae3414610399578063763d19d4146103d65780638c20cc4d146104165761019e565b80634864810d146102b9578063540ce76b146102f657806357cbe3cf146103335761019e565b806309e6baf1146101a357806313b356ad146101ce5780631c1bff89146101ea57806326461308146102135780632807745f1461023c578063482561111461027c575b600080fd5b3480156101af57600080fd5b506101b8610715565b6040516101c591906133a8565b60405180910390f35b6101e860048036038101906101e3919061340a565b6107aa565b005b3480156101f657600080fd5b50610211600480360381019061020c9190613495565b61099d565b005b34801561021f57600080fd5b5061023a6004803603810190610235919061340a565b610c98565b005b34801561024857600080fd5b50610263600480360381019061025e91906134d5565b610e0c565b604051610273949392919061354e565b60405180910390f35b34801561028857600080fd5b506102a3600480360381019061029e9190613593565b610e86565b6040516102b091906137e7565b60405180910390f35b3480156102c557600080fd5b506102e060048036038101906102db919061393e565b611273565b6040516102ed91906139c9565b60405180910390f35b34801561030257600080fd5b5061031d60048036038101906103189190613593565b6114d6565b60405161032a9190613ae8565b60405180910390f35b34801561033f57600080fd5b5061035a60048036038101906103559190613593565b611785565b60405161036791906137e7565b60405180910390f35b34801561037c57600080fd5b5061039760048036038101906103929190613495565b611b58565b005b3480156103a557600080fd5b506103c060048036038101906103bb919061340a565b611dea565b6040516103cd9190613bc1565b60405180910390f35b3480156103e257600080fd5b506103fd60048036038101906103f891906134d5565b611fd5565b60405161040d9493929190613be3565b60405180910390f35b34801561042257600080fd5b5061043d60048036038101906104389190613495565b61204f565b60405161044a9190613c28565b60405180910390f35b34801561045f57600080fd5b5061047a60048036038101906104759190613593565b612129565b60405161048791906137e7565b60405180910390f35b34801561049c57600080fd5b506104b760048036038101906104b2919061340a565b612517565b6040516104c8959493929190613c8d565b60405180910390f35b3480156104dd57600080fd5b506104f860048036038101906104f3919061340a565b612785565b6040516105059190613c28565b60405180910390f35b34801561051a57600080fd5b506105356004803603810190610530919061340a565b6127b2565b005b34801561054357600080fd5b5061055e60048036038101906105599190613495565b6129e2565b60405161056b9190613c28565b60405180910390f35b34801561058057600080fd5b50610589612a11565b60405161059691906139c9565b60405180910390f35b3480156105ab57600080fd5b506105c660048036038101906105c19190613495565b612a17565b6040516105d39190613c28565b60405180910390f35b3480156105e857600080fd5b5061060360048036038101906105fe919061340a565b612b34565b6040516106109190613c28565b60405180910390f35b34801561062557600080fd5b50610640600480360381019061063b9190613495565b612bae565b60405161064d9190613c28565b60405180910390f35b34801561066257600080fd5b5061067d600480360381019061067891906134d5565b612c16565b005b34801561068b57600080fd5b506106a660048036038101906106a1919061340a565b612d96565b005b3480156106b457600080fd5b506106cf60048036038101906106ca919061340a565b61302d565b6040516106e3989796959493929190613ce7565b60405180910390f35b3480156106f857600080fd5b50610713600480360381019061070e9190613495565b6131b2565b005b6060600260003373ffffffffffffffffffffffffffffffffffffffff1673ffffffffffffffffffffffffffffffffffffffff1681526020019081526020016000208054806020026020016040519081016040528092919081815260200182805480156107a057602002820191906000526020600020905b81548152602001906001019080831161078c575b5050505050905090565b60006001600083815260200190815260200160002090508060050160009054906101000a900460ff16610812576040517f08c379a000000000000000000000000000000000000000000000000000000000815260040161080990613dbf565b60405180910390fd5b8060040154341015610859576040517f08c379a000000000000000000000000000000000000000000000000000000000815260040161085090613e2b565b60405180910390fd5b60008160020160009054906101000a900473ffffffffffffffffffffffffffffffffffffffff169050338260020160006101000a81548173ffffffffffffffffffffffffffffffffffffffff021916908373ffffffffffffffffffffffffffffffffffffffff16021790555060008260050160006101000a81548160ff0219169083151502179055508073ffffffffffffffffffffffffffffffffffffffff166108fc349081150290604051600060405180830381858888f19350505050158015610928573d6000803e3d6000fd5b503373ffffffffffffffffffffffffffffffffffffffff168173ffffffffffffffffffffffffffffffffffffffff16847fd4087db499dd31cfde1d9403da6a531c3913cb1197f78312d5ca5eff555082f7856001018660040154604051610990929190613f44565b60405180910390a4505050565b3373ffffffffffffffffffffffffffffffffffffffff166001600084815260200190815260200160002060020160009054906101000a900473ffffffffffffffffffffffffffffffffffffffff1673ffffffffffffffffffffffffffffffffffffffff1614610a41576040517f08c379a0000000000000000000000000000000000000000000000000000000008152600401610a3890613fc0565b60405180910390fd5b6000805b6004600085815260200190815260200160002080549050811015610c52578273ffffffffffffffffffffffffffffffffffffffff16600460008681526020019081526020016000208281548110610a9f57610a9e613fe0565b5b906000526020600020906004020160000160009054906101000a900473ffffffffffffffffffffffffffffffffffffffff1673ffffffffffffffffffffffffffffffffffffffff16148015610b355750600460008581526020019081526020016000208181548110610b1457610b13613fe0565b5b906000526020600020906004020160030160009054906101000a900460ff16155b15610c3f576001600460008681526020019081526020016000208281548110610b6157610b60613fe0565b5b906000526020600020906004020160030160006101000a81548160ff02191690831515021790555060016003600086815260200190815260200160002060008573ffffffffffffffffffffffffffffffffffffffff1673ffffffffffffffffffffffffffffffffffffffff16815260200190815260200160002060006101000a81548160ff0219169083151502179055508273ffffffffffffffffffffffffffffffffffffffff16847f26273e1af82ccbf7153502c23c0b3d69e41c3e2f27a9f6d1472bab8eeb878f3b60405160405180910390a360019150610c52565b8080610c4a9061403e565b915050610a45565b5080610c93576040517f08c379a0000000000000000000000000000000000000000000000000000000008152600401610c8a906140f8565b60405180910390fd5b505050565b60006001600083815260200190815260200160002090503373ffffffffffffffffffffffffffffffffffffffff168160020160009054906101000a900473ffffffffffffffffffffffffffffffffffffffff1673ffffffffffffffffffffffffffffffffffffffff1614610d41576040517f08c379a0000000000000000000000000000000000000000000000000000000008152600401610d389061418a565b60405180910390fd5b600115158160050160009054906101000a900460ff16151514610d99576040517f08c379a0000000000000000000000000000000000000000000000000000000008152600401610d90906141f6565b60405180910390fd5b60008160050160006101000a81548160ff0219169083151502179055503373ffffffffffffffffffffffffffffffffffffffff16827f847a2e1705a1c900ac69727dd5c1da95ccce65f56cdf8afbac19e15d7446832383600101604051610e009190614216565b60405180910390a35050565b60046020528160005260406000208181548110610e2857600080fd5b9060005260206000209060040201600091509150508060000160009054906101000a900473ffffffffffffffffffffffffffffffffffffffff16908060010154908060020154908060030160009054906101000a900460ff16905084565b60606000805b600054811015610f4e578373ffffffffffffffffffffffffffffffffffffffff166001600083815260200190815260200160002060020160009054906101000a900473ffffffffffffffffffffffffffffffffffffffff1673ffffffffffffffffffffffffffffffffffffffff16148015610f2757506001600082815260200190815260200160002060050160009054906101000a900460ff165b15610f3b578180610f379061403e565b9250505b8080610f469061403e565b915050610e8c565b5060008167ffffffffffffffff811115610f6b57610f6a613813565b5b604051908082528060200260200182016040528015610fa457816020015b610f91613243565b815260200190600190039081610f895790505b5090506000805b600054811015611267578573ffffffffffffffffffffffffffffffffffffffff166001600083815260200190815260200160002060020160009054906101000a900473ffffffffffffffffffffffffffffffffffffffff1673ffffffffffffffffffffffffffffffffffffffff1614801561104657506001600082815260200190815260200160002060050160009054906101000a900460ff165b156112545760016000828152602001908152602001600020604051806101000160405290816000820154815260200160018201805461108490613e7a565b80601f01602080910402602001604051908101604052809291908181526020018280546110b090613e7a565b80156110fd5780601f106110d2576101008083540402835291602001916110fd565b820191906000526020600020905b8154815290600101906020018083116110e057829003601f168201915b505050505081526020016002820160009054906101000a900473ffffffffffffffffffffffffffffffffffffffff1673ffffffffffffffffffffffffffffffffffffffff1673ffffffffffffffffffffffffffffffffffffffff16815260200160038201805461116c90613e7a565b80601f016020809104026020016040519081016040528092919081815260200182805461119890613e7a565b80156111e55780601f106111ba576101008083540402835291602001916111e5565b820191906000526020600020905b8154815290600101906020018083116111c857829003601f168201915b50505050508152602001600482015481526020016005820160009054906101000a900460ff161515151581526020016006820154815260200160078201548152505083838151811061123a57611239613fe0565b5b602002602001018190525081806112509061403e565b9250505b808061125f9061403e565b915050610fab565b50819350505050919050565b600080600160008054815260200190815260200160002060000154146112ce576040517f08c379a00000000000000000000000000000000000000000000000000000000081526004016112c590614284565b60405180910390fd5b60008211611311576040517f08c379a000000000000000000000000000000000000000000000000000000000815260040161130890614316565b60405180910390fd5b60405180610100016040528060005481526020018581526020013373ffffffffffffffffffffffffffffffffffffffff16815260200184815260200160008152602001600015158152602001428152602001834261136f9190614336565b81525060016000805481526020019081526020016000206000820151816000015560208201518160010190816113a59190614507565b5060408201518160020160006101000a81548173ffffffffffffffffffffffffffffffffffffffff021916908373ffffffffffffffffffffffffffffffffffffffff16021790555060608201518160030190816114029190614507565b506080820151816004015560a08201518160050160006101000a81548160ff02191690831515021790555060c0820151816006015560e082015181600701559050506000808154809291906114569061403e565b91905055503373ffffffffffffffffffffffffffffffffffffffff167ffe35dd0a2a2b1a13a2ecfe9e9714cbb3430db7ca9c258e25e74ba7c432721fbb60016000546114a291906145d9565b86866000804289426114b49190614336565b6040516114c79796959493929190614648565b60405180910390a29392505050565b60606000805b600054811015611571578373ffffffffffffffffffffffffffffffffffffffff166001600083815260200190815260200160002060020160009054906101000a900473ffffffffffffffffffffffffffffffffffffffff1673ffffffffffffffffffffffffffffffffffffffff160361155e57818061155a9061403e565b9250505b80806115699061403e565b9150506114dc565b5060008167ffffffffffffffff81111561158e5761158d613813565b5b6040519080825280602002602001820160405280156115c757816020015b6115b46132a0565b8152602001906001900390816115ac5790505b5090506000805b600054811015611779578573ffffffffffffffffffffffffffffffffffffffff166001600083815260200190815260200160002060020160009054906101000a900473ffffffffffffffffffffffffffffffffffffffff1673ffffffffffffffffffffffffffffffffffffffff16036117665760005b60056000838152602001908152602001600020805490508110156117645760056000838152602001908152602001600020818154811061168757611686613fe0565b5b9060005260206000209060040201604051806080016040529081600082015481526020016001820160009054906101000a900473ffffffffffffffffffffffffffffffffffffffff1673ffffffffffffffffffffffffffffffffffffffff1673ffffffffffffffffffffffffffffffffffffffff168152602001600282015481526020016003820160009054906101000a900460ff16151515158152505084848151811061173857611737613fe0565b5b6020026020010181905250828061174e9061403e565b935050808061175c9061403e565b915050611644565b505b80806117719061403e565b9150506115ce565b50819350505050919050565b6060600080805467ffffffffffffffff8111156117a5576117a4613813565b5b6040519080825280602002602001820160405280156117d35781602001602082028036833780820191505090505b50905060005b60005481116118bb576001600082815260200190815260200160002060050160009054906101000a900460ff16801561187457508473ffffffffffffffffffffffffffffffffffffffff166001600083815260200190815260200160002060020160009054906101000a900473ffffffffffffffffffffffffffffffffffffffff1673ffffffffffffffffffffffffffffffffffffffff1614155b156118a8578082848151811061188d5761188c613fe0565b5b60200260200101818152505082806118a49061403e565b9350505b80806118b39061403e565b9150506117d9565b5060008267ffffffffffffffff8111156118d8576118d7613813565b5b60405190808252806020026020018201604052801561191157816020015b6118fe613243565b8152602001906001900390816118f65790505b50905060005b83811015611b4c57600083828151811061193457611933613fe0565b5b6020026020010151905060016000828152602001908152602001600020604051806101000160405290816000820154815260200160018201805461197790613e7a565b80601f01602080910402602001604051908101604052809291908181526020018280546119a390613e7a565b80156119f05780601f106119c5576101008083540402835291602001916119f0565b820191906000526020600020905b8154815290600101906020018083116119d357829003601f168201915b505050505081526020016002820160009054906101000a900473ffffffffffffffffffffffffffffffffffffffff1673ffffffffffffffffffffffffffffffffffffffff1673ffffffffffffffffffffffffffffffffffffffff168152602001600382018054611a5f90613e7a565b80601f0160208091040260200160405190810160405280929190818152602001828054611a8b90613e7a565b8015611ad85780601f10611aad57610100808354040283529160200191611ad8565b820191906000526020600020905b815481529060010190602001808311611abb57829003601f168201915b50505050508152602001600482015481526020016005820160009054906101000a900460ff1615151515815260200160068201548152602001600782015481525050838381518110611b2d57611b2c613fe0565b5b6020026020010181905250508080611b449061403e565b915050611917565b50809350505050919050565b3373ffffffffffffffffffffffffffffffffffffffff166001600084815260200190815260200160002060020160009054906101000a900473ffffffffffffffffffffffffffffffffffffffff1673ffffffffffffffffffffffffffffffffffffffff1614611bfc576040517f08c379a0000000000000000000000000000000000000000000000000000000008152600401611bf390614711565b60405180910390fd5b6000805b6004600085815260200190815260200160002080549050811015611da4578273ffffffffffffffffffffffffffffffffffffffff16600460008681526020019081526020016000208281548110611c5a57611c59613fe0565b5b906000526020600020906004020160000160009054906101000a900473ffffffffffffffffffffffffffffffffffffffff1673ffffffffffffffffffffffffffffffffffffffff16148015611cf05750600460008581526020019081526020016000208181548110611ccf57611cce613fe0565b5b906000526020600020906004020160030160009054906101000a900460ff16155b15611d91576000600460008681526020019081526020016000208281548110611d1c57611d1b613fe0565b5b906000526020600020906004020160030160006101000a81548160ff0219169083151502179055508273ffffffffffffffffffffffffffffffffffffffff16847f7f199c4b273ac707d8aaef42f3549b0b7b0293254783ddb899c8e82bbb5bddce60405160405180910390a360019150611da4565b8080611d9c9061403e565b915050611c00565b5080611de5576040517f08c379a0000000000000000000000000000000000000000000000000000000008152600401611ddc906140f8565b60405180910390fd5b505050565b611df2613243565b600160008381526020019081526020016000206040518061010001604052908160008201548152602001600182018054611e2b90613e7a565b80601f0160208091040260200160405190810160405280929190818152602001828054611e5790613e7a565b8015611ea45780601f10611e7957610100808354040283529160200191611ea4565b820191906000526020600020905b815481529060010190602001808311611e8757829003601f168201915b505050505081526020016002820160009054906101000a900473ffffffffffffffffffffffffffffffffffffffff1673ffffffffffffffffffffffffffffffffffffffff1673ffffffffffffffffffffffffffffffffffffffff168152602001600382018054611f1390613e7a565b80601f0160208091040260200160405190810160405280929190818152602001828054611f3f90613e7a565b8015611f8c5780601f10611f6157610100808354040283529160200191611f8c565b820191906000526020600020905b815481529060010190602001808311611f6f57829003601f168201915b50505050508152602001600482015481526020016005820160009054906101000a900460ff16151515158152602001600682015481526020016007820154815250509050919050565b60056020528160005260406000208181548110611ff157600080fd5b9060005260206000209060040201600091509150508060000154908060010160009054906101000a900473ffffffffffffffffffffffffffffffffffffffff16908060020154908060030160009054906101000a900460ff16905084565b6000806001600085815260200190815260200160002060020160009054906101000a900473ffffffffffffffffffffffffffffffffffffffff1673ffffffffffffffffffffffffffffffffffffffff168373ffffffffffffffffffffffffffffffffffffffff16148061211c57506003600085815260200190815260200160002060008473ffffffffffffffffffffffffffffffffffffffff1673ffffffffffffffffffffffffffffffffffffffff16815260200190815260200160002060009054906101000a900460ff165b9050801591505092915050565b60606000805b6000548110156121f2578373ffffffffffffffffffffffffffffffffffffffff166001600083815260200190815260200160002060020160009054906101000a900473ffffffffffffffffffffffffffffffffffffffff1673ffffffffffffffffffffffffffffffffffffffff161480156121cb57506001600082815260200190815260200160002060050160009054906101000a900460ff16155b156121df5781806121db9061403e565b9250505b80806121ea9061403e565b91505061212f565b5060008167ffffffffffffffff81111561220f5761220e613813565b5b60405190808252806020026020018201604052801561224857816020015b612235613243565b81526020019060019003908161222d5790505b5090506000805b60005481101561250b578573ffffffffffffffffffffffffffffffffffffffff166001600083815260200190815260200160002060020160009054906101000a900473ffffffffffffffffffffffffffffffffffffffff1673ffffffffffffffffffffffffffffffffffffffff161480156122ea57506001600082815260200190815260200160002060050160009054906101000a900460ff165b156124f85760016000828152602001908152602001600020604051806101000160405290816000820154815260200160018201805461232890613e7a565b80601f016020809104026020016040519081016040528092919081815260200182805461235490613e7a565b80156123a15780601f10612376576101008083540402835291602001916123a1565b820191906000526020600020905b81548152906001019060200180831161238457829003601f168201915b505050505081526020016002820160009054906101000a900473ffffffffffffffffffffffffffffffffffffffff1673ffffffffffffffffffffffffffffffffffffffff1673ffffffffffffffffffffffffffffffffffffffff16815260200160038201805461241090613e7a565b80601f016020809104026020016040519081016040528092919081815260200182805461243c90613e7a565b80156124895780601f1061245e57610100808354040283529160200191612489565b820191906000526020600020905b81548152906001019060200180831161246c57829003601f168201915b50505050508152602001600482015481526020016005820160009054906101000a900460ff16151515158152602001600682015481526020016007820154815250508383815181106124de576124dd613fe0565b5b602002602001018190525081806124f49061403e565b9250505b80806125039061403e565b91505061224f565b50819350505050919050565b60006060600080600080600160008881526020019081526020016000206000015403612578576040517f08c379a000000000000000000000000000000000000000000000000000000000815260040161256f9061477d565b60405180910390fd5b60006001600088815260200190815260200160002060405180610100016040529081600082015481526020016001820180546125b390613e7a565b80601f01602080910402602001604051908101604052809291908181526020018280546125df90613e7a565b801561262c5780601f106126015761010080835404028352916020019161262c565b820191906000526020600020905b81548152906001019060200180831161260f57829003601f168201915b505050505081526020016002820160009054906101000a900473ffffffffffffffffffffffffffffffffffffffff1673ffffffffffffffffffffffffffffffffffffffff1673ffffffffffffffffffffffffffffffffffffffff16815260200160038201805461269b90613e7a565b80601f01602080910402602001604051908101604052809291908181526020018280546126c790613e7a565b80156127145780601f106126e957610100808354040283529160200191612714565b820191906000526020600020905b8154815290600101906020018083116126f757829003601f168201915b50505050508152602001600482015481526020016005820160009054906101000a900460ff161515151581526020016006820154815260200160078201548152505090508060000151816060015182604001518360c001518460e00151955095509550955095505091939590929450565b60006001600083815260200190815260200160002060050160009054906101000a900460ff169050919050565b8060016000838152602001908152602001600020600001541461280a576040517f08c379a00000000000000000000000000000000000000000000000000000000081526004016128019061477d565b60405180910390fd5b6003600082815260200190815260200160002060003373ffffffffffffffffffffffffffffffffffffffff1673ffffffffffffffffffffffffffffffffffffffff16815260200190815260200160002060009054906101000a900460ff16156128a8576040517f08c379a000000000000000000000000000000000000000000000000000000000815260040161289f906147e9565b60405180910390fd5b6004600082815260200190815260200160002060405180608001604052803373ffffffffffffffffffffffffffffffffffffffff16815260200183815260200142815260200160001515815250908060018154018082558091505060019003906000526020600020906004020160009091909190915060008201518160000160006101000a81548173ffffffffffffffffffffffffffffffffffffffff021916908373ffffffffffffffffffffffffffffffffffffffff160217905550602082015181600101556040820151816002015560608201518160030160006101000a81548160ff02191690831515021790555050503373ffffffffffffffffffffffffffffffffffffffff16817fe9e3c8549c5502ab4b191ecaed1656277f749183703fe647e892b34c6cd8b7d160405160405180910390a350565b60036020528160005260406000206020528060005260406000206000915091509054906101000a900460ff1681565b60005481565b60006001600084815260200190815260200160002060020160009054906101000a900473ffffffffffffffffffffffffffffffffffffffff1673ffffffffffffffffffffffffffffffffffffffff168273ffffffffffffffffffffffffffffffffffffffff1603612a8b5760009050612b2e565b6003600084815260200190815260200160002060008373ffffffffffffffffffffffffffffffffffffffff1673ffffffffffffffffffffffffffffffffffffffff16815260200190815260200160002060009054906101000a900460ff1615612af75760009050612b2e565b6001600084815260200190815260200160002060050160009054906101000a900460ff1615612b295760009050612b2e565b600190505b92915050565b600080600160008481526020019081526020016000206000015403612b8e576040517f08c379a0000000000000000000000000000000000000000000000000000000008152600401612b859061477d565b60405180910390fd5b600160008381526020019081526020016000206007015442119050919050565b60006003600084815260200190815260200160002060008373ffffffffffffffffffffffffffffffffffffffff1673ffffffffffffffffffffffffffffffffffffffff16815260200190815260200160002060009054906101000a900460ff16905092915050565b60006001600084815260200190815260200160002090503373ffffffffffffffffffffffffffffffffffffffff168160020160009054906101000a900473ffffffffffffffffffffffffffffffffffffffff1673ffffffffffffffffffffffffffffffffffffffff1614612cbf576040517f08c379a0000000000000000000000000000000000000000000000000000000008152600401612cb690614855565b60405180910390fd5b600015158160050160009054906101000a900460ff16151514612d17576040517f08c379a0000000000000000000000000000000000000000000000000000000008152600401612d0e906148c1565b60405180910390fd5b81816004018190555060018160050160006101000a81548160ff0219169083151502179055503373ffffffffffffffffffffffffffffffffffffffff16837fa8c5d983dc7078455ae436e4ed5b3b05a1adbac2a83405e0c3af5b07b22620e68360010185604051612d89929190613f44565b60405180910390a3505050565b80600160008381526020019081526020016000206000015414612dee576040517f08c379a0000000000000000000000000000000000000000000000000000000008152600401612de59061477d565b60405180910390fd5b60006001600083815260200190815260200160002060020160009054906101000a900473ffffffffffffffffffffffffffffffffffffffff1673ffffffffffffffffffffffffffffffffffffffff163373ffffffffffffffffffffffffffffffffffffffff161480612eba57506003600083815260200190815260200160002060003373ffffffffffffffffffffffffffffffffffffffff1673ffffffffffffffffffffffffffffffffffffffff16815260200190815260200160002060009054906101000a900460ff165b90506005600083815260200190815260200160002060405180608001604052808481526020013373ffffffffffffffffffffffffffffffffffffffff16815260200142815260200183151581525090806001815401808255809150506001900390600052602060002090600402016000909190919091506000820151816000015560208201518160010160006101000a81548173ffffffffffffffffffffffffffffffffffffffff021916908373ffffffffffffffffffffffffffffffffffffffff1602179055506040820151816002015560608201518160030160006101000a81548160ff021916908315150217905550505080612fee576040517f08c379a0000000000000000000000000000000000000000000000000000000008152600401612fe590614953565b60405180910390fd5b7fc083bacf997f451c75aafe358644c360f105a04631d5fea550402e38a1c5f76e82334260405161302193929190614973565b60405180910390a15050565b600160205280600052604060002060009150905080600001549080600101805461305690613e7a565b80601f016020809104026020016040519081016040528092919081815260200182805461308290613e7a565b80156130cf5780601f106130a4576101008083540402835291602001916130cf565b820191906000526020600020905b8154815290600101906020018083116130b257829003601f168201915b5050505050908060020160009054906101000a900473ffffffffffffffffffffffffffffffffffffffff169080600301805461310a90613e7a565b80601f016020809104026020016040519081016040528092919081815260200182805461313690613e7a565b80156131835780601f1061315857610100808354040283529160200191613183565b820191906000526020600020905b81548152906001019060200180831161316657829003601f168201915b5050505050908060040154908060050160009054906101000a900460ff16908060060154908060070154905088565b6131bc828261204f565b6131fb576040517f08c379a00000000000000000000000000000000000000000000000000000000081526004016131f2906149f6565b60405180910390fd5b8073ffffffffffffffffffffffffffffffffffffffff16827fdfaf16f598115f57c2553188dd0d6de487047f89c9529b994266f45c892b415960405160405180910390a35050565b6040518061010001604052806000815260200160608152602001600073ffffffffffffffffffffffffffffffffffffffff168152602001606081526020016000815260200160001515815260200160008152602001600081525090565b604051806080016040528060008152602001600073ffffffffffffffffffffffffffffffffffffffff168152602001600081526020016000151581525090565b600081519050919050565b600082825260208201905092915050565b6000819050602082019050919050565b6000819050919050565b61331f8161330c565b82525050565b60006133318383613316565b60208301905092915050565b6000602082019050919050565b6000613355826132e0565b61335f81856132eb565b935061336a836132fc565b8060005b8381101561339b5781516133828882613325565b975061338d8361333d565b92505060018101905061336e565b5085935050505092915050565b600060208201905081810360008301526133c2818461334a565b905092915050565b6000604051905090565b600080fd5b600080fd5b6133e78161330c565b81146133f257600080fd5b50565b600081359050613404816133de565b92915050565b6000602082840312156134205761341f6133d4565b5b600061342e848285016133f5565b91505092915050565b600073ffffffffffffffffffffffffffffffffffffffff82169050919050565b600061346282613437565b9050919050565b61347281613457565b811461347d57600080fd5b50565b60008135905061348f81613469565b92915050565b600080604083850312156134ac576134ab6133d4565b5b60006134ba858286016133f5565b92505060206134cb85828601613480565b9150509250929050565b600080604083850312156134ec576134eb6133d4565b5b60006134fa858286016133f5565b925050602061350b858286016133f5565b9150509250929050565b61351e81613457565b82525050565b61352d8161330c565b82525050565b60008115159050919050565b61354881613533565b82525050565b60006080820190506135636000830187613515565b6135706020830186613524565b61357d6040830185613524565b61358a606083018461353f565b95945050505050565b6000602082840312156135a9576135a86133d4565b5b60006135b784828501613480565b91505092915050565b600081519050919050565b600082825260208201905092915050565b6000819050602082019050919050565b600081519050919050565b600082825260208201905092915050565b60005b8381101561362657808201518184015260208101905061360b565b60008484015250505050565b6000601f19601f8301169050919050565b600061364e826135ec565b61365881856135f7565b9350613668818560208601613608565b61367181613632565b840191505092915050565b61368581613457565b82525050565b61369481613533565b82525050565b6000610100830160008301516136b36000860182613316565b50602083015184820360208601526136cb8282613643565b91505060408301516136e0604086018261367c565b50606083015184820360608601526136f88282613643565b915050608083015161370d6080860182613316565b5060a083015161372060a086018261368b565b5060c083015161373360c0860182613316565b5060e083015161374660e0860182613316565b508091505092915050565b600061375d838361369a565b905092915050565b6000602082019050919050565b600061377d826135c0565b61378781856135cb565b935083602082028501613799856135dc565b8060005b858110156137d557848403895281516137b68582613751565b94506137c183613765565b925060208a0199505060018101905061379d565b50829750879550505050505092915050565b600060208201905081810360008301526138018184613772565b905092915050565b600080fd5b600080fd5b7f4e487b7100000000000000000000000000000000000000000000000000000000600052604160045260246000fd5b61384b82613632565b810181811067ffffffffffffffff8211171561386a57613869613813565b5b80604052505050565b600061387d6133ca565b90506138898282613842565b919050565b600067ffffffffffffffff8211156138a9576138a8613813565b5b6138b282613632565b9050602081019050919050565b82818337600083830152505050565b60006138e16138dc8461388e565b613873565b9050828152602081018484840111156138fd576138fc61380e565b5b6139088482856138bf565b509392505050565b600082601f83011261392557613924613809565b5b81356139358482602086016138ce565b91505092915050565b600080600060608486031215613957576139566133d4565b5b600084013567ffffffffffffffff811115613975576139746133d9565b5b61398186828701613910565b935050602084013567ffffffffffffffff8111156139a2576139a16133d9565b5b6139ae86828701613910565b92505060406139bf868287016133f5565b9150509250925092565b60006020820190506139de6000830184613524565b92915050565b600081519050919050565b600082825260208201905092915050565b6000819050602082019050919050565b608082016000820151613a266000850182613316565b506020820151613a39602085018261367c565b506040820151613a4c6040850182613316565b506060820151613a5f606085018261368b565b50505050565b6000613a718383613a10565b60808301905092915050565b6000602082019050919050565b6000613a95826139e4565b613a9f81856139ef565b9350613aaa83613a00565b8060005b83811015613adb578151613ac28882613a65565b9750613acd83613a7d565b925050600181019050613aae565b5085935050505092915050565b60006020820190508181036000830152613b028184613a8a565b905092915050565b600061010083016000830151613b236000860182613316565b5060208301518482036020860152613b3b8282613643565b9150506040830151613b50604086018261367c565b5060608301518482036060860152613b688282613643565b9150506080830151613b7d6080860182613316565b5060a0830151613b9060a086018261368b565b5060c0830151613ba360c0860182613316565b5060e0830151613bb660e0860182613316565b508091505092915050565b60006020820190508181036000830152613bdb8184613b0a565b905092915050565b6000608082019050613bf86000830187613524565b613c056020830186613515565b613c126040830185613524565b613c1f606083018461353f565b95945050505050565b6000602082019050613c3d600083018461353f565b92915050565b600082825260208201905092915050565b6000613c5f826135ec565b613c698185613c43565b9350613c79818560208601613608565b613c8281613632565b840191505092915050565b600060a082019050613ca26000830188613524565b8181036020830152613cb48187613c54565b9050613cc36040830186613515565b613cd06060830185613524565b613cdd6080830184613524565b9695505050505050565b600061010082019050613cfd600083018b613524565b8181036020830152613d0f818a613c54565b9050613d1e6040830189613515565b8181036060830152613d308188613c54565b9050613d3f6080830187613524565b613d4c60a083018661353f565b613d5960c0830185613524565b613d6660e0830184613524565b9998505050505050505050565b7f506174656e74206973206e6f7420666f722073616c6500000000000000000000600082015250565b6000613da9601683613c43565b9150613db482613d73565b602082019050919050565b60006020820190508181036000830152613dd881613d9c565b9050919050565b7f496e73756666696369656e742066756e647320746f2062757920706174656e74600082015250565b6000613e15602083613c43565b9150613e2082613ddf565b602082019050919050565b60006020820190508181036000830152613e4481613e08565b9050919050565b7f4e487b7100000000000000000000000000000000000000000000000000000000600052602260045260246000fd5b60006002820490506001821680613e9257607f821691505b602082108103613ea557613ea4613e4b565b5b50919050565b60008190508160005260206000209050919050565b60008154613ecd81613e7a565b613ed78186613c43565b94506001821660008114613ef25760018114613f0857613f3b565b60ff198316865281151560200286019350613f3b565b613f1185613eab565b60005b83811015613f3357815481890152600182019150602081019050613f14565b808801955050505b50505092915050565b60006040820190508181036000830152613f5e8185613ec0565b9050613f6d6020830184613524565b9392505050565b7f4f6e6c7920746865206f776e65722063616e20617070726f7665000000000000600082015250565b6000613faa601a83613c43565b9150613fb582613f74565b602082019050919050565b60006020820190508181036000830152613fd981613f9d565b9050919050565b7f4e487b7100000000000000000000000000000000000000000000000000000000600052603260045260246000fd5b7f4e487b7100000000000000000000000000000000000000000000000000000000600052601160045260246000fd5b60006140498261330c565b91507fffffffffffffffffffffffffffffffffffffffffffffffffffffffffffffffff820361407b5761407a61400f565b5b600182019050919050565b7f417574686f72697a6174696f6e2072657175657374206e6f7420666f756e642060008201527f6f7220616c726561647920617070726f76656400000000000000000000000000602082015250565b60006140e2603383613c43565b91506140ed82614086565b604082019050919050565b60006020820190508181036000830152614111816140d5565b9050919050565b7f596f7520617265206e6f7420746865206f776e6572206f66207468697320706160008201527f74656e7400000000000000000000000000000000000000000000000000000000602082015250565b6000614174602483613c43565b915061417f82614118565b604082019050919050565b600060208201905081810360008301526141a381614167565b9050919050565b7f506174656e74206973206e6f742063757272656e746c7920666f722073616c65600082015250565b60006141e0602083613c43565b91506141eb826141aa565b602082019050919050565b6000602082019050818103600083015261420f816141d3565b9050919050565b600060208201905081810360008301526142308184613ec0565b905092915050565b7f506174656e7420494420616c7265616479206578697374730000000000000000600082015250565b600061426e601883613c43565b915061427982614238565b602082019050919050565b6000602082019050818103600083015261429d81614261565b9050919050565b7f4475726174696f6e206d7573742062652067726561746572207468616e207a6560008201527f726f000000000000000000000000000000000000000000000000000000000000602082015250565b6000614300602283613c43565b915061430b826142a4565b604082019050919050565b6000602082019050818103600083015261432f816142f3565b9050919050565b60006143418261330c565b915061434c8361330c565b92508282019050808211156143645761436361400f565b5b92915050565b60006020601f8301049050919050565b60008160020a8302905092915050565b6000600883026143ba7fffffffffffffffffffffffffffffffffffffffffffffffffffffffffffffffff8261437a565b6143c4868361437a565b95508019841693508086168417925050509392505050565b6000819050919050565b60006144016143fc6143f78461330c565b6143dc565b61330c565b9050919050565b6000819050919050565b61441b836143e6565b61442f61442782614408565b84845461438a565b825550505050565b600090565b614444614437565b61444f818484614412565b505050565b5b818110156144735761446860008261443c565b600181019050614455565b5050565b601f8211156144b85761448981613eab565b6144928461436a565b810160208510156144a1578190505b6144b56144ad8561436a565b830182614454565b50505b505050565b60008160020a8304905092915050565b60006144de600019846008026144bd565b1980831691505092915050565b60006144f783836144cd565b9150826002028217905092915050565b614510826135ec565b67ffffffffffffffff81111561452957614528613813565b5b6145338254613e7a565b61453e828285614477565b600060209050601f831160018114614571576000841561455f578287015190505b61456985826144eb565b8655506145d1565b601f19841661457f86613eab565b60005b828110156145a757848901518255600182019150602085019450602081019050614582565b868310156145c457848901516145c0601f8916826144cd565b8355505b6001600288020188555050505b505050505050565b60006145e48261330c565b91506145ef8361330c565b92508282039050818111156146075761460661400f565b5b92915050565b6000819050919050565b600061463261462d6146288461460d565b6143dc565b61330c565b9050919050565b61464281614617565b82525050565b600060e08201905061465d600083018a613524565b818103602083015261466f8189613c54565b905081810360408301526146838188613c54565b90506146926060830187614639565b61469f608083018661353f565b6146ac60a0830185613524565b6146b960c0830184613524565b98975050505050505050565b7f4f6e6c7920746865206f776e65722063616e2072656a65637400000000000000600082015250565b60006146fb601983613c43565b9150614706826146c5565b602082019050919050565b6000602082019050818103600083015261472a816146ee565b9050919050565b7f506174656e7420646f6573206e6f742065786973740000000000000000000000600082015250565b6000614767601583613c43565b915061477282614731565b602082019050919050565b600060208201905081810360008301526147968161475a565b9050919050565b7f596f752061726520616c726561647920617574686f72697a6564000000000000600082015250565b60006147d3601a83613c43565b91506147de8261479d565b602082019050919050565b60006020820190508181036000830152614802816147c6565b9050919050565b7f596f7520617265206e6f7420746865206f776e65720000000000000000000000600082015250565b600061483f601583613c43565b915061484a82614809565b602082019050919050565b6000602082019050818103600083015261486e81614832565b9050919050565b7f506174656e7420697320616c726561647920666f722073616c65000000000000600082015250565b60006148ab601a83613c43565b91506148b682614875565b602082019050919050565b600060208201905081810360008301526148da8161489e565b9050919050565b7f596f7520646f206e6f742068617665207065726d697373696f6e20746f20757360008201527f65207468697320706174656e7400000000000000000000000000000000000000602082015250565b600061493d602d83613c43565b9150614948826148e1565b604082019050919050565b6000602082019050818103600083015261496c81614930565b9050919050565b60006060820190506149886000830186613524565b6149956020830185613515565b6149a26040830184613524565b949350505050565b7f4e6f20696e6672696e67656d656e742064657465637465640000000000000000600082015250565b60006149e0601883613c43565b91506149eb826149aa565b602082019050919050565b60006020820190508181036000830152614a0f816149d3565b905091905056fea26469706673582212206996a5769de12c16c23acb52e6b957d17d641f3b6a25d05337880664981a71ec64736f6c63430008150033",
  "immutableReferences": {},
  "source": "// SPDX-License-Identifier: MIT\r\npragma solidity ^0.8.0;\r\n\r\nimport \"./PatentRegistry.sol\";  // \r\n\r\ncontract PatentMarket is PatentRegistry {\r\n    // \r\n    struct AuthorizationRequest {\r\n        address applicant;       // \r\n        uint256 patentId;        //  ID\r\n        uint256 requestTime;     // \r\n        bool approved;           // \r\n    }\r\n\r\n    // \r\n    struct UseRecord {\r\n        uint256 patentId;       //  ID\r\n        address user;           // \r\n        uint256 useTime;        // \r\n        bool isAuthorized;      // \r\n    }\r\n\r\n    // ID\r\n    mapping(uint => mapping(address => bool)) public authorizedUsers;\r\n    mapping(uint256 => AuthorizationRequest[]) public authorizationRequests; // \r\n    mapping(uint256 => UseRecord[]) public useRecords; // \r\n    // \r\n    event PatentListed(uint indexed patentId, string name, address indexed owner, uint price);\r\n    event PatentSold(uint indexed patentId, string name, address indexed previousOwner, address indexed newOwner, uint price);\r\n    event PatentAuthorized(uint indexed patentId, address indexed user);\r\n    event PatentInfringementDetected(uint indexed patentId, address indexed infringer);\r\n    event LegalActionTriggered(uint indexed patentId, address indexed infringer);\r\n    // \r\n    event PatentAuthorizationRequested(uint256 indexed patentId, address indexed applicant);\r\n    // \r\n    event PatentAuthorizationRejected(uint256 indexed patentId, address indexed user);\r\n    \r\n    // \r\n    function listForSale(uint patentId, uint price) public {\r\n        Patent storage patent = patents[patentId];\r\n        require(patent.currentOwner == msg.sender, \"You are not the owner\");\r\n        require(patent.isForSale == false, \"Patent is already for sale\");\r\n\r\n        patent.price = price;\r\n        patent.isForSale = true;\r\n\r\n        emit PatentListed(patentId, patent.patentName, msg.sender, price);\r\n    }\r\n\r\n    // \r\n    function buyPatent(uint patentId) public payable {\r\n        Patent storage patent = patents[patentId];\r\n        require(patent.isForSale, \"Patent is not for sale\");\r\n        require(msg.value >= patent.price, \"Insufficient funds to buy patent\");\r\n\r\n        address previousOwner = patent.currentOwner;\r\n        patent.currentOwner = msg.sender;\r\n        patent.isForSale = false;\r\n\r\n        // \r\n        payable(previousOwner).transfer(msg.value);\r\n\r\n        emit PatentSold(patentId, patent.patentName, previousOwner, msg.sender, patent.price);\r\n    }\r\n\r\n    // \r\n    function canApplyForAuthorization(uint256 patentId, address user) public view returns (bool) {\r\n        // 1. \r\n        if (user == patents[patentId].currentOwner) {\r\n            return false;  // \r\n        }\r\n        \r\n        // 2. \r\n        if (authorizedUsers[patentId][user]) {\r\n            return false;  // \r\n        }\r\n\r\n        // 3. \r\n        if (patents[patentId].isForSale) {\r\n            return false;  // \r\n        }\r\n\r\n        // \r\n        return true;\r\n    }\r\n\r\n    // \r\n    function requestPatentAuthorization(uint256 patentId) public {\r\n        // \r\n        require(patents[patentId].patentId == patentId, \"Patent does not exist\");\r\n\r\n        // \r\n        require(!authorizedUsers[patentId][msg.sender], \"You are already authorized\");\r\n\r\n        // \r\n        authorizationRequests[patentId].push(AuthorizationRequest({\r\n            applicant: msg.sender,\r\n            patentId: patentId,      //  ID\r\n            requestTime: block.timestamp,\r\n            approved: false // \r\n        }));\r\n\r\n        emit PatentAuthorizationRequested(patentId, msg.sender);\r\n    }\r\n\r\n    // \r\n    function approveAuthorization(uint256 patentId, address user) public {\r\n        // \r\n        require(patents[patentId].currentOwner == msg.sender, \"Only the owner can approve\");\r\n\r\n        // \r\n        bool applicationFound = false;\r\n        for (uint i = 0; i < authorizationRequests[patentId].length; i++) {\r\n            if (authorizationRequests[patentId][i].applicant == user && !authorizationRequests[patentId][i].approved) {\r\n                // \r\n                authorizationRequests[patentId][i].approved = true;\r\n                authorizedUsers[patentId][user] = true;\r\n\r\n                emit PatentAuthorized(patentId, user);\r\n                applicationFound = true;\r\n                break;\r\n            }\r\n        }\r\n\r\n        require(applicationFound, \"Authorization request not found or already approved\");\r\n    }\r\n\r\n    // \r\n    function rejectAuthorization(uint256 patentId, address user) public {\r\n        // \r\n        require(patents[patentId].currentOwner == msg.sender, \"Only the owner can reject\");\r\n\r\n        // \r\n        bool applicationFound = false;\r\n        for (uint i = 0; i < authorizationRequests[patentId].length; i++) {\r\n            if (authorizationRequests[patentId][i].applicant == user && !authorizationRequests[patentId][i].approved) {\r\n                // \r\n                authorizationRequests[patentId][i].approved = false;\r\n\r\n                emit PatentAuthorizationRejected(patentId, user);\r\n                applicationFound = true;\r\n                break;\r\n            }\r\n        }\r\n        require(applicationFound, \"Authorization request not found or already approved\");\r\n    }\r\n\r\n    // \r\n    function usePatent(uint256 patentId) public {\r\n        // \r\n        require(patents[patentId].patentId == patentId, \"Patent does not exist\");\r\n\r\n        // \r\n        bool hasPermission = (msg.sender == patents[patentId].currentOwner || authorizedUsers[patentId][msg.sender]);\r\n\r\n        // \r\n        useRecords[patentId].push(UseRecord({\r\n            patentId: patentId,\r\n            user: msg.sender, \r\n            useTime: block.timestamp,\r\n            isAuthorized: hasPermission\r\n        }));\r\n\r\n        // \r\n        require(hasPermission, \"You do not have permission to use this patent\");\r\n\r\n        emit PatentUsed(patentId, msg.sender, block.timestamp);\r\n    }\r\n\r\n    // \r\n    function getOwnedPatentsUseRecords(address user) public view returns (UseRecord[] memory) {\r\n        uint256 ownedPatentsCount = 0;\r\n        // \r\n        for (uint256 i = 0; i < patentCount; i++) {\r\n            if (patents[i].currentOwner == user) {\r\n                ownedPatentsCount++;\r\n            }\r\n        }\r\n\r\n        // \r\n        UseRecord[] memory allUseRecords = new UseRecord[](ownedPatentsCount);\r\n\r\n        uint256 index = 0;\r\n        for (uint256 i = 0; i < patentCount; i++) {\r\n            if (patents[i].currentOwner == user) {\r\n                // \r\n                for (uint256 j = 0; j < useRecords[i].length; j++) {\r\n                    allUseRecords[index] = useRecords[i][j];\r\n                    index++;\r\n                }\r\n            }\r\n        }\r\n\r\n        return allUseRecords;\r\n    }\r\n\r\n    // \r\n    event PatentUsed(uint256 patentId, address user, uint256 useTime);\r\n\r\n    // \r\n    function detectIllegalUse(uint256 patentId, address user) public view returns (bool) {\r\n        // \r\n        bool hasPermission = (user == patents[patentId].currentOwner || authorizedUsers[patentId][user]);\r\n        return !hasPermission;\r\n    }\r\n\r\n    // \r\n    function triggerInfringementWarning(uint patentId, address infringer) public {\r\n        require(detectIllegalUse(patentId, infringer), \"No infringement detected\");\r\n\r\n        emit PatentInfringementDetected(patentId, infringer);\r\n    }\r\n\r\n    // \r\n    function getPatentInfo(uint patentId) public view returns (Patent memory) {\r\n        return patents[patentId];\r\n    }\r\n\r\n    // \r\n    function isPatentForSale(uint patentId) public view returns (bool) {\r\n        return patents[patentId].isForSale;\r\n    }\r\n\r\n    // \r\n    function isAuthorizedUser(uint patentId, address user) public view returns (bool) {\r\n        return authorizedUsers[patentId][user];\r\n    }\r\n\r\n    // \r\n    function fetchMarketPatents(address user) public view returns (Patent[] memory) {\r\n        uint count = 0;\r\n        uint[] memory availablePatentIds = new uint[](patentCount);\r\n\r\n        // \r\n        for (uint i = 0; i <= patentCount; i++) {\r\n            if (patents[i].isForSale  && patents[i].currentOwner != user) {\r\n                availablePatentIds[count] = i;\r\n                count++;\r\n            }\r\n        }\r\n\r\n        // Patent\r\n        Patent[] memory availablePatents = new Patent[](count);\r\n        for (uint i = 0; i < count; i++) {\r\n            uint patentId = availablePatentIds[i];\r\n            availablePatents[i] = patents[patentId];\r\n        }\r\n\r\n        return availablePatents;\r\n    }\r\n    // \r\n    function fetchPatentsCanSale(address user) public view returns (Patent[] memory) {\r\n        uint count = 0;\r\n        \r\n        // \r\n        for (uint i = 0; i < patentCount; i++) {\r\n            if (patents[i].currentOwner == user && !patents[i].isForSale) {\r\n                count++;\r\n            }\r\n        }\r\n\r\n        // \r\n        Patent[] memory userPatentsForSale = new Patent[](count);\r\n        uint index = 0;\r\n\r\n        // \r\n        for (uint i = 0; i < patentCount; i++) {\r\n            if (patents[i].currentOwner == user && patents[i].isForSale) {\r\n                userPatentsForSale[index] = patents[i];\r\n                index++;\r\n            }\r\n        }\r\n        return userPatentsForSale;\r\n    }\r\n    // \r\n    function fetchSoldPatents(address user) public view returns (Patent[] memory) {\r\n        uint count = 0;\r\n\r\n        // \r\n        for (uint i = 0; i < patentCount; i++) {\r\n            if (patents[i].currentOwner == user && patents[i].isForSale) {\r\n                count++;\r\n            }\r\n        }\r\n\r\n        // \r\n        Patent[] memory soldPatents = new Patent[](count);\r\n        uint index = 0;\r\n\r\n        // \r\n        for (uint i = 0; i < patentCount; i++) {\r\n            if (patents[i].currentOwner == user && patents[i].isForSale) {\r\n                soldPatents[index] = patents[i];\r\n                index++;\r\n            }\r\n        }\r\n\r\n        return soldPatents;\r\n    }\r\n    // \r\n    function withdrawPatentFromSale(uint patentId) public {\r\n        Patent storage patent = patents[patentId];\r\n\r\n        // \r\n        require(patent.currentOwner == msg.sender, \"You are not the owner of this patent\");\r\n\r\n        // \r\n        require(patent.isForSale == true, \"Patent is not currently for sale\");\r\n\r\n        // \r\n        patent.isForSale = false;\r\n\r\n        // \r\n        emit PatentWithdrawn(patentId, patent.patentName, msg.sender);\r\n    }\r\n\r\n    // \r\n    event PatentWithdrawn(uint indexed patentId, string patentName, address indexed owner);\r\n}\r\n",
  "sourcePath": "D:\\Github\\patent-dapp(1)\\patent-dapp\\contracts\\PatentMarket.sol",
  "compiler": {
    "name": "solc",
    "version": "0.8.21+commit.d9974bed.Emscripten.clang"
  },
  "schemaVersion": "3.4.16",
  "updatedAt": "2024-12-20T11:56:09.061Z",
  "networkType": "ethereum",
  "devdoc": {
    "kind": "dev",
    "methods": {},
    "version": 1
  },
  "userdoc": {
    "kind": "user",
    "methods": {},
    "version": 1
  }
}