{
  "contractName": "PatentRegistry",
  "abi": [
    {
      "anonymous": false,
      "inputs": [
        {
          "indexed": false,
          "internalType": "uint256",
          "name": "patentId",
          "type": "uint256"
        },
        {
          "indexed": false,
          "internalType": "string",
          "name": "name",
          "type": "string"
        },
        {
          "indexed": true,
          "internalType": "address",
          "name": "owner",
          "type": "address"
        },
        {
          "indexed": false,
          "internalType": "string",
          "name": "description",
          "type": "string"
        },
        {
          "indexed": false,
          "internalType": "uint256",
          "name": "price",
          "type": "uint256"
        },
        {
          "indexed": false,
          "internalType": "bool",
          "name": "isForSale",
          "type": "bool"
        },
        {
          "indexed": false,
          "internalType": "uint256",
          "name": "registrationTime",
          "type": "uint256"
        },
        {
          "indexed": false,
          "internalType": "uint256",
          "name": "expiryTime",
          "type": "uint256"
        }
      ],
      "name": "PatentRegistered",
      "type": "event"
    },
    {
      "inputs": [],
      "name": "patentCount",
      "outputs": [
        {
          "internalType": "uint256",
          "name": "",
          "type": "uint256"
        }
      ],
      "stateMutability": "view",
      "type": "function",
      "constant": true
    },
    {
      "inputs": [
        {
          "internalType": "uint256",
          "name": "",
          "type": "uint256"
        }
      ],
      "name": "patents",
      "outputs": [
        {
          "internalType": "uint256",
          "name": "patentId",
          "type": "uint256"
        },
        {
          "internalType": "string",
          "name": "patentName",
          "type": "string"
        },
        {
          "internalType": "address",
          "name": "currentOwner",
          "type": "address"
        },
        {
          "internalType": "string",
          "name": "description",
          "type": "string"
        },
        {
          "internalType": "uint256",
          "name": "price",
          "type": "uint256"
        },
        {
          "internalType": "bool",
          "name": "isForSale",
          "type": "bool"
        },
        {
          "internalType": "uint256",
          "name": "registrationTime",
          "type": "uint256"
        },
        {
          "internalType": "uint256",
          "name": "expiryTime",
          "type": "uint256"
        }
      ],
      "stateMutability": "view",
      "type": "function",
      "constant": true
    },
    {
      "inputs": [
        {
          "internalType": "string",
          "name": "name",
          "type": "string"
        },
        {
          "internalType": "string",
          "name": "description",
          "type": "string"
        },
        {
          "internalType": "uint256",
          "name": "duration",
          "type": "uint256"
        },
        {
          "internalType": "uint256",
          "name": "price",
          "type": "uint256"
        }
      ],
      "name": "registerPatent",
      "outputs": [
        {
          "internalType": "uint256",
          "name": "",
          "type": "uint256"
        }
      ],
      "stateMutability": "nonpayable",
      "type": "function"
    },
    {
      "inputs": [
        {
          "internalType": "uint256",
          "name": "patentId",
          "type": "uint256"
        }
      ],
      "name": "getPatent",
      "outputs": [
        {
          "internalType": "uint256",
          "name": "",
          "type": "uint256"
        },
        {
          "internalType": "string",
          "name": "",
          "type": "string"
        },
        {
          "internalType": "string",
          "name": "",
          "type": "string"
        },
        {
          "internalType": "address",
          "name": "",
          "type": "address"
        },
        {
          "internalType": "uint256",
          "name": "",
          "type": "uint256"
        },
        {
          "internalType": "uint256",
          "name": "",
          "type": "uint256"
        },
        {
          "internalType": "uint256",
          "name": "",
          "type": "uint256"
        }
      ],
      "stateMutability": "view",
      "type": "function",
      "constant": true
    },
    {
      "inputs": [
        {
          "internalType": "uint256",
          "name": "patentId",
          "type": "uint256"
        }
      ],
      "name": "isPatentExpired",
      "outputs": [
        {
          "internalType": "bool",
          "name": "",
          "type": "bool"
        }
      ],
      "stateMutability": "view",
      "type": "function",
      "constant": true
    },
    {
      "inputs": [],
      "name": "getUserPatents",
      "outputs": [
        {
          "internalType": "uint256[]",
          "name": "",
          "type": "uint256[]"
        }
      ],
      "stateMutability": "view",
      "type": "function",
      "constant": true
    }
  ],
  "bytecode": "0x608060405234801561001057600080fd5b506112d5806100206000396000f3fe608060405234801561001057600080fd5b506004361061007f576000357c01000000000000000000000000000000000000000000000000000000009004806309e6baf1146100845780639c6d0d78146100a2578063b084c841146100d8578063bf7b6404146100f6578063c5cf911314610126578063f422bc6814610156575b600080fd5b61008c61018d565b6040516100999190610930565b60405180910390f35b6100bc60048036038101906100b79190610992565b610222565b6040516100cf9796959493929190610a9f565b60405180910390f35b6100e061044a565b6040516100ed9190610b1c565b60405180910390f35b610110600480360381019061010b9190610992565b610450565b60405161011d9190610b52565b60405180910390f35b610140600480360381019061013b9190610ca2565b610472565b60405161014d9190610b1c565b60405180910390f35b610170600480360381019061016b9190610992565b6106e3565b604051610184989796959493929190610d41565b60405180910390f35b6060600260003373ffffffffffffffffffffffffffffffffffffffff1673ffffffffffffffffffffffffffffffffffffffff16815260200190815260200160002080548060200260200160405190810160405280929190818152602001828054801561021857602002820191906000526020600020905b815481526020019060010190808311610204575b5050505050905090565b60006060806000806000806000600160008a8152602001908152602001600020604051806101000160405290816000820154815260200160018201805461026890610dfc565b80601f016020809104026020016040519081016040528092919081815260200182805461029490610dfc565b80156102e15780601f106102b6576101008083540402835291602001916102e1565b820191906000526020600020905b8154815290600101906020018083116102c457829003601f168201915b505050505081526020016002820160009054906101000a900473ffffffffffffffffffffffffffffffffffffffff1673ffffffffffffffffffffffffffffffffffffffff1673ffffffffffffffffffffffffffffffffffffffff16815260200160038201805461035090610dfc565b80601f016020809104026020016040519081016040528092919081815260200182805461037c90610dfc565b80156103c95780601f1061039e576101008083540402835291602001916103c9565b820191906000526020600020905b8154815290600101906020018083116103ac57829003601f168201915b50505050508152602001600482015481526020016005820160009054906101000a900460ff1615151515815260200160068201548152602001600782015481525050905080600001518160200151826060015183604001518460c001518560e001518660800151975097509750975097509750975050919395979092949650565b60005481565b6000600160008381526020019081526020016000206007015442119050919050565b60008083116104b6576040517f08c379a00000000000000000000000000000000000000000000000000000000081526004016104ad90610e9f565b60405180910390fd5b60405180610100016040528060005481526020018681526020013373ffffffffffffffffffffffffffffffffffffffff16815260200185815260200183815260200160011515815260200142815260200184426105139190610eee565b815250600160008054815260200190815260200160002060008201518160000155602082015181600101908161054991906110d4565b5060408201518160020160006101000a81548173ffffffffffffffffffffffffffffffffffffffff021916908373ffffffffffffffffffffffffffffffffffffffff16021790555060608201518160030190816105a691906110d4565b506080820151816004015560a08201518160050160006101000a81548160ff02191690831515021790555060c0820151816006015560e08201518160070155905050600260003373ffffffffffffffffffffffffffffffffffffffff1673ffffffffffffffffffffffffffffffffffffffff1681526020019081526020016000206000549080600181540180825580915050600190039060005260206000200160009091909190915055600080815480929190610662906111a6565b91905055503373ffffffffffffffffffffffffffffffffffffffff167ffe35dd0a2a2b1a13a2ecfe9e9714cbb3430db7ca9c258e25e74ba7c432721fbb60016000546106ae91906111ee565b8787866001428a426106c09190610eee565b6040516106d39796959493929190611222565b60405180910390a2949350505050565b600160205280600052604060002060009150905080600001549080600101805461070c90610dfc565b80601f016020809104026020016040519081016040528092919081815260200182805461073890610dfc565b80156107855780601f1061075a57610100808354040283529160200191610785565b820191906000526020600020905b81548152906001019060200180831161076857829003601f168201915b5050505050908060020160009054906101000a900473ffffffffffffffffffffffffffffffffffffffff16908060030180546107c090610dfc565b80601f01602080910402602001604051908101604052809291908181526020018280546107ec90610dfc565b80156108395780601f1061080e57610100808354040283529160200191610839565b820191906000526020600020905b81548152906001019060200180831161081c57829003601f168201915b5050505050908060040154908060050160009054906101000a900460ff16908060060154908060070154905088565b600081519050919050565b600082825260208201905092915050565b6000819050602082019050919050565b6000819050919050565b6108a781610894565b82525050565b60006108b9838361089e565b60208301905092915050565b6000602082019050919050565b60006108dd82610868565b6108e78185610873565b93506108f283610884565b8060005b8381101561092357815161090a88826108ad565b9750610915836108c5565b9250506001810190506108f6565b5085935050505092915050565b6000602082019050818103600083015261094a81846108d2565b905092915050565b6000604051905090565b600080fd5b600080fd5b61096f81610894565b811461097a57600080fd5b50565b60008135905061098c81610966565b92915050565b6000602082840312156109a8576109a761095c565b5b60006109b68482850161097d565b91505092915050565b6109c881610894565b82525050565b600081519050919050565b600082825260208201905092915050565b60005b83811015610a085780820151818401526020810190506109ed565b60008484015250505050565b6000601f19601f8301169050919050565b6000610a30826109ce565b610a3a81856109d9565b9350610a4a8185602086016109ea565b610a5381610a14565b840191505092915050565b600073ffffffffffffffffffffffffffffffffffffffff82169050919050565b6000610a8982610a5e565b9050919050565b610a9981610a7e565b82525050565b600060e082019050610ab4600083018a6109bf565b8181036020830152610ac68189610a25565b90508181036040830152610ada8188610a25565b9050610ae96060830187610a90565b610af660808301866109bf565b610b0360a08301856109bf565b610b1060c08301846109bf565b98975050505050505050565b6000602082019050610b3160008301846109bf565b92915050565b60008115159050919050565b610b4c81610b37565b82525050565b6000602082019050610b676000830184610b43565b92915050565b600080fd5b600080fd5b7f4e487b7100000000000000000000000000000000000000000000000000000000600052604160045260246000fd5b610baf82610a14565b810181811067ffffffffffffffff82111715610bce57610bcd610b77565b5b80604052505050565b6000610be1610952565b9050610bed8282610ba6565b919050565b600067ffffffffffffffff821115610c0d57610c0c610b77565b5b610c1682610a14565b9050602081019050919050565b82818337600083830152505050565b6000610c45610c4084610bf2565b610bd7565b905082815260208101848484011115610c6157610c60610b72565b5b610c6c848285610c23565b509392505050565b600082601f830112610c8957610c88610b6d565b5b8135610c99848260208601610c32565b91505092915050565b60008060008060808587031215610cbc57610cbb61095c565b5b600085013567ffffffffffffffff811115610cda57610cd9610961565b5b610ce687828801610c74565b945050602085013567ffffffffffffffff811115610d0757610d06610961565b5b610d1387828801610c74565b9350506040610d248782880161097d565b9250506060610d358782880161097d565b91505092959194509250565b600061010082019050610d57600083018b6109bf565b8181036020830152610d69818a610a25565b9050610d786040830189610a90565b8181036060830152610d8a8188610a25565b9050610d9960808301876109bf565b610da660a0830186610b43565b610db360c08301856109bf565b610dc060e08301846109bf565b9998505050505050505050565b7f4e487b7100000000000000000000000000000000000000000000000000000000600052602260045260246000fd5b60006002820490506001821680610e1457607f821691505b602082108103610e2757610e26610dcd565b5b50919050565b7f4475726174696f6e206d7573742062652067726561746572207468616e207a6560008201527f726f000000000000000000000000000000000000000000000000000000000000602082015250565b6000610e896022836109d9565b9150610e9482610e2d565b604082019050919050565b60006020820190508181036000830152610eb881610e7c565b9050919050565b7f4e487b7100000000000000000000000000000000000000000000000000000000600052601160045260246000fd5b6000610ef982610894565b9150610f0483610894565b9250828201905080821115610f1c57610f1b610ebf565b5b92915050565b60008190508160005260206000209050919050565b60006020601f8301049050919050565b60008160020a8302905092915050565b600060088302610f877fffffffffffffffffffffffffffffffffffffffffffffffffffffffffffffffff82610f47565b610f918683610f47565b95508019841693508086168417925050509392505050565b6000819050919050565b6000610fce610fc9610fc484610894565b610fa9565b610894565b9050919050565b6000819050919050565b610fe883610fb3565b610ffc610ff482610fd5565b848454610f57565b825550505050565b600090565b611011611004565b61101c818484610fdf565b505050565b5b8181101561104057611035600082611009565b600181019050611022565b5050565b601f8211156110855761105681610f22565b61105f84610f37565b8101602085101561106e578190505b61108261107a85610f37565b830182611021565b50505b505050565b60008160020a8304905092915050565b60006110ab6000198460080261108a565b1980831691505092915050565b60006110c4838361109a565b9150826002028217905092915050565b6110dd826109ce565b67ffffffffffffffff8111156110f6576110f5610b77565b5b6111008254610dfc565b61110b828285611044565b600060209050601f83116001811461113e576000841561112c578287015190505b61113685826110b8565b86555061119e565b601f19841661114c86610f22565b60005b828110156111745784890151825560018201915060208501945060208101905061114f565b86831015611191578489015161118d601f89168261109a565b8355505b6001600288020188555050505b505050505050565b60006111b182610894565b91507fffffffffffffffffffffffffffffffffffffffffffffffffffffffffffffffff82036111e3576111e2610ebf565b5b600182019050919050565b60006111f982610894565b915061120483610894565b925082820390508181111561121c5761121b610ebf565b5b92915050565b600060e082019050611237600083018a6109bf565b81810360208301526112498189610a25565b9050818103604083015261125d8188610a25565b905061126c60608301876109bf565b6112796080830186610b43565b61128660a08301856109bf565b61129360c08301846109bf565b9897505050505050505056fea2646970667358221220cade56b0466c85fbf40cb6f06b063c1b1ae16823f07b0640ee5c2d83e0f7697e64736f6c63430008150033",
  "immutableReferences": {},
  "source": "// SPDX-License-Identifier: MIT\r\npragma solidity ^0.8.0;\r\n\r\nimport \"./PatentBase.sol\";  // \r\n\r\ncontract PatentRegistry is PatentBase {\r\n    // \r\n     event PatentRegistered(\r\n        uint256 patentId,\r\n        string name,\r\n        address indexed owner,\r\n        string description,\r\n        uint256 price,\r\n        bool isForSale,\r\n        uint256 registrationTime,\r\n        uint256 expiryTime\r\n    );\r\n\r\n    mapping(address => uint256[]) private userPatents; //  => ID\r\n\r\n    function registerPatent(\r\n        string memory name,\r\n        string memory description,\r\n        uint256 duration,\r\n        uint256 price\r\n    ) public returns (uint256) {\r\n        // require(patents[patentCount].patentId == 0, \"Patent ID already exists\");\r\n        require(duration > 0, \"Duration must be greater than zero\");\r\n\r\n        // \r\n        patents[patentCount] = Patent({\r\n            patentId: patentCount,\r\n            patentName: name,              // \r\n            currentOwner: msg.sender,      // \r\n            description: description,      // \r\n            price: price,                  // \r\n            isForSale: true,          // \r\n            registrationTime: block.timestamp,  // \r\n            expiryTime: block.timestamp + duration  // \r\n        });\r\n\r\n        userPatents[msg.sender].push(patentCount);\r\n        patentCount++;\r\n\r\n        // \r\n        emit PatentRegistered(\r\n            patentCount - 1,\r\n            name,\r\n            msg.sender,\r\n            description,\r\n            price,\r\n            true,\r\n            block.timestamp,\r\n            block.timestamp + duration\r\n        );\r\n    }\r\n\r\n    // \r\n    function getPatent(uint256 patentId) public view returns (\r\n        uint256,\r\n        string memory,\r\n        string memory,\r\n        address,\r\n        uint256,\r\n        uint256,\r\n        uint256\r\n    ) {\r\n        // require(patents[patentId].patentId != 0, \"Patent does not exist\");\r\n\r\n        Patent memory patent = patents[patentId];\r\n        return (\r\n            patent.patentId,\r\n            patent.patentName,\r\n            patent.description,\r\n            patent.currentOwner,\r\n            patent.registrationTime,\r\n            patent.expiryTime,\r\n            patent.price\r\n        );\r\n    }\r\n\r\n    // \r\n    function isPatentExpired(uint256 patentId) public view returns (bool) {\r\n        // require(patents[patentId].patentId != 0, \"Patent does not exist\");\r\n\r\n        return block.timestamp > patents[patentId].expiryTime;\r\n    }\r\n\r\n    // ID\r\n    function getUserPatents() public view returns (uint256[] memory) {\r\n        return userPatents[msg.sender];\r\n    }\r\n}\r\n",
  "sourcePath": "/Users/ethan/Education/Blockchain/patent-dapp/contracts/PatentRegistry.sol",
  "compiler": {
    "name": "solc",
    "version": "0.8.21+commit.d9974bed.Emscripten.clang"
  },
  "schemaVersion": "3.4.16",
  "updatedAt": "2024-12-21T12:05:20.996Z",
  "networkType": "ethereum",
  "devdoc": {
    "kind": "dev",
    "methods": {},
    "version": 1
  },
  "userdoc": {
    "kind": "user",
    "methods": {},
    "version": 1
  }
}