{
  "contractName": "PatentMarket",
  "abi": [
    {
      "anonymous": false,
      "inputs": [
        {
          "indexed": true,
          "internalType": "uint256",
          "name": "patentId",
          "type": "uint256"
        },
        {
          "indexed": true,
          "internalType": "address",
          "name": "infringer",
          "type": "address"
        }
      ],
      "name": "LegalActionTriggered",
      "type": "event"
    },
    {
      "anonymous": false,
      "inputs": [
        {
          "indexed": true,
          "internalType": "uint256",
          "name": "patentId",
          "type": "uint256"
        },
        {
          "indexed": true,
          "internalType": "address",
          "name": "user",
          "type": "address"
        }
      ],
      "name": "PatentAuthorizationRejected",
      "type": "event"
    },
    {
      "anonymous": false,
      "inputs": [
        {
          "indexed": true,
          "internalType": "uint256",
          "name": "patentId",
          "type": "uint256"
        },
        {
          "indexed": true,
          "internalType": "address",
          "name": "applicant",
          "type": "address"
        }
      ],
      "name": "PatentAuthorizationRequested",
      "type": "event"
    },
    {
      "anonymous": false,
      "inputs": [
        {
          "indexed": true,
          "internalType": "uint256",
          "name": "patentId",
          "type": "uint256"
        },
        {
          "indexed": true,
          "internalType": "address",
          "name": "user",
          "type": "address"
        }
      ],
      "name": "PatentAuthorized",
      "type": "event"
    },
    {
      "anonymous": false,
      "inputs": [
        {
          "indexed": true,
          "internalType": "uint256",
          "name": "patentId",
          "type": "uint256"
        },
        {
          "indexed": true,
          "internalType": "address",
          "name": "infringer",
          "type": "address"
        }
      ],
      "name": "PatentInfringementDetected",
      "type": "event"
    },
    {
      "anonymous": false,
      "inputs": [
        {
          "indexed": true,
          "internalType": "uint256",
          "name": "patentId",
          "type": "uint256"
        },
        {
          "indexed": false,
          "internalType": "string",
          "name": "name",
          "type": "string"
        },
        {
          "indexed": true,
          "internalType": "address",
          "name": "owner",
          "type": "address"
        },
        {
          "indexed": false,
          "internalType": "uint256",
          "name": "price",
          "type": "uint256"
        }
      ],
      "name": "PatentListed",
      "type": "event"
    },
    {
      "anonymous": false,
      "inputs": [
        {
          "indexed": false,
          "internalType": "uint256",
          "name": "patentId",
          "type": "uint256"
        },
        {
          "indexed": false,
          "internalType": "string",
          "name": "name",
          "type": "string"
        },
        {
          "indexed": true,
          "internalType": "address",
          "name": "owner",
          "type": "address"
        },
        {
          "indexed": false,
          "internalType": "string",
          "name": "description",
          "type": "string"
        },
        {
          "indexed": false,
          "internalType": "uint256",
          "name": "price",
          "type": "uint256"
        },
        {
          "indexed": false,
          "internalType": "bool",
          "name": "isForSale",
          "type": "bool"
        },
        {
          "indexed": false,
          "internalType": "uint256",
          "name": "registrationTime",
          "type": "uint256"
        },
        {
          "indexed": false,
          "internalType": "uint256",
          "name": "expiryTime",
          "type": "uint256"
        }
      ],
      "name": "PatentRegistered",
      "type": "event"
    },
    {
      "anonymous": false,
      "inputs": [
        {
          "indexed": true,
          "internalType": "uint256",
          "name": "patentId",
          "type": "uint256"
        },
        {
          "indexed": false,
          "internalType": "string",
          "name": "name",
          "type": "string"
        },
        {
          "indexed": true,
          "internalType": "address",
          "name": "previousOwner",
          "type": "address"
        },
        {
          "indexed": true,
          "internalType": "address",
          "name": "newOwner",
          "type": "address"
        },
        {
          "indexed": false,
          "internalType": "uint256",
          "name": "price",
          "type": "uint256"
        }
      ],
      "name": "PatentSold",
      "type": "event"
    },
    {
      "anonymous": false,
      "inputs": [
        {
          "indexed": false,
          "internalType": "uint256",
          "name": "patentId",
          "type": "uint256"
        },
        {
          "indexed": false,
          "internalType": "address",
          "name": "user",
          "type": "address"
        },
        {
          "indexed": false,
          "internalType": "uint256",
          "name": "useTime",
          "type": "uint256"
        }
      ],
      "name": "PatentUsed",
      "type": "event"
    },
    {
      "inputs": [
        {
          "internalType": "uint256",
          "name": "",
          "type": "uint256"
        },
        {
          "internalType": "uint256",
          "name": "",
          "type": "uint256"
        }
      ],
      "name": "authorizationRequests",
      "outputs": [
        {
          "internalType": "address",
          "name": "applicant",
          "type": "address"
        },
        {
          "internalType": "uint256",
          "name": "patentId",
          "type": "uint256"
        },
        {
          "internalType": "uint256",
          "name": "requestTime",
          "type": "uint256"
        },
        {
          "internalType": "bool",
          "name": "approved",
          "type": "bool"
        }
      ],
      "stateMutability": "view",
      "type": "function",
      "constant": true
    },
    {
      "inputs": [
        {
          "internalType": "uint256",
          "name": "",
          "type": "uint256"
        },
        {
          "internalType": "address",
          "name": "",
          "type": "address"
        }
      ],
      "name": "authorizedUsers",
      "outputs": [
        {
          "internalType": "bool",
          "name": "",
          "type": "bool"
        }
      ],
      "stateMutability": "view",
      "type": "function",
      "constant": true
    },
    {
      "inputs": [
        {
          "internalType": "uint256",
          "name": "patentId",
          "type": "uint256"
        }
      ],
      "name": "getPatent",
      "outputs": [
        {
          "internalType": "uint256",
          "name": "",
          "type": "uint256"
        },
        {
          "internalType": "string",
          "name": "",
          "type": "string"
        },
        {
          "internalType": "string",
          "name": "",
          "type": "string"
        },
        {
          "internalType": "address",
          "name": "",
          "type": "address"
        },
        {
          "internalType": "uint256",
          "name": "",
          "type": "uint256"
        },
        {
          "internalType": "uint256",
          "name": "",
          "type": "uint256"
        }
      ],
      "stateMutability": "view",
      "type": "function",
      "constant": true
    },
    {
      "inputs": [],
      "name": "getUserPatents",
      "outputs": [
        {
          "internalType": "uint256[]",
          "name": "",
          "type": "uint256[]"
        }
      ],
      "stateMutability": "view",
      "type": "function",
      "constant": true
    },
    {
      "inputs": [
        {
          "internalType": "uint256",
          "name": "patentId",
          "type": "uint256"
        }
      ],
      "name": "isPatentExpired",
      "outputs": [
        {
          "internalType": "bool",
          "name": "",
          "type": "bool"
        }
      ],
      "stateMutability": "view",
      "type": "function",
      "constant": true
    },
    {
      "inputs": [],
      "name": "patentCount",
      "outputs": [
        {
          "internalType": "uint256",
          "name": "",
          "type": "uint256"
        }
      ],
      "stateMutability": "view",
      "type": "function",
      "constant": true
    },
    {
      "inputs": [
        {
          "internalType": "uint256",
          "name": "",
          "type": "uint256"
        }
      ],
      "name": "patents",
      "outputs": [
        {
          "internalType": "uint256",
          "name": "patentId",
          "type": "uint256"
        },
        {
          "internalType": "string",
          "name": "patentName",
          "type": "string"
        },
        {
          "internalType": "address",
          "name": "currentOwner",
          "type": "address"
        },
        {
          "internalType": "string",
          "name": "description",
          "type": "string"
        },
        {
          "internalType": "uint256",
          "name": "price",
          "type": "uint256"
        },
        {
          "internalType": "bool",
          "name": "isForSale",
          "type": "bool"
        },
        {
          "internalType": "uint256",
          "name": "registrationTime",
          "type": "uint256"
        },
        {
          "internalType": "uint256",
          "name": "expiryTime",
          "type": "uint256"
        }
      ],
      "stateMutability": "view",
      "type": "function",
      "constant": true
    },
    {
      "inputs": [
        {
          "internalType": "string",
          "name": "name",
          "type": "string"
        },
        {
          "internalType": "string",
          "name": "description",
          "type": "string"
        },
        {
          "internalType": "uint256",
          "name": "duration",
          "type": "uint256"
        },
        {
          "internalType": "uint256",
          "name": "price",
          "type": "uint256"
        }
      ],
      "name": "registerPatent",
      "outputs": [
        {
          "internalType": "uint256",
          "name": "",
          "type": "uint256"
        }
      ],
      "stateMutability": "nonpayable",
      "type": "function"
    },
    {
      "inputs": [
        {
          "internalType": "uint256",
          "name": "",
          "type": "uint256"
        },
        {
          "internalType": "uint256",
          "name": "",
          "type": "uint256"
        }
      ],
      "name": "useRecords",
      "outputs": [
        {
          "internalType": "uint256",
          "name": "patentId",
          "type": "uint256"
        },
        {
          "internalType": "address",
          "name": "user",
          "type": "address"
        },
        {
          "internalType": "uint256",
          "name": "useTime",
          "type": "uint256"
        },
        {
          "internalType": "bool",
          "name": "isAuthorized",
          "type": "bool"
        }
      ],
      "stateMutability": "view",
      "type": "function",
      "constant": true
    },
    {
      "inputs": [
        {
          "internalType": "uint256",
          "name": "patentId",
          "type": "uint256"
        },
        {
          "internalType": "uint256",
          "name": "price",
          "type": "uint256"
        }
      ],
      "name": "listForSale",
      "outputs": [],
      "stateMutability": "nonpayable",
      "type": "function"
    },
    {
      "inputs": [
        {
          "internalType": "uint256",
          "name": "patentId",
          "type": "uint256"
        }
      ],
      "name": "buyPatent",
      "outputs": [],
      "stateMutability": "payable",
      "type": "function",
      "payable": true
    },
    {
      "inputs": [
        {
          "internalType": "uint256",
          "name": "patentId",
          "type": "uint256"
        },
        {
          "internalType": "address",
          "name": "user",
          "type": "address"
        }
      ],
      "name": "canApplyForAuthorization",
      "outputs": [
        {
          "internalType": "bool",
          "name": "",
          "type": "bool"
        }
      ],
      "stateMutability": "view",
      "type": "function",
      "constant": true
    },
    {
      "inputs": [
        {
          "internalType": "uint256",
          "name": "patentId",
          "type": "uint256"
        }
      ],
      "name": "requestPatentAuthorization",
      "outputs": [],
      "stateMutability": "nonpayable",
      "type": "function"
    },
    {
      "inputs": [
        {
          "internalType": "uint256",
          "name": "patentId",
          "type": "uint256"
        },
        {
          "internalType": "address",
          "name": "user",
          "type": "address"
        }
      ],
      "name": "approveAuthorization",
      "outputs": [],
      "stateMutability": "nonpayable",
      "type": "function"
    },
    {
      "inputs": [
        {
          "internalType": "uint256",
          "name": "patentId",
          "type": "uint256"
        },
        {
          "internalType": "address",
          "name": "user",
          "type": "address"
        }
      ],
      "name": "rejectAuthorization",
      "outputs": [],
      "stateMutability": "nonpayable",
      "type": "function"
    },
    {
      "inputs": [
        {
          "internalType": "uint256",
          "name": "patentId",
          "type": "uint256"
        }
      ],
      "name": "usePatent",
      "outputs": [],
      "stateMutability": "nonpayable",
      "type": "function"
    },
    {
      "inputs": [
        {
          "internalType": "address",
          "name": "user",
          "type": "address"
        }
      ],
      "name": "getOwnedPatentsUseRecords",
      "outputs": [
        {
          "components": [
            {
              "internalType": "uint256",
              "name": "patentId",
              "type": "uint256"
            },
            {
              "internalType": "address",
              "name": "user",
              "type": "address"
            },
            {
              "internalType": "uint256",
              "name": "useTime",
              "type": "uint256"
            },
            {
              "internalType": "bool",
              "name": "isAuthorized",
              "type": "bool"
            }
          ],
          "internalType": "struct PatentMarket.UseRecord[]",
          "name": "",
          "type": "tuple[]"
        }
      ],
      "stateMutability": "view",
      "type": "function",
      "constant": true
    },
    {
      "inputs": [
        {
          "internalType": "uint256",
          "name": "patentId",
          "type": "uint256"
        },
        {
          "internalType": "address",
          "name": "user",
          "type": "address"
        }
      ],
      "name": "detectIllegalUse",
      "outputs": [
        {
          "internalType": "bool",
          "name": "",
          "type": "bool"
        }
      ],
      "stateMutability": "view",
      "type": "function",
      "constant": true
    },
    {
      "inputs": [
        {
          "internalType": "uint256",
          "name": "patentId",
          "type": "uint256"
        },
        {
          "internalType": "address",
          "name": "infringer",
          "type": "address"
        }
      ],
      "name": "triggerInfringementWarning",
      "outputs": [],
      "stateMutability": "nonpayable",
      "type": "function"
    },
    {
      "inputs": [
        {
          "internalType": "uint256",
          "name": "patentId",
          "type": "uint256"
        }
      ],
      "name": "getPatentInfo",
      "outputs": [
        {
          "components": [
            {
              "internalType": "uint256",
              "name": "patentId",
              "type": "uint256"
            },
            {
              "internalType": "string",
              "name": "patentName",
              "type": "string"
            },
            {
              "internalType": "address",
              "name": "currentOwner",
              "type": "address"
            },
            {
              "internalType": "string",
              "name": "description",
              "type": "string"
            },
            {
              "internalType": "uint256",
              "name": "price",
              "type": "uint256"
            },
            {
              "internalType": "bool",
              "name": "isForSale",
              "type": "bool"
            },
            {
              "internalType": "uint256",
              "name": "registrationTime",
              "type": "uint256"
            },
            {
              "internalType": "uint256",
              "name": "expiryTime",
              "type": "uint256"
            }
          ],
          "internalType": "struct PatentBase.Patent",
          "name": "",
          "type": "tuple"
        }
      ],
      "stateMutability": "view",
      "type": "function",
      "constant": true
    },
    {
      "inputs": [
        {
          "internalType": "uint256",
          "name": "patentId",
          "type": "uint256"
        }
      ],
      "name": "isPatentForSale",
      "outputs": [
        {
          "internalType": "bool",
          "name": "",
          "type": "bool"
        }
      ],
      "stateMutability": "view",
      "type": "function",
      "constant": true
    },
    {
      "inputs": [
        {
          "internalType": "uint256",
          "name": "patentId",
          "type": "uint256"
        },
        {
          "internalType": "address",
          "name": "user",
          "type": "address"
        }
      ],
      "name": "isAuthorizedUser",
      "outputs": [
        {
          "internalType": "bool",
          "name": "",
          "type": "bool"
        }
      ],
      "stateMutability": "view",
      "type": "function",
      "constant": true
    },
    {
      "inputs": [
        {
          "internalType": "address",
          "name": "user",
          "type": "address"
        }
      ],
      "name": "fetchMarketPatents",
      "outputs": [
        {
          "components": [
            {
              "internalType": "uint256",
              "name": "patentId",
              "type": "uint256"
            },
            {
              "internalType": "string",
              "name": "patentName",
              "type": "string"
            },
            {
              "internalType": "address",
              "name": "currentOwner",
              "type": "address"
            },
            {
              "internalType": "string",
              "name": "description",
              "type": "string"
            },
            {
              "internalType": "uint256",
              "name": "price",
              "type": "uint256"
            },
            {
              "internalType": "bool",
              "name": "isForSale",
              "type": "bool"
            },
            {
              "internalType": "uint256",
              "name": "registrationTime",
              "type": "uint256"
            },
            {
              "internalType": "uint256",
              "name": "expiryTime",
              "type": "uint256"
            }
          ],
          "internalType": "struct PatentBase.Patent[]",
          "name": "",
          "type": "tuple[]"
        }
      ],
      "stateMutability": "view",
      "type": "function",
      "constant": true
    },
    {
      "inputs": [
        {
          "internalType": "address",
          "name": "user",
          "type": "address"
        }
      ],
      "name": "fetchPatentsCanSale",
      "outputs": [
        {
          "components": [
            {
              "internalType": "uint256",
              "name": "patentId",
              "type": "uint256"
            },
            {
              "internalType": "string",
              "name": "patentName",
              "type": "string"
            },
            {
              "internalType": "address",
              "name": "currentOwner",
              "type": "address"
            },
            {
              "internalType": "string",
              "name": "description",
              "type": "string"
            },
            {
              "internalType": "uint256",
              "name": "price",
              "type": "uint256"
            },
            {
              "internalType": "bool",
              "name": "isForSale",
              "type": "bool"
            },
            {
              "internalType": "uint256",
              "name": "registrationTime",
              "type": "uint256"
            },
            {
              "internalType": "uint256",
              "name": "expiryTime",
              "type": "uint256"
            }
          ],
          "internalType": "struct PatentBase.Patent[]",
          "name": "",
          "type": "tuple[]"
        }
      ],
      "stateMutability": "view",
      "type": "function",
      "constant": true
    }
  ],
  "bytecode": "0x608060405234801561001057600080fd5b50614217806100206000396000f3fe608060405260043610610168576000357c010000000000000000000000000000000000000000000000000000000090048063a1ab74b9116100d3578063c5cf91131161008c578063c5cf911314610541578063cdba68b91461057e578063e80d7fec146105bb578063f1d908dd146105e4578063f422bc681461060d578063fdc4294f1461065157610168565b8063a1ab74b9146103f9578063a20b7d1b14610436578063a5663a9f1461045f578063b084c8411461049c578063b735a3ff146104c7578063bf7b64041461050457610168565b806361d38b171161012557806361d38b17146102975780636cd5ae34146102c0578063763d19d4146102fd5780638c20cc4d1461033d57806396a6bb321461037a5780639c6d0d78146103b757610168565b806309e6baf11461016d57806313b356ad146101985780631c1bff89146101b45780632807745f146101dd578063540ce76b1461021d57806357cbe3cf1461025a575b600080fd5b34801561017957600080fd5b5061018261067a565b60405161018f9190612d11565b60405180910390f35b6101b260048036038101906101ad9190612d73565b61070f565b005b3480156101c057600080fd5b506101db60048036038101906101d69190612dfe565b610902565b005b3480156101e957600080fd5b5061020460048036038101906101ff9190612e3e565b610bfd565b6040516102149493929190612eb7565b60405180910390f35b34801561022957600080fd5b50610244600480360381019061023f9190612efc565b610c77565b604051610251919061304b565b60405180910390f35b34801561026657600080fd5b50610281600480360381019061027c9190612efc565b610f26565b60405161028e9190613276565b60405180910390f35b3480156102a357600080fd5b506102be60048036038101906102b99190612dfe565b6112f9565b005b3480156102cc57600080fd5b506102e760048036038101906102e29190612d73565b61158b565b6040516102f4919061334f565b60405180910390f35b34801561030957600080fd5b50610324600480360381019061031f9190612e3e565b611776565b6040516103349493929190613371565b60405180910390f35b34801561034957600080fd5b50610364600480360381019061035f9190612dfe565b6117f0565b60405161037191906133b6565b60405180910390f35b34801561038657600080fd5b506103a1600480360381019061039c9190612efc565b6118ca565b6040516103ae9190613276565b60405180910390f35b3480156103c357600080fd5b506103de60048036038101906103d99190612d73565b611cb8565b6040516103f09695949392919061341b565b60405180910390f35b34801561040557600080fd5b50610420600480360381019061041b9190612d73565b611ed5565b60405161042d91906133b6565b60405180910390f35b34801561044257600080fd5b5061045d60048036038101906104589190612d73565b611f02565b005b34801561046b57600080fd5b5061048660048036038101906104819190612dfe565b612132565b60405161049391906133b6565b60405180910390f35b3480156104a857600080fd5b506104b1612161565b6040516104be919061348a565b60405180910390f35b3480156104d357600080fd5b506104ee60048036038101906104e99190612dfe565b612167565b6040516104fb91906133b6565b60405180910390f35b34801561051057600080fd5b5061052b60048036038101906105269190612d73565b612284565b60405161053891906133b6565b60405180910390f35b34801561054d57600080fd5b50610568600480360381019061056391906135da565b6122a6565b604051610575919061348a565b60405180910390f35b34801561058a57600080fd5b506105a560048036038101906105a09190612dfe565b612517565b6040516105b291906133b6565b60405180910390f35b3480156105c757600080fd5b506105e260048036038101906105dd9190612e3e565b61257f565b005b3480156105f057600080fd5b5061060b60048036038101906106069190612d73565b6126ff565b005b34801561061957600080fd5b50610634600480360381019061062f9190612d73565b612996565b604051610648989796959493929190613679565b60405180910390f35b34801561065d57600080fd5b5061067860048036038101906106739190612dfe565b612b1b565b005b6060600260003373ffffffffffffffffffffffffffffffffffffffff1673ffffffffffffffffffffffffffffffffffffffff16815260200190815260200160002080548060200260200160405190810160405280929190818152602001828054801561070557602002820191906000526020600020905b8154815260200190600101908083116106f1575b5050505050905090565b60006001600083815260200190815260200160002090508060050160009054906101000a900460ff16610777576040517f08c379a000000000000000000000000000000000000000000000000000000000815260040161076e90613751565b60405180910390fd5b80600401543410156107be576040517f08c379a00000000000000000000000000000000000000000000000000000000081526004016107b5906137bd565b60405180910390fd5b60008160020160009054906101000a900473ffffffffffffffffffffffffffffffffffffffff169050338260020160006101000a81548173ffffffffffffffffffffffffffffffffffffffff021916908373ffffffffffffffffffffffffffffffffffffffff16021790555060008260050160006101000a81548160ff0219169083151502179055508073ffffffffffffffffffffffffffffffffffffffff166108fc349081150290604051600060405180830381858888f1935050505015801561088d573d6000803e3d6000fd5b503373ffffffffffffffffffffffffffffffffffffffff168173ffffffffffffffffffffffffffffffffffffffff16847fd4087db499dd31cfde1d9403da6a531c3913cb1197f78312d5ca5eff555082f78560010186600401546040516108f59291906138d6565b60405180910390a4505050565b3373ffffffffffffffffffffffffffffffffffffffff166001600084815260200190815260200160002060020160009054906101000a900473ffffffffffffffffffffffffffffffffffffffff1673ffffffffffffffffffffffffffffffffffffffff16146109a6576040517f08c379a000000000000000000000000000000000000000000000000000000000815260040161099d90613952565b60405180910390fd5b6000805b6004600085815260200190815260200160002080549050811015610bb7578273ffffffffffffffffffffffffffffffffffffffff16600460008681526020019081526020016000208281548110610a0457610a03613972565b5b906000526020600020906004020160000160009054906101000a900473ffffffffffffffffffffffffffffffffffffffff1673ffffffffffffffffffffffffffffffffffffffff16148015610a9a5750600460008581526020019081526020016000208181548110610a7957610a78613972565b5b906000526020600020906004020160030160009054906101000a900460ff16155b15610ba4576001600460008681526020019081526020016000208281548110610ac657610ac5613972565b5b906000526020600020906004020160030160006101000a81548160ff02191690831515021790555060016003600086815260200190815260200160002060008573ffffffffffffffffffffffffffffffffffffffff1673ffffffffffffffffffffffffffffffffffffffff16815260200190815260200160002060006101000a81548160ff0219169083151502179055508273ffffffffffffffffffffffffffffffffffffffff16847f26273e1af82ccbf7153502c23c0b3d69e41c3e2f27a9f6d1472bab8eeb878f3b60405160405180910390a360019150610bb7565b8080610baf906139d0565b9150506109aa565b5080610bf8576040517f08c379a0000000000000000000000000000000000000000000000000000000008152600401610bef90613a8a565b60405180910390fd5b505050565b60046020528160005260406000208181548110610c1957600080fd5b9060005260206000209060040201600091509150508060000160009054906101000a900473ffffffffffffffffffffffffffffffffffffffff16908060010154908060020154908060030160009054906101000a900460ff16905084565b60606000805b600054811015610d12578373ffffffffffffffffffffffffffffffffffffffff166001600083815260200190815260200160002060020160009054906101000a900473ffffffffffffffffffffffffffffffffffffffff1673ffffffffffffffffffffffffffffffffffffffff1603610cff578180610cfb906139d0565b9250505b8080610d0a906139d0565b915050610c7d565b5060008167ffffffffffffffff811115610d2f57610d2e6134af565b5b604051908082528060200260200182016040528015610d6857816020015b610d55612bac565b815260200190600190039081610d4d5790505b5090506000805b600054811015610f1a578573ffffffffffffffffffffffffffffffffffffffff166001600083815260200190815260200160002060020160009054906101000a900473ffffffffffffffffffffffffffffffffffffffff1673ffffffffffffffffffffffffffffffffffffffff1603610f075760005b6005600083815260200190815260200160002080549050811015610f0557600560008381526020019081526020016000208181548110610e2857610e27613972565b5b9060005260206000209060040201604051806080016040529081600082015481526020016001820160009054906101000a900473ffffffffffffffffffffffffffffffffffffffff1673ffffffffffffffffffffffffffffffffffffffff1673ffffffffffffffffffffffffffffffffffffffff168152602001600282015481526020016003820160009054906101000a900460ff161515151581525050848481518110610ed957610ed8613972565b5b60200260200101819052508280610eef906139d0565b9350508080610efd906139d0565b915050610de5565b505b8080610f12906139d0565b915050610d6f565b50819350505050919050565b6060600080805467ffffffffffffffff811115610f4657610f456134af565b5b604051908082528060200260200182016040528015610f745781602001602082028036833780820191505090505b50905060005b600054811161105c576001600082815260200190815260200160002060050160009054906101000a900460ff16801561101557508473ffffffffffffffffffffffffffffffffffffffff166001600083815260200190815260200160002060020160009054906101000a900473ffffffffffffffffffffffffffffffffffffffff1673ffffffffffffffffffffffffffffffffffffffff1614155b15611049578082848151811061102e5761102d613972565b5b6020026020010181815250508280611045906139d0565b9350505b8080611054906139d0565b915050610f7a565b5060008267ffffffffffffffff811115611079576110786134af565b5b6040519080825280602002602001820160405280156110b257816020015b61109f612bec565b8152602001906001900390816110975790505b50905060005b838110156112ed5760008382815181106110d5576110d4613972565b5b602002602001015190506001600082815260200190815260200160002060405180610100016040529081600082015481526020016001820180546111189061380c565b80601f01602080910402602001604051908101604052809291908181526020018280546111449061380c565b80156111915780601f1061116657610100808354040283529160200191611191565b820191906000526020600020905b81548152906001019060200180831161117457829003601f168201915b505050505081526020016002820160009054906101000a900473ffffffffffffffffffffffffffffffffffffffff1673ffffffffffffffffffffffffffffffffffffffff1673ffffffffffffffffffffffffffffffffffffffff1681526020016003820180546112009061380c565b80601f016020809104026020016040519081016040528092919081815260200182805461122c9061380c565b80156112795780601f1061124e57610100808354040283529160200191611279565b820191906000526020600020905b81548152906001019060200180831161125c57829003601f168201915b50505050508152602001600482015481526020016005820160009054906101000a900460ff16151515158152602001600682015481526020016007820154815250508383815181106112ce576112cd613972565b5b60200260200101819052505080806112e5906139d0565b9150506110b8565b50809350505050919050565b3373ffffffffffffffffffffffffffffffffffffffff166001600084815260200190815260200160002060020160009054906101000a900473ffffffffffffffffffffffffffffffffffffffff1673ffffffffffffffffffffffffffffffffffffffff161461139d576040517f08c379a000000000000000000000000000000000000000000000000000000000815260040161139490613af6565b60405180910390fd5b6000805b6004600085815260200190815260200160002080549050811015611545578273ffffffffffffffffffffffffffffffffffffffff166004600086815260200190815260200160002082815481106113fb576113fa613972565b5b906000526020600020906004020160000160009054906101000a900473ffffffffffffffffffffffffffffffffffffffff1673ffffffffffffffffffffffffffffffffffffffff1614801561149157506004600085815260200190815260200160002081815481106114705761146f613972565b5b906000526020600020906004020160030160009054906101000a900460ff16155b156115325760006004600086815260200190815260200160002082815481106114bd576114bc613972565b5b906000526020600020906004020160030160006101000a81548160ff0219169083151502179055508273ffffffffffffffffffffffffffffffffffffffff16847f7f199c4b273ac707d8aaef42f3549b0b7b0293254783ddb899c8e82bbb5bddce60405160405180910390a360019150611545565b808061153d906139d0565b9150506113a1565b5080611586576040517f08c379a000000000000000000000000000000000000000000000000000000000815260040161157d90613a8a565b60405180910390fd5b505050565b611593612bec565b6001600083815260200190815260200160002060405180610100016040529081600082015481526020016001820180546115cc9061380c565b80601f01602080910402602001604051908101604052809291908181526020018280546115f89061380c565b80156116455780601f1061161a57610100808354040283529160200191611645565b820191906000526020600020905b81548152906001019060200180831161162857829003601f168201915b505050505081526020016002820160009054906101000a900473ffffffffffffffffffffffffffffffffffffffff1673ffffffffffffffffffffffffffffffffffffffff1673ffffffffffffffffffffffffffffffffffffffff1681526020016003820180546116b49061380c565b80601f01602080910402602001604051908101604052809291908181526020018280546116e09061380c565b801561172d5780601f106117025761010080835404028352916020019161172d565b820191906000526020600020905b81548152906001019060200180831161171057829003601f168201915b50505050508152602001600482015481526020016005820160009054906101000a900460ff16151515158152602001600682015481526020016007820154815250509050919050565b6005602052816000526040600020818154811061179257600080fd5b9060005260206000209060040201600091509150508060000154908060010160009054906101000a900473ffffffffffffffffffffffffffffffffffffffff16908060020154908060030160009054906101000a900460ff16905084565b6000806001600085815260200190815260200160002060020160009054906101000a900473ffffffffffffffffffffffffffffffffffffffff1673ffffffffffffffffffffffffffffffffffffffff168373ffffffffffffffffffffffffffffffffffffffff1614806118bd57506003600085815260200190815260200160002060008473ffffffffffffffffffffffffffffffffffffffff1673ffffffffffffffffffffffffffffffffffffffff16815260200190815260200160002060009054906101000a900460ff165b9050801591505092915050565b60606000805b600054811015611993578373ffffffffffffffffffffffffffffffffffffffff166001600083815260200190815260200160002060020160009054906101000a900473ffffffffffffffffffffffffffffffffffffffff1673ffffffffffffffffffffffffffffffffffffffff1614801561196c57506001600082815260200190815260200160002060050160009054906101000a900460ff16155b1561198057818061197c906139d0565b9250505b808061198b906139d0565b9150506118d0565b5060008167ffffffffffffffff8111156119b0576119af6134af565b5b6040519080825280602002602001820160405280156119e957816020015b6119d6612bec565b8152602001906001900390816119ce5790505b5090506000805b600054811015611cac578573ffffffffffffffffffffffffffffffffffffffff166001600083815260200190815260200160002060020160009054906101000a900473ffffffffffffffffffffffffffffffffffffffff1673ffffffffffffffffffffffffffffffffffffffff16148015611a8b57506001600082815260200190815260200160002060050160009054906101000a900460ff165b15611c9957600160008281526020019081526020016000206040518061010001604052908160008201548152602001600182018054611ac99061380c565b80601f0160208091040260200160405190810160405280929190818152602001828054611af59061380c565b8015611b425780601f10611b1757610100808354040283529160200191611b42565b820191906000526020600020905b815481529060010190602001808311611b2557829003601f168201915b505050505081526020016002820160009054906101000a900473ffffffffffffffffffffffffffffffffffffffff1673ffffffffffffffffffffffffffffffffffffffff1673ffffffffffffffffffffffffffffffffffffffff168152602001600382018054611bb19061380c565b80601f0160208091040260200160405190810160405280929190818152602001828054611bdd9061380c565b8015611c2a5780601f10611bff57610100808354040283529160200191611c2a565b820191906000526020600020905b815481529060010190602001808311611c0d57829003601f168201915b50505050508152602001600482015481526020016005820160009054906101000a900460ff1615151515815260200160068201548152602001600782015481525050838381518110611c7f57611c7e613972565b5b60200260200101819052508180611c95906139d0565b9250505b8080611ca4906139d0565b9150506119f0565b50819350505050919050565b6000606080600080600080600160008981526020019081526020016000206040518061010001604052908160008201548152602001600182018054611cfc9061380c565b80601f0160208091040260200160405190810160405280929190818152602001828054611d289061380c565b8015611d755780601f10611d4a57610100808354040283529160200191611d75565b820191906000526020600020905b815481529060010190602001808311611d5857829003601f168201915b505050505081526020016002820160009054906101000a900473ffffffffffffffffffffffffffffffffffffffff1673ffffffffffffffffffffffffffffffffffffffff1673ffffffffffffffffffffffffffffffffffffffff168152602001600382018054611de49061380c565b80601f0160208091040260200160405190810160405280929190818152602001828054611e109061380c565b8015611e5d5780601f10611e3257610100808354040283529160200191611e5d565b820191906000526020600020905b815481529060010190602001808311611e4057829003601f168201915b50505050508152602001600482015481526020016005820160009054906101000a900460ff1615151515815260200160068201548152602001600782015481525050905080600001518160200151826060015183604001518460c001518560e001519650965096509650965096505091939550919395565b60006001600083815260200190815260200160002060050160009054906101000a900460ff169050919050565b80600160008381526020019081526020016000206000015414611f5a576040517f08c379a0000000000000000000000000000000000000000000000000000000008152600401611f5190613b62565b60405180910390fd5b6003600082815260200190815260200160002060003373ffffffffffffffffffffffffffffffffffffffff1673ffffffffffffffffffffffffffffffffffffffff16815260200190815260200160002060009054906101000a900460ff1615611ff8576040517f08c379a0000000000000000000000000000000000000000000000000000000008152600401611fef90613bce565b60405180910390fd5b6004600082815260200190815260200160002060405180608001604052803373ffffffffffffffffffffffffffffffffffffffff16815260200183815260200142815260200160001515815250908060018154018082558091505060019003906000526020600020906004020160009091909190915060008201518160000160006101000a81548173ffffffffffffffffffffffffffffffffffffffff021916908373ffffffffffffffffffffffffffffffffffffffff160217905550602082015181600101556040820151816002015560608201518160030160006101000a81548160ff02191690831515021790555050503373ffffffffffffffffffffffffffffffffffffffff16817fe9e3c8549c5502ab4b191ecaed1656277f749183703fe647e892b34c6cd8b7d160405160405180910390a350565b60036020528160005260406000206020528060005260406000206000915091509054906101000a900460ff1681565b60005481565b60006001600084815260200190815260200160002060020160009054906101000a900473ffffffffffffffffffffffffffffffffffffffff1673ffffffffffffffffffffffffffffffffffffffff168273ffffffffffffffffffffffffffffffffffffffff16036121db576000905061227e565b6003600084815260200190815260200160002060008373ffffffffffffffffffffffffffffffffffffffff1673ffffffffffffffffffffffffffffffffffffffff16815260200190815260200160002060009054906101000a900460ff1615612247576000905061227e565b6001600084815260200190815260200160002060050160009054906101000a900460ff1615612279576000905061227e565b600190505b92915050565b6000600160008381526020019081526020016000206007015442119050919050565b60008083116122ea576040517f08c379a00000000000000000000000000000000000000000000000000000000081526004016122e190613c60565b60405180910390fd5b60405180610100016040528060005481526020018681526020013373ffffffffffffffffffffffffffffffffffffffff16815260200185815260200183815260200160011515815260200142815260200184426123479190613c80565b815250600160008054815260200190815260200160002060008201518160000155602082015181600101908161237d9190613e51565b5060408201518160020160006101000a81548173ffffffffffffffffffffffffffffffffffffffff021916908373ffffffffffffffffffffffffffffffffffffffff16021790555060608201518160030190816123da9190613e51565b506080820151816004015560a08201518160050160006101000a81548160ff02191690831515021790555060c0820151816006015560e08201518160070155905050600260003373ffffffffffffffffffffffffffffffffffffffff1673ffffffffffffffffffffffffffffffffffffffff1681526020019081526020016000206000549080600181540180825580915050600190039060005260206000200160009091909190915055600080815480929190612496906139d0565b91905055503373ffffffffffffffffffffffffffffffffffffffff167ffe35dd0a2a2b1a13a2ecfe9e9714cbb3430db7ca9c258e25e74ba7c432721fbb60016000546124e29190613f23565b8787866001428a426124f49190613c80565b6040516125079796959493929190613f57565b60405180910390a2949350505050565b60006003600084815260200190815260200160002060008373ffffffffffffffffffffffffffffffffffffffff1673ffffffffffffffffffffffffffffffffffffffff16815260200190815260200160002060009054906101000a900460ff16905092915050565b60006001600084815260200190815260200160002090503373ffffffffffffffffffffffffffffffffffffffff168160020160009054906101000a900473ffffffffffffffffffffffffffffffffffffffff1673ffffffffffffffffffffffffffffffffffffffff1614612628576040517f08c379a000000000000000000000000000000000000000000000000000000000815260040161261f90614020565b60405180910390fd5b600015158160050160009054906101000a900460ff16151514612680576040517f08c379a00000000000000000000000000000000000000000000000000000000081526004016126779061408c565b60405180910390fd5b81816004018190555060018160050160006101000a81548160ff0219169083151502179055503373ffffffffffffffffffffffffffffffffffffffff16837fa8c5d983dc7078455ae436e4ed5b3b05a1adbac2a83405e0c3af5b07b22620e683600101856040516126f29291906138d6565b60405180910390a3505050565b80600160008381526020019081526020016000206000015414612757576040517f08c379a000000000000000000000000000000000000000000000000000000000815260040161274e90613b62565b60405180910390fd5b60006001600083815260200190815260200160002060020160009054906101000a900473ffffffffffffffffffffffffffffffffffffffff1673ffffffffffffffffffffffffffffffffffffffff163373ffffffffffffffffffffffffffffffffffffffff16148061282357506003600083815260200190815260200160002060003373ffffffffffffffffffffffffffffffffffffffff1673ffffffffffffffffffffffffffffffffffffffff16815260200190815260200160002060009054906101000a900460ff165b90506005600083815260200190815260200160002060405180608001604052808481526020013373ffffffffffffffffffffffffffffffffffffffff16815260200142815260200183151581525090806001815401808255809150506001900390600052602060002090600402016000909190919091506000820151816000015560208201518160010160006101000a81548173ffffffffffffffffffffffffffffffffffffffff021916908373ffffffffffffffffffffffffffffffffffffffff1602179055506040820151816002015560608201518160030160006101000a81548160ff021916908315150217905550505080612957576040517f08c379a000000000000000000000000000000000000000000000000000000000815260040161294e9061411e565b60405180910390fd5b7fc083bacf997f451c75aafe358644c360f105a04631d5fea550402e38a1c5f76e82334260405161298a9392919061413e565b60405180910390a15050565b60016020528060005260406000206000915090508060000154908060010180546129bf9061380c565b80601f01602080910402602001604051908101604052809291908181526020018280546129eb9061380c565b8015612a385780601f10612a0d57610100808354040283529160200191612a38565b820191906000526020600020905b815481529060010190602001808311612a1b57829003601f168201915b5050505050908060020160009054906101000a900473ffffffffffffffffffffffffffffffffffffffff1690806003018054612a739061380c565b80601f0160208091040260200160405190810160405280929190818152602001828054612a9f9061380c565b8015612aec5780601f10612ac157610100808354040283529160200191612aec565b820191906000526020600020905b815481529060010190602001808311612acf57829003601f168201915b5050505050908060040154908060050160009054906101000a900460ff16908060060154908060070154905088565b612b2582826117f0565b612b64576040517f08c379a0000000000000000000000000000000000000000000000000000000008152600401612b5b906141c1565b60405180910390fd5b8073ffffffffffffffffffffffffffffffffffffffff16827fdfaf16f598115f57c2553188dd0d6de487047f89c9529b994266f45c892b415960405160405180910390a35050565b604051806080016040528060008152602001600073ffffffffffffffffffffffffffffffffffffffff168152602001600081526020016000151581525090565b6040518061010001604052806000815260200160608152602001600073ffffffffffffffffffffffffffffffffffffffff168152602001606081526020016000815260200160001515815260200160008152602001600081525090565b600081519050919050565b600082825260208201905092915050565b6000819050602082019050919050565b6000819050919050565b612c8881612c75565b82525050565b6000612c9a8383612c7f565b60208301905092915050565b6000602082019050919050565b6000612cbe82612c49565b612cc88185612c54565b9350612cd383612c65565b8060005b83811015612d04578151612ceb8882612c8e565b9750612cf683612ca6565b925050600181019050612cd7565b5085935050505092915050565b60006020820190508181036000830152612d2b8184612cb3565b905092915050565b6000604051905090565b600080fd5b600080fd5b612d5081612c75565b8114612d5b57600080fd5b50565b600081359050612d6d81612d47565b92915050565b600060208284031215612d8957612d88612d3d565b5b6000612d9784828501612d5e565b91505092915050565b600073ffffffffffffffffffffffffffffffffffffffff82169050919050565b6000612dcb82612da0565b9050919050565b612ddb81612dc0565b8114612de657600080fd5b50565b600081359050612df881612dd2565b92915050565b60008060408385031215612e1557612e14612d3d565b5b6000612e2385828601612d5e565b9250506020612e3485828601612de9565b9150509250929050565b60008060408385031215612e5557612e54612d3d565b5b6000612e6385828601612d5e565b9250506020612e7485828601612d5e565b9150509250929050565b612e8781612dc0565b82525050565b612e9681612c75565b82525050565b60008115159050919050565b612eb181612e9c565b82525050565b6000608082019050612ecc6000830187612e7e565b612ed96020830186612e8d565b612ee66040830185612e8d565b612ef36060830184612ea8565b95945050505050565b600060208284031215612f1257612f11612d3d565b5b6000612f2084828501612de9565b91505092915050565b600081519050919050565b600082825260208201905092915050565b6000819050602082019050919050565b612f5e81612dc0565b82525050565b612f6d81612e9c565b82525050565b608082016000820151612f896000850182612c7f565b506020820151612f9c6020850182612f55565b506040820151612faf6040850182612c7f565b506060820151612fc26060850182612f64565b50505050565b6000612fd48383612f73565b60808301905092915050565b6000602082019050919050565b6000612ff882612f29565b6130028185612f34565b935061300d83612f45565b8060005b8381101561303e5781516130258882612fc8565b975061303083612fe0565b925050600181019050613011565b5085935050505092915050565b600060208201905081810360008301526130658184612fed565b905092915050565b600081519050919050565b600082825260208201905092915050565b6000819050602082019050919050565b600081519050919050565b600082825260208201905092915050565b60005b838110156130d35780820151818401526020810190506130b8565b60008484015250505050565b6000601f19601f8301169050919050565b60006130fb82613099565b61310581856130a4565b93506131158185602086016130b5565b61311e816130df565b840191505092915050565b6000610100830160008301516131426000860182612c7f565b506020830151848203602086015261315a82826130f0565b915050604083015161316f6040860182612f55565b506060830151848203606086015261318782826130f0565b915050608083015161319c6080860182612c7f565b5060a08301516131af60a0860182612f64565b5060c08301516131c260c0860182612c7f565b5060e08301516131d560e0860182612c7f565b508091505092915050565b60006131ec8383613129565b905092915050565b6000602082019050919050565b600061320c8261306d565b6132168185613078565b93508360208202850161322885613089565b8060005b85811015613264578484038952815161324585826131e0565b9450613250836131f4565b925060208a0199505060018101905061322c565b50829750879550505050505092915050565b600060208201905081810360008301526132908184613201565b905092915050565b6000610100830160008301516132b16000860182612c7f565b50602083015184820360208601526132c982826130f0565b91505060408301516132de6040860182612f55565b50606083015184820360608601526132f682826130f0565b915050608083015161330b6080860182612c7f565b5060a083015161331e60a0860182612f64565b5060c083015161333160c0860182612c7f565b5060e083015161334460e0860182612c7f565b508091505092915050565b600060208201905081810360008301526133698184613298565b905092915050565b60006080820190506133866000830187612e8d565b6133936020830186612e7e565b6133a06040830185612e8d565b6133ad6060830184612ea8565b95945050505050565b60006020820190506133cb6000830184612ea8565b92915050565b600082825260208201905092915050565b60006133ed82613099565b6133f781856133d1565b93506134078185602086016130b5565b613410816130df565b840191505092915050565b600060c0820190506134306000830189612e8d565b818103602083015261344281886133e2565b9050818103604083015261345681876133e2565b90506134656060830186612e7e565b6134726080830185612e8d565b61347f60a0830184612e8d565b979650505050505050565b600060208201905061349f6000830184612e8d565b92915050565b600080fd5b600080fd5b7f4e487b7100000000000000000000000000000000000000000000000000000000600052604160045260246000fd5b6134e7826130df565b810181811067ffffffffffffffff82111715613506576135056134af565b5b80604052505050565b6000613519612d33565b905061352582826134de565b919050565b600067ffffffffffffffff821115613545576135446134af565b5b61354e826130df565b9050602081019050919050565b82818337600083830152505050565b600061357d6135788461352a565b61350f565b905082815260208101848484011115613599576135986134aa565b5b6135a484828561355b565b509392505050565b600082601f8301126135c1576135c06134a5565b5b81356135d184826020860161356a565b91505092915050565b600080600080608085870312156135f4576135f3612d3d565b5b600085013567ffffffffffffffff81111561361257613611612d42565b5b61361e878288016135ac565b945050602085013567ffffffffffffffff81111561363f5761363e612d42565b5b61364b878288016135ac565b935050604061365c87828801612d5e565b925050606061366d87828801612d5e565b91505092959194509250565b60006101008201905061368f600083018b612e8d565b81810360208301526136a1818a6133e2565b90506136b06040830189612e7e565b81810360608301526136c281886133e2565b90506136d16080830187612e8d565b6136de60a0830186612ea8565b6136eb60c0830185612e8d565b6136f860e0830184612e8d565b9998505050505050505050565b7f506174656e74206973206e6f7420666f722073616c6500000000000000000000600082015250565b600061373b6016836133d1565b915061374682613705565b602082019050919050565b6000602082019050818103600083015261376a8161372e565b9050919050565b7f496e73756666696369656e742066756e647320746f2062757920706174656e74600082015250565b60006137a76020836133d1565b91506137b282613771565b602082019050919050565b600060208201905081810360008301526137d68161379a565b9050919050565b7f4e487b7100000000000000000000000000000000000000000000000000000000600052602260045260246000fd5b6000600282049050600182168061382457607f821691505b602082108103613837576138366137dd565b5b50919050565b60008190508160005260206000209050919050565b6000815461385f8161380c565b61386981866133d1565b94506001821660008114613884576001811461389a576138cd565b60ff1983168652811515602002860193506138cd565b6138a38561383d565b60005b838110156138c5578154818901526001820191506020810190506138a6565b808801955050505b50505092915050565b600060408201905081810360008301526138f08185613852565b90506138ff6020830184612e8d565b9392505050565b7f4f6e6c7920746865206f776e65722063616e20617070726f7665000000000000600082015250565b600061393c601a836133d1565b915061394782613906565b602082019050919050565b6000602082019050818103600083015261396b8161392f565b9050919050565b7f4e487b7100000000000000000000000000000000000000000000000000000000600052603260045260246000fd5b7f4e487b7100000000000000000000000000000000000000000000000000000000600052601160045260246000fd5b60006139db82612c75565b91507fffffffffffffffffffffffffffffffffffffffffffffffffffffffffffffffff8203613a0d57613a0c6139a1565b5b600182019050919050565b7f417574686f72697a6174696f6e2072657175657374206e6f7420666f756e642060008201527f6f7220616c726561647920617070726f76656400000000000000000000000000602082015250565b6000613a746033836133d1565b9150613a7f82613a18565b604082019050919050565b60006020820190508181036000830152613aa381613a67565b9050919050565b7f4f6e6c7920746865206f776e65722063616e2072656a65637400000000000000600082015250565b6000613ae06019836133d1565b9150613aeb82613aaa565b602082019050919050565b60006020820190508181036000830152613b0f81613ad3565b9050919050565b7f506174656e7420646f6573206e6f742065786973740000000000000000000000600082015250565b6000613b4c6015836133d1565b9150613b5782613b16565b602082019050919050565b60006020820190508181036000830152613b7b81613b3f565b9050919050565b7f596f752061726520616c726561647920617574686f72697a6564000000000000600082015250565b6000613bb8601a836133d1565b9150613bc382613b82565b602082019050919050565b60006020820190508181036000830152613be781613bab565b9050919050565b7f4475726174696f6e206d7573742062652067726561746572207468616e207a6560008201527f726f000000000000000000000000000000000000000000000000000000000000602082015250565b6000613c4a6022836133d1565b9150613c5582613bee565b604082019050919050565b60006020820190508181036000830152613c7981613c3d565b9050919050565b6000613c8b82612c75565b9150613c9683612c75565b9250828201905080821115613cae57613cad6139a1565b5b92915050565b60006020601f8301049050919050565b60008160020a8302905092915050565b600060088302613d047fffffffffffffffffffffffffffffffffffffffffffffffffffffffffffffffff82613cc4565b613d0e8683613cc4565b95508019841693508086168417925050509392505050565b6000819050919050565b6000613d4b613d46613d4184612c75565b613d26565b612c75565b9050919050565b6000819050919050565b613d6583613d30565b613d79613d7182613d52565b848454613cd4565b825550505050565b600090565b613d8e613d81565b613d99818484613d5c565b505050565b5b81811015613dbd57613db2600082613d86565b600181019050613d9f565b5050565b601f821115613e0257613dd38161383d565b613ddc84613cb4565b81016020851015613deb578190505b613dff613df785613cb4565b830182613d9e565b50505b505050565b60008160020a8304905092915050565b6000613e2860001984600802613e07565b1980831691505092915050565b6000613e418383613e17565b9150826002028217905092915050565b613e5a82613099565b67ffffffffffffffff811115613e7357613e726134af565b5b613e7d825461380c565b613e88828285613dc1565b600060209050601f831160018114613ebb5760008415613ea9578287015190505b613eb38582613e35565b865550613f1b565b601f198416613ec98661383d565b60005b82811015613ef157848901518255600182019150602085019450602081019050613ecc565b86831015613f0e5784890151613f0a601f891682613e17565b8355505b6001600288020188555050505b505050505050565b6000613f2e82612c75565b9150613f3983612c75565b9250828203905081811115613f5157613f506139a1565b5b92915050565b600060e082019050613f6c600083018a612e8d565b8181036020830152613f7e81896133e2565b90508181036040830152613f9281886133e2565b9050613fa16060830187612e8d565b613fae6080830186612ea8565b613fbb60a0830185612e8d565b613fc860c0830184612e8d565b98975050505050505050565b7f596f7520617265206e6f7420746865206f776e65720000000000000000000000600082015250565b600061400a6015836133d1565b915061401582613fd4565b602082019050919050565b6000602082019050818103600083015261403981613ffd565b9050919050565b7f506174656e7420697320616c726561647920666f722073616c65000000000000600082015250565b6000614076601a836133d1565b915061408182614040565b602082019050919050565b600060208201905081810360008301526140a581614069565b9050919050565b7f596f7520646f206e6f742068617665207065726d697373696f6e20746f20757360008201527f65207468697320706174656e7400000000000000000000000000000000000000602082015250565b6000614108602d836133d1565b9150614113826140ac565b604082019050919050565b60006020820190508181036000830152614137816140fb565b9050919050565b60006060820190506141536000830186612e8d565b6141606020830185612e7e565b61416d6040830184612e8d565b949350505050565b7f4e6f20696e6672696e67656d656e742064657465637465640000000000000000600082015250565b60006141ab6018836133d1565b91506141b682614175565b602082019050919050565b600060208201905081810360008301526141da8161419e565b905091905056fea264697066735822122070340b9f9afa31d1cae782f9cba1c5809637899d923056ea3a1cc393f2bdd4cd64736f6c63430008150033",
  "immutableReferences": {},
  "source": "// SPDX-License-Identifier: MIT\r\npragma solidity ^0.8.0;\r\n\r\nimport \"./PatentRegistry.sol\";  // \r\n\r\ncontract PatentMarket is PatentRegistry {\r\n    // \r\n    struct AuthorizationRequest {\r\n        address applicant;       // \r\n        uint256 patentId;        //  ID\r\n        uint256 requestTime;     // \r\n        bool approved;           // \r\n    }\r\n\r\n    // \r\n    struct UseRecord {\r\n        uint256 patentId;       //  ID\r\n        address user;           // \r\n        uint256 useTime;        // \r\n        bool isAuthorized;      // \r\n    }\r\n\r\n    // ID\r\n    mapping(uint => mapping(address => bool)) public authorizedUsers;\r\n    mapping(uint256 => AuthorizationRequest[]) public authorizationRequests; // \r\n    mapping(uint256 => UseRecord[]) public useRecords; // \r\n    // \r\n    event PatentListed(uint indexed patentId, string name, address indexed owner, uint price);\r\n    event PatentSold(uint indexed patentId, string name, address indexed previousOwner, address indexed newOwner, uint price);\r\n    event PatentAuthorized(uint indexed patentId, address indexed user);\r\n    event PatentInfringementDetected(uint indexed patentId, address indexed infringer);\r\n    event LegalActionTriggered(uint indexed patentId, address indexed infringer);\r\n    // \r\n    event PatentAuthorizationRequested(uint256 indexed patentId, address indexed applicant);\r\n    // \r\n    event PatentAuthorizationRejected(uint256 indexed patentId, address indexed user);\r\n    \r\n    // \r\n    function listForSale(uint patentId, uint price) public {\r\n        Patent storage patent = patents[patentId];\r\n        require(patent.currentOwner == msg.sender, \"You are not the owner\");\r\n        require(patent.isForSale == false, \"Patent is already for sale\");\r\n\r\n        patent.price = price;\r\n        patent.isForSale = true;\r\n\r\n        emit PatentListed(patentId, patent.patentName, msg.sender, price);\r\n    }\r\n\r\n    // \r\n    function buyPatent(uint patentId) public payable {\r\n        Patent storage patent = patents[patentId];\r\n        require(patent.isForSale, \"Patent is not for sale\");\r\n        require(msg.value >= patent.price, \"Insufficient funds to buy patent\");\r\n\r\n        address previousOwner = patent.currentOwner;\r\n        patent.currentOwner = msg.sender;\r\n        patent.isForSale = false;\r\n\r\n        // \r\n        payable(previousOwner).transfer(msg.value);\r\n\r\n        emit PatentSold(patentId, patent.patentName, previousOwner, msg.sender, patent.price);\r\n    }\r\n\r\n    // \r\n    function canApplyForAuthorization(uint256 patentId, address user) public view returns (bool) {\r\n        // 1. \r\n        if (user == patents[patentId].currentOwner) {\r\n            return false;  // \r\n        }\r\n        \r\n        // 2. \r\n        if (authorizedUsers[patentId][user]) {\r\n            return false;  // \r\n        }\r\n\r\n        // 3. \r\n        if (patents[patentId].isForSale) {\r\n            return false;  // \r\n        }\r\n\r\n        // \r\n        return true;\r\n    }\r\n\r\n    // \r\n    function requestPatentAuthorization(uint256 patentId) public {\r\n        // \r\n        require(patents[patentId].patentId == patentId, \"Patent does not exist\");\r\n\r\n        // \r\n        require(!authorizedUsers[patentId][msg.sender], \"You are already authorized\");\r\n\r\n        // \r\n        authorizationRequests[patentId].push(AuthorizationRequest({\r\n            applicant: msg.sender,\r\n            patentId: patentId,      //  ID\r\n            requestTime: block.timestamp,\r\n            approved: false // \r\n        }));\r\n\r\n        emit PatentAuthorizationRequested(patentId, msg.sender);\r\n    }\r\n\r\n    // \r\n    function approveAuthorization(uint256 patentId, address user) public {\r\n        // \r\n        require(patents[patentId].currentOwner == msg.sender, \"Only the owner can approve\");\r\n\r\n        // \r\n        bool applicationFound = false;\r\n        for (uint i = 0; i < authorizationRequests[patentId].length; i++) {\r\n            if (authorizationRequests[patentId][i].applicant == user && !authorizationRequests[patentId][i].approved) {\r\n                // \r\n                authorizationRequests[patentId][i].approved = true;\r\n                authorizedUsers[patentId][user] = true;\r\n\r\n                emit PatentAuthorized(patentId, user);\r\n                applicationFound = true;\r\n                break;\r\n            }\r\n        }\r\n\r\n        require(applicationFound, \"Authorization request not found or already approved\");\r\n    }\r\n\r\n    // \r\n    function rejectAuthorization(uint256 patentId, address user) public {\r\n        // \r\n        require(patents[patentId].currentOwner == msg.sender, \"Only the owner can reject\");\r\n\r\n        // \r\n        bool applicationFound = false;\r\n        for (uint i = 0; i < authorizationRequests[patentId].length; i++) {\r\n            if (authorizationRequests[patentId][i].applicant == user && !authorizationRequests[patentId][i].approved) {\r\n                // \r\n                authorizationRequests[patentId][i].approved = false;\r\n\r\n                emit PatentAuthorizationRejected(patentId, user);\r\n                applicationFound = true;\r\n                break;\r\n            }\r\n        }\r\n        require(applicationFound, \"Authorization request not found or already approved\");\r\n    }\r\n\r\n    // \r\n    function usePatent(uint256 patentId) public {\r\n        // \r\n        require(patents[patentId].patentId == patentId, \"Patent does not exist\");\r\n\r\n        // \r\n        bool hasPermission = (msg.sender == patents[patentId].currentOwner || authorizedUsers[patentId][msg.sender]);\r\n\r\n        // \r\n        useRecords[patentId].push(UseRecord({\r\n            patentId: patentId,\r\n            user: msg.sender, \r\n            useTime: block.timestamp,\r\n            isAuthorized: hasPermission\r\n        }));\r\n\r\n        // \r\n        require(hasPermission, \"You do not have permission to use this patent\");\r\n\r\n        emit PatentUsed(patentId, msg.sender, block.timestamp);\r\n    }\r\n\r\n    // \r\n    function getOwnedPatentsUseRecords(address user) public view returns (UseRecord[] memory) {\r\n        uint256 ownedPatentsCount = 0;\r\n        // \r\n        for (uint256 i = 0; i < patentCount; i++) {\r\n            if (patents[i].currentOwner == user) {\r\n                ownedPatentsCount++;\r\n            }\r\n        }\r\n\r\n        // \r\n        UseRecord[] memory allUseRecords = new UseRecord[](ownedPatentsCount);\r\n\r\n        uint256 index = 0;\r\n        for (uint256 i = 0; i < patentCount; i++) {\r\n            if (patents[i].currentOwner == user) {\r\n                // \r\n                for (uint256 j = 0; j < useRecords[i].length; j++) {\r\n                    allUseRecords[index] = useRecords[i][j];\r\n                    index++;\r\n                }\r\n            }\r\n        }\r\n\r\n        return allUseRecords;\r\n    }\r\n\r\n    // \r\n    event PatentUsed(uint256 patentId, address user, uint256 useTime);\r\n\r\n    // \r\n    function detectIllegalUse(uint256 patentId, address user) public view returns (bool) {\r\n        // \r\n        bool hasPermission = (user == patents[patentId].currentOwner || authorizedUsers[patentId][user]);\r\n        return !hasPermission;\r\n    }\r\n\r\n    // \r\n    function triggerInfringementWarning(uint patentId, address infringer) public {\r\n        require(detectIllegalUse(patentId, infringer), \"No infringement detected\");\r\n\r\n        emit PatentInfringementDetected(patentId, infringer);\r\n    }\r\n\r\n    // \r\n    function getPatentInfo(uint patentId) public view returns (Patent memory) {\r\n        return patents[patentId];\r\n    }\r\n\r\n    // \r\n    function isPatentForSale(uint patentId) public view returns (bool) {\r\n        return patents[patentId].isForSale;\r\n    }\r\n\r\n    // \r\n    function isAuthorizedUser(uint patentId, address user) public view returns (bool) {\r\n        return authorizedUsers[patentId][user];\r\n    }\r\n\r\n    // \r\n    function fetchMarketPatents(address user) public view returns (Patent[] memory) {\r\n        uint count = 0;\r\n        uint[] memory availablePatentIds = new uint[](patentCount);\r\n\r\n        // \r\n        for (uint i = 0; i <= patentCount; i++) {\r\n            if (patents[i].isForSale  && patents[i].currentOwner != user) {\r\n                availablePatentIds[count] = i;\r\n                count++;\r\n            }\r\n        }\r\n\r\n        // Patent\r\n        Patent[] memory availablePatents = new Patent[](count);\r\n        for (uint i = 0; i < count; i++) {\r\n            uint patentId = availablePatentIds[i];\r\n            availablePatents[i] = patents[patentId];\r\n        }\r\n\r\n        return availablePatents;\r\n    }\r\n    // \r\n    function fetchPatentsCanSale(address user) public view returns (Patent[] memory) {\r\n        uint count = 0;\r\n        \r\n        // \r\n        for (uint i = 0; i < patentCount; i++) {\r\n            if (patents[i].currentOwner == user && !patents[i].isForSale) {\r\n                count++;\r\n            }\r\n        }\r\n\r\n        // \r\n        Patent[] memory userPatentsForSale = new Patent[](count);\r\n        uint index = 0;\r\n\r\n        // \r\n        for (uint i = 0; i < patentCount; i++) {\r\n            if (patents[i].currentOwner == user && patents[i].isForSale) {\r\n                userPatentsForSale[index] = patents[i];\r\n                index++;\r\n            }\r\n        }\r\n        return userPatentsForSale;\r\n    }\r\n}\r\n",
  "sourcePath": "/Users/ethan/Education/Blockchain/patent-dapp/contracts/PatentMarket.sol",
  "compiler": {
    "name": "solc",
    "version": "0.8.21+commit.d9974bed.Emscripten.clang"
  },
  "schemaVersion": "3.4.16",
  "updatedAt": "2024-12-21T10:24:52.298Z",
  "networkType": "ethereum",
  "devdoc": {
    "kind": "dev",
    "methods": {},
    "version": 1
  },
  "userdoc": {
    "kind": "user",
    "methods": {},
    "version": 1
  }
}