{
  "contractName": "Patent",
  "abi": [
    {
      "inputs": [],
      "stateMutability": "nonpayable",
      "type": "constructor"
    },
    {
      "inputs": [],
      "name": "patentCount",
      "outputs": [
        {
          "internalType": "uint256",
          "name": "",
          "type": "uint256"
        }
      ],
      "stateMutability": "view",
      "type": "function",
      "constant": true
    },
    {
      "inputs": [
        {
          "internalType": "string",
          "name": "title",
          "type": "string"
        },
        {
          "internalType": "string",
          "name": "description",
          "type": "string"
        }
      ],
      "name": "registerPatent",
      "outputs": [
        {
          "internalType": "uint256",
          "name": "",
          "type": "uint256"
        }
      ],
      "stateMutability": "nonpayable",
      "type": "function"
    }
  ],
  "bytecode": "0x608060405234801561001057600080fd5b5060008081905550610383806100276000396000f3fe608060405234801561001057600080fd5b5060043610610053576000357c0100000000000000000000000000000000000000000000000000000000900480635438d4c914610058578063b084c84114610088575b600080fd5b610072600480360381019061006d919061022a565b6100a6565b60405161007f91906102bb565b60405180910390f35b6100906100ca565b60405161009d91906102bb565b60405180910390f35b60008060008154809291906100ba90610305565b9190505550600054905092915050565b60005481565b6000604051905090565b600080fd5b600080fd5b600080fd5b600080fd5b6000601f19601f8301169050919050565b7f4e487b7100000000000000000000000000000000000000000000000000000000600052604160045260246000fd5b610137826100ee565b810181811067ffffffffffffffff82111715610156576101556100ff565b5b80604052505050565b60006101696100d0565b9050610175828261012e565b919050565b600067ffffffffffffffff821115610195576101946100ff565b5b61019e826100ee565b9050602081019050919050565b82818337600083830152505050565b60006101cd6101c88461017a565b61015f565b9050828152602081018484840111156101e9576101e86100e9565b5b6101f48482856101ab565b509392505050565b600082601f830112610211576102106100e4565b5b81356102218482602086016101ba565b91505092915050565b60008060408385031215610241576102406100da565b5b600083013567ffffffffffffffff81111561025f5761025e6100df565b5b61026b858286016101fc565b925050602083013567ffffffffffffffff81111561028c5761028b6100df565b5b610298858286016101fc565b9150509250929050565b6000819050919050565b6102b5816102a2565b82525050565b60006020820190506102d060008301846102ac565b92915050565b7f4e487b7100000000000000000000000000000000000000000000000000000000600052601160045260246000fd5b6000610310826102a2565b91507fffffffffffffffffffffffffffffffffffffffffffffffffffffffffffffffff8203610342576103416102d6565b5b60018201905091905056fea2646970667358221220906d1f4f787882c41001f320bd2de54696f0bed8a2f6daf5534c987dd6fd944c64736f6c63430008150033",
  "immutableReferences": {},
  "source": "pragma solidity ^0.8.0;\r\n\r\ncontract Patent {\r\n    uint256 public patentCount;\r\n\r\n    constructor() {\r\n        patentCount = 0;\r\n    }\r\n\r\n    function registerPatent(string memory title, string memory description) public returns (uint256) {\r\n        patentCount++;\r\n        return patentCount;\r\n    }\r\n}\r\n",
  "sourcePath": "D:\\\\patent-dapp\\contracts\\Patent.sol",
  "compiler": {
    "name": "solc",
    "version": "0.8.21+commit.d9974bed.Emscripten.clang"
  },
  "schemaVersion": "3.4.16",
  "updatedAt": "2024-12-11T02:41:34.223Z",
  "networkType": "ethereum",
  "devdoc": {
    "kind": "dev",
    "methods": {},
    "version": 1
  },
  "userdoc": {
    "kind": "user",
    "methods": {},
    "version": 1
  }
}