{
  "contractName": "PatentRegistry",
  "abi": [
    {
      "anonymous": false,
      "inputs": [
        {
          "indexed": false,
          "internalType": "uint256",
          "name": "patentId",
          "type": "uint256"
        },
        {
          "indexed": false,
          "internalType": "string",
          "name": "name",
          "type": "string"
        },
        {
          "indexed": true,
          "internalType": "address",
          "name": "owner",
          "type": "address"
        },
        {
          "indexed": false,
          "internalType": "string",
          "name": "description",
          "type": "string"
        },
        {
          "indexed": false,
          "internalType": "uint256",
          "name": "price",
          "type": "uint256"
        },
        {
          "indexed": false,
          "internalType": "bool",
          "name": "isForSale",
          "type": "bool"
        },
        {
          "indexed": false,
          "internalType": "uint256",
          "name": "registrationTime",
          "type": "uint256"
        },
        {
          "indexed": false,
          "internalType": "uint256",
          "name": "expiryTime",
          "type": "uint256"
        }
      ],
      "name": "PatentRegistered",
      "type": "event"
    },
    {
      "inputs": [],
      "name": "patentCount",
      "outputs": [
        {
          "internalType": "uint256",
          "name": "",
          "type": "uint256"
        }
      ],
      "stateMutability": "view",
      "type": "function",
      "constant": true
    },
    {
      "inputs": [
        {
          "internalType": "uint256",
          "name": "",
          "type": "uint256"
        }
      ],
      "name": "patents",
      "outputs": [
        {
          "internalType": "uint256",
          "name": "patentId",
          "type": "uint256"
        },
        {
          "internalType": "string",
          "name": "patentName",
          "type": "string"
        },
        {
          "internalType": "address",
          "name": "currentOwner",
          "type": "address"
        },
        {
          "internalType": "string",
          "name": "description",
          "type": "string"
        },
        {
          "internalType": "uint256",
          "name": "price",
          "type": "uint256"
        },
        {
          "internalType": "bool",
          "name": "isForSale",
          "type": "bool"
        },
        {
          "internalType": "uint256",
          "name": "registrationTime",
          "type": "uint256"
        },
        {
          "internalType": "uint256",
          "name": "expiryTime",
          "type": "uint256"
        }
      ],
      "stateMutability": "view",
      "type": "function",
      "constant": true
    },
    {
      "inputs": [
        {
          "internalType": "string",
          "name": "name",
          "type": "string"
        },
        {
          "internalType": "string",
          "name": "description",
          "type": "string"
        },
        {
          "internalType": "uint256",
          "name": "duration",
          "type": "uint256"
        }
      ],
      "name": "registerPatent",
      "outputs": [
        {
          "internalType": "uint256",
          "name": "",
          "type": "uint256"
        }
      ],
      "stateMutability": "nonpayable",
      "type": "function"
    },
    {
      "inputs": [
        {
          "internalType": "uint256",
          "name": "patentId",
          "type": "uint256"
        }
      ],
      "name": "getPatent",
      "outputs": [
        {
          "internalType": "uint256",
          "name": "",
          "type": "uint256"
        },
        {
          "internalType": "string",
          "name": "",
          "type": "string"
        },
        {
          "internalType": "address",
          "name": "",
          "type": "address"
        },
        {
          "internalType": "uint256",
          "name": "",
          "type": "uint256"
        },
        {
          "internalType": "uint256",
          "name": "",
          "type": "uint256"
        }
      ],
      "stateMutability": "view",
      "type": "function",
      "constant": true
    },
    {
      "inputs": [
        {
          "internalType": "uint256",
          "name": "patentId",
          "type": "uint256"
        }
      ],
      "name": "isPatentExpired",
      "outputs": [
        {
          "internalType": "bool",
          "name": "",
          "type": "bool"
        }
      ],
      "stateMutability": "view",
      "type": "function",
      "constant": true
    },
    {
      "inputs": [],
      "name": "getUserPatents",
      "outputs": [
        {
          "internalType": "uint256[]",
          "name": "",
          "type": "uint256[]"
        }
      ],
      "stateMutability": "view",
      "type": "function",
      "constant": true
    }
  ],
  "bytecode": "0x608060405234801561001057600080fd5b5061143f806100206000396000f3fe608060405234801561001057600080fd5b506004361061007f576000357c01000000000000000000000000000000000000000000000000000000009004806309e6baf1146100845780634864810d146100a25780639c6d0d78146100d2578063b084c84114610106578063bf7b640414610124578063f422bc6814610154575b600080fd5b61008c61018b565b60405161009991906109be565b60405180910390f35b6100bc60048036038101906100b79190610b66565b610220565b6040516100c99190610c00565b60405180910390f35b6100ec60048036038101906100e79190610c1b565b610483565b6040516100fd959493929190610d08565b60405180910390f35b61010e6106f1565b60405161011b9190610c00565b60405180910390f35b61013e60048036038101906101399190610c1b565b6106f7565b60405161014b9190610d7d565b60405180910390f35b61016e60048036038101906101699190610c1b565b610771565b604051610182989796959493929190610d98565b60405180910390f35b6060600260003373ffffffffffffffffffffffffffffffffffffffff1673ffffffffffffffffffffffffffffffffffffffff16815260200190815260200160002080548060200260200160405190810160405280929190818152602001828054801561021657602002820191906000526020600020905b815481526020019060010190808311610202575b5050505050905090565b6000806001600080548152602001908152602001600020600001541461027b576040517f08c379a000000000000000000000000000000000000000000000000000000000815260040161027290610e70565b60405180910390fd5b600082116102be576040517f08c379a00000000000000000000000000000000000000000000000000000000081526004016102b590610f02565b60405180910390fd5b60405180610100016040528060005481526020018581526020013373ffffffffffffffffffffffffffffffffffffffff16815260200184815260200160008152602001600015158152602001428152602001834261031c9190610f51565b81525060016000805481526020019081526020016000206000820151816000015560208201518160010190816103529190611197565b5060408201518160020160006101000a81548173ffffffffffffffffffffffffffffffffffffffff021916908373ffffffffffffffffffffffffffffffffffffffff16021790555060608201518160030190816103af9190611197565b506080820151816004015560a08201518160050160006101000a81548160ff02191690831515021790555060c0820151816006015560e0820151816007015590505060008081548092919061040390611269565b91905055503373ffffffffffffffffffffffffffffffffffffffff167ffe35dd0a2a2b1a13a2ecfe9e9714cbb3430db7ca9c258e25e74ba7c432721fbb600160005461044f91906112b1565b86866000804289426104619190610f51565b6040516104749796959493929190611320565b60405180910390a29392505050565b600060606000806000806001600088815260200190815260200160002060000154036104e4576040517f08c379a00000000000000000000000000000000000000000000000000000000081526004016104db906113e9565b60405180910390fd5b600060016000888152602001908152602001600020604051806101000160405290816000820154815260200160018201805461051f90610fb4565b80601f016020809104026020016040519081016040528092919081815260200182805461054b90610fb4565b80156105985780601f1061056d57610100808354040283529160200191610598565b820191906000526020600020905b81548152906001019060200180831161057b57829003601f168201915b505050505081526020016002820160009054906101000a900473ffffffffffffffffffffffffffffffffffffffff1673ffffffffffffffffffffffffffffffffffffffff1673ffffffffffffffffffffffffffffffffffffffff16815260200160038201805461060790610fb4565b80601f016020809104026020016040519081016040528092919081815260200182805461063390610fb4565b80156106805780601f1061065557610100808354040283529160200191610680565b820191906000526020600020905b81548152906001019060200180831161066357829003601f168201915b50505050508152602001600482015481526020016005820160009054906101000a900460ff161515151581526020016006820154815260200160078201548152505090508060000151816060015182604001518360c001518460e00151955095509550955095505091939590929450565b60005481565b600080600160008481526020019081526020016000206000015403610751576040517f08c379a0000000000000000000000000000000000000000000000000000000008152600401610748906113e9565b60405180910390fd5b600160008381526020019081526020016000206007015442119050919050565b600160205280600052604060002060009150905080600001549080600101805461079a90610fb4565b80601f01602080910402602001604051908101604052809291908181526020018280546107c690610fb4565b80156108135780601f106107e857610100808354040283529160200191610813565b820191906000526020600020905b8154815290600101906020018083116107f657829003601f168201915b5050505050908060020160009054906101000a900473ffffffffffffffffffffffffffffffffffffffff169080600301805461084e90610fb4565b80601f016020809104026020016040519081016040528092919081815260200182805461087a90610fb4565b80156108c75780601f1061089c576101008083540402835291602001916108c7565b820191906000526020600020905b8154815290600101906020018083116108aa57829003601f168201915b5050505050908060040154908060050160009054906101000a900460ff16908060060154908060070154905088565b600081519050919050565b600082825260208201905092915050565b6000819050602082019050919050565b6000819050919050565b61093581610922565b82525050565b6000610947838361092c565b60208301905092915050565b6000602082019050919050565b600061096b826108f6565b6109758185610901565b935061098083610912565b8060005b838110156109b1578151610998888261093b565b97506109a383610953565b925050600181019050610984565b5085935050505092915050565b600060208201905081810360008301526109d88184610960565b905092915050565b6000604051905090565b600080fd5b600080fd5b600080fd5b600080fd5b6000601f19601f8301169050919050565b7f4e487b7100000000000000000000000000000000000000000000000000000000600052604160045260246000fd5b610a47826109fe565b810181811067ffffffffffffffff82111715610a6657610a65610a0f565b5b80604052505050565b6000610a796109e0565b9050610a858282610a3e565b919050565b600067ffffffffffffffff821115610aa557610aa4610a0f565b5b610aae826109fe565b9050602081019050919050565b82818337600083830152505050565b6000610add610ad884610a8a565b610a6f565b905082815260208101848484011115610af957610af86109f9565b5b610b04848285610abb565b509392505050565b600082601f830112610b2157610b206109f4565b5b8135610b31848260208601610aca565b91505092915050565b610b4381610922565b8114610b4e57600080fd5b50565b600081359050610b6081610b3a565b92915050565b600080600060608486031215610b7f57610b7e6109ea565b5b600084013567ffffffffffffffff811115610b9d57610b9c6109ef565b5b610ba986828701610b0c565b935050602084013567ffffffffffffffff811115610bca57610bc96109ef565b5b610bd686828701610b0c565b9250506040610be786828701610b51565b9150509250925092565b610bfa81610922565b82525050565b6000602082019050610c156000830184610bf1565b92915050565b600060208284031215610c3157610c306109ea565b5b6000610c3f84828501610b51565b91505092915050565b600081519050919050565b600082825260208201905092915050565b60005b83811015610c82578082015181840152602081019050610c67565b60008484015250505050565b6000610c9982610c48565b610ca38185610c53565b9350610cb3818560208601610c64565b610cbc816109fe565b840191505092915050565b600073ffffffffffffffffffffffffffffffffffffffff82169050919050565b6000610cf282610cc7565b9050919050565b610d0281610ce7565b82525050565b600060a082019050610d1d6000830188610bf1565b8181036020830152610d2f8187610c8e565b9050610d3e6040830186610cf9565b610d4b6060830185610bf1565b610d586080830184610bf1565b9695505050505050565b60008115159050919050565b610d7781610d62565b82525050565b6000602082019050610d926000830184610d6e565b92915050565b600061010082019050610dae600083018b610bf1565b8181036020830152610dc0818a610c8e565b9050610dcf6040830189610cf9565b8181036060830152610de18188610c8e565b9050610df06080830187610bf1565b610dfd60a0830186610d6e565b610e0a60c0830185610bf1565b610e1760e0830184610bf1565b9998505050505050505050565b7f506174656e7420494420616c7265616479206578697374730000000000000000600082015250565b6000610e5a601883610c53565b9150610e6582610e24565b602082019050919050565b60006020820190508181036000830152610e8981610e4d565b9050919050565b7f4475726174696f6e206d7573742062652067726561746572207468616e207a6560008201527f726f000000000000000000000000000000000000000000000000000000000000602082015250565b6000610eec602283610c53565b9150610ef782610e90565b604082019050919050565b60006020820190508181036000830152610f1b81610edf565b9050919050565b7f4e487b7100000000000000000000000000000000000000000000000000000000600052601160045260246000fd5b6000610f5c82610922565b9150610f6783610922565b9250828201905080821115610f7f57610f7e610f22565b5b92915050565b7f4e487b7100000000000000000000000000000000000000000000000000000000600052602260045260246000fd5b60006002820490506001821680610fcc57607f821691505b602082108103610fdf57610fde610f85565b5b50919050565b60008190508160005260206000209050919050565b60006020601f8301049050919050565b60008160020a8302905092915050565b60006008830261104a7fffffffffffffffffffffffffffffffffffffffffffffffffffffffffffffffff8261100a565b611054868361100a565b95508019841693508086168417925050509392505050565b6000819050919050565b600061109161108c61108784610922565b61106c565b610922565b9050919050565b6000819050919050565b6110ab83611076565b6110bf6110b782611098565b84845461101a565b825550505050565b600090565b6110d46110c7565b6110df8184846110a2565b505050565b5b81811015611103576110f86000826110cc565b6001810190506110e5565b5050565b601f8211156111485761111981610fe5565b61112284610ffa565b81016020851015611131578190505b61114561113d85610ffa565b8301826110e4565b50505b505050565b60008160020a8304905092915050565b600061116e6000198460080261114d565b1980831691505092915050565b6000611187838361115d565b9150826002028217905092915050565b6111a082610c48565b67ffffffffffffffff8111156111b9576111b8610a0f565b5b6111c38254610fb4565b6111ce828285611107565b600060209050601f83116001811461120157600084156111ef578287015190505b6111f9858261117b565b865550611261565b601f19841661120f86610fe5565b60005b8281101561123757848901518255600182019150602085019450602081019050611212565b868310156112545784890151611250601f89168261115d565b8355505b6001600288020188555050505b505050505050565b600061127482610922565b91507fffffffffffffffffffffffffffffffffffffffffffffffffffffffffffffffff82036112a6576112a5610f22565b5b600182019050919050565b60006112bc82610922565b91506112c783610922565b92508282039050818111156112df576112de610f22565b5b92915050565b6000819050919050565b600061130a611305611300846112e5565b61106c565b610922565b9050919050565b61131a816112ef565b82525050565b600060e082019050611335600083018a610bf1565b81810360208301526113478189610c8e565b9050818103604083015261135b8188610c8e565b905061136a6060830187611311565b6113776080830186610d6e565b61138460a0830185610bf1565b61139160c0830184610bf1565b98975050505050505050565b7f506174656e7420646f6573206e6f742065786973740000000000000000000000600082015250565b60006113d3601583610c53565b91506113de8261139d565b602082019050919050565b60006020820190508181036000830152611402816113c6565b905091905056fea2646970667358221220c00e560fdcd7f9ed768897acd56f7210578c839ae126b922212e7dcb5f4f5d3a64736f6c63430008150033",
  "immutableReferences": {},
  "source": "// SPDX-License-Identifier: MIT\r\npragma solidity ^0.8.0;\r\n\r\nimport \"./PatentBase.sol\";  // \r\n\r\ncontract PatentRegistry is PatentBase {\r\n    // \r\n     event PatentRegistered(\r\n        uint256 patentId,\r\n        string name,\r\n        address indexed owner,\r\n        string description,\r\n        uint256 price,\r\n        bool isForSale,\r\n        uint256 registrationTime,\r\n        uint256 expiryTime\r\n    );\r\n\r\n    mapping(address => uint256[]) private userPatents; //  => ID\r\n\r\n    function registerPatent(\r\n        string memory name,\r\n        string memory description,\r\n        uint256 duration\r\n    ) public returns (uint256) {\r\n        // \r\n        require(patents[patentCount].patentId == 0, \"Patent ID already exists\");\r\n        require(duration > 0, \"Duration must be greater than zero\");\r\n\r\n        // \r\n        patents[patentCount] = Patent({\r\n            patentId: patentCount,\r\n            patentName: name,              // \r\n            currentOwner: msg.sender,      // \r\n            description: description,      // \r\n            price: 0,                  // \r\n            isForSale: false,          // \r\n            registrationTime: block.timestamp,  // \r\n            expiryTime: block.timestamp + duration  // \r\n        });\r\n\r\n        patentCount++;\r\n\r\n        // \r\n        emit PatentRegistered(\r\n            patentCount - 1,\r\n            name,\r\n            msg.sender,\r\n            description,\r\n            0,\r\n            false,\r\n            block.timestamp,\r\n            block.timestamp + duration\r\n        );\r\n    }\r\n\r\n    // \r\n    function getPatent(uint256 patentId) public view returns (\r\n        uint256,\r\n        string memory,\r\n        address,\r\n        uint256,\r\n        uint256\r\n    ) {\r\n        require(patents[patentId].patentId != 0, \"Patent does not exist\");\r\n\r\n        Patent memory patent = patents[patentId];\r\n        return (\r\n            patent.patentId,\r\n            patent.description,\r\n            patent.currentOwner,\r\n            patent.registrationTime,\r\n            patent.expiryTime\r\n        );\r\n    }\r\n\r\n    // \r\n    function isPatentExpired(uint256 patentId) public view returns (bool) {\r\n        require(patents[patentId].patentId != 0, \"Patent does not exist\");\r\n\r\n        return block.timestamp > patents[patentId].expiryTime;\r\n    }\r\n\r\n    // ID\r\n    function getUserPatents() public view returns (uint256[] memory) {\r\n        return userPatents[msg.sender];\r\n    }\r\n}\r\n",
  "sourcePath": "D:\\Github\\patent-dapp(1)\\patent-dapp\\contracts\\PatentRegistry.sol",
  "compiler": {
    "name": "solc",
    "version": "0.8.21+commit.d9974bed.Emscripten.clang"
  },
  "schemaVersion": "3.4.16",
  "updatedAt": "2024-12-20T11:56:09.039Z",
  "networkType": "ethereum",
  "devdoc": {
    "kind": "dev",
    "methods": {},
    "version": 1
  },
  "userdoc": {
    "kind": "user",
    "methods": {},
    "version": 1
  }
}