{
  "contractName": "PatentLicenseManagement",
  "abi": [
    {
      "anonymous": false,
      "inputs": [
        {
          "indexed": false,
          "internalType": "uint256",
          "name": "patentId",
          "type": "uint256"
        },
        {
          "indexed": false,
          "internalType": "uint256",
          "name": "licenseFee",
          "type": "uint256"
        }
      ],
      "name": "LicenseFeeUpdated",
      "type": "event"
    },
    {
      "anonymous": false,
      "inputs": [
        {
          "indexed": false,
          "internalType": "uint256",
          "name": "patentId",
          "type": "uint256"
        },
        {
          "indexed": true,
          "internalType": "address",
          "name": "patentHolder",
          "type": "address"
        },
        {
          "indexed": true,
          "internalType": "address",
          "name": "licensee",
          "type": "address"
        },
        {
          "indexed": false,
          "internalType": "uint256",
          "name": "fee",
          "type": "uint256"
        },
        {
          "indexed": false,
          "internalType": "uint256",
          "name": "duration",
          "type": "uint256"
        }
      ],
      "name": "LicenseGranted",
      "type": "event"
    },
    {
      "anonymous": false,
      "inputs": [
        {
          "indexed": false,
          "internalType": "uint256",
          "name": "patentId",
          "type": "uint256"
        },
        {
          "indexed": false,
          "internalType": "enum PatentLicenseManagement.LicenseStatus",
          "name": "newStatus",
          "type": "uint8"
        }
      ],
      "name": "LicenseStatusUpdated",
      "type": "event"
    },
    {
      "inputs": [
        {
          "internalType": "uint256",
          "name": "",
          "type": "uint256"
        }
      ],
      "name": "licenses",
      "outputs": [
        {
          "internalType": "address",
          "name": "patentHolder",
          "type": "address"
        },
        {
          "internalType": "address",
          "name": "licensee",
          "type": "address"
        },
        {
          "internalType": "uint256",
          "name": "fee",
          "type": "uint256"
        },
        {
          "internalType": "uint256",
          "name": "duration",
          "type": "uint256"
        },
        {
          "internalType": "uint256",
          "name": "startTime",
          "type": "uint256"
        },
        {
          "internalType": "enum PatentLicenseManagement.LicenseStatus",
          "name": "status",
          "type": "uint8"
        }
      ],
      "stateMutability": "view",
      "type": "function",
      "constant": true
    },
    {
      "inputs": [],
      "name": "patentCount",
      "outputs": [
        {
          "internalType": "uint256",
          "name": "",
          "type": "uint256"
        }
      ],
      "stateMutability": "view",
      "type": "function",
      "constant": true
    },
    {
      "inputs": [
        {
          "internalType": "uint256",
          "name": "patentId",
          "type": "uint256"
        },
        {
          "internalType": "address",
          "name": "licensee",
          "type": "address"
        },
        {
          "internalType": "uint256",
          "name": "fee",
          "type": "uint256"
        },
        {
          "internalType": "uint256",
          "name": "duration",
          "type": "uint256"
        }
      ],
      "name": "grantLicense",
      "outputs": [],
      "stateMutability": "nonpayable",
      "type": "function"
    },
    {
      "inputs": [
        {
          "internalType": "uint256",
          "name": "patentId",
          "type": "uint256"
        }
      ],
      "name": "getLicenseStatus",
      "outputs": [
        {
          "internalType": "enum PatentLicenseManagement.LicenseStatus",
          "name": "",
          "type": "uint8"
        }
      ],
      "stateMutability": "view",
      "type": "function",
      "constant": true
    },
    {
      "inputs": [
        {
          "internalType": "uint256",
          "name": "patentId",
          "type": "uint256"
        },
        {
          "internalType": "uint256",
          "name": "lisenceFee",
          "type": "uint256"
        }
      ],
      "name": "updateLisenceFee",
      "outputs": [],
      "stateMutability": "nonpayable",
      "type": "function"
    },
    {
      "inputs": [
        {
          "internalType": "uint256",
          "name": "patentId",
          "type": "uint256"
        }
      ],
      "name": "payLicenseFee",
      "outputs": [],
      "stateMutability": "payable",
      "type": "function",
      "payable": true
    },
    {
      "inputs": [
        {
          "internalType": "uint256",
          "name": "patentId",
          "type": "uint256"
        },
        {
          "internalType": "enum PatentLicenseManagement.LicenseStatus",
          "name": "newStatus",
          "type": "uint8"
        }
      ],
      "name": "updateLicenseStatus",
      "outputs": [],
      "stateMutability": "nonpayable",
      "type": "function"
    },
    {
      "inputs": [],
      "name": "createPatent",
      "outputs": [],
      "stateMutability": "nonpayable",
      "type": "function"
    }
  ],
  "bytecode": "0x608060405234801561001057600080fd5b50610fa1806100206000396000f3fe608060405260043610610098576000357c0100000000000000000000000000000000000000000000000000000000900480637b759b0a1161006b5780637b759b0a1461015c5780639fc5e11214610178578063b084c841146101a1578063c5002eb2146101cc57610098565b80631029f88e1461009d57806333790845146100c657806351a3a3da146101085780636a8ac15c14610145575b600080fd5b3480156100a957600080fd5b506100c460048036038101906100bf9190610946565b6101f5565b005b3480156100d257600080fd5b506100ed60048036038101906100e89190610986565b610307565b6040516100ff96959493929190610a7a565b60405180910390f35b34801561011457600080fd5b5061012f600480360381019061012a9190610986565b610390565b60405161013c9190610adb565b60405180910390f35b34801561015157600080fd5b5061015a610429565b005b61017660048036038101906101719190610986565b610443565b005b34801561018457600080fd5b5061019f600480360381019061019a9190610af6565b6105a0565b005b3480156101ad57600080fd5b506101b66105fd565b6040516101c39190610b36565b60405180910390f35b3480156101d857600080fd5b506101f360048036038101906101ee9190610b7d565b610603565b005b600080600084815260200190815260200160002090503373ffffffffffffffffffffffffffffffffffffffff168160000160009054906101000a900473ffffffffffffffffffffffffffffffffffffffff1673ffffffffffffffffffffffffffffffffffffffff161461029d576040517f08c379a000000000000000000000000000000000000000000000000000000000815260040161029490610c67565b60405180910390fd5b818160050160006101000a81548160ff021916908360028111156102c4576102c3610a03565b5b02179055507f2ec629d83044b94d99ff6d61111611d0d1565d370e857f1929e8041f1988ce9e83836040516102fa929190610c87565b60405180910390a1505050565b60006020528060005260406000206000915090508060000160009054906101000a900473ffffffffffffffffffffffffffffffffffffffff16908060010160009054906101000a900473ffffffffffffffffffffffffffffffffffffffff16908060020154908060030154908060040154908060050160009054906101000a900460ff16905086565b6000806000808481526020019081526020016000209050806003015481600401546103bb9190610cdf565b42101580156103ff5750600160028111156103d9576103d8610a03565b5b8160050160009054906101000a900460ff1660028111156103fd576103fc610a03565b5b145b1561040e576002915050610424565b8060050160009054906101000a900460ff169150505b919050565b6001600081548092919061043c90610d13565b9190505550565b600080600083815260200190815260200160002090503373ffffffffffffffffffffffffffffffffffffffff168160010160009054906101000a900473ffffffffffffffffffffffffffffffffffffffff1673ffffffffffffffffffffffffffffffffffffffff16146104eb576040517f08c379a00000000000000000000000000000000000000000000000000000000081526004016104e290610da7565b60405180910390fd5b80600201543414610531576040517f08c379a000000000000000000000000000000000000000000000000000000000815260040161052890610e13565b60405180910390fd5b8060000160009054906101000a900473ffffffffffffffffffffffffffffffffffffffff1673ffffffffffffffffffffffffffffffffffffffff166108fc349081150290604051600060405180830381858888f1935050505015801561059b573d6000803e3d6000fd5b505050565b600080600084815260200190815260200160002090508181600201819055507fa883023c0aa0bd75b143643fb8e9434a4399e05d22136bea6373cbfa1883e60e83836040516105f0929190610e33565b60405180910390a1505050565b60015481565b60003390506001600281111561061c5761061b610a03565b5b60008087815260200190815260200160002060050160009054906101000a900460ff16600281111561065157610650610a03565b5b03610691576040517f08c379a000000000000000000000000000000000000000000000000000000000815260040161068890610ea8565b60405180910390fd5b6002808111156106a4576106a3610a03565b5b60008087815260200190815260200160002060050160009054906101000a900460ff1660028111156106d9576106d8610a03565b5b03610719576040517f08c379a000000000000000000000000000000000000000000000000000000000815260040161071090610f14565b60405180910390fd5b6040518060c001604052808273ffffffffffffffffffffffffffffffffffffffff1681526020018573ffffffffffffffffffffffffffffffffffffffff1681526020018481526020018381526020014281526020016001600281111561078257610781610a03565b5b81525060008087815260200190815260200160002060008201518160000160006101000a81548173ffffffffffffffffffffffffffffffffffffffff021916908373ffffffffffffffffffffffffffffffffffffffff16021790555060208201518160010160006101000a81548173ffffffffffffffffffffffffffffffffffffffff021916908373ffffffffffffffffffffffffffffffffffffffff16021790555060408201518160020155606082015181600301556080820151816004015560a08201518160050160006101000a81548160ff0219169083600281111561086e5761086d610a03565b5b02179055509050508373ffffffffffffffffffffffffffffffffffffffff168173ffffffffffffffffffffffffffffffffffffffff167f35805985e00e80103ddc5df8bca16fb35a75f7f0830d5d5448f443d689e9424a8786866040516108d793929190610f34565b60405180910390a35050505050565b600080fd5b6000819050919050565b6108fe816108eb565b811461090957600080fd5b50565b60008135905061091b816108f5565b92915050565b6003811061092e57600080fd5b50565b60008135905061094081610921565b92915050565b6000806040838503121561095d5761095c6108e6565b5b600061096b8582860161090c565b925050602061097c85828601610931565b9150509250929050565b60006020828403121561099c5761099b6108e6565b5b60006109aa8482850161090c565b91505092915050565b600073ffffffffffffffffffffffffffffffffffffffff82169050919050565b60006109de826109b3565b9050919050565b6109ee816109d3565b82525050565b6109fd816108eb565b82525050565b7f4e487b7100000000000000000000000000000000000000000000000000000000600052602160045260246000fd5b60038110610a4357610a42610a03565b5b50565b6000819050610a5482610a32565b919050565b6000610a6482610a46565b9050919050565b610a7481610a59565b82525050565b600060c082019050610a8f60008301896109e5565b610a9c60208301886109e5565b610aa960408301876109f4565b610ab660608301866109f4565b610ac360808301856109f4565b610ad060a0830184610a6b565b979650505050505050565b6000602082019050610af06000830184610a6b565b92915050565b60008060408385031215610b0d57610b0c6108e6565b5b6000610b1b8582860161090c565b9250506020610b2c8582860161090c565b9150509250929050565b6000602082019050610b4b60008301846109f4565b92915050565b610b5a816109d3565b8114610b6557600080fd5b50565b600081359050610b7781610b51565b92915050565b60008060008060808587031215610b9757610b966108e6565b5b6000610ba58782880161090c565b9450506020610bb687828801610b68565b9350506040610bc78782880161090c565b9250506060610bd88782880161090c565b91505092959194509250565b600082825260208201905092915050565b7f4f6e6c7920706174656e7420686f6c6465722063616e20757064617465206c6960008201527f63656e7365207374617475730000000000000000000000000000000000000000602082015250565b6000610c51602c83610be4565b9150610c5c82610bf5565b604082019050919050565b60006020820190508181036000830152610c8081610c44565b9050919050565b6000604082019050610c9c60008301856109f4565b610ca96020830184610a6b565b9392505050565b7f4e487b7100000000000000000000000000000000000000000000000000000000600052601160045260246000fd5b6000610cea826108eb565b9150610cf5836108eb565b9250828201905080821115610d0d57610d0c610cb0565b5b92915050565b6000610d1e826108eb565b91507fffffffffffffffffffffffffffffffffffffffffffffffffffffffffffffffff8203610d5057610d4f610cb0565b5b600182019050919050565b7f596f7520617265206e6f7420746865206c6963656e7365650000000000000000600082015250565b6000610d91601883610be4565b9150610d9c82610d5b565b602082019050919050565b60006020820190508181036000830152610dc081610d84565b9050919050565b7f496e636f72726563742066656520616d6f756e74000000000000000000000000600082015250565b6000610dfd601483610be4565b9150610e0882610dc7565b602082019050919050565b60006020820190508181036000830152610e2c81610df0565b9050919050565b6000604082019050610e4860008301856109f4565b610e5560208301846109f4565b9392505050565b7f506174656e7420697320616c7265616479206c6963656e736564000000000000600082015250565b6000610e92601a83610be4565b9150610e9d82610e5c565b602082019050919050565b60006020820190508181036000830152610ec181610e85565b9050919050565b7f506174656e74206c6963656e7365206861732065787069726564000000000000600082015250565b6000610efe601a83610be4565b9150610f0982610ec8565b602082019050919050565b60006020820190508181036000830152610f2d81610ef1565b9050919050565b6000606082019050610f4960008301866109f4565b610f5660208301856109f4565b610f6360408301846109f4565b94935050505056fea26469706673582212207c30a0b56e04801ed0c5afc28de6df131438b2075081ca258a62c1da49bc3aed64736f6c63430008150033",
  "immutableReferences": {},
  "source": "// SPDX-License-Identifier: MIT\r\npragma solidity ^0.8.0;\r\n\r\ncontract PatentLicenseManagement {\r\n    // \r\n    enum LicenseStatus { NotLicensed, Licensed, Expired }\r\n\r\n    // \r\n    struct License {\r\n        address patentHolder;  // \r\n        address licensee;      // \r\n        uint256 fee;           // \r\n        uint256 duration;      // \r\n        uint256 startTime;     // \r\n        LicenseStatus status;  // \r\n    }\r\n\r\n    // ID -> \r\n    mapping(uint256 => License) public licenses;\r\n    \r\n    // ID\r\n    uint256 public patentCount;\r\n\r\n    // \r\n    event LicenseGranted(uint256 patentId, address indexed patentHolder, address indexed licensee, uint256 fee, uint256 duration);\r\n    \r\n    // \r\n    event LicenseStatusUpdated(uint256 patentId, LicenseStatus newStatus);\r\n\r\n    // \r\n    event LicenseFeeUpdated(uint256 patentId, uint256 licenseFee);\r\n\r\n    // \r\n    function grantLicense(uint256 patentId, address licensee, uint256 fee, uint256 duration) public {\r\n        // \r\n        address patentHolder = msg.sender;\r\n\r\n        // \r\n        require(licenses[patentId].status != LicenseStatus.Licensed, \"Patent is already licensed\");\r\n        require(licenses[patentId].status != LicenseStatus.Expired, \"Patent license has expired\");\r\n\r\n        // \r\n        licenses[patentId] = License({\r\n            patentHolder: patentHolder,\r\n            licensee: licensee,\r\n            fee: fee,\r\n            duration: duration,\r\n            startTime: block.timestamp,\r\n            status: LicenseStatus.Licensed\r\n        });\r\n\r\n        // \r\n        emit LicenseGranted(patentId, patentHolder, licensee, fee, duration);\r\n    }\r\n\r\n    // \r\n    function getLicenseStatus(uint256 patentId) public view returns (LicenseStatus) {\r\n        License storage license = licenses[patentId];\r\n\r\n        // \r\n        if (block.timestamp >= license.startTime + license.duration && license.status == LicenseStatus.Licensed) {\r\n            return LicenseStatus.Expired;\r\n        }\r\n\r\n        return license.status;\r\n    }\r\n\r\n    function updateLisenceFee(uint256 patentId, uint256 lisenceFee ) public {\r\n        License storage license = licenses[patentId];\r\n        // \r\n        license.fee = lisenceFee;\r\n\r\n        emit LicenseFeeUpdated(patentId, lisenceFee);\r\n    }\r\n\r\n    // \r\n    function payLicenseFee(uint256 patentId) public payable {\r\n        License storage license = licenses[patentId];\r\n\r\n        // \r\n        require(license.licensee == msg.sender, \"You are not the licensee\");\r\n        \r\n        // \r\n        require(msg.value == license.fee, \"Incorrect fee amount\");\r\n\r\n        // \r\n        payable(license.patentHolder).transfer(msg.value);\r\n    }\r\n\r\n    // \r\n    function updateLicenseStatus(uint256 patentId, LicenseStatus newStatus) public {\r\n        License storage license = licenses[patentId];\r\n        \r\n        // \r\n        require(license.patentHolder == msg.sender, \"Only patent holder can update license status\");\r\n\r\n        // \r\n        license.status = newStatus;\r\n\r\n        // \r\n        emit LicenseStatusUpdated(patentId, newStatus);\r\n    }\r\n    \r\n    // \r\n    function createPatent() public {\r\n        patentCount++;\r\n    }\r\n}\r\n",
  "sourcePath": "/Users/ethan/Education/Blockchain/patent-dapp/contracts/LicenseManage.sol",
  "compiler": {
    "name": "solc",
    "version": "0.8.21+commit.d9974bed.Emscripten.clang"
  },
  "schemaVersion": "3.4.16",
  "updatedAt": "2024-12-21T12:05:21.012Z",
  "networkType": "ethereum",
  "devdoc": {
    "kind": "dev",
    "methods": {},
    "version": 1
  },
  "userdoc": {
    "kind": "user",
    "methods": {},
    "version": 1
  }
}