{
  "contractName": "PatentBase",
  "abi": [
    {
      "inputs": [],
      "name": "patentCount",
      "outputs": [
        {
          "internalType": "uint256",
          "name": "",
          "type": "uint256"
        }
      ],
      "stateMutability": "view",
      "type": "function"
    },
    {
      "inputs": [
        {
          "internalType": "uint256",
          "name": "",
          "type": "uint256"
        }
      ],
      "name": "patents",
      "outputs": [
        {
          "internalType": "uint256",
          "name": "patentId",
          "type": "uint256"
        },
        {
          "internalType": "string",
          "name": "patentName",
          "type": "string"
        },
        {
          "internalType": "address",
          "name": "currentOwner",
          "type": "address"
        },
        {
          "internalType": "string",
          "name": "description",
          "type": "string"
        },
        {
          "internalType": "uint256",
          "name": "price",
          "type": "uint256"
        },
        {
          "internalType": "bool",
          "name": "isForSale",
          "type": "bool"
        },
        {
          "internalType": "uint256",
          "name": "registrationTime",
          "type": "uint256"
        },
        {
          "internalType": "uint256",
          "name": "expiryTime",
          "type": "uint256"
        }
      ],
      "stateMutability": "view",
      "type": "function"
    }
  ],
  "bytecode": "0x608060405234801561001057600080fd5b506104d8806100206000396000f3fe608060405234801561001057600080fd5b5060043610610053576000357c010000000000000000000000000000000000000000000000000000000090048063b084c84114610058578063f422bc6814610076575b600080fd5b6100606100ad565b60405161006d9190610251565b60405180910390f35b610090600480360381019061008b919061029d565b6100b3565b6040516100a49897969594939291906103b6565b60405180910390f35b60005481565b60016020528060005260406000206000915090508060000154908060010180546100dc90610471565b80601f016020809104026020016040519081016040528092919081815260200182805461010890610471565b80156101555780601f1061012a57610100808354040283529160200191610155565b820191906000526020600020905b81548152906001019060200180831161013857829003601f168201915b5050505050908060020160009054906101000a900473ffffffffffffffffffffffffffffffffffffffff169080600301805461019090610471565b80601f01602080910402602001604051908101604052809291908181526020018280546101bc90610471565b80156102095780601f106101de57610100808354040283529160200191610209565b820191906000526020600020905b8154815290600101906020018083116101ec57829003601f168201915b5050505050908060040154908060050160009054906101000a900460ff16908060060154908060070154905088565b6000819050919050565b61024b81610238565b82525050565b60006020820190506102666000830184610242565b92915050565b600080fd5b61027a81610238565b811461028557600080fd5b50565b60008135905061029781610271565b92915050565b6000602082840312156102b3576102b261026c565b5b60006102c184828501610288565b91505092915050565b600081519050919050565b600082825260208201905092915050565b60005b838110156103045780820151818401526020810190506102e9565b60008484015250505050565b6000601f19601f8301169050919050565b600061032c826102ca565b61033681856102d5565b93506103468185602086016102e6565b61034f81610310565b840191505092915050565b600073ffffffffffffffffffffffffffffffffffffffff82169050919050565b60006103858261035a565b9050919050565b6103958161037a565b82525050565b60008115159050919050565b6103b08161039b565b82525050565b6000610100820190506103cc600083018b610242565b81810360208301526103de818a610321565b90506103ed604083018961038c565b81810360608301526103ff8188610321565b905061040e6080830187610242565b61041b60a08301866103a7565b61042860c0830185610242565b61043560e0830184610242565b9998505050505050505050565b7f4e487b7100000000000000000000000000000000000000000000000000000000600052602260045260246000fd5b6000600282049050600182168061048957607f821691505b60208210810361049c5761049b610442565b5b5091905056fea2646970667358221220c73da1d4b621197fa40ba05169821f105c712544e6a2af3995e8f8fde91f396864736f6c63430008150033",
  "immutableReferences": {},
  "source": "// SPDX-License-Identifier: MIT\r\npragma solidity ^0.8.0;\r\n\r\ncontract PatentBase {\r\n\r\n    // \r\n    struct Patent {\r\n        uint patentId;         // \r\n        string patentName;     // \r\n        address currentOwner;  // \r\n        string description;    // \r\n        uint price;            // \r\n        bool isForSale;        // \r\n        uint256 registrationTime; // \r\n        uint256 expiryTime;    // \r\n    }\r\n    // \r\n    uint public patentCount;\r\n\r\n    // \r\n    mapping(uint => Patent) public patents;\r\n}\r\n",
  "sourcePath": "/Users/ethan/Education/Blockchain/patent-dapp/contracts/PatentBase.sol",
  "compiler": {
    "name": "solc",
    "version": "0.8.21+commit.d9974bed.Emscripten.clang"
  },
  "schemaVersion": "3.4.16",
  "updatedAt": "2024-12-21T19:06:00.857Z",
  "devdoc": {
    "kind": "dev",
    "methods": {},
    "version": 1
  },
  "userdoc": {
    "kind": "user",
    "methods": {},
    "version": 1
  }
}