{
  "contractName": "PatentMarket",
  "abi": [
    {
      "anonymous": false,
      "inputs": [
        {
          "indexed": true,
          "internalType": "uint256",
          "name": "patentId",
          "type": "uint256"
        },
        {
          "indexed": true,
          "internalType": "address",
          "name": "infringer",
          "type": "address"
        }
      ],
      "name": "LegalActionTriggered",
      "type": "event"
    },
    {
      "anonymous": false,
      "inputs": [
        {
          "indexed": true,
          "internalType": "uint256",
          "name": "patentId",
          "type": "uint256"
        },
        {
          "indexed": true,
          "internalType": "address",
          "name": "user",
          "type": "address"
        }
      ],
      "name": "PatentAuthorizationRejected",
      "type": "event"
    },
    {
      "anonymous": false,
      "inputs": [
        {
          "indexed": true,
          "internalType": "uint256",
          "name": "patentId",
          "type": "uint256"
        },
        {
          "indexed": true,
          "internalType": "address",
          "name": "applicant",
          "type": "address"
        }
      ],
      "name": "PatentAuthorizationRequested",
      "type": "event"
    },
    {
      "anonymous": false,
      "inputs": [
        {
          "indexed": true,
          "internalType": "uint256",
          "name": "patentId",
          "type": "uint256"
        },
        {
          "indexed": true,
          "internalType": "address",
          "name": "user",
          "type": "address"
        }
      ],
      "name": "PatentAuthorized",
      "type": "event"
    },
    {
      "anonymous": false,
      "inputs": [
        {
          "indexed": true,
          "internalType": "uint256",
          "name": "patentId",
          "type": "uint256"
        },
        {
          "indexed": true,
          "internalType": "address",
          "name": "infringer",
          "type": "address"
        }
      ],
      "name": "PatentInfringementDetected",
      "type": "event"
    },
    {
      "anonymous": false,
      "inputs": [
        {
          "indexed": true,
          "internalType": "uint256",
          "name": "patentId",
          "type": "uint256"
        },
        {
          "indexed": false,
          "internalType": "string",
          "name": "name",
          "type": "string"
        },
        {
          "indexed": true,
          "internalType": "address",
          "name": "owner",
          "type": "address"
        },
        {
          "indexed": false,
          "internalType": "uint256",
          "name": "price",
          "type": "uint256"
        }
      ],
      "name": "PatentListed",
      "type": "event"
    },
    {
      "anonymous": false,
      "inputs": [
        {
          "indexed": false,
          "internalType": "uint256",
          "name": "patentId",
          "type": "uint256"
        },
        {
          "indexed": false,
          "internalType": "string",
          "name": "name",
          "type": "string"
        },
        {
          "indexed": true,
          "internalType": "address",
          "name": "owner",
          "type": "address"
        },
        {
          "indexed": false,
          "internalType": "string",
          "name": "description",
          "type": "string"
        },
        {
          "indexed": false,
          "internalType": "uint256",
          "name": "price",
          "type": "uint256"
        },
        {
          "indexed": false,
          "internalType": "bool",
          "name": "isForSale",
          "type": "bool"
        },
        {
          "indexed": false,
          "internalType": "uint256",
          "name": "registrationTime",
          "type": "uint256"
        },
        {
          "indexed": false,
          "internalType": "uint256",
          "name": "expiryTime",
          "type": "uint256"
        }
      ],
      "name": "PatentRegistered",
      "type": "event"
    },
    {
      "anonymous": false,
      "inputs": [
        {
          "indexed": true,
          "internalType": "uint256",
          "name": "patentId",
          "type": "uint256"
        },
        {
          "indexed": false,
          "internalType": "string",
          "name": "name",
          "type": "string"
        },
        {
          "indexed": true,
          "internalType": "address",
          "name": "previousOwner",
          "type": "address"
        },
        {
          "indexed": true,
          "internalType": "address",
          "name": "newOwner",
          "type": "address"
        },
        {
          "indexed": false,
          "internalType": "uint256",
          "name": "price",
          "type": "uint256"
        }
      ],
      "name": "PatentSold",
      "type": "event"
    },
    {
      "anonymous": false,
      "inputs": [
        {
          "indexed": false,
          "internalType": "uint256",
          "name": "patentId",
          "type": "uint256"
        },
        {
          "indexed": false,
          "internalType": "address",
          "name": "user",
          "type": "address"
        },
        {
          "indexed": false,
          "internalType": "uint256",
          "name": "useTime",
          "type": "uint256"
        }
      ],
      "name": "PatentUsed",
      "type": "event"
    },
    {
      "inputs": [
        {
          "internalType": "uint256",
          "name": "",
          "type": "uint256"
        },
        {
          "internalType": "uint256",
          "name": "",
          "type": "uint256"
        }
      ],
      "name": "authorizationRequests",
      "outputs": [
        {
          "internalType": "address",
          "name": "applicant",
          "type": "address"
        },
        {
          "internalType": "uint256",
          "name": "patentId",
          "type": "uint256"
        },
        {
          "internalType": "uint256",
          "name": "requestTime",
          "type": "uint256"
        },
        {
          "internalType": "bool",
          "name": "approved",
          "type": "bool"
        }
      ],
      "stateMutability": "view",
      "type": "function",
      "constant": true
    },
    {
      "inputs": [
        {
          "internalType": "uint256",
          "name": "",
          "type": "uint256"
        },
        {
          "internalType": "address",
          "name": "",
          "type": "address"
        }
      ],
      "name": "authorizedUsers",
      "outputs": [
        {
          "internalType": "bool",
          "name": "",
          "type": "bool"
        }
      ],
      "stateMutability": "view",
      "type": "function",
      "constant": true
    },
    {
      "inputs": [
        {
          "internalType": "uint256",
          "name": "patentId",
          "type": "uint256"
        }
      ],
      "name": "getPatent",
      "outputs": [
        {
          "internalType": "uint256",
          "name": "",
          "type": "uint256"
        },
        {
          "internalType": "string",
          "name": "",
          "type": "string"
        },
        {
          "internalType": "string",
          "name": "",
          "type": "string"
        },
        {
          "internalType": "address",
          "name": "",
          "type": "address"
        },
        {
          "internalType": "uint256",
          "name": "",
          "type": "uint256"
        },
        {
          "internalType": "uint256",
          "name": "",
          "type": "uint256"
        }
      ],
      "stateMutability": "view",
      "type": "function",
      "constant": true
    },
    {
      "inputs": [],
      "name": "getUserPatents",
      "outputs": [
        {
          "internalType": "uint256[]",
          "name": "",
          "type": "uint256[]"
        }
      ],
      "stateMutability": "view",
      "type": "function",
      "constant": true
    },
    {
      "inputs": [
        {
          "internalType": "uint256",
          "name": "patentId",
          "type": "uint256"
        }
      ],
      "name": "isPatentExpired",
      "outputs": [
        {
          "internalType": "bool",
          "name": "",
          "type": "bool"
        }
      ],
      "stateMutability": "view",
      "type": "function",
      "constant": true
    },
    {
      "inputs": [],
      "name": "patentCount",
      "outputs": [
        {
          "internalType": "uint256",
          "name": "",
          "type": "uint256"
        }
      ],
      "stateMutability": "view",
      "type": "function",
      "constant": true
    },
    {
      "inputs": [
        {
          "internalType": "uint256",
          "name": "",
          "type": "uint256"
        }
      ],
      "name": "patents",
      "outputs": [
        {
          "internalType": "uint256",
          "name": "patentId",
          "type": "uint256"
        },
        {
          "internalType": "string",
          "name": "patentName",
          "type": "string"
        },
        {
          "internalType": "address",
          "name": "currentOwner",
          "type": "address"
        },
        {
          "internalType": "string",
          "name": "description",
          "type": "string"
        },
        {
          "internalType": "uint256",
          "name": "price",
          "type": "uint256"
        },
        {
          "internalType": "bool",
          "name": "isForSale",
          "type": "bool"
        },
        {
          "internalType": "uint256",
          "name": "registrationTime",
          "type": "uint256"
        },
        {
          "internalType": "uint256",
          "name": "expiryTime",
          "type": "uint256"
        }
      ],
      "stateMutability": "view",
      "type": "function",
      "constant": true
    },
    {
      "inputs": [
        {
          "internalType": "string",
          "name": "name",
          "type": "string"
        },
        {
          "internalType": "string",
          "name": "description",
          "type": "string"
        },
        {
          "internalType": "uint256",
          "name": "duration",
          "type": "uint256"
        }
      ],
      "name": "registerPatent",
      "outputs": [
        {
          "internalType": "uint256",
          "name": "",
          "type": "uint256"
        }
      ],
      "stateMutability": "nonpayable",
      "type": "function"
    },
    {
      "inputs": [
        {
          "internalType": "uint256",
          "name": "",
          "type": "uint256"
        },
        {
          "internalType": "uint256",
          "name": "",
          "type": "uint256"
        }
      ],
      "name": "useRecords",
      "outputs": [
        {
          "internalType": "uint256",
          "name": "patentId",
          "type": "uint256"
        },
        {
          "internalType": "address",
          "name": "user",
          "type": "address"
        },
        {
          "internalType": "uint256",
          "name": "useTime",
          "type": "uint256"
        },
        {
          "internalType": "bool",
          "name": "isAuthorized",
          "type": "bool"
        }
      ],
      "stateMutability": "view",
      "type": "function",
      "constant": true
    },
    {
      "inputs": [
        {
          "internalType": "uint256",
          "name": "patentId",
          "type": "uint256"
        },
        {
          "internalType": "uint256",
          "name": "price",
          "type": "uint256"
        }
      ],
      "name": "listForSale",
      "outputs": [],
      "stateMutability": "nonpayable",
      "type": "function"
    },
    {
      "inputs": [
        {
          "internalType": "uint256",
          "name": "patentId",
          "type": "uint256"
        }
      ],
      "name": "buyPatent",
      "outputs": [],
      "stateMutability": "payable",
      "type": "function",
      "payable": true
    },
    {
      "inputs": [
        {
          "internalType": "uint256",
          "name": "patentId",
          "type": "uint256"
        },
        {
          "internalType": "address",
          "name": "user",
          "type": "address"
        }
      ],
      "name": "canApplyForAuthorization",
      "outputs": [
        {
          "internalType": "bool",
          "name": "",
          "type": "bool"
        }
      ],
      "stateMutability": "view",
      "type": "function",
      "constant": true
    },
    {
      "inputs": [
        {
          "internalType": "uint256",
          "name": "patentId",
          "type": "uint256"
        }
      ],
      "name": "requestPatentAuthorization",
      "outputs": [],
      "stateMutability": "nonpayable",
      "type": "function"
    },
    {
      "inputs": [
        {
          "internalType": "uint256",
          "name": "patentId",
          "type": "uint256"
        },
        {
          "internalType": "address",
          "name": "user",
          "type": "address"
        }
      ],
      "name": "approveAuthorization",
      "outputs": [],
      "stateMutability": "nonpayable",
      "type": "function"
    },
    {
      "inputs": [
        {
          "internalType": "uint256",
          "name": "patentId",
          "type": "uint256"
        },
        {
          "internalType": "address",
          "name": "user",
          "type": "address"
        }
      ],
      "name": "rejectAuthorization",
      "outputs": [],
      "stateMutability": "nonpayable",
      "type": "function"
    },
    {
      "inputs": [
        {
          "internalType": "uint256",
          "name": "patentId",
          "type": "uint256"
        }
      ],
      "name": "usePatent",
      "outputs": [],
      "stateMutability": "nonpayable",
      "type": "function"
    },
    {
      "inputs": [
        {
          "internalType": "address",
          "name": "user",
          "type": "address"
        }
      ],
      "name": "getOwnedPatentsUseRecords",
      "outputs": [
        {
          "components": [
            {
              "internalType": "uint256",
              "name": "patentId",
              "type": "uint256"
            },
            {
              "internalType": "address",
              "name": "user",
              "type": "address"
            },
            {
              "internalType": "uint256",
              "name": "useTime",
              "type": "uint256"
            },
            {
              "internalType": "bool",
              "name": "isAuthorized",
              "type": "bool"
            }
          ],
          "internalType": "struct PatentMarket.UseRecord[]",
          "name": "",
          "type": "tuple[]"
        }
      ],
      "stateMutability": "view",
      "type": "function",
      "constant": true
    },
    {
      "inputs": [
        {
          "internalType": "uint256",
          "name": "patentId",
          "type": "uint256"
        },
        {
          "internalType": "address",
          "name": "user",
          "type": "address"
        }
      ],
      "name": "detectIllegalUse",
      "outputs": [
        {
          "internalType": "bool",
          "name": "",
          "type": "bool"
        }
      ],
      "stateMutability": "view",
      "type": "function",
      "constant": true
    },
    {
      "inputs": [
        {
          "internalType": "uint256",
          "name": "patentId",
          "type": "uint256"
        },
        {
          "internalType": "address",
          "name": "infringer",
          "type": "address"
        }
      ],
      "name": "triggerInfringementWarning",
      "outputs": [],
      "stateMutability": "nonpayable",
      "type": "function"
    },
    {
      "inputs": [
        {
          "internalType": "uint256",
          "name": "patentId",
          "type": "uint256"
        }
      ],
      "name": "getPatentInfo",
      "outputs": [
        {
          "components": [
            {
              "internalType": "uint256",
              "name": "patentId",
              "type": "uint256"
            },
            {
              "internalType": "string",
              "name": "patentName",
              "type": "string"
            },
            {
              "internalType": "address",
              "name": "currentOwner",
              "type": "address"
            },
            {
              "internalType": "string",
              "name": "description",
              "type": "string"
            },
            {
              "internalType": "uint256",
              "name": "price",
              "type": "uint256"
            },
            {
              "internalType": "bool",
              "name": "isForSale",
              "type": "bool"
            },
            {
              "internalType": "uint256",
              "name": "registrationTime",
              "type": "uint256"
            },
            {
              "internalType": "uint256",
              "name": "expiryTime",
              "type": "uint256"
            }
          ],
          "internalType": "struct PatentBase.Patent",
          "name": "",
          "type": "tuple"
        }
      ],
      "stateMutability": "view",
      "type": "function",
      "constant": true
    },
    {
      "inputs": [
        {
          "internalType": "uint256",
          "name": "patentId",
          "type": "uint256"
        }
      ],
      "name": "isPatentForSale",
      "outputs": [
        {
          "internalType": "bool",
          "name": "",
          "type": "bool"
        }
      ],
      "stateMutability": "view",
      "type": "function",
      "constant": true
    },
    {
      "inputs": [
        {
          "internalType": "uint256",
          "name": "patentId",
          "type": "uint256"
        },
        {
          "internalType": "address",
          "name": "user",
          "type": "address"
        }
      ],
      "name": "isAuthorizedUser",
      "outputs": [
        {
          "internalType": "bool",
          "name": "",
          "type": "bool"
        }
      ],
      "stateMutability": "view",
      "type": "function",
      "constant": true
    },
    {
      "inputs": [
        {
          "internalType": "address",
          "name": "user",
          "type": "address"
        }
      ],
      "name": "fetchMarketPatents",
      "outputs": [
        {
          "components": [
            {
              "internalType": "uint256",
              "name": "patentId",
              "type": "uint256"
            },
            {
              "internalType": "string",
              "name": "patentName",
              "type": "string"
            },
            {
              "internalType": "address",
              "name": "currentOwner",
              "type": "address"
            },
            {
              "internalType": "string",
              "name": "description",
              "type": "string"
            },
            {
              "internalType": "uint256",
              "name": "price",
              "type": "uint256"
            },
            {
              "internalType": "bool",
              "name": "isForSale",
              "type": "bool"
            },
            {
              "internalType": "uint256",
              "name": "registrationTime",
              "type": "uint256"
            },
            {
              "internalType": "uint256",
              "name": "expiryTime",
              "type": "uint256"
            }
          ],
          "internalType": "struct PatentBase.Patent[]",
          "name": "",
          "type": "tuple[]"
        }
      ],
      "stateMutability": "view",
      "type": "function",
      "constant": true
    },
    {
      "inputs": [
        {
          "internalType": "address",
          "name": "user",
          "type": "address"
        }
      ],
      "name": "fetchPatentsCanSale",
      "outputs": [
        {
          "components": [
            {
              "internalType": "uint256",
              "name": "patentId",
              "type": "uint256"
            },
            {
              "internalType": "string",
              "name": "patentName",
              "type": "string"
            },
            {
              "internalType": "address",
              "name": "currentOwner",
              "type": "address"
            },
            {
              "internalType": "string",
              "name": "description",
              "type": "string"
            },
            {
              "internalType": "uint256",
              "name": "price",
              "type": "uint256"
            },
            {
              "internalType": "bool",
              "name": "isForSale",
              "type": "bool"
            },
            {
              "internalType": "uint256",
              "name": "registrationTime",
              "type": "uint256"
            },
            {
              "internalType": "uint256",
              "name": "expiryTime",
              "type": "uint256"
            }
          ],
          "internalType": "struct PatentBase.Patent[]",
          "name": "",
          "type": "tuple[]"
        }
      ],
      "stateMutability": "view",
      "type": "function",
      "constant": true
    }
  ],
  "bytecode": "0x608060405234801561001057600080fd5b5061423e806100206000396000f3fe608060405260043610610168576000357c0100000000000000000000000000000000000000000000000000000000900480639c6d0d78116100d3578063bf7b64041161008c578063bf7b640414610541578063cdba68b91461057e578063e80d7fec146105bb578063f1d908dd146105e4578063f422bc681461060d578063fdc4294f1461065157610168565b80639c6d0d78146103f4578063a1ab74b914610436578063a20b7d1b14610473578063a5663a9f1461049c578063b084c841146104d9578063b735a3ff1461050457610168565b806357cbe3cf1161012557806357cbe3cf1461029757806361d38b17146102d45780636cd5ae34146102fd578063763d19d41461033a5780638c20cc4d1461037a57806396a6bb32146103b757610168565b806309e6baf11461016d57806313b356ad146101985780631c1bff89146101b45780632807745f146101dd5780634864810d1461021d578063540ce76b1461025a575b600080fd5b34801561017957600080fd5b5061018261067a565b60405161018f9190612d11565b60405180910390f35b6101b260048036038101906101ad9190612d73565b61070f565b005b3480156101c057600080fd5b506101db60048036038101906101d69190612dfe565b610902565b005b3480156101e957600080fd5b5061020460048036038101906101ff9190612e3e565b610bfd565b6040516102149493929190612eb7565b60405180910390f35b34801561022957600080fd5b50610244600480360381019061023f9190613042565b610c77565b60405161025191906130cd565b60405180910390f35b34801561026657600080fd5b50610281600480360381019061027c91906130e8565b610ee8565b60405161028e9190613237565b60405180910390f35b3480156102a357600080fd5b506102be60048036038101906102b991906130e8565b611197565b6040516102cb9190613451565b60405180910390f35b3480156102e057600080fd5b506102fb60048036038101906102f69190612dfe565b61156a565b005b34801561030957600080fd5b50610324600480360381019061031f9190612d73565b6117fc565b604051610331919061352a565b60405180910390f35b34801561034657600080fd5b50610361600480360381019061035c9190612e3e565b6119e7565b604051610371949392919061354c565b60405180910390f35b34801561038657600080fd5b506103a1600480360381019061039c9190612dfe565b611a61565b6040516103ae9190613591565b60405180910390f35b3480156103c357600080fd5b506103de60048036038101906103d991906130e8565b611b3b565b6040516103eb9190613451565b60405180910390f35b34801561040057600080fd5b5061041b60048036038101906104169190612d73565b611f29565b60405161042d969594939291906135f6565b60405180910390f35b34801561044257600080fd5b5061045d60048036038101906104589190612d73565b612146565b60405161046a9190613591565b60405180910390f35b34801561047f57600080fd5b5061049a60048036038101906104959190612d73565b612173565b005b3480156104a857600080fd5b506104c360048036038101906104be9190612dfe565b6123a3565b6040516104d09190613591565b60405180910390f35b3480156104e557600080fd5b506104ee6123d2565b6040516104fb91906130cd565b60405180910390f35b34801561051057600080fd5b5061052b60048036038101906105269190612dfe565b6123d8565b6040516105389190613591565b60405180910390f35b34801561054d57600080fd5b5061056860048036038101906105639190612d73565b6124f5565b6040516105759190613591565b60405180910390f35b34801561058a57600080fd5b506105a560048036038101906105a09190612dfe565b612517565b6040516105b29190613591565b60405180910390f35b3480156105c757600080fd5b506105e260048036038101906105dd9190612e3e565b61257f565b005b3480156105f057600080fd5b5061060b60048036038101906106069190612d73565b6126ff565b005b34801561061957600080fd5b50610634600480360381019061062f9190612d73565b612996565b604051610648989796959493929190613665565b60405180910390f35b34801561065d57600080fd5b5061067860048036038101906106739190612dfe565b612b1b565b005b6060600260003373ffffffffffffffffffffffffffffffffffffffff1673ffffffffffffffffffffffffffffffffffffffff16815260200190815260200160002080548060200260200160405190810160405280929190818152602001828054801561070557602002820191906000526020600020905b8154815260200190600101908083116106f1575b5050505050905090565b60006001600083815260200190815260200160002090508060050160009054906101000a900460ff16610777576040517f08c379a000000000000000000000000000000000000000000000000000000000815260040161076e9061373d565b60405180910390fd5b80600401543410156107be576040517f08c379a00000000000000000000000000000000000000000000000000000000081526004016107b5906137a9565b60405180910390fd5b60008160020160009054906101000a900473ffffffffffffffffffffffffffffffffffffffff169050338260020160006101000a81548173ffffffffffffffffffffffffffffffffffffffff021916908373ffffffffffffffffffffffffffffffffffffffff16021790555060008260050160006101000a81548160ff0219169083151502179055508073ffffffffffffffffffffffffffffffffffffffff166108fc349081150290604051600060405180830381858888f1935050505015801561088d573d6000803e3d6000fd5b503373ffffffffffffffffffffffffffffffffffffffff168173ffffffffffffffffffffffffffffffffffffffff16847fd4087db499dd31cfde1d9403da6a531c3913cb1197f78312d5ca5eff555082f78560010186600401546040516108f59291906138c2565b60405180910390a4505050565b3373ffffffffffffffffffffffffffffffffffffffff166001600084815260200190815260200160002060020160009054906101000a900473ffffffffffffffffffffffffffffffffffffffff1673ffffffffffffffffffffffffffffffffffffffff16146109a6576040517f08c379a000000000000000000000000000000000000000000000000000000000815260040161099d9061393e565b60405180910390fd5b6000805b6004600085815260200190815260200160002080549050811015610bb7578273ffffffffffffffffffffffffffffffffffffffff16600460008681526020019081526020016000208281548110610a0457610a0361395e565b5b906000526020600020906004020160000160009054906101000a900473ffffffffffffffffffffffffffffffffffffffff1673ffffffffffffffffffffffffffffffffffffffff16148015610a9a5750600460008581526020019081526020016000208181548110610a7957610a7861395e565b5b906000526020600020906004020160030160009054906101000a900460ff16155b15610ba4576001600460008681526020019081526020016000208281548110610ac657610ac561395e565b5b906000526020600020906004020160030160006101000a81548160ff02191690831515021790555060016003600086815260200190815260200160002060008573ffffffffffffffffffffffffffffffffffffffff1673ffffffffffffffffffffffffffffffffffffffff16815260200190815260200160002060006101000a81548160ff0219169083151502179055508273ffffffffffffffffffffffffffffffffffffffff16847f26273e1af82ccbf7153502c23c0b3d69e41c3e2f27a9f6d1472bab8eeb878f3b60405160405180910390a360019150610bb7565b8080610baf906139bc565b9150506109aa565b5080610bf8576040517f08c379a0000000000000000000000000000000000000000000000000000000008152600401610bef90613a76565b60405180910390fd5b505050565b60046020528160005260406000208181548110610c1957600080fd5b9060005260206000209060040201600091509150508060000160009054906101000a900473ffffffffffffffffffffffffffffffffffffffff16908060010154908060020154908060030160009054906101000a900460ff16905084565b6000808211610cbb576040517f08c379a0000000000000000000000000000000000000000000000000000000008152600401610cb290613b08565b60405180910390fd5b60405180610100016040528060005481526020018581526020013373ffffffffffffffffffffffffffffffffffffffff168152602001848152602001600081526020016000151581526020014281526020018342610d199190613b28565b8152506001600080548152602001908152602001600020600082015181600001556020820151816001019081610d4f9190613cf9565b5060408201518160020160006101000a81548173ffffffffffffffffffffffffffffffffffffffff021916908373ffffffffffffffffffffffffffffffffffffffff1602179055506060820151816003019081610dac9190613cf9565b506080820151816004015560a08201518160050160006101000a81548160ff02191690831515021790555060c0820151816006015560e08201518160070155905050600260003373ffffffffffffffffffffffffffffffffffffffff1673ffffffffffffffffffffffffffffffffffffffff1681526020019081526020016000206000549080600181540180825580915050600190039060005260206000200160009091909190915055600080815480929190610e68906139bc565b91905055503373ffffffffffffffffffffffffffffffffffffffff167ffe35dd0a2a2b1a13a2ecfe9e9714cbb3430db7ca9c258e25e74ba7c432721fbb6001600054610eb49190613dcb565b8686600080428942610ec69190613b28565b604051610ed99796959493929190613e3a565b60405180910390a29392505050565b60606000805b600054811015610f83578373ffffffffffffffffffffffffffffffffffffffff166001600083815260200190815260200160002060020160009054906101000a900473ffffffffffffffffffffffffffffffffffffffff1673ffffffffffffffffffffffffffffffffffffffff1603610f70578180610f6c906139bc565b9250505b8080610f7b906139bc565b915050610eee565b5060008167ffffffffffffffff811115610fa057610f9f612f17565b5b604051908082528060200260200182016040528015610fd957816020015b610fc6612bac565b815260200190600190039081610fbe5790505b5090506000805b60005481101561118b578573ffffffffffffffffffffffffffffffffffffffff166001600083815260200190815260200160002060020160009054906101000a900473ffffffffffffffffffffffffffffffffffffffff1673ffffffffffffffffffffffffffffffffffffffff16036111785760005b6005600083815260200190815260200160002080549050811015611176576005600083815260200190815260200160002081815481106110995761109861395e565b5b9060005260206000209060040201604051806080016040529081600082015481526020016001820160009054906101000a900473ffffffffffffffffffffffffffffffffffffffff1673ffffffffffffffffffffffffffffffffffffffff1673ffffffffffffffffffffffffffffffffffffffff168152602001600282015481526020016003820160009054906101000a900460ff16151515158152505084848151811061114a5761114961395e565b5b60200260200101819052508280611160906139bc565b935050808061116e906139bc565b915050611056565b505b8080611183906139bc565b915050610fe0565b50819350505050919050565b6060600080805467ffffffffffffffff8111156111b7576111b6612f17565b5b6040519080825280602002602001820160405280156111e55781602001602082028036833780820191505090505b50905060005b60005481116112cd576001600082815260200190815260200160002060050160009054906101000a900460ff16801561128657508473ffffffffffffffffffffffffffffffffffffffff166001600083815260200190815260200160002060020160009054906101000a900473ffffffffffffffffffffffffffffffffffffffff1673ffffffffffffffffffffffffffffffffffffffff1614155b156112ba578082848151811061129f5761129e61395e565b5b60200260200101818152505082806112b6906139bc565b9350505b80806112c5906139bc565b9150506111eb565b5060008267ffffffffffffffff8111156112ea576112e9612f17565b5b60405190808252806020026020018201604052801561132357816020015b611310612bec565b8152602001906001900390816113085790505b50905060005b8381101561155e5760008382815181106113465761134561395e565b5b60200260200101519050600160008281526020019081526020016000206040518061010001604052908160008201548152602001600182018054611389906137f8565b80601f01602080910402602001604051908101604052809291908181526020018280546113b5906137f8565b80156114025780601f106113d757610100808354040283529160200191611402565b820191906000526020600020905b8154815290600101906020018083116113e557829003601f168201915b505050505081526020016002820160009054906101000a900473ffffffffffffffffffffffffffffffffffffffff1673ffffffffffffffffffffffffffffffffffffffff1673ffffffffffffffffffffffffffffffffffffffff168152602001600382018054611471906137f8565b80601f016020809104026020016040519081016040528092919081815260200182805461149d906137f8565b80156114ea5780601f106114bf576101008083540402835291602001916114ea565b820191906000526020600020905b8154815290600101906020018083116114cd57829003601f168201915b50505050508152602001600482015481526020016005820160009054906101000a900460ff161515151581526020016006820154815260200160078201548152505083838151811061153f5761153e61395e565b5b6020026020010181905250508080611556906139bc565b915050611329565b50809350505050919050565b3373ffffffffffffffffffffffffffffffffffffffff166001600084815260200190815260200160002060020160009054906101000a900473ffffffffffffffffffffffffffffffffffffffff1673ffffffffffffffffffffffffffffffffffffffff161461160e576040517f08c379a000000000000000000000000000000000000000000000000000000000815260040161160590613f03565b60405180910390fd5b6000805b60046000858152602001908152602001600020805490508110156117b6578273ffffffffffffffffffffffffffffffffffffffff1660046000868152602001908152602001600020828154811061166c5761166b61395e565b5b906000526020600020906004020160000160009054906101000a900473ffffffffffffffffffffffffffffffffffffffff1673ffffffffffffffffffffffffffffffffffffffff1614801561170257506004600085815260200190815260200160002081815481106116e1576116e061395e565b5b906000526020600020906004020160030160009054906101000a900460ff16155b156117a357600060046000868152602001908152602001600020828154811061172e5761172d61395e565b5b906000526020600020906004020160030160006101000a81548160ff0219169083151502179055508273ffffffffffffffffffffffffffffffffffffffff16847f7f199c4b273ac707d8aaef42f3549b0b7b0293254783ddb899c8e82bbb5bddce60405160405180910390a3600191506117b6565b80806117ae906139bc565b915050611612565b50806117f7576040517f08c379a00000000000000000000000000000000000000000000000000000000081526004016117ee90613a76565b60405180910390fd5b505050565b611804612bec565b60016000838152602001908152602001600020604051806101000160405290816000820154815260200160018201805461183d906137f8565b80601f0160208091040260200160405190810160405280929190818152602001828054611869906137f8565b80156118b65780601f1061188b576101008083540402835291602001916118b6565b820191906000526020600020905b81548152906001019060200180831161189957829003601f168201915b505050505081526020016002820160009054906101000a900473ffffffffffffffffffffffffffffffffffffffff1673ffffffffffffffffffffffffffffffffffffffff1673ffffffffffffffffffffffffffffffffffffffff168152602001600382018054611925906137f8565b80601f0160208091040260200160405190810160405280929190818152602001828054611951906137f8565b801561199e5780601f106119735761010080835404028352916020019161199e565b820191906000526020600020905b81548152906001019060200180831161198157829003601f168201915b50505050508152602001600482015481526020016005820160009054906101000a900460ff16151515158152602001600682015481526020016007820154815250509050919050565b60056020528160005260406000208181548110611a0357600080fd5b9060005260206000209060040201600091509150508060000154908060010160009054906101000a900473ffffffffffffffffffffffffffffffffffffffff16908060020154908060030160009054906101000a900460ff16905084565b6000806001600085815260200190815260200160002060020160009054906101000a900473ffffffffffffffffffffffffffffffffffffffff1673ffffffffffffffffffffffffffffffffffffffff168373ffffffffffffffffffffffffffffffffffffffff161480611b2e57506003600085815260200190815260200160002060008473ffffffffffffffffffffffffffffffffffffffff1673ffffffffffffffffffffffffffffffffffffffff16815260200190815260200160002060009054906101000a900460ff165b9050801591505092915050565b60606000805b600054811015611c04578373ffffffffffffffffffffffffffffffffffffffff166001600083815260200190815260200160002060020160009054906101000a900473ffffffffffffffffffffffffffffffffffffffff1673ffffffffffffffffffffffffffffffffffffffff16148015611bdd57506001600082815260200190815260200160002060050160009054906101000a900460ff16155b15611bf1578180611bed906139bc565b9250505b8080611bfc906139bc565b915050611b41565b5060008167ffffffffffffffff811115611c2157611c20612f17565b5b604051908082528060200260200182016040528015611c5a57816020015b611c47612bec565b815260200190600190039081611c3f5790505b5090506000805b600054811015611f1d578573ffffffffffffffffffffffffffffffffffffffff166001600083815260200190815260200160002060020160009054906101000a900473ffffffffffffffffffffffffffffffffffffffff1673ffffffffffffffffffffffffffffffffffffffff16148015611cfc57506001600082815260200190815260200160002060050160009054906101000a900460ff165b15611f0a57600160008281526020019081526020016000206040518061010001604052908160008201548152602001600182018054611d3a906137f8565b80601f0160208091040260200160405190810160405280929190818152602001828054611d66906137f8565b8015611db35780601f10611d8857610100808354040283529160200191611db3565b820191906000526020600020905b815481529060010190602001808311611d9657829003601f168201915b505050505081526020016002820160009054906101000a900473ffffffffffffffffffffffffffffffffffffffff1673ffffffffffffffffffffffffffffffffffffffff1673ffffffffffffffffffffffffffffffffffffffff168152602001600382018054611e22906137f8565b80601f0160208091040260200160405190810160405280929190818152602001828054611e4e906137f8565b8015611e9b5780601f10611e7057610100808354040283529160200191611e9b565b820191906000526020600020905b815481529060010190602001808311611e7e57829003601f168201915b50505050508152602001600482015481526020016005820160009054906101000a900460ff1615151515815260200160068201548152602001600782015481525050838381518110611ef057611eef61395e565b5b60200260200101819052508180611f06906139bc565b9250505b8080611f15906139bc565b915050611c61565b50819350505050919050565b6000606080600080600080600160008981526020019081526020016000206040518061010001604052908160008201548152602001600182018054611f6d906137f8565b80601f0160208091040260200160405190810160405280929190818152602001828054611f99906137f8565b8015611fe65780601f10611fbb57610100808354040283529160200191611fe6565b820191906000526020600020905b815481529060010190602001808311611fc957829003601f168201915b505050505081526020016002820160009054906101000a900473ffffffffffffffffffffffffffffffffffffffff1673ffffffffffffffffffffffffffffffffffffffff1673ffffffffffffffffffffffffffffffffffffffff168152602001600382018054612055906137f8565b80601f0160208091040260200160405190810160405280929190818152602001828054612081906137f8565b80156120ce5780601f106120a3576101008083540402835291602001916120ce565b820191906000526020600020905b8154815290600101906020018083116120b157829003601f168201915b50505050508152602001600482015481526020016005820160009054906101000a900460ff1615151515815260200160068201548152602001600782015481525050905080600001518160200151826060015183604001518460c001518560e001519650965096509650965096505091939550919395565b60006001600083815260200190815260200160002060050160009054906101000a900460ff169050919050565b806001600083815260200190815260200160002060000154146121cb576040517f08c379a00000000000000000000000000000000000000000000000000000000081526004016121c290613f6f565b60405180910390fd5b6003600082815260200190815260200160002060003373ffffffffffffffffffffffffffffffffffffffff1673ffffffffffffffffffffffffffffffffffffffff16815260200190815260200160002060009054906101000a900460ff1615612269576040517f08c379a000000000000000000000000000000000000000000000000000000000815260040161226090613fdb565b60405180910390fd5b6004600082815260200190815260200160002060405180608001604052803373ffffffffffffffffffffffffffffffffffffffff16815260200183815260200142815260200160001515815250908060018154018082558091505060019003906000526020600020906004020160009091909190915060008201518160000160006101000a81548173ffffffffffffffffffffffffffffffffffffffff021916908373ffffffffffffffffffffffffffffffffffffffff160217905550602082015181600101556040820151816002015560608201518160030160006101000a81548160ff02191690831515021790555050503373ffffffffffffffffffffffffffffffffffffffff16817fe9e3c8549c5502ab4b191ecaed1656277f749183703fe647e892b34c6cd8b7d160405160405180910390a350565b60036020528160005260406000206020528060005260406000206000915091509054906101000a900460ff1681565b60005481565b60006001600084815260200190815260200160002060020160009054906101000a900473ffffffffffffffffffffffffffffffffffffffff1673ffffffffffffffffffffffffffffffffffffffff168273ffffffffffffffffffffffffffffffffffffffff160361244c57600090506124ef565b6003600084815260200190815260200160002060008373ffffffffffffffffffffffffffffffffffffffff1673ffffffffffffffffffffffffffffffffffffffff16815260200190815260200160002060009054906101000a900460ff16156124b857600090506124ef565b6001600084815260200190815260200160002060050160009054906101000a900460ff16156124ea57600090506124ef565b600190505b92915050565b6000600160008381526020019081526020016000206007015442119050919050565b60006003600084815260200190815260200160002060008373ffffffffffffffffffffffffffffffffffffffff1673ffffffffffffffffffffffffffffffffffffffff16815260200190815260200160002060009054906101000a900460ff16905092915050565b60006001600084815260200190815260200160002090503373ffffffffffffffffffffffffffffffffffffffff168160020160009054906101000a900473ffffffffffffffffffffffffffffffffffffffff1673ffffffffffffffffffffffffffffffffffffffff1614612628576040517f08c379a000000000000000000000000000000000000000000000000000000000815260040161261f90614047565b60405180910390fd5b600015158160050160009054906101000a900460ff16151514612680576040517f08c379a0000000000000000000000000000000000000000000000000000000008152600401612677906140b3565b60405180910390fd5b81816004018190555060018160050160006101000a81548160ff0219169083151502179055503373ffffffffffffffffffffffffffffffffffffffff16837fa8c5d983dc7078455ae436e4ed5b3b05a1adbac2a83405e0c3af5b07b22620e683600101856040516126f29291906138c2565b60405180910390a3505050565b80600160008381526020019081526020016000206000015414612757576040517f08c379a000000000000000000000000000000000000000000000000000000000815260040161274e90613f6f565b60405180910390fd5b60006001600083815260200190815260200160002060020160009054906101000a900473ffffffffffffffffffffffffffffffffffffffff1673ffffffffffffffffffffffffffffffffffffffff163373ffffffffffffffffffffffffffffffffffffffff16148061282357506003600083815260200190815260200160002060003373ffffffffffffffffffffffffffffffffffffffff1673ffffffffffffffffffffffffffffffffffffffff16815260200190815260200160002060009054906101000a900460ff165b90506005600083815260200190815260200160002060405180608001604052808481526020013373ffffffffffffffffffffffffffffffffffffffff16815260200142815260200183151581525090806001815401808255809150506001900390600052602060002090600402016000909190919091506000820151816000015560208201518160010160006101000a81548173ffffffffffffffffffffffffffffffffffffffff021916908373ffffffffffffffffffffffffffffffffffffffff1602179055506040820151816002015560608201518160030160006101000a81548160ff021916908315150217905550505080612957576040517f08c379a000000000000000000000000000000000000000000000000000000000815260040161294e90614145565b60405180910390fd5b7fc083bacf997f451c75aafe358644c360f105a04631d5fea550402e38a1c5f76e82334260405161298a93929190614165565b60405180910390a15050565b60016020528060005260406000206000915090508060000154908060010180546129bf906137f8565b80601f01602080910402602001604051908101604052809291908181526020018280546129eb906137f8565b8015612a385780601f10612a0d57610100808354040283529160200191612a38565b820191906000526020600020905b815481529060010190602001808311612a1b57829003601f168201915b5050505050908060020160009054906101000a900473ffffffffffffffffffffffffffffffffffffffff1690806003018054612a73906137f8565b80601f0160208091040260200160405190810160405280929190818152602001828054612a9f906137f8565b8015612aec5780601f10612ac157610100808354040283529160200191612aec565b820191906000526020600020905b815481529060010190602001808311612acf57829003601f168201915b5050505050908060040154908060050160009054906101000a900460ff16908060060154908060070154905088565b612b258282611a61565b612b64576040517f08c379a0000000000000000000000000000000000000000000000000000000008152600401612b5b906141e8565b60405180910390fd5b8073ffffffffffffffffffffffffffffffffffffffff16827fdfaf16f598115f57c2553188dd0d6de487047f89c9529b994266f45c892b415960405160405180910390a35050565b604051806080016040528060008152602001600073ffffffffffffffffffffffffffffffffffffffff168152602001600081526020016000151581525090565b6040518061010001604052806000815260200160608152602001600073ffffffffffffffffffffffffffffffffffffffff168152602001606081526020016000815260200160001515815260200160008152602001600081525090565b600081519050919050565b600082825260208201905092915050565b6000819050602082019050919050565b6000819050919050565b612c8881612c75565b82525050565b6000612c9a8383612c7f565b60208301905092915050565b6000602082019050919050565b6000612cbe82612c49565b612cc88185612c54565b9350612cd383612c65565b8060005b83811015612d04578151612ceb8882612c8e565b9750612cf683612ca6565b925050600181019050612cd7565b5085935050505092915050565b60006020820190508181036000830152612d2b8184612cb3565b905092915050565b6000604051905090565b600080fd5b600080fd5b612d5081612c75565b8114612d5b57600080fd5b50565b600081359050612d6d81612d47565b92915050565b600060208284031215612d8957612d88612d3d565b5b6000612d9784828501612d5e565b91505092915050565b600073ffffffffffffffffffffffffffffffffffffffff82169050919050565b6000612dcb82612da0565b9050919050565b612ddb81612dc0565b8114612de657600080fd5b50565b600081359050612df881612dd2565b92915050565b60008060408385031215612e1557612e14612d3d565b5b6000612e2385828601612d5e565b9250506020612e3485828601612de9565b9150509250929050565b60008060408385031215612e5557612e54612d3d565b5b6000612e6385828601612d5e565b9250506020612e7485828601612d5e565b9150509250929050565b612e8781612dc0565b82525050565b612e9681612c75565b82525050565b60008115159050919050565b612eb181612e9c565b82525050565b6000608082019050612ecc6000830187612e7e565b612ed96020830186612e8d565b612ee66040830185612e8d565b612ef36060830184612ea8565b95945050505050565b600080fd5b600080fd5b6000601f19601f8301169050919050565b7f4e487b7100000000000000000000000000000000000000000000000000000000600052604160045260246000fd5b612f4f82612f06565b810181811067ffffffffffffffff82111715612f6e57612f6d612f17565b5b80604052505050565b6000612f81612d33565b9050612f8d8282612f46565b919050565b600067ffffffffffffffff821115612fad57612fac612f17565b5b612fb682612f06565b9050602081019050919050565b82818337600083830152505050565b6000612fe5612fe084612f92565b612f77565b90508281526020810184848401111561300157613000612f01565b5b61300c848285612fc3565b509392505050565b600082601f83011261302957613028612efc565b5b8135613039848260208601612fd2565b91505092915050565b60008060006060848603121561305b5761305a612d3d565b5b600084013567ffffffffffffffff81111561307957613078612d42565b5b61308586828701613014565b935050602084013567ffffffffffffffff8111156130a6576130a5612d42565b5b6130b286828701613014565b92505060406130c386828701612d5e565b9150509250925092565b60006020820190506130e26000830184612e8d565b92915050565b6000602082840312156130fe576130fd612d3d565b5b600061310c84828501612de9565b91505092915050565b600081519050919050565b600082825260208201905092915050565b6000819050602082019050919050565b61314a81612dc0565b82525050565b61315981612e9c565b82525050565b6080820160008201516131756000850182612c7f565b5060208201516131886020850182613141565b50604082015161319b6040850182612c7f565b5060608201516131ae6060850182613150565b50505050565b60006131c0838361315f565b60808301905092915050565b6000602082019050919050565b60006131e482613115565b6131ee8185613120565b93506131f983613131565b8060005b8381101561322a57815161321188826131b4565b975061321c836131cc565b9250506001810190506131fd565b5085935050505092915050565b6000602082019050818103600083015261325181846131d9565b905092915050565b600081519050919050565b600082825260208201905092915050565b6000819050602082019050919050565b600081519050919050565b600082825260208201905092915050565b60005b838110156132bf5780820151818401526020810190506132a4565b60008484015250505050565b60006132d682613285565b6132e08185613290565b93506132f08185602086016132a1565b6132f981612f06565b840191505092915050565b60006101008301600083015161331d6000860182612c7f565b506020830151848203602086015261333582826132cb565b915050604083015161334a6040860182613141565b506060830151848203606086015261336282826132cb565b91505060808301516133776080860182612c7f565b5060a083015161338a60a0860182613150565b5060c083015161339d60c0860182612c7f565b5060e08301516133b060e0860182612c7f565b508091505092915050565b60006133c78383613304565b905092915050565b6000602082019050919050565b60006133e782613259565b6133f18185613264565b93508360208202850161340385613275565b8060005b8581101561343f578484038952815161342085826133bb565b945061342b836133cf565b925060208a01995050600181019050613407565b50829750879550505050505092915050565b6000602082019050818103600083015261346b81846133dc565b905092915050565b60006101008301600083015161348c6000860182612c7f565b50602083015184820360208601526134a482826132cb565b91505060408301516134b96040860182613141565b50606083015184820360608601526134d182826132cb565b91505060808301516134e66080860182612c7f565b5060a08301516134f960a0860182613150565b5060c083015161350c60c0860182612c7f565b5060e083015161351f60e0860182612c7f565b508091505092915050565b600060208201905081810360008301526135448184613473565b905092915050565b60006080820190506135616000830187612e8d565b61356e6020830186612e7e565b61357b6040830185612e8d565b6135886060830184612ea8565b95945050505050565b60006020820190506135a66000830184612ea8565b92915050565b600082825260208201905092915050565b60006135c882613285565b6135d281856135ac565b93506135e28185602086016132a1565b6135eb81612f06565b840191505092915050565b600060c08201905061360b6000830189612e8d565b818103602083015261361d81886135bd565b9050818103604083015261363181876135bd565b90506136406060830186612e7e565b61364d6080830185612e8d565b61365a60a0830184612e8d565b979650505050505050565b60006101008201905061367b600083018b612e8d565b818103602083015261368d818a6135bd565b905061369c6040830189612e7e565b81810360608301526136ae81886135bd565b90506136bd6080830187612e8d565b6136ca60a0830186612ea8565b6136d760c0830185612e8d565b6136e460e0830184612e8d565b9998505050505050505050565b7f506174656e74206973206e6f7420666f722073616c6500000000000000000000600082015250565b60006137276016836135ac565b9150613732826136f1565b602082019050919050565b600060208201905081810360008301526137568161371a565b9050919050565b7f496e73756666696369656e742066756e647320746f2062757920706174656e74600082015250565b60006137936020836135ac565b915061379e8261375d565b602082019050919050565b600060208201905081810360008301526137c281613786565b9050919050565b7f4e487b7100000000000000000000000000000000000000000000000000000000600052602260045260246000fd5b6000600282049050600182168061381057607f821691505b602082108103613823576138226137c9565b5b50919050565b60008190508160005260206000209050919050565b6000815461384b816137f8565b61385581866135ac565b945060018216600081146138705760018114613886576138b9565b60ff1983168652811515602002860193506138b9565b61388f85613829565b60005b838110156138b157815481890152600182019150602081019050613892565b808801955050505b50505092915050565b600060408201905081810360008301526138dc818561383e565b90506138eb6020830184612e8d565b9392505050565b7f4f6e6c7920746865206f776e65722063616e20617070726f7665000000000000600082015250565b6000613928601a836135ac565b9150613933826138f2565b602082019050919050565b600060208201905081810360008301526139578161391b565b9050919050565b7f4e487b7100000000000000000000000000000000000000000000000000000000600052603260045260246000fd5b7f4e487b7100000000000000000000000000000000000000000000000000000000600052601160045260246000fd5b60006139c782612c75565b91507fffffffffffffffffffffffffffffffffffffffffffffffffffffffffffffffff82036139f9576139f861398d565b5b600182019050919050565b7f417574686f72697a6174696f6e2072657175657374206e6f7420666f756e642060008201527f6f7220616c726561647920617070726f76656400000000000000000000000000602082015250565b6000613a606033836135ac565b9150613a6b82613a04565b604082019050919050565b60006020820190508181036000830152613a8f81613a53565b9050919050565b7f4475726174696f6e206d7573742062652067726561746572207468616e207a6560008201527f726f000000000000000000000000000000000000000000000000000000000000602082015250565b6000613af26022836135ac565b9150613afd82613a96565b604082019050919050565b60006020820190508181036000830152613b2181613ae5565b9050919050565b6000613b3382612c75565b9150613b3e83612c75565b9250828201905080821115613b5657613b5561398d565b5b92915050565b60006020601f8301049050919050565b60008160020a8302905092915050565b600060088302613bac7fffffffffffffffffffffffffffffffffffffffffffffffffffffffffffffffff82613b6c565b613bb68683613b6c565b95508019841693508086168417925050509392505050565b6000819050919050565b6000613bf3613bee613be984612c75565b613bce565b612c75565b9050919050565b6000819050919050565b613c0d83613bd8565b613c21613c1982613bfa565b848454613b7c565b825550505050565b600090565b613c36613c29565b613c41818484613c04565b505050565b5b81811015613c6557613c5a600082613c2e565b600181019050613c47565b5050565b601f821115613caa57613c7b81613829565b613c8484613b5c565b81016020851015613c93578190505b613ca7613c9f85613b5c565b830182613c46565b50505b505050565b60008160020a8304905092915050565b6000613cd060001984600802613caf565b1980831691505092915050565b6000613ce98383613cbf565b9150826002028217905092915050565b613d0282613285565b67ffffffffffffffff811115613d1b57613d1a612f17565b5b613d2582546137f8565b613d30828285613c69565b600060209050601f831160018114613d635760008415613d51578287015190505b613d5b8582613cdd565b865550613dc3565b601f198416613d7186613829565b60005b82811015613d9957848901518255600182019150602085019450602081019050613d74565b86831015613db65784890151613db2601f891682613cbf565b8355505b6001600288020188555050505b505050505050565b6000613dd682612c75565b9150613de183612c75565b9250828203905081811115613df957613df861398d565b5b92915050565b6000819050919050565b6000613e24613e1f613e1a84613dff565b613bce565b612c75565b9050919050565b613e3481613e09565b82525050565b600060e082019050613e4f600083018a612e8d565b8181036020830152613e6181896135bd565b90508181036040830152613e7581886135bd565b9050613e846060830187613e2b565b613e916080830186612ea8565b613e9e60a0830185612e8d565b613eab60c0830184612e8d565b98975050505050505050565b7f4f6e6c7920746865206f776e65722063616e2072656a65637400000000000000600082015250565b6000613eed6019836135ac565b9150613ef882613eb7565b602082019050919050565b60006020820190508181036000830152613f1c81613ee0565b9050919050565b7f506174656e7420646f6573206e6f742065786973740000000000000000000000600082015250565b6000613f596015836135ac565b9150613f6482613f23565b602082019050919050565b60006020820190508181036000830152613f8881613f4c565b9050919050565b7f596f752061726520616c726561647920617574686f72697a6564000000000000600082015250565b6000613fc5601a836135ac565b9150613fd082613f8f565b602082019050919050565b60006020820190508181036000830152613ff481613fb8565b9050919050565b7f596f7520617265206e6f7420746865206f776e65720000000000000000000000600082015250565b60006140316015836135ac565b915061403c82613ffb565b602082019050919050565b6000602082019050818103600083015261406081614024565b9050919050565b7f506174656e7420697320616c726561647920666f722073616c65000000000000600082015250565b600061409d601a836135ac565b91506140a882614067565b602082019050919050565b600060208201905081810360008301526140cc81614090565b9050919050565b7f596f7520646f206e6f742068617665207065726d697373696f6e20746f20757360008201527f65207468697320706174656e7400000000000000000000000000000000000000602082015250565b600061412f602d836135ac565b915061413a826140d3565b604082019050919050565b6000602082019050818103600083015261415e81614122565b9050919050565b600060608201905061417a6000830186612e8d565b6141876020830185612e7e565b6141946040830184612e8d565b949350505050565b7f4e6f20696e6672696e67656d656e742064657465637465640000000000000000600082015250565b60006141d26018836135ac565b91506141dd8261419c565b602082019050919050565b60006020820190508181036000830152614201816141c5565b905091905056fea2646970667358221220130cbb2b188ff3fc344517a32e162938262b77972b7e14da45e02301873ba1ff64736f6c63430008150033",
  "immutableReferences": {},
  "source": "// SPDX-License-Identifier: MIT\r\npragma solidity ^0.8.0;\r\n\r\nimport \"./PatentRegistry.sol\";  // \r\n\r\ncontract PatentMarket is PatentRegistry {\r\n    // \r\n    struct AuthorizationRequest {\r\n        address applicant;       // \r\n        uint256 patentId;        //  ID\r\n        uint256 requestTime;     // \r\n        bool approved;           // \r\n    }\r\n\r\n    // \r\n    struct UseRecord {\r\n        uint256 patentId;       //  ID\r\n        address user;           // \r\n        uint256 useTime;        // \r\n        bool isAuthorized;      // \r\n    }\r\n\r\n    // ID\r\n    mapping(uint => mapping(address => bool)) public authorizedUsers;\r\n    mapping(uint256 => AuthorizationRequest[]) public authorizationRequests; // \r\n    mapping(uint256 => UseRecord[]) public useRecords; // \r\n    // \r\n    event PatentListed(uint indexed patentId, string name, address indexed owner, uint price);\r\n    event PatentSold(uint indexed patentId, string name, address indexed previousOwner, address indexed newOwner, uint price);\r\n    event PatentAuthorized(uint indexed patentId, address indexed user);\r\n    event PatentInfringementDetected(uint indexed patentId, address indexed infringer);\r\n    event LegalActionTriggered(uint indexed patentId, address indexed infringer);\r\n    // \r\n    event PatentAuthorizationRequested(uint256 indexed patentId, address indexed applicant);\r\n    // \r\n    event PatentAuthorizationRejected(uint256 indexed patentId, address indexed user);\r\n    \r\n    // \r\n    function listForSale(uint patentId, uint price) public {\r\n        Patent storage patent = patents[patentId];\r\n        require(patent.currentOwner == msg.sender, \"You are not the owner\");\r\n        require(patent.isForSale == false, \"Patent is already for sale\");\r\n\r\n        patent.price = price;\r\n        patent.isForSale = true;\r\n\r\n        emit PatentListed(patentId, patent.patentName, msg.sender, price);\r\n    }\r\n\r\n    // \r\n    function buyPatent(uint patentId) public payable {\r\n        Patent storage patent = patents[patentId];\r\n        require(patent.isForSale, \"Patent is not for sale\");\r\n        require(msg.value >= patent.price, \"Insufficient funds to buy patent\");\r\n\r\n        address previousOwner = patent.currentOwner;\r\n        patent.currentOwner = msg.sender;\r\n        patent.isForSale = false;\r\n\r\n        // \r\n        payable(previousOwner).transfer(msg.value);\r\n\r\n        emit PatentSold(patentId, patent.patentName, previousOwner, msg.sender, patent.price);\r\n    }\r\n\r\n    // \r\n    function canApplyForAuthorization(uint256 patentId, address user) public view returns (bool) {\r\n        // 1. \r\n        if (user == patents[patentId].currentOwner) {\r\n            return false;  // \r\n        }\r\n        \r\n        // 2. \r\n        if (authorizedUsers[patentId][user]) {\r\n            return false;  // \r\n        }\r\n\r\n        // 3. \r\n        if (patents[patentId].isForSale) {\r\n            return false;  // \r\n        }\r\n\r\n        // \r\n        return true;\r\n    }\r\n\r\n    // \r\n    function requestPatentAuthorization(uint256 patentId) public {\r\n        // \r\n        require(patents[patentId].patentId == patentId, \"Patent does not exist\");\r\n\r\n        // \r\n        require(!authorizedUsers[patentId][msg.sender], \"You are already authorized\");\r\n\r\n        // \r\n        authorizationRequests[patentId].push(AuthorizationRequest({\r\n            applicant: msg.sender,\r\n            patentId: patentId,      //  ID\r\n            requestTime: block.timestamp,\r\n            approved: false // \r\n        }));\r\n\r\n        emit PatentAuthorizationRequested(patentId, msg.sender);\r\n    }\r\n\r\n    // \r\n    function approveAuthorization(uint256 patentId, address user) public {\r\n        // \r\n        require(patents[patentId].currentOwner == msg.sender, \"Only the owner can approve\");\r\n\r\n        // \r\n        bool applicationFound = false;\r\n        for (uint i = 0; i < authorizationRequests[patentId].length; i++) {\r\n            if (authorizationRequests[patentId][i].applicant == user && !authorizationRequests[patentId][i].approved) {\r\n                // \r\n                authorizationRequests[patentId][i].approved = true;\r\n                authorizedUsers[patentId][user] = true;\r\n\r\n                emit PatentAuthorized(patentId, user);\r\n                applicationFound = true;\r\n                break;\r\n            }\r\n        }\r\n\r\n        require(applicationFound, \"Authorization request not found or already approved\");\r\n    }\r\n\r\n    // \r\n    function rejectAuthorization(uint256 patentId, address user) public {\r\n        // \r\n        require(patents[patentId].currentOwner == msg.sender, \"Only the owner can reject\");\r\n\r\n        // \r\n        bool applicationFound = false;\r\n        for (uint i = 0; i < authorizationRequests[patentId].length; i++) {\r\n            if (authorizationRequests[patentId][i].applicant == user && !authorizationRequests[patentId][i].approved) {\r\n                // \r\n                authorizationRequests[patentId][i].approved = false;\r\n\r\n                emit PatentAuthorizationRejected(patentId, user);\r\n                applicationFound = true;\r\n                break;\r\n            }\r\n        }\r\n        require(applicationFound, \"Authorization request not found or already approved\");\r\n    }\r\n\r\n    // \r\n    function usePatent(uint256 patentId) public {\r\n        // \r\n        require(patents[patentId].patentId == patentId, \"Patent does not exist\");\r\n\r\n        // \r\n        bool hasPermission = (msg.sender == patents[patentId].currentOwner || authorizedUsers[patentId][msg.sender]);\r\n\r\n        // \r\n        useRecords[patentId].push(UseRecord({\r\n            patentId: patentId,\r\n            user: msg.sender, \r\n            useTime: block.timestamp,\r\n            isAuthorized: hasPermission\r\n        }));\r\n\r\n        // \r\n        require(hasPermission, \"You do not have permission to use this patent\");\r\n\r\n        emit PatentUsed(patentId, msg.sender, block.timestamp);\r\n    }\r\n\r\n    // \r\n    function getOwnedPatentsUseRecords(address user) public view returns (UseRecord[] memory) {\r\n        uint256 ownedPatentsCount = 0;\r\n        // \r\n        for (uint256 i = 0; i < patentCount; i++) {\r\n            if (patents[i].currentOwner == user) {\r\n                ownedPatentsCount++;\r\n            }\r\n        }\r\n\r\n        // \r\n        UseRecord[] memory allUseRecords = new UseRecord[](ownedPatentsCount);\r\n\r\n        uint256 index = 0;\r\n        for (uint256 i = 0; i < patentCount; i++) {\r\n            if (patents[i].currentOwner == user) {\r\n                // \r\n                for (uint256 j = 0; j < useRecords[i].length; j++) {\r\n                    allUseRecords[index] = useRecords[i][j];\r\n                    index++;\r\n                }\r\n            }\r\n        }\r\n\r\n        return allUseRecords;\r\n    }\r\n\r\n    // \r\n    event PatentUsed(uint256 patentId, address user, uint256 useTime);\r\n\r\n    // \r\n    function detectIllegalUse(uint256 patentId, address user) public view returns (bool) {\r\n        // \r\n        bool hasPermission = (user == patents[patentId].currentOwner || authorizedUsers[patentId][user]);\r\n        return !hasPermission;\r\n    }\r\n\r\n    // \r\n    function triggerInfringementWarning(uint patentId, address infringer) public {\r\n        require(detectIllegalUse(patentId, infringer), \"No infringement detected\");\r\n\r\n        emit PatentInfringementDetected(patentId, infringer);\r\n    }\r\n\r\n    // \r\n    function getPatentInfo(uint patentId) public view returns (Patent memory) {\r\n        return patents[patentId];\r\n    }\r\n\r\n    // \r\n    function isPatentForSale(uint patentId) public view returns (bool) {\r\n        return patents[patentId].isForSale;\r\n    }\r\n\r\n    // \r\n    function isAuthorizedUser(uint patentId, address user) public view returns (bool) {\r\n        return authorizedUsers[patentId][user];\r\n    }\r\n\r\n    // \r\n    function fetchMarketPatents(address user) public view returns (Patent[] memory) {\r\n        uint count = 0;\r\n        uint[] memory availablePatentIds = new uint[](patentCount);\r\n\r\n        // \r\n        for (uint i = 0; i <= patentCount; i++) {\r\n            if (patents[i].isForSale  && patents[i].currentOwner != user) {\r\n                availablePatentIds[count] = i;\r\n                count++;\r\n            }\r\n        }\r\n\r\n        // Patent\r\n        Patent[] memory availablePatents = new Patent[](count);\r\n        for (uint i = 0; i < count; i++) {\r\n            uint patentId = availablePatentIds[i];\r\n            availablePatents[i] = patents[patentId];\r\n        }\r\n\r\n        return availablePatents;\r\n    }\r\n    // \r\n    function fetchPatentsCanSale(address user) public view returns (Patent[] memory) {\r\n        uint count = 0;\r\n        \r\n        // \r\n        for (uint i = 0; i < patentCount; i++) {\r\n            if (patents[i].currentOwner == user && !patents[i].isForSale) {\r\n                count++;\r\n            }\r\n        }\r\n\r\n        // \r\n        Patent[] memory userPatentsForSale = new Patent[](count);\r\n        uint index = 0;\r\n\r\n        // \r\n        for (uint i = 0; i < patentCount; i++) {\r\n            if (patents[i].currentOwner == user && patents[i].isForSale) {\r\n                userPatentsForSale[index] = patents[i];\r\n                index++;\r\n            }\r\n        }\r\n        return userPatentsForSale;\r\n    }\r\n}\r\n",
  "sourcePath": "/Users/ethan/Education/Blockchain/patent-dapp/contracts/PatentMarket.sol",
  "compiler": {
    "name": "solc",
    "version": "0.8.21+commit.d9974bed.Emscripten.clang"
  },
  "schemaVersion": "3.4.16",
  "updatedAt": "2024-12-21T08:44:32.072Z",
  "networkType": "ethereum",
  "devdoc": {
    "kind": "dev",
    "methods": {},
    "version": 1
  },
  "userdoc": {
    "kind": "user",
    "methods": {},
    "version": 1
  }
}