{
  "contractName": "PatentMarket",
  "abi": [
    {
      "anonymous": false,
      "inputs": [
        {
          "indexed": true,
          "internalType": "uint256",
          "name": "patentId",
          "type": "uint256"
        },
        {
          "indexed": true,
          "internalType": "address",
          "name": "infringer",
          "type": "address"
        }
      ],
      "name": "LegalActionTriggered",
      "type": "event"
    },
    {
      "anonymous": false,
      "inputs": [
        {
          "indexed": true,
          "internalType": "uint256",
          "name": "patentId",
          "type": "uint256"
        },
        {
          "indexed": true,
          "internalType": "address",
          "name": "user",
          "type": "address"
        }
      ],
      "name": "PatentAuthorizationRejected",
      "type": "event"
    },
    {
      "anonymous": false,
      "inputs": [
        {
          "indexed": true,
          "internalType": "uint256",
          "name": "patentId",
          "type": "uint256"
        },
        {
          "indexed": true,
          "internalType": "address",
          "name": "applicant",
          "type": "address"
        }
      ],
      "name": "PatentAuthorizationRequested",
      "type": "event"
    },
    {
      "anonymous": false,
      "inputs": [
        {
          "indexed": true,
          "internalType": "uint256",
          "name": "patentId",
          "type": "uint256"
        },
        {
          "indexed": true,
          "internalType": "address",
          "name": "user",
          "type": "address"
        }
      ],
      "name": "PatentAuthorized",
      "type": "event"
    },
    {
      "anonymous": false,
      "inputs": [
        {
          "indexed": true,
          "internalType": "uint256",
          "name": "patentId",
          "type": "uint256"
        },
        {
          "indexed": true,
          "internalType": "address",
          "name": "infringer",
          "type": "address"
        }
      ],
      "name": "PatentInfringementDetected",
      "type": "event"
    },
    {
      "anonymous": false,
      "inputs": [
        {
          "indexed": true,
          "internalType": "uint256",
          "name": "patentId",
          "type": "uint256"
        },
        {
          "indexed": false,
          "internalType": "string",
          "name": "name",
          "type": "string"
        },
        {
          "indexed": true,
          "internalType": "address",
          "name": "owner",
          "type": "address"
        }
      ],
      "name": "PatentListed",
      "type": "event"
    },
    {
      "anonymous": false,
      "inputs": [
        {
          "indexed": true,
          "internalType": "uint256",
          "name": "patentId",
          "type": "uint256"
        },
        {
          "indexed": false,
          "internalType": "string",
          "name": "name",
          "type": "string"
        },
        {
          "indexed": true,
          "internalType": "address",
          "name": "previousOwner",
          "type": "address"
        },
        {
          "indexed": true,
          "internalType": "address",
          "name": "newOwner",
          "type": "address"
        },
        {
          "indexed": false,
          "internalType": "uint256",
          "name": "price",
          "type": "uint256"
        }
      ],
      "name": "PatentSold",
      "type": "event"
    },
    {
      "anonymous": false,
      "inputs": [
        {
          "indexed": false,
          "internalType": "uint256",
          "name": "patentId",
          "type": "uint256"
        },
        {
          "indexed": false,
          "internalType": "address",
          "name": "user",
          "type": "address"
        },
        {
          "indexed": false,
          "internalType": "uint256",
          "name": "useTime",
          "type": "uint256"
        }
      ],
      "name": "PatentUsed",
      "type": "event"
    },
    {
      "inputs": [
        {
          "internalType": "uint256",
          "name": "",
          "type": "uint256"
        },
        {
          "internalType": "uint256",
          "name": "",
          "type": "uint256"
        }
      ],
      "name": "authorizationRequests",
      "outputs": [
        {
          "internalType": "address",
          "name": "applicant",
          "type": "address"
        },
        {
          "internalType": "uint256",
          "name": "patentId",
          "type": "uint256"
        },
        {
          "internalType": "uint256",
          "name": "requestTime",
          "type": "uint256"
        },
        {
          "internalType": "bool",
          "name": "approved",
          "type": "bool"
        }
      ],
      "stateMutability": "view",
      "type": "function",
      "constant": true
    },
    {
      "inputs": [
        {
          "internalType": "uint256",
          "name": "",
          "type": "uint256"
        },
        {
          "internalType": "address",
          "name": "",
          "type": "address"
        }
      ],
      "name": "authorizedUsers",
      "outputs": [
        {
          "internalType": "bool",
          "name": "",
          "type": "bool"
        }
      ],
      "stateMutability": "view",
      "type": "function",
      "constant": true
    },
    {
      "inputs": [],
      "name": "patentCount",
      "outputs": [
        {
          "internalType": "uint256",
          "name": "",
          "type": "uint256"
        }
      ],
      "stateMutability": "view",
      "type": "function",
      "constant": true
    },
    {
      "inputs": [
        {
          "internalType": "uint256",
          "name": "",
          "type": "uint256"
        }
      ],
      "name": "patents",
      "outputs": [
        {
          "internalType": "uint256",
          "name": "patentId",
          "type": "uint256"
        },
        {
          "internalType": "string",
          "name": "patentName",
          "type": "string"
        },
        {
          "internalType": "address",
          "name": "currentOwner",
          "type": "address"
        },
        {
          "internalType": "string",
          "name": "description",
          "type": "string"
        },
        {
          "internalType": "uint256",
          "name": "price",
          "type": "uint256"
        },
        {
          "internalType": "bool",
          "name": "isForSale",
          "type": "bool"
        },
        {
          "internalType": "uint256",
          "name": "registrationTime",
          "type": "uint256"
        },
        {
          "internalType": "uint256",
          "name": "expiryTime",
          "type": "uint256"
        }
      ],
      "stateMutability": "view",
      "type": "function",
      "constant": true
    },
    {
      "inputs": [
        {
          "internalType": "uint256",
          "name": "",
          "type": "uint256"
        },
        {
          "internalType": "uint256",
          "name": "",
          "type": "uint256"
        }
      ],
      "name": "useRecords",
      "outputs": [
        {
          "internalType": "uint256",
          "name": "patentId",
          "type": "uint256"
        },
        {
          "internalType": "address",
          "name": "user",
          "type": "address"
        },
        {
          "internalType": "uint256",
          "name": "useTime",
          "type": "uint256"
        },
        {
          "internalType": "bool",
          "name": "isAuthorized",
          "type": "bool"
        }
      ],
      "stateMutability": "view",
      "type": "function",
      "constant": true
    },
    {
      "inputs": [
        {
          "internalType": "uint256",
          "name": "patentId",
          "type": "uint256"
        }
      ],
      "name": "listForSale",
      "outputs": [],
      "stateMutability": "nonpayable",
      "type": "function"
    },
    {
      "inputs": [
        {
          "internalType": "uint256",
          "name": "patentId",
          "type": "uint256"
        }
      ],
      "name": "buyPatent",
      "outputs": [],
      "stateMutability": "payable",
      "type": "function",
      "payable": true
    },
    {
      "inputs": [
        {
          "internalType": "uint256",
          "name": "patentId",
          "type": "uint256"
        },
        {
          "internalType": "address",
          "name": "user",
          "type": "address"
        }
      ],
      "name": "canApplyForAuthorization",
      "outputs": [
        {
          "internalType": "bool",
          "name": "",
          "type": "bool"
        }
      ],
      "stateMutability": "view",
      "type": "function",
      "constant": true
    },
    {
      "inputs": [
        {
          "internalType": "uint256",
          "name": "patentId",
          "type": "uint256"
        }
      ],
      "name": "requestPatentAuthorization",
      "outputs": [],
      "stateMutability": "nonpayable",
      "type": "function"
    },
    {
      "inputs": [
        {
          "internalType": "uint256",
          "name": "patentId",
          "type": "uint256"
        },
        {
          "internalType": "address",
          "name": "user",
          "type": "address"
        }
      ],
      "name": "approveAuthorization",
      "outputs": [],
      "stateMutability": "nonpayable",
      "type": "function"
    },
    {
      "inputs": [
        {
          "internalType": "uint256",
          "name": "patentId",
          "type": "uint256"
        },
        {
          "internalType": "address",
          "name": "user",
          "type": "address"
        }
      ],
      "name": "rejectAuthorization",
      "outputs": [],
      "stateMutability": "nonpayable",
      "type": "function"
    },
    {
      "inputs": [
        {
          "internalType": "uint256",
          "name": "patentId",
          "type": "uint256"
        }
      ],
      "name": "usePatent",
      "outputs": [],
      "stateMutability": "nonpayable",
      "type": "function"
    },
    {
      "inputs": [
        {
          "internalType": "address",
          "name": "user",
          "type": "address"
        }
      ],
      "name": "getOwnedPatentsUseRecords",
      "outputs": [
        {
          "components": [
            {
              "internalType": "uint256",
              "name": "patentId",
              "type": "uint256"
            },
            {
              "internalType": "address",
              "name": "user",
              "type": "address"
            },
            {
              "internalType": "uint256",
              "name": "useTime",
              "type": "uint256"
            },
            {
              "internalType": "bool",
              "name": "isAuthorized",
              "type": "bool"
            }
          ],
          "internalType": "struct PatentMarket.UseRecord[]",
          "name": "",
          "type": "tuple[]"
        }
      ],
      "stateMutability": "view",
      "type": "function",
      "constant": true
    },
    {
      "inputs": [
        {
          "internalType": "uint256",
          "name": "patentId",
          "type": "uint256"
        },
        {
          "internalType": "address",
          "name": "user",
          "type": "address"
        }
      ],
      "name": "detectIllegalUse",
      "outputs": [
        {
          "internalType": "bool",
          "name": "",
          "type": "bool"
        }
      ],
      "stateMutability": "view",
      "type": "function",
      "constant": true
    },
    {
      "inputs": [
        {
          "internalType": "uint256",
          "name": "patentId",
          "type": "uint256"
        },
        {
          "internalType": "address",
          "name": "infringer",
          "type": "address"
        }
      ],
      "name": "triggerInfringementWarning",
      "outputs": [],
      "stateMutability": "nonpayable",
      "type": "function"
    },
    {
      "inputs": [
        {
          "internalType": "uint256",
          "name": "patentId",
          "type": "uint256"
        }
      ],
      "name": "getPatentInfo",
      "outputs": [
        {
          "components": [
            {
              "internalType": "uint256",
              "name": "patentId",
              "type": "uint256"
            },
            {
              "internalType": "string",
              "name": "patentName",
              "type": "string"
            },
            {
              "internalType": "address",
              "name": "currentOwner",
              "type": "address"
            },
            {
              "internalType": "string",
              "name": "description",
              "type": "string"
            },
            {
              "internalType": "uint256",
              "name": "price",
              "type": "uint256"
            },
            {
              "internalType": "bool",
              "name": "isForSale",
              "type": "bool"
            },
            {
              "internalType": "uint256",
              "name": "registrationTime",
              "type": "uint256"
            },
            {
              "internalType": "uint256",
              "name": "expiryTime",
              "type": "uint256"
            }
          ],
          "internalType": "struct PatentBase.Patent",
          "name": "",
          "type": "tuple"
        }
      ],
      "stateMutability": "view",
      "type": "function",
      "constant": true
    },
    {
      "inputs": [
        {
          "internalType": "uint256",
          "name": "patentId",
          "type": "uint256"
        }
      ],
      "name": "isPatentForSale",
      "outputs": [
        {
          "internalType": "bool",
          "name": "",
          "type": "bool"
        }
      ],
      "stateMutability": "view",
      "type": "function",
      "constant": true
    },
    {
      "inputs": [
        {
          "internalType": "uint256",
          "name": "patentId",
          "type": "uint256"
        },
        {
          "internalType": "address",
          "name": "user",
          "type": "address"
        }
      ],
      "name": "isAuthorizedUser",
      "outputs": [
        {
          "internalType": "bool",
          "name": "",
          "type": "bool"
        }
      ],
      "stateMutability": "view",
      "type": "function",
      "constant": true
    },
    {
      "inputs": [
        {
          "internalType": "address",
          "name": "user",
          "type": "address"
        }
      ],
      "name": "fetchMarketPatents",
      "outputs": [
        {
          "components": [
            {
              "internalType": "uint256",
              "name": "patentId",
              "type": "uint256"
            },
            {
              "internalType": "string",
              "name": "patentName",
              "type": "string"
            },
            {
              "internalType": "address",
              "name": "currentOwner",
              "type": "address"
            },
            {
              "internalType": "string",
              "name": "description",
              "type": "string"
            },
            {
              "internalType": "uint256",
              "name": "price",
              "type": "uint256"
            },
            {
              "internalType": "bool",
              "name": "isForSale",
              "type": "bool"
            },
            {
              "internalType": "uint256",
              "name": "registrationTime",
              "type": "uint256"
            },
            {
              "internalType": "uint256",
              "name": "expiryTime",
              "type": "uint256"
            }
          ],
          "internalType": "struct PatentBase.Patent[]",
          "name": "",
          "type": "tuple[]"
        }
      ],
      "stateMutability": "view",
      "type": "function",
      "constant": true
    },
    {
      "inputs": [],
      "name": "fetchPatentsCanSale",
      "outputs": [
        {
          "components": [
            {
              "internalType": "uint256",
              "name": "patentId",
              "type": "uint256"
            },
            {
              "internalType": "string",
              "name": "patentName",
              "type": "string"
            },
            {
              "internalType": "address",
              "name": "currentOwner",
              "type": "address"
            },
            {
              "internalType": "string",
              "name": "description",
              "type": "string"
            },
            {
              "internalType": "uint256",
              "name": "price",
              "type": "uint256"
            },
            {
              "internalType": "bool",
              "name": "isForSale",
              "type": "bool"
            },
            {
              "internalType": "uint256",
              "name": "registrationTime",
              "type": "uint256"
            },
            {
              "internalType": "uint256",
              "name": "expiryTime",
              "type": "uint256"
            }
          ],
          "internalType": "struct PatentBase.Patent[]",
          "name": "",
          "type": "tuple[]"
        }
      ],
      "stateMutability": "view",
      "type": "function",
      "constant": true
    }
  ],
  "bytecode": "0x608060405234801561001057600080fd5b506134e6806100206000396000f3fe60806040526004361061013c576000357c010000000000000000000000000000000000000000000000000000000090048063a1ab74b9116100bd578063c7857fb511610081578063c7857fb514610459578063cdba68b914610482578063f1d908dd146104bf578063f422bc68146104e8578063fdc4294f1461052c5761013c565b8063a1ab74b91461034e578063a20b7d1b1461038b578063a5663a9f146103b4578063b084c841146103f1578063b735a3ff1461041c5761013c565b806357cbe3cf1161010457806357cbe3cf1461022e57806361d38b171461026b5780636cd5ae3414610294578063763d19d4146102d15780638c20cc4d146103115761013c565b8063130772d31461014157806313b356ad1461016c5780631c1bff89146101885780632807745f146101b1578063540ce76b146101f1575b600080fd5b34801561014d57600080fd5b50610156610555565b604051610163919061284e565b60405180910390f35b610186600480360381019061018191906128a1565b610940565b005b34801561019457600080fd5b506101af60048036038101906101aa91906128fa565b610b33565b005b3480156101bd57600080fd5b506101d860048036038101906101d3919061293a565b610e2e565b6040516101e894939291906129a7565b60405180910390f35b3480156101fd57600080fd5b50610218600480360381019061021391906129ec565b610ea8565b6040516102259190612b1d565b60405180910390f35b34801561023a57600080fd5b50610255600480360381019061025091906129ec565b611157565b604051610262919061284e565b60405180910390f35b34801561027757600080fd5b50610292600480360381019061028d91906128fa565b61152a565b005b3480156102a057600080fd5b506102bb60048036038101906102b691906128a1565b6117bc565b6040516102c89190612bf6565b60405180910390f35b3480156102dd57600080fd5b506102f860048036038101906102f3919061293a565b6119a7565b6040516103089493929190612c18565b60405180910390f35b34801561031d57600080fd5b50610338600480360381019061033391906128fa565b611a21565b6040516103459190612c5d565b60405180910390f35b34801561035a57600080fd5b50610375600480360381019061037091906128a1565b611afb565b6040516103829190612c5d565b60405180910390f35b34801561039757600080fd5b506103b260048036038101906103ad91906128a1565b611b28565b005b3480156103c057600080fd5b506103db60048036038101906103d691906128fa565b611d58565b6040516103e89190612c5d565b60405180910390f35b3480156103fd57600080fd5b50610406611d87565b6040516104139190612c78565b60405180910390f35b34801561042857600080fd5b50610443600480360381019061043e91906128fa565b611d8d565b6040516104509190612c5d565b60405180910390f35b34801561046557600080fd5b50610480600480360381019061047b91906128a1565b611eaa565b005b34801561048e57600080fd5b506104a960048036038101906104a491906128fa565b61201e565b6040516104b69190612c5d565b60405180910390f35b3480156104cb57600080fd5b506104e660048036038101906104e191906128a1565b612086565b005b3480156104f457600080fd5b5061050f600480360381019061050a91906128a1565b61231d565b604051610523989796959493929190612cdd565b60405180910390f35b34801561053857600080fd5b50610553600480360381019061054e91906128fa565b6124a2565b005b60606000805b60005481101561061d573373ffffffffffffffffffffffffffffffffffffffff166001600083815260200190815260200160002060020160009054906101000a900473ffffffffffffffffffffffffffffffffffffffff1673ffffffffffffffffffffffffffffffffffffffff161480156105f657506001600082815260200190815260200160002060050160009054906101000a900460ff165b1561060a57818061060690612d98565b9250505b808061061590612d98565b91505061055b565b5060008167ffffffffffffffff81111561063a57610639612de0565b5b60405190808252806020026020018201604052801561067357816020015b610660612533565b8152602001906001900390816106585790505b5090506000805b600054811015610936573373ffffffffffffffffffffffffffffffffffffffff166001600083815260200190815260200160002060020160009054906101000a900473ffffffffffffffffffffffffffffffffffffffff1673ffffffffffffffffffffffffffffffffffffffff1614801561071557506001600082815260200190815260200160002060050160009054906101000a900460ff165b156109235760016000828152602001908152602001600020604051806101000160405290816000820154815260200160018201805461075390612e3e565b80601f016020809104026020016040519081016040528092919081815260200182805461077f90612e3e565b80156107cc5780601f106107a1576101008083540402835291602001916107cc565b820191906000526020600020905b8154815290600101906020018083116107af57829003601f168201915b505050505081526020016002820160009054906101000a900473ffffffffffffffffffffffffffffffffffffffff1673ffffffffffffffffffffffffffffffffffffffff1673ffffffffffffffffffffffffffffffffffffffff16815260200160038201805461083b90612e3e565b80601f016020809104026020016040519081016040528092919081815260200182805461086790612e3e565b80156108b45780601f10610889576101008083540402835291602001916108b4565b820191906000526020600020905b81548152906001019060200180831161089757829003601f168201915b50505050508152602001600482015481526020016005820160009054906101000a900460ff161515151581526020016006820154815260200160078201548152505083838151811061090957610908612e6f565b5b6020026020010181905250818061091f90612d98565b9250505b808061092e90612d98565b91505061067a565b5081935050505090565b60006001600083815260200190815260200160002090508060050160009054906101000a900460ff166109a8576040517f08c379a000000000000000000000000000000000000000000000000000000000815260040161099f90612eea565b60405180910390fd5b80600401543410156109ef576040517f08c379a00000000000000000000000000000000000000000000000000000000081526004016109e690612f56565b60405180910390fd5b60008160020160009054906101000a900473ffffffffffffffffffffffffffffffffffffffff169050338260020160006101000a81548173ffffffffffffffffffffffffffffffffffffffff021916908373ffffffffffffffffffffffffffffffffffffffff16021790555060008260050160006101000a81548160ff0219169083151502179055508073ffffffffffffffffffffffffffffffffffffffff166108fc349081150290604051600060405180830381858888f19350505050158015610abe573d6000803e3d6000fd5b503373ffffffffffffffffffffffffffffffffffffffff168173ffffffffffffffffffffffffffffffffffffffff16847fd4087db499dd31cfde1d9403da6a531c3913cb1197f78312d5ca5eff555082f7856001018660040154604051610b2692919061300f565b60405180910390a4505050565b3373ffffffffffffffffffffffffffffffffffffffff166001600084815260200190815260200160002060020160009054906101000a900473ffffffffffffffffffffffffffffffffffffffff1673ffffffffffffffffffffffffffffffffffffffff1614610bd7576040517f08c379a0000000000000000000000000000000000000000000000000000000008152600401610bce9061308b565b60405180910390fd5b6000805b6003600085815260200190815260200160002080549050811015610de8578273ffffffffffffffffffffffffffffffffffffffff16600360008681526020019081526020016000208281548110610c3557610c34612e6f565b5b906000526020600020906004020160000160009054906101000a900473ffffffffffffffffffffffffffffffffffffffff1673ffffffffffffffffffffffffffffffffffffffff16148015610ccb5750600360008581526020019081526020016000208181548110610caa57610ca9612e6f565b5b906000526020600020906004020160030160009054906101000a900460ff16155b15610dd5576001600360008681526020019081526020016000208281548110610cf757610cf6612e6f565b5b906000526020600020906004020160030160006101000a81548160ff02191690831515021790555060016002600086815260200190815260200160002060008573ffffffffffffffffffffffffffffffffffffffff1673ffffffffffffffffffffffffffffffffffffffff16815260200190815260200160002060006101000a81548160ff0219169083151502179055508273ffffffffffffffffffffffffffffffffffffffff16847f26273e1af82ccbf7153502c23c0b3d69e41c3e2f27a9f6d1472bab8eeb878f3b60405160405180910390a360019150610de8565b8080610de090612d98565b915050610bdb565b5080610e29576040517f08c379a0000000000000000000000000000000000000000000000000000000008152600401610e209061311d565b60405180910390fd5b505050565b60036020528160005260406000208181548110610e4a57600080fd5b9060005260206000209060040201600091509150508060000160009054906101000a900473ffffffffffffffffffffffffffffffffffffffff16908060010154908060020154908060030160009054906101000a900460ff16905084565b60606000805b600054811015610f43578373ffffffffffffffffffffffffffffffffffffffff166001600083815260200190815260200160002060020160009054906101000a900473ffffffffffffffffffffffffffffffffffffffff1673ffffffffffffffffffffffffffffffffffffffff1603610f30578180610f2c90612d98565b9250505b8080610f3b90612d98565b915050610eae565b5060008167ffffffffffffffff811115610f6057610f5f612de0565b5b604051908082528060200260200182016040528015610f9957816020015b610f86612590565b815260200190600190039081610f7e5790505b5090506000805b60005481101561114b578573ffffffffffffffffffffffffffffffffffffffff166001600083815260200190815260200160002060020160009054906101000a900473ffffffffffffffffffffffffffffffffffffffff1673ffffffffffffffffffffffffffffffffffffffff16036111385760005b60046000838152602001908152602001600020805490508110156111365760046000838152602001908152602001600020818154811061105957611058612e6f565b5b9060005260206000209060040201604051806080016040529081600082015481526020016001820160009054906101000a900473ffffffffffffffffffffffffffffffffffffffff1673ffffffffffffffffffffffffffffffffffffffff1673ffffffffffffffffffffffffffffffffffffffff168152602001600282015481526020016003820160009054906101000a900460ff16151515158152505084848151811061110a57611109612e6f565b5b6020026020010181905250828061112090612d98565b935050808061112e90612d98565b915050611016565b505b808061114390612d98565b915050610fa0565b50819350505050919050565b6060600080805467ffffffffffffffff81111561117757611176612de0565b5b6040519080825280602002602001820160405280156111a55781602001602082028036833780820191505090505b50905060005b600054811161128d576001600082815260200190815260200160002060050160009054906101000a900460ff16801561124657508473ffffffffffffffffffffffffffffffffffffffff166001600083815260200190815260200160002060020160009054906101000a900473ffffffffffffffffffffffffffffffffffffffff1673ffffffffffffffffffffffffffffffffffffffff1614155b1561127a578082848151811061125f5761125e612e6f565b5b602002602001018181525050828061127690612d98565b9350505b808061128590612d98565b9150506111ab565b5060008267ffffffffffffffff8111156112aa576112a9612de0565b5b6040519080825280602002602001820160405280156112e357816020015b6112d0612533565b8152602001906001900390816112c85790505b50905060005b8381101561151e57600083828151811061130657611305612e6f565b5b6020026020010151905060016000828152602001908152602001600020604051806101000160405290816000820154815260200160018201805461134990612e3e565b80601f016020809104026020016040519081016040528092919081815260200182805461137590612e3e565b80156113c25780601f10611397576101008083540402835291602001916113c2565b820191906000526020600020905b8154815290600101906020018083116113a557829003601f168201915b505050505081526020016002820160009054906101000a900473ffffffffffffffffffffffffffffffffffffffff1673ffffffffffffffffffffffffffffffffffffffff1673ffffffffffffffffffffffffffffffffffffffff16815260200160038201805461143190612e3e565b80601f016020809104026020016040519081016040528092919081815260200182805461145d90612e3e565b80156114aa5780601f1061147f576101008083540402835291602001916114aa565b820191906000526020600020905b81548152906001019060200180831161148d57829003601f168201915b50505050508152602001600482015481526020016005820160009054906101000a900460ff16151515158152602001600682015481526020016007820154815250508383815181106114ff576114fe612e6f565b5b602002602001018190525050808061151690612d98565b9150506112e9565b50809350505050919050565b3373ffffffffffffffffffffffffffffffffffffffff166001600084815260200190815260200160002060020160009054906101000a900473ffffffffffffffffffffffffffffffffffffffff1673ffffffffffffffffffffffffffffffffffffffff16146115ce576040517f08c379a00000000000000000000000000000000000000000000000000000000081526004016115c590613189565b60405180910390fd5b6000805b6003600085815260200190815260200160002080549050811015611776578273ffffffffffffffffffffffffffffffffffffffff1660036000868152602001908152602001600020828154811061162c5761162b612e6f565b5b906000526020600020906004020160000160009054906101000a900473ffffffffffffffffffffffffffffffffffffffff1673ffffffffffffffffffffffffffffffffffffffff161480156116c257506003600085815260200190815260200160002081815481106116a1576116a0612e6f565b5b906000526020600020906004020160030160009054906101000a900460ff16155b156117635760006003600086815260200190815260200160002082815481106116ee576116ed612e6f565b5b906000526020600020906004020160030160006101000a81548160ff0219169083151502179055508273ffffffffffffffffffffffffffffffffffffffff16847f7f199c4b273ac707d8aaef42f3549b0b7b0293254783ddb899c8e82bbb5bddce60405160405180910390a360019150611776565b808061176e90612d98565b9150506115d2565b50806117b7576040517f08c379a00000000000000000000000000000000000000000000000000000000081526004016117ae9061311d565b60405180910390fd5b505050565b6117c4612533565b6001600083815260200190815260200160002060405180610100016040529081600082015481526020016001820180546117fd90612e3e565b80601f016020809104026020016040519081016040528092919081815260200182805461182990612e3e565b80156118765780601f1061184b57610100808354040283529160200191611876565b820191906000526020600020905b81548152906001019060200180831161185957829003601f168201915b505050505081526020016002820160009054906101000a900473ffffffffffffffffffffffffffffffffffffffff1673ffffffffffffffffffffffffffffffffffffffff1673ffffffffffffffffffffffffffffffffffffffff1681526020016003820180546118e590612e3e565b80601f016020809104026020016040519081016040528092919081815260200182805461191190612e3e565b801561195e5780601f106119335761010080835404028352916020019161195e565b820191906000526020600020905b81548152906001019060200180831161194157829003601f168201915b50505050508152602001600482015481526020016005820160009054906101000a900460ff16151515158152602001600682015481526020016007820154815250509050919050565b600460205281600052604060002081815481106119c357600080fd5b9060005260206000209060040201600091509150508060000154908060010160009054906101000a900473ffffffffffffffffffffffffffffffffffffffff16908060020154908060030160009054906101000a900460ff16905084565b6000806001600085815260200190815260200160002060020160009054906101000a900473ffffffffffffffffffffffffffffffffffffffff1673ffffffffffffffffffffffffffffffffffffffff168373ffffffffffffffffffffffffffffffffffffffff161480611aee57506002600085815260200190815260200160002060008473ffffffffffffffffffffffffffffffffffffffff1673ffffffffffffffffffffffffffffffffffffffff16815260200190815260200160002060009054906101000a900460ff165b9050801591505092915050565b60006001600083815260200190815260200160002060050160009054906101000a900460ff169050919050565b80600160008381526020019081526020016000206000015414611b80576040517f08c379a0000000000000000000000000000000000000000000000000000000008152600401611b77906131f5565b60405180910390fd5b6002600082815260200190815260200160002060003373ffffffffffffffffffffffffffffffffffffffff1673ffffffffffffffffffffffffffffffffffffffff16815260200190815260200160002060009054906101000a900460ff1615611c1e576040517f08c379a0000000000000000000000000000000000000000000000000000000008152600401611c1590613261565b60405180910390fd5b6003600082815260200190815260200160002060405180608001604052803373ffffffffffffffffffffffffffffffffffffffff16815260200183815260200142815260200160001515815250908060018154018082558091505060019003906000526020600020906004020160009091909190915060008201518160000160006101000a81548173ffffffffffffffffffffffffffffffffffffffff021916908373ffffffffffffffffffffffffffffffffffffffff160217905550602082015181600101556040820151816002015560608201518160030160006101000a81548160ff02191690831515021790555050503373ffffffffffffffffffffffffffffffffffffffff16817fe9e3c8549c5502ab4b191ecaed1656277f749183703fe647e892b34c6cd8b7d160405160405180910390a350565b60026020528160005260406000206020528060005260406000206000915091509054906101000a900460ff1681565b60005481565b60006001600084815260200190815260200160002060020160009054906101000a900473ffffffffffffffffffffffffffffffffffffffff1673ffffffffffffffffffffffffffffffffffffffff168273ffffffffffffffffffffffffffffffffffffffff1603611e015760009050611ea4565b6002600084815260200190815260200160002060008373ffffffffffffffffffffffffffffffffffffffff1673ffffffffffffffffffffffffffffffffffffffff16815260200190815260200160002060009054906101000a900460ff1615611e6d5760009050611ea4565b6001600084815260200190815260200160002060050160009054906101000a900460ff1615611e9f5760009050611ea4565b600190505b92915050565b60006001600083815260200190815260200160002090503373ffffffffffffffffffffffffffffffffffffffff168160020160009054906101000a900473ffffffffffffffffffffffffffffffffffffffff1673ffffffffffffffffffffffffffffffffffffffff1614611f53576040517f08c379a0000000000000000000000000000000000000000000000000000000008152600401611f4a906132cd565b60405180910390fd5b600015158160050160009054906101000a900460ff16151514611fab576040517f08c379a0000000000000000000000000000000000000000000000000000000008152600401611fa290613339565b60405180910390fd5b60018160050160006101000a81548160ff0219169083151502179055503373ffffffffffffffffffffffffffffffffffffffff16827fffe35e1035e1268e2cc014d1d290e60a0c09ad3a32ef71b88607b1f012cb06ab836001016040516120129190613359565b60405180910390a35050565b60006002600084815260200190815260200160002060008373ffffffffffffffffffffffffffffffffffffffff1673ffffffffffffffffffffffffffffffffffffffff16815260200190815260200160002060009054906101000a900460ff16905092915050565b806001600083815260200190815260200160002060000154146120de576040517f08c379a00000000000000000000000000000000000000000000000000000000081526004016120d5906131f5565b60405180910390fd5b60006001600083815260200190815260200160002060020160009054906101000a900473ffffffffffffffffffffffffffffffffffffffff1673ffffffffffffffffffffffffffffffffffffffff163373ffffffffffffffffffffffffffffffffffffffff1614806121aa57506002600083815260200190815260200160002060003373ffffffffffffffffffffffffffffffffffffffff1673ffffffffffffffffffffffffffffffffffffffff16815260200190815260200160002060009054906101000a900460ff165b90506004600083815260200190815260200160002060405180608001604052808481526020013373ffffffffffffffffffffffffffffffffffffffff16815260200142815260200183151581525090806001815401808255809150506001900390600052602060002090600402016000909190919091506000820151816000015560208201518160010160006101000a81548173ffffffffffffffffffffffffffffffffffffffff021916908373ffffffffffffffffffffffffffffffffffffffff1602179055506040820151816002015560608201518160030160006101000a81548160ff0219169083151502179055505050806122de576040517f08c379a00000000000000000000000000000000000000000000000000000000081526004016122d5906133ed565b60405180910390fd5b7fc083bacf997f451c75aafe358644c360f105a04631d5fea550402e38a1c5f76e8233426040516123119392919061340d565b60405180910390a15050565b600160205280600052604060002060009150905080600001549080600101805461234690612e3e565b80601f016020809104026020016040519081016040528092919081815260200182805461237290612e3e565b80156123bf5780601f10612394576101008083540402835291602001916123bf565b820191906000526020600020905b8154815290600101906020018083116123a257829003601f168201915b5050505050908060020160009054906101000a900473ffffffffffffffffffffffffffffffffffffffff16908060030180546123fa90612e3e565b80601f016020809104026020016040519081016040528092919081815260200182805461242690612e3e565b80156124735780601f1061244857610100808354040283529160200191612473565b820191906000526020600020905b81548152906001019060200180831161245657829003601f168201915b5050505050908060040154908060050160009054906101000a900460ff16908060060154908060070154905088565b6124ac8282611a21565b6124eb576040517f08c379a00000000000000000000000000000000000000000000000000000000081526004016124e290613490565b60405180910390fd5b8073ffffffffffffffffffffffffffffffffffffffff16827fdfaf16f598115f57c2553188dd0d6de487047f89c9529b994266f45c892b415960405160405180910390a35050565b6040518061010001604052806000815260200160608152602001600073ffffffffffffffffffffffffffffffffffffffff168152602001606081526020016000815260200160001515815260200160008152602001600081525090565b604051806080016040528060008152602001600073ffffffffffffffffffffffffffffffffffffffff168152602001600081526020016000151581525090565b600081519050919050565b600082825260208201905092915050565b6000819050602082019050919050565b6000819050919050565b61260f816125fc565b82525050565b600081519050919050565b600082825260208201905092915050565b60005b8381101561264f578082015181840152602081019050612634565b60008484015250505050565b6000601f19601f8301169050919050565b600061267782612615565b6126818185612620565b9350612691818560208601612631565b61269a8161265b565b840191505092915050565b600073ffffffffffffffffffffffffffffffffffffffff82169050919050565b60006126d0826126a5565b9050919050565b6126e0816126c5565b82525050565b60008115159050919050565b6126fb816126e6565b82525050565b60006101008301600083015161271a6000860182612606565b5060208301518482036020860152612732828261266c565b915050604083015161274760408601826126d7565b506060830151848203606086015261275f828261266c565b91505060808301516127746080860182612606565b5060a083015161278760a08601826126f2565b5060c083015161279a60c0860182612606565b5060e08301516127ad60e0860182612606565b508091505092915050565b60006127c48383612701565b905092915050565b6000602082019050919050565b60006127e4826125d0565b6127ee81856125db565b935083602082028501612800856125ec565b8060005b8581101561283c578484038952815161281d85826127b8565b9450612828836127cc565b925060208a01995050600181019050612804565b50829750879550505050505092915050565b6000602082019050818103600083015261286881846127d9565b905092915050565b600080fd5b61287e816125fc565b811461288957600080fd5b50565b60008135905061289b81612875565b92915050565b6000602082840312156128b7576128b6612870565b5b60006128c58482850161288c565b91505092915050565b6128d7816126c5565b81146128e257600080fd5b50565b6000813590506128f4816128ce565b92915050565b6000806040838503121561291157612910612870565b5b600061291f8582860161288c565b9250506020612930858286016128e5565b9150509250929050565b6000806040838503121561295157612950612870565b5b600061295f8582860161288c565b92505060206129708582860161288c565b9150509250929050565b612983816126c5565b82525050565b612992816125fc565b82525050565b6129a1816126e6565b82525050565b60006080820190506129bc600083018761297a565b6129c96020830186612989565b6129d66040830185612989565b6129e36060830184612998565b95945050505050565b600060208284031215612a0257612a01612870565b5b6000612a10848285016128e5565b91505092915050565b600081519050919050565b600082825260208201905092915050565b6000819050602082019050919050565b608082016000820151612a5b6000850182612606565b506020820151612a6e60208501826126d7565b506040820151612a816040850182612606565b506060820151612a9460608501826126f2565b50505050565b6000612aa68383612a45565b60808301905092915050565b6000602082019050919050565b6000612aca82612a19565b612ad48185612a24565b9350612adf83612a35565b8060005b83811015612b10578151612af78882612a9a565b9750612b0283612ab2565b925050600181019050612ae3565b5085935050505092915050565b60006020820190508181036000830152612b378184612abf565b905092915050565b600061010083016000830151612b586000860182612606565b5060208301518482036020860152612b70828261266c565b9150506040830151612b8560408601826126d7565b5060608301518482036060860152612b9d828261266c565b9150506080830151612bb26080860182612606565b5060a0830151612bc560a08601826126f2565b5060c0830151612bd860c0860182612606565b5060e0830151612beb60e0860182612606565b508091505092915050565b60006020820190508181036000830152612c108184612b3f565b905092915050565b6000608082019050612c2d6000830187612989565b612c3a602083018661297a565b612c476040830185612989565b612c546060830184612998565b95945050505050565b6000602082019050612c726000830184612998565b92915050565b6000602082019050612c8d6000830184612989565b92915050565b600082825260208201905092915050565b6000612caf82612615565b612cb98185612c93565b9350612cc9818560208601612631565b612cd28161265b565b840191505092915050565b600061010082019050612cf3600083018b612989565b8181036020830152612d05818a612ca4565b9050612d14604083018961297a565b8181036060830152612d268188612ca4565b9050612d356080830187612989565b612d4260a0830186612998565b612d4f60c0830185612989565b612d5c60e0830184612989565b9998505050505050505050565b7f4e487b7100000000000000000000000000000000000000000000000000000000600052601160045260246000fd5b6000612da3826125fc565b91507fffffffffffffffffffffffffffffffffffffffffffffffffffffffffffffffff8203612dd557612dd4612d69565b5b600182019050919050565b7f4e487b7100000000000000000000000000000000000000000000000000000000600052604160045260246000fd5b7f4e487b7100000000000000000000000000000000000000000000000000000000600052602260045260246000fd5b60006002820490506001821680612e5657607f821691505b602082108103612e6957612e68612e0f565b5b50919050565b7f4e487b7100000000000000000000000000000000000000000000000000000000600052603260045260246000fd5b7f506174656e74206973206e6f7420666f722073616c6500000000000000000000600082015250565b6000612ed4601683612c93565b9150612edf82612e9e565b602082019050919050565b60006020820190508181036000830152612f0381612ec7565b9050919050565b7f496e73756666696369656e742066756e647320746f2062757920706174656e74600082015250565b6000612f40602083612c93565b9150612f4b82612f0a565b602082019050919050565b60006020820190508181036000830152612f6f81612f33565b9050919050565b60008190508160005260206000209050919050565b60008154612f9881612e3e565b612fa28186612c93565b94506001821660008114612fbd5760018114612fd357613006565b60ff198316865281151560200286019350613006565b612fdc85612f76565b60005b83811015612ffe57815481890152600182019150602081019050612fdf565b808801955050505b50505092915050565b600060408201905081810360008301526130298185612f8b565b90506130386020830184612989565b9392505050565b7f4f6e6c7920746865206f776e65722063616e20617070726f7665000000000000600082015250565b6000613075601a83612c93565b91506130808261303f565b602082019050919050565b600060208201905081810360008301526130a481613068565b9050919050565b7f417574686f72697a6174696f6e2072657175657374206e6f7420666f756e642060008201527f6f7220616c726561647920617070726f76656400000000000000000000000000602082015250565b6000613107603383612c93565b9150613112826130ab565b604082019050919050565b60006020820190508181036000830152613136816130fa565b9050919050565b7f4f6e6c7920746865206f776e65722063616e2072656a65637400000000000000600082015250565b6000613173601983612c93565b915061317e8261313d565b602082019050919050565b600060208201905081810360008301526131a281613166565b9050919050565b7f506174656e7420646f6573206e6f742065786973740000000000000000000000600082015250565b60006131df601583612c93565b91506131ea826131a9565b602082019050919050565b6000602082019050818103600083015261320e816131d2565b9050919050565b7f596f752061726520616c726561647920617574686f72697a6564000000000000600082015250565b600061324b601a83612c93565b915061325682613215565b602082019050919050565b6000602082019050818103600083015261327a8161323e565b9050919050565b7f596f7520617265206e6f7420746865206f776e65720000000000000000000000600082015250565b60006132b7601583612c93565b91506132c282613281565b602082019050919050565b600060208201905081810360008301526132e6816132aa565b9050919050565b7f506174656e7420697320616c726561647920666f722073616c65000000000000600082015250565b6000613323601a83612c93565b915061332e826132ed565b602082019050919050565b6000602082019050818103600083015261335281613316565b9050919050565b600060208201905081810360008301526133738184612f8b565b905092915050565b7f596f7520646f206e6f742068617665207065726d697373696f6e20746f20757360008201527f65207468697320706174656e7400000000000000000000000000000000000000602082015250565b60006133d7602d83612c93565b91506133e28261337b565b604082019050919050565b60006020820190508181036000830152613406816133ca565b9050919050565b60006060820190506134226000830186612989565b61342f602083018561297a565b61343c6040830184612989565b949350505050565b7f4e6f20696e6672696e67656d656e742064657465637465640000000000000000600082015250565b600061347a601883612c93565b915061348582613444565b602082019050919050565b600060208201905081810360008301526134a98161346d565b905091905056fea264697066735822122035023754d1b031fe3981fea325379512d95e35c365158c6fb02ce92466b7e76564736f6c63430008150033",
  "immutableReferences": {},
  "source": "// SPDX-License-Identifier: MIT\r\npragma solidity ^0.8.0;\r\n\r\nimport \"./PatentBase.sol\";  // \r\n\r\ncontract PatentMarket is PatentBase {\r\n    // \r\n    struct AuthorizationRequest {\r\n        address applicant;       // \r\n        uint256 patentId;        //  ID\r\n        uint256 requestTime;     // \r\n        bool approved;           // \r\n    }\r\n\r\n    // \r\n    struct UseRecord {\r\n        uint256 patentId;       //  ID\r\n        address user;           // \r\n        uint256 useTime;        // \r\n        bool isAuthorized;      // \r\n    }\r\n\r\n    // ID\r\n    mapping(uint => mapping(address => bool)) public authorizedUsers;\r\n    mapping(uint256 => AuthorizationRequest[]) public authorizationRequests; // \r\n    mapping(uint256 => UseRecord[]) public useRecords; // \r\n    // \r\n    event PatentListed(uint indexed patentId, string name, address indexed owner);\r\n    event PatentSold(uint indexed patentId, string name, address indexed previousOwner, address indexed newOwner, uint price);\r\n    event PatentAuthorized(uint indexed patentId, address indexed user);\r\n    event PatentInfringementDetected(uint indexed patentId, address indexed infringer);\r\n    event LegalActionTriggered(uint indexed patentId, address indexed infringer);\r\n    // \r\n    event PatentAuthorizationRequested(uint256 indexed patentId, address indexed applicant);\r\n    // \r\n    event PatentAuthorizationRejected(uint256 indexed patentId, address indexed user);\r\n    \r\n    // \r\n    function listForSale(uint patentId) public {\r\n        Patent storage patent = patents[patentId];\r\n        require(patent.currentOwner == msg.sender, \"You are not the owner\");\r\n        require(patent.isForSale == false, \"Patent is already for sale\");\r\n\r\n        patent.isForSale = true;\r\n\r\n        emit PatentListed(patentId, patent.patentName, msg.sender);\r\n    }\r\n\r\n    // \r\n    function buyPatent(uint patentId) public payable {\r\n        Patent storage patent = patents[patentId];\r\n        require(patent.isForSale, \"Patent is not for sale\");\r\n        require(msg.value >= patent.price, \"Insufficient funds to buy patent\");\r\n\r\n        address previousOwner = patent.currentOwner;\r\n        patent.currentOwner = msg.sender;\r\n        patent.isForSale = false;\r\n\r\n        // \r\n        payable(previousOwner).transfer(msg.value);\r\n\r\n        emit PatentSold(patentId, patent.patentName, previousOwner, msg.sender, patent.price);\r\n    }\r\n\r\n    // \r\n    function canApplyForAuthorization(uint256 patentId, address user) public view returns (bool) {\r\n        // 1. \r\n        if (user == patents[patentId].currentOwner) {\r\n            return false;  // \r\n        }\r\n        \r\n        // 2. \r\n        if (authorizedUsers[patentId][user]) {\r\n            return false;  // \r\n        }\r\n\r\n        // 3. \r\n        if (patents[patentId].isForSale) {\r\n            return false;  // \r\n        }\r\n\r\n        // \r\n        return true;\r\n    }\r\n\r\n    // \r\n    function requestPatentAuthorization(uint256 patentId) public {\r\n        // \r\n        require(patents[patentId].patentId == patentId, \"Patent does not exist\");\r\n\r\n        // \r\n        require(!authorizedUsers[patentId][msg.sender], \"You are already authorized\");\r\n\r\n        // \r\n        authorizationRequests[patentId].push(AuthorizationRequest({\r\n            applicant: msg.sender,\r\n            patentId: patentId,      //  ID\r\n            requestTime: block.timestamp,\r\n            approved: false // \r\n        }));\r\n\r\n        emit PatentAuthorizationRequested(patentId, msg.sender);\r\n    }\r\n\r\n    // \r\n    function approveAuthorization(uint256 patentId, address user) public {\r\n        // \r\n        require(patents[patentId].currentOwner == msg.sender, \"Only the owner can approve\");\r\n\r\n        // \r\n        bool applicationFound = false;\r\n        for (uint i = 0; i < authorizationRequests[patentId].length; i++) {\r\n            if (authorizationRequests[patentId][i].applicant == user && !authorizationRequests[patentId][i].approved) {\r\n                // \r\n                authorizationRequests[patentId][i].approved = true;\r\n                authorizedUsers[patentId][user] = true;\r\n\r\n                emit PatentAuthorized(patentId, user);\r\n                applicationFound = true;\r\n                break;\r\n            }\r\n        }\r\n\r\n        require(applicationFound, \"Authorization request not found or already approved\");\r\n    }\r\n\r\n    // \r\n    function rejectAuthorization(uint256 patentId, address user) public {\r\n        // \r\n        require(patents[patentId].currentOwner == msg.sender, \"Only the owner can reject\");\r\n\r\n        // \r\n        bool applicationFound = false;\r\n        for (uint i = 0; i < authorizationRequests[patentId].length; i++) {\r\n            if (authorizationRequests[patentId][i].applicant == user && !authorizationRequests[patentId][i].approved) {\r\n                // \r\n                authorizationRequests[patentId][i].approved = false;\r\n\r\n                emit PatentAuthorizationRejected(patentId, user);\r\n                applicationFound = true;\r\n                break;\r\n            }\r\n        }\r\n        require(applicationFound, \"Authorization request not found or already approved\");\r\n    }\r\n\r\n    // \r\n    function usePatent(uint256 patentId) public {\r\n        // \r\n        require(patents[patentId].patentId == patentId, \"Patent does not exist\");\r\n\r\n        // \r\n        bool hasPermission = (msg.sender == patents[patentId].currentOwner || authorizedUsers[patentId][msg.sender]);\r\n\r\n        // \r\n        useRecords[patentId].push(UseRecord({\r\n            patentId: patentId,\r\n            user: msg.sender, \r\n            useTime: block.timestamp,\r\n            isAuthorized: hasPermission\r\n        }));\r\n\r\n        // \r\n        require(hasPermission, \"You do not have permission to use this patent\");\r\n\r\n        emit PatentUsed(patentId, msg.sender, block.timestamp);\r\n    }\r\n\r\n    // \r\n    function getOwnedPatentsUseRecords(address user) public view returns (UseRecord[] memory) {\r\n        uint256 ownedPatentsCount = 0;\r\n        // \r\n        for (uint256 i = 0; i < patentCount; i++) {\r\n            if (patents[i].currentOwner == user) {\r\n                ownedPatentsCount++;\r\n            }\r\n        }\r\n\r\n        // \r\n        UseRecord[] memory allUseRecords = new UseRecord[](ownedPatentsCount);\r\n\r\n        uint256 index = 0;\r\n        for (uint256 i = 0; i < patentCount; i++) {\r\n            if (patents[i].currentOwner == user) {\r\n                // \r\n                for (uint256 j = 0; j < useRecords[i].length; j++) {\r\n                    allUseRecords[index] = useRecords[i][j];\r\n                    index++;\r\n                }\r\n            }\r\n        }\r\n\r\n        return allUseRecords;\r\n    }\r\n\r\n    // \r\n    event PatentUsed(uint256 patentId, address user, uint256 useTime);\r\n\r\n    // \r\n    function detectIllegalUse(uint256 patentId, address user) public view returns (bool) {\r\n        // \r\n        bool hasPermission = (user == patents[patentId].currentOwner || authorizedUsers[patentId][user]);\r\n        return !hasPermission;\r\n    }\r\n\r\n    // \r\n    function triggerInfringementWarning(uint patentId, address infringer) public {\r\n        require(detectIllegalUse(patentId, infringer), \"No infringement detected\");\r\n\r\n        emit PatentInfringementDetected(patentId, infringer);\r\n    }\r\n\r\n    // \r\n    function getPatentInfo(uint patentId) public view returns (Patent memory) {\r\n        return patents[patentId];\r\n    }\r\n\r\n    // \r\n    function isPatentForSale(uint patentId) public view returns (bool) {\r\n        return patents[patentId].isForSale;\r\n    }\r\n\r\n    // \r\n    function isAuthorizedUser(uint patentId, address user) public view returns (bool) {\r\n        return authorizedUsers[patentId][user];\r\n    }\r\n\r\n    // \r\n    function fetchMarketPatents(address user) public view returns (Patent[] memory) {\r\n        uint count = 0;\r\n        uint[] memory availablePatentIds = new uint[](patentCount);\r\n\r\n        // \r\n        for (uint i = 0; i <= patentCount; i++) {\r\n            if (patents[i].isForSale  && patents[i].currentOwner != user) {\r\n                availablePatentIds[count] = i;\r\n                count++;\r\n            }\r\n        }\r\n\r\n        // Patent\r\n        Patent[] memory availablePatents = new Patent[](count);\r\n        for (uint i = 0; i < count; i++) {\r\n            uint patentId = availablePatentIds[i];\r\n            availablePatents[i] = patents[patentId];\r\n        }\r\n\r\n        return availablePatents;\r\n    }\r\n\r\n    // \r\n    function fetchPatentsCanSale() public view returns (Patent[] memory) {\r\n        uint count = 0;\r\n        \r\n        // \r\n        for (uint i = 0; i < patentCount; i++) {\r\n            if (patents[i].currentOwner == msg.sender && patents[i].isForSale) {\r\n                count++;\r\n            }\r\n        }\r\n\r\n        // \r\n        Patent[] memory userPatentsForSale = new Patent[](count);\r\n        uint index = 0;\r\n\r\n        // \r\n        for (uint i = 0; i < patentCount; i++) {\r\n            if (patents[i].currentOwner == msg.sender && patents[i].isForSale) {\r\n                userPatentsForSale[index] = patents[i];\r\n                index++;\r\n            }\r\n        }\r\n        return userPatentsForSale;\r\n    }\r\n}\r\n",
  "sourcePath": "/Users/ethan/Education/Blockchain/patent-dapp/contracts/PatentMarket.sol",
  "compiler": {
    "name": "solc",
    "version": "0.8.21+commit.d9974bed.Emscripten.clang"
  },
  "schemaVersion": "3.4.16",
  "updatedAt": "2024-12-21T19:06:09.257Z",
  "networkType": "ethereum",
  "devdoc": {
    "kind": "dev",
    "methods": {},
    "version": 1
  },
  "userdoc": {
    "kind": "user",
    "methods": {},
    "version": 1
  }
}