{
  "contractName": "PatentMarket",
  "abi": [
    {
      "anonymous": false,
      "inputs": [
        {
          "indexed": true,
          "internalType": "uint256",
          "name": "patentId",
          "type": "uint256"
        },
        {
          "indexed": true,
          "internalType": "address",
          "name": "infringer",
          "type": "address"
        }
      ],
      "name": "LegalActionTriggered",
      "type": "event"
    },
    {
      "anonymous": false,
      "inputs": [
        {
          "indexed": true,
          "internalType": "uint256",
          "name": "patentId",
          "type": "uint256"
        },
        {
          "indexed": true,
          "internalType": "address",
          "name": "user",
          "type": "address"
        }
      ],
      "name": "PatentAuthorizationRejected",
      "type": "event"
    },
    {
      "anonymous": false,
      "inputs": [
        {
          "indexed": true,
          "internalType": "uint256",
          "name": "patentId",
          "type": "uint256"
        },
        {
          "indexed": true,
          "internalType": "address",
          "name": "applicant",
          "type": "address"
        }
      ],
      "name": "PatentAuthorizationRequested",
      "type": "event"
    },
    {
      "anonymous": false,
      "inputs": [
        {
          "indexed": true,
          "internalType": "uint256",
          "name": "patentId",
          "type": "uint256"
        },
        {
          "indexed": true,
          "internalType": "address",
          "name": "user",
          "type": "address"
        }
      ],
      "name": "PatentAuthorized",
      "type": "event"
    },
    {
      "anonymous": false,
      "inputs": [
        {
          "indexed": true,
          "internalType": "uint256",
          "name": "patentId",
          "type": "uint256"
        },
        {
          "indexed": true,
          "internalType": "address",
          "name": "infringer",
          "type": "address"
        }
      ],
      "name": "PatentInfringementDetected",
      "type": "event"
    },
    {
      "anonymous": false,
      "inputs": [
        {
          "indexed": true,
          "internalType": "uint256",
          "name": "patentId",
          "type": "uint256"
        },
        {
          "indexed": false,
          "internalType": "string",
          "name": "name",
          "type": "string"
        },
        {
          "indexed": true,
          "internalType": "address",
          "name": "owner",
          "type": "address"
        },
        {
          "indexed": false,
          "internalType": "uint256",
          "name": "price",
          "type": "uint256"
        }
      ],
      "name": "PatentListed",
      "type": "event"
    },
    {
      "anonymous": false,
      "inputs": [
        {
          "indexed": false,
          "internalType": "uint256",
          "name": "patentId",
          "type": "uint256"
        },
        {
          "indexed": false,
          "internalType": "string",
          "name": "name",
          "type": "string"
        },
        {
          "indexed": true,
          "internalType": "address",
          "name": "owner",
          "type": "address"
        },
        {
          "indexed": false,
          "internalType": "string",
          "name": "description",
          "type": "string"
        },
        {
          "indexed": false,
          "internalType": "uint256",
          "name": "price",
          "type": "uint256"
        },
        {
          "indexed": false,
          "internalType": "bool",
          "name": "isForSale",
          "type": "bool"
        },
        {
          "indexed": false,
          "internalType": "uint256",
          "name": "registrationTime",
          "type": "uint256"
        },
        {
          "indexed": false,
          "internalType": "uint256",
          "name": "expiryTime",
          "type": "uint256"
        }
      ],
      "name": "PatentRegistered",
      "type": "event"
    },
    {
      "anonymous": false,
      "inputs": [
        {
          "indexed": true,
          "internalType": "uint256",
          "name": "patentId",
          "type": "uint256"
        },
        {
          "indexed": false,
          "internalType": "string",
          "name": "name",
          "type": "string"
        },
        {
          "indexed": true,
          "internalType": "address",
          "name": "previousOwner",
          "type": "address"
        },
        {
          "indexed": true,
          "internalType": "address",
          "name": "newOwner",
          "type": "address"
        },
        {
          "indexed": false,
          "internalType": "uint256",
          "name": "price",
          "type": "uint256"
        }
      ],
      "name": "PatentSold",
      "type": "event"
    },
    {
      "anonymous": false,
      "inputs": [
        {
          "indexed": false,
          "internalType": "uint256",
          "name": "patentId",
          "type": "uint256"
        },
        {
          "indexed": false,
          "internalType": "address",
          "name": "user",
          "type": "address"
        },
        {
          "indexed": false,
          "internalType": "uint256",
          "name": "useTime",
          "type": "uint256"
        }
      ],
      "name": "PatentUsed",
      "type": "event"
    },
    {
      "inputs": [
        {
          "internalType": "uint256",
          "name": "",
          "type": "uint256"
        },
        {
          "internalType": "uint256",
          "name": "",
          "type": "uint256"
        }
      ],
      "name": "authorizationRequests",
      "outputs": [
        {
          "internalType": "address",
          "name": "applicant",
          "type": "address"
        },
        {
          "internalType": "uint256",
          "name": "patentId",
          "type": "uint256"
        },
        {
          "internalType": "uint256",
          "name": "requestTime",
          "type": "uint256"
        },
        {
          "internalType": "bool",
          "name": "approved",
          "type": "bool"
        }
      ],
      "stateMutability": "view",
      "type": "function",
      "constant": true
    },
    {
      "inputs": [
        {
          "internalType": "uint256",
          "name": "",
          "type": "uint256"
        },
        {
          "internalType": "address",
          "name": "",
          "type": "address"
        }
      ],
      "name": "authorizedUsers",
      "outputs": [
        {
          "internalType": "bool",
          "name": "",
          "type": "bool"
        }
      ],
      "stateMutability": "view",
      "type": "function",
      "constant": true
    },
    {
      "inputs": [
        {
          "internalType": "uint256",
          "name": "patentId",
          "type": "uint256"
        }
      ],
      "name": "getPatent",
      "outputs": [
        {
          "internalType": "uint256",
          "name": "",
          "type": "uint256"
        },
        {
          "internalType": "string",
          "name": "",
          "type": "string"
        },
        {
          "internalType": "string",
          "name": "",
          "type": "string"
        },
        {
          "internalType": "address",
          "name": "",
          "type": "address"
        },
        {
          "internalType": "uint256",
          "name": "",
          "type": "uint256"
        },
        {
          "internalType": "uint256",
          "name": "",
          "type": "uint256"
        },
        {
          "internalType": "uint256",
          "name": "",
          "type": "uint256"
        }
      ],
      "stateMutability": "view",
      "type": "function",
      "constant": true
    },
    {
      "inputs": [],
      "name": "getUserPatents",
      "outputs": [
        {
          "internalType": "uint256[]",
          "name": "",
          "type": "uint256[]"
        }
      ],
      "stateMutability": "view",
      "type": "function",
      "constant": true
    },
    {
      "inputs": [
        {
          "internalType": "uint256",
          "name": "patentId",
          "type": "uint256"
        }
      ],
      "name": "isPatentExpired",
      "outputs": [
        {
          "internalType": "bool",
          "name": "",
          "type": "bool"
        }
      ],
      "stateMutability": "view",
      "type": "function",
      "constant": true
    },
    {
      "inputs": [],
      "name": "patentCount",
      "outputs": [
        {
          "internalType": "uint256",
          "name": "",
          "type": "uint256"
        }
      ],
      "stateMutability": "view",
      "type": "function",
      "constant": true
    },
    {
      "inputs": [
        {
          "internalType": "uint256",
          "name": "",
          "type": "uint256"
        }
      ],
      "name": "patents",
      "outputs": [
        {
          "internalType": "uint256",
          "name": "patentId",
          "type": "uint256"
        },
        {
          "internalType": "string",
          "name": "patentName",
          "type": "string"
        },
        {
          "internalType": "address",
          "name": "currentOwner",
          "type": "address"
        },
        {
          "internalType": "string",
          "name": "description",
          "type": "string"
        },
        {
          "internalType": "uint256",
          "name": "price",
          "type": "uint256"
        },
        {
          "internalType": "bool",
          "name": "isForSale",
          "type": "bool"
        },
        {
          "internalType": "uint256",
          "name": "registrationTime",
          "type": "uint256"
        },
        {
          "internalType": "uint256",
          "name": "expiryTime",
          "type": "uint256"
        }
      ],
      "stateMutability": "view",
      "type": "function",
      "constant": true
    },
    {
      "inputs": [
        {
          "internalType": "string",
          "name": "name",
          "type": "string"
        },
        {
          "internalType": "string",
          "name": "description",
          "type": "string"
        },
        {
          "internalType": "uint256",
          "name": "duration",
          "type": "uint256"
        },
        {
          "internalType": "uint256",
          "name": "price",
          "type": "uint256"
        }
      ],
      "name": "registerPatent",
      "outputs": [
        {
          "internalType": "uint256",
          "name": "",
          "type": "uint256"
        }
      ],
      "stateMutability": "nonpayable",
      "type": "function"
    },
    {
      "inputs": [
        {
          "internalType": "uint256",
          "name": "",
          "type": "uint256"
        },
        {
          "internalType": "uint256",
          "name": "",
          "type": "uint256"
        }
      ],
      "name": "useRecords",
      "outputs": [
        {
          "internalType": "uint256",
          "name": "patentId",
          "type": "uint256"
        },
        {
          "internalType": "address",
          "name": "user",
          "type": "address"
        },
        {
          "internalType": "uint256",
          "name": "useTime",
          "type": "uint256"
        },
        {
          "internalType": "bool",
          "name": "isAuthorized",
          "type": "bool"
        }
      ],
      "stateMutability": "view",
      "type": "function",
      "constant": true
    },
    {
      "inputs": [
        {
          "internalType": "uint256",
          "name": "patentId",
          "type": "uint256"
        },
        {
          "internalType": "uint256",
          "name": "price",
          "type": "uint256"
        }
      ],
      "name": "listForSale",
      "outputs": [],
      "stateMutability": "nonpayable",
      "type": "function"
    },
    {
      "inputs": [
        {
          "internalType": "uint256",
          "name": "patentId",
          "type": "uint256"
        }
      ],
      "name": "buyPatent",
      "outputs": [],
      "stateMutability": "payable",
      "type": "function",
      "payable": true
    },
    {
      "inputs": [
        {
          "internalType": "uint256",
          "name": "patentId",
          "type": "uint256"
        },
        {
          "internalType": "address",
          "name": "user",
          "type": "address"
        }
      ],
      "name": "canApplyForAuthorization",
      "outputs": [
        {
          "internalType": "bool",
          "name": "",
          "type": "bool"
        }
      ],
      "stateMutability": "view",
      "type": "function",
      "constant": true
    },
    {
      "inputs": [
        {
          "internalType": "uint256",
          "name": "patentId",
          "type": "uint256"
        }
      ],
      "name": "requestPatentAuthorization",
      "outputs": [],
      "stateMutability": "nonpayable",
      "type": "function"
    },
    {
      "inputs": [
        {
          "internalType": "uint256",
          "name": "patentId",
          "type": "uint256"
        },
        {
          "internalType": "address",
          "name": "user",
          "type": "address"
        }
      ],
      "name": "approveAuthorization",
      "outputs": [],
      "stateMutability": "nonpayable",
      "type": "function"
    },
    {
      "inputs": [
        {
          "internalType": "uint256",
          "name": "patentId",
          "type": "uint256"
        },
        {
          "internalType": "address",
          "name": "user",
          "type": "address"
        }
      ],
      "name": "rejectAuthorization",
      "outputs": [],
      "stateMutability": "nonpayable",
      "type": "function"
    },
    {
      "inputs": [
        {
          "internalType": "uint256",
          "name": "patentId",
          "type": "uint256"
        }
      ],
      "name": "usePatent",
      "outputs": [],
      "stateMutability": "nonpayable",
      "type": "function"
    },
    {
      "inputs": [
        {
          "internalType": "address",
          "name": "user",
          "type": "address"
        }
      ],
      "name": "getOwnedPatentsUseRecords",
      "outputs": [
        {
          "components": [
            {
              "internalType": "uint256",
              "name": "patentId",
              "type": "uint256"
            },
            {
              "internalType": "address",
              "name": "user",
              "type": "address"
            },
            {
              "internalType": "uint256",
              "name": "useTime",
              "type": "uint256"
            },
            {
              "internalType": "bool",
              "name": "isAuthorized",
              "type": "bool"
            }
          ],
          "internalType": "struct PatentMarket.UseRecord[]",
          "name": "",
          "type": "tuple[]"
        }
      ],
      "stateMutability": "view",
      "type": "function",
      "constant": true
    },
    {
      "inputs": [
        {
          "internalType": "uint256",
          "name": "patentId",
          "type": "uint256"
        },
        {
          "internalType": "address",
          "name": "user",
          "type": "address"
        }
      ],
      "name": "detectIllegalUse",
      "outputs": [
        {
          "internalType": "bool",
          "name": "",
          "type": "bool"
        }
      ],
      "stateMutability": "view",
      "type": "function",
      "constant": true
    },
    {
      "inputs": [
        {
          "internalType": "uint256",
          "name": "patentId",
          "type": "uint256"
        },
        {
          "internalType": "address",
          "name": "infringer",
          "type": "address"
        }
      ],
      "name": "triggerInfringementWarning",
      "outputs": [],
      "stateMutability": "nonpayable",
      "type": "function"
    },
    {
      "inputs": [
        {
          "internalType": "uint256",
          "name": "patentId",
          "type": "uint256"
        }
      ],
      "name": "getPatentInfo",
      "outputs": [
        {
          "components": [
            {
              "internalType": "uint256",
              "name": "patentId",
              "type": "uint256"
            },
            {
              "internalType": "string",
              "name": "patentName",
              "type": "string"
            },
            {
              "internalType": "address",
              "name": "currentOwner",
              "type": "address"
            },
            {
              "internalType": "string",
              "name": "description",
              "type": "string"
            },
            {
              "internalType": "uint256",
              "name": "price",
              "type": "uint256"
            },
            {
              "internalType": "bool",
              "name": "isForSale",
              "type": "bool"
            },
            {
              "internalType": "uint256",
              "name": "registrationTime",
              "type": "uint256"
            },
            {
              "internalType": "uint256",
              "name": "expiryTime",
              "type": "uint256"
            }
          ],
          "internalType": "struct PatentBase.Patent",
          "name": "",
          "type": "tuple"
        }
      ],
      "stateMutability": "view",
      "type": "function",
      "constant": true
    },
    {
      "inputs": [
        {
          "internalType": "uint256",
          "name": "patentId",
          "type": "uint256"
        }
      ],
      "name": "isPatentForSale",
      "outputs": [
        {
          "internalType": "bool",
          "name": "",
          "type": "bool"
        }
      ],
      "stateMutability": "view",
      "type": "function",
      "constant": true
    },
    {
      "inputs": [
        {
          "internalType": "uint256",
          "name": "patentId",
          "type": "uint256"
        },
        {
          "internalType": "address",
          "name": "user",
          "type": "address"
        }
      ],
      "name": "isAuthorizedUser",
      "outputs": [
        {
          "internalType": "bool",
          "name": "",
          "type": "bool"
        }
      ],
      "stateMutability": "view",
      "type": "function",
      "constant": true
    },
    {
      "inputs": [
        {
          "internalType": "address",
          "name": "user",
          "type": "address"
        }
      ],
      "name": "fetchMarketPatents",
      "outputs": [
        {
          "components": [
            {
              "internalType": "uint256",
              "name": "patentId",
              "type": "uint256"
            },
            {
              "internalType": "string",
              "name": "patentName",
              "type": "string"
            },
            {
              "internalType": "address",
              "name": "currentOwner",
              "type": "address"
            },
            {
              "internalType": "string",
              "name": "description",
              "type": "string"
            },
            {
              "internalType": "uint256",
              "name": "price",
              "type": "uint256"
            },
            {
              "internalType": "bool",
              "name": "isForSale",
              "type": "bool"
            },
            {
              "internalType": "uint256",
              "name": "registrationTime",
              "type": "uint256"
            },
            {
              "internalType": "uint256",
              "name": "expiryTime",
              "type": "uint256"
            }
          ],
          "internalType": "struct PatentBase.Patent[]",
          "name": "",
          "type": "tuple[]"
        }
      ],
      "stateMutability": "view",
      "type": "function",
      "constant": true
    },
    {
      "inputs": [
        {
          "internalType": "address",
          "name": "user",
          "type": "address"
        }
      ],
      "name": "fetchPatentsCanSale",
      "outputs": [
        {
          "components": [
            {
              "internalType": "uint256",
              "name": "patentId",
              "type": "uint256"
            },
            {
              "internalType": "string",
              "name": "patentName",
              "type": "string"
            },
            {
              "internalType": "address",
              "name": "currentOwner",
              "type": "address"
            },
            {
              "internalType": "string",
              "name": "description",
              "type": "string"
            },
            {
              "internalType": "uint256",
              "name": "price",
              "type": "uint256"
            },
            {
              "internalType": "bool",
              "name": "isForSale",
              "type": "bool"
            },
            {
              "internalType": "uint256",
              "name": "registrationTime",
              "type": "uint256"
            },
            {
              "internalType": "uint256",
              "name": "expiryTime",
              "type": "uint256"
            }
          ],
          "internalType": "struct PatentBase.Patent[]",
          "name": "",
          "type": "tuple[]"
        }
      ],
      "stateMutability": "view",
      "type": "function",
      "constant": true
    }
  ],
  "bytecode": "0x608060405234801561001057600080fd5b50614231806100206000396000f3fe608060405260043610610168576000357c010000000000000000000000000000000000000000000000000000000090048063a1ab74b9116100d3578063c5cf91131161008c578063c5cf911314610542578063cdba68b91461057f578063e80d7fec146105bc578063f1d908dd146105e5578063f422bc681461060e578063fdc4294f1461065257610168565b8063a1ab74b9146103fa578063a20b7d1b14610437578063a5663a9f14610460578063b084c8411461049d578063b735a3ff146104c8578063bf7b64041461050557610168565b806361d38b171161012557806361d38b17146102975780636cd5ae34146102c0578063763d19d4146102fd5780638c20cc4d1461033d57806396a6bb321461037a5780639c6d0d78146103b757610168565b806309e6baf11461016d57806313b356ad146101985780631c1bff89146101b45780632807745f146101dd578063540ce76b1461021d57806357cbe3cf1461025a575b600080fd5b34801561017957600080fd5b5061018261067b565b60405161018f9190612d1d565b60405180910390f35b6101b260048036038101906101ad9190612d7f565b610710565b005b3480156101c057600080fd5b506101db60048036038101906101d69190612e0a565b610903565b005b3480156101e957600080fd5b5061020460048036038101906101ff9190612e4a565b610bfe565b6040516102149493929190612ec3565b60405180910390f35b34801561022957600080fd5b50610244600480360381019061023f9190612f08565b610c78565b6040516102519190613057565b60405180910390f35b34801561026657600080fd5b50610281600480360381019061027c9190612f08565b610f27565b60405161028e9190613282565b60405180910390f35b3480156102a357600080fd5b506102be60048036038101906102b99190612e0a565b6112fa565b005b3480156102cc57600080fd5b506102e760048036038101906102e29190612d7f565b61158c565b6040516102f4919061335b565b60405180910390f35b34801561030957600080fd5b50610324600480360381019061031f9190612e4a565b611777565b604051610334949392919061337d565b60405180910390f35b34801561034957600080fd5b50610364600480360381019061035f9190612e0a565b6117f1565b60405161037191906133c2565b60405180910390f35b34801561038657600080fd5b506103a1600480360381019061039c9190612f08565b6118cb565b6040516103ae9190613282565b60405180910390f35b3480156103c357600080fd5b506103de60048036038101906103d99190612d7f565b611cb9565b6040516103f19796959493929190613427565b60405180910390f35b34801561040657600080fd5b50610421600480360381019061041c9190612d7f565b611ee1565b60405161042e91906133c2565b60405180910390f35b34801561044357600080fd5b5061045e60048036038101906104599190612d7f565b611f0e565b005b34801561046c57600080fd5b5061048760048036038101906104829190612e0a565b61213e565b60405161049491906133c2565b60405180910390f35b3480156104a957600080fd5b506104b261216d565b6040516104bf91906134a4565b60405180910390f35b3480156104d457600080fd5b506104ef60048036038101906104ea9190612e0a565b612173565b6040516104fc91906133c2565b60405180910390f35b34801561051157600080fd5b5061052c60048036038101906105279190612d7f565b612290565b60405161053991906133c2565b60405180910390f35b34801561054e57600080fd5b50610569600480360381019061056491906135f4565b6122b2565b60405161057691906134a4565b60405180910390f35b34801561058b57600080fd5b506105a660048036038101906105a19190612e0a565b612523565b6040516105b391906133c2565b60405180910390f35b3480156105c857600080fd5b506105e360048036038101906105de9190612e4a565b61258b565b005b3480156105f157600080fd5b5061060c60048036038101906106079190612d7f565b61270b565b005b34801561061a57600080fd5b5061063560048036038101906106309190612d7f565b6129a2565b604051610649989796959493929190613693565b60405180910390f35b34801561065e57600080fd5b5061067960048036038101906106749190612e0a565b612b27565b005b6060600260003373ffffffffffffffffffffffffffffffffffffffff1673ffffffffffffffffffffffffffffffffffffffff16815260200190815260200160002080548060200260200160405190810160405280929190818152602001828054801561070657602002820191906000526020600020905b8154815260200190600101908083116106f2575b5050505050905090565b60006001600083815260200190815260200160002090508060050160009054906101000a900460ff16610778576040517f08c379a000000000000000000000000000000000000000000000000000000000815260040161076f9061376b565b60405180910390fd5b80600401543410156107bf576040517f08c379a00000000000000000000000000000000000000000000000000000000081526004016107b6906137d7565b60405180910390fd5b60008160020160009054906101000a900473ffffffffffffffffffffffffffffffffffffffff169050338260020160006101000a81548173ffffffffffffffffffffffffffffffffffffffff021916908373ffffffffffffffffffffffffffffffffffffffff16021790555060008260050160006101000a81548160ff0219169083151502179055508073ffffffffffffffffffffffffffffffffffffffff166108fc349081150290604051600060405180830381858888f1935050505015801561088e573d6000803e3d6000fd5b503373ffffffffffffffffffffffffffffffffffffffff168173ffffffffffffffffffffffffffffffffffffffff16847fd4087db499dd31cfde1d9403da6a531c3913cb1197f78312d5ca5eff555082f78560010186600401546040516108f69291906138f0565b60405180910390a4505050565b3373ffffffffffffffffffffffffffffffffffffffff166001600084815260200190815260200160002060020160009054906101000a900473ffffffffffffffffffffffffffffffffffffffff1673ffffffffffffffffffffffffffffffffffffffff16146109a7576040517f08c379a000000000000000000000000000000000000000000000000000000000815260040161099e9061396c565b60405180910390fd5b6000805b6004600085815260200190815260200160002080549050811015610bb8578273ffffffffffffffffffffffffffffffffffffffff16600460008681526020019081526020016000208281548110610a0557610a0461398c565b5b906000526020600020906004020160000160009054906101000a900473ffffffffffffffffffffffffffffffffffffffff1673ffffffffffffffffffffffffffffffffffffffff16148015610a9b5750600460008581526020019081526020016000208181548110610a7a57610a7961398c565b5b906000526020600020906004020160030160009054906101000a900460ff16155b15610ba5576001600460008681526020019081526020016000208281548110610ac757610ac661398c565b5b906000526020600020906004020160030160006101000a81548160ff02191690831515021790555060016003600086815260200190815260200160002060008573ffffffffffffffffffffffffffffffffffffffff1673ffffffffffffffffffffffffffffffffffffffff16815260200190815260200160002060006101000a81548160ff0219169083151502179055508273ffffffffffffffffffffffffffffffffffffffff16847f26273e1af82ccbf7153502c23c0b3d69e41c3e2f27a9f6d1472bab8eeb878f3b60405160405180910390a360019150610bb8565b8080610bb0906139ea565b9150506109ab565b5080610bf9576040517f08c379a0000000000000000000000000000000000000000000000000000000008152600401610bf090613aa4565b60405180910390fd5b505050565b60046020528160005260406000208181548110610c1a57600080fd5b9060005260206000209060040201600091509150508060000160009054906101000a900473ffffffffffffffffffffffffffffffffffffffff16908060010154908060020154908060030160009054906101000a900460ff16905084565b60606000805b600054811015610d13578373ffffffffffffffffffffffffffffffffffffffff166001600083815260200190815260200160002060020160009054906101000a900473ffffffffffffffffffffffffffffffffffffffff1673ffffffffffffffffffffffffffffffffffffffff1603610d00578180610cfc906139ea565b9250505b8080610d0b906139ea565b915050610c7e565b5060008167ffffffffffffffff811115610d3057610d2f6134c9565b5b604051908082528060200260200182016040528015610d6957816020015b610d56612bb8565b815260200190600190039081610d4e5790505b5090506000805b600054811015610f1b578573ffffffffffffffffffffffffffffffffffffffff166001600083815260200190815260200160002060020160009054906101000a900473ffffffffffffffffffffffffffffffffffffffff1673ffffffffffffffffffffffffffffffffffffffff1603610f085760005b6005600083815260200190815260200160002080549050811015610f0657600560008381526020019081526020016000208181548110610e2957610e2861398c565b5b9060005260206000209060040201604051806080016040529081600082015481526020016001820160009054906101000a900473ffffffffffffffffffffffffffffffffffffffff1673ffffffffffffffffffffffffffffffffffffffff1673ffffffffffffffffffffffffffffffffffffffff168152602001600282015481526020016003820160009054906101000a900460ff161515151581525050848481518110610eda57610ed961398c565b5b60200260200101819052508280610ef0906139ea565b9350508080610efe906139ea565b915050610de6565b505b8080610f13906139ea565b915050610d70565b50819350505050919050565b6060600080805467ffffffffffffffff811115610f4757610f466134c9565b5b604051908082528060200260200182016040528015610f755781602001602082028036833780820191505090505b50905060005b600054811161105d576001600082815260200190815260200160002060050160009054906101000a900460ff16801561101657508473ffffffffffffffffffffffffffffffffffffffff166001600083815260200190815260200160002060020160009054906101000a900473ffffffffffffffffffffffffffffffffffffffff1673ffffffffffffffffffffffffffffffffffffffff1614155b1561104a578082848151811061102f5761102e61398c565b5b6020026020010181815250508280611046906139ea565b9350505b8080611055906139ea565b915050610f7b565b5060008267ffffffffffffffff81111561107a576110796134c9565b5b6040519080825280602002602001820160405280156110b357816020015b6110a0612bf8565b8152602001906001900390816110985790505b50905060005b838110156112ee5760008382815181106110d6576110d561398c565b5b6020026020010151905060016000828152602001908152602001600020604051806101000160405290816000820154815260200160018201805461111990613826565b80601f016020809104026020016040519081016040528092919081815260200182805461114590613826565b80156111925780601f1061116757610100808354040283529160200191611192565b820191906000526020600020905b81548152906001019060200180831161117557829003601f168201915b505050505081526020016002820160009054906101000a900473ffffffffffffffffffffffffffffffffffffffff1673ffffffffffffffffffffffffffffffffffffffff1673ffffffffffffffffffffffffffffffffffffffff16815260200160038201805461120190613826565b80601f016020809104026020016040519081016040528092919081815260200182805461122d90613826565b801561127a5780601f1061124f5761010080835404028352916020019161127a565b820191906000526020600020905b81548152906001019060200180831161125d57829003601f168201915b50505050508152602001600482015481526020016005820160009054906101000a900460ff16151515158152602001600682015481526020016007820154815250508383815181106112cf576112ce61398c565b5b60200260200101819052505080806112e6906139ea565b9150506110b9565b50809350505050919050565b3373ffffffffffffffffffffffffffffffffffffffff166001600084815260200190815260200160002060020160009054906101000a900473ffffffffffffffffffffffffffffffffffffffff1673ffffffffffffffffffffffffffffffffffffffff161461139e576040517f08c379a000000000000000000000000000000000000000000000000000000000815260040161139590613b10565b60405180910390fd5b6000805b6004600085815260200190815260200160002080549050811015611546578273ffffffffffffffffffffffffffffffffffffffff166004600086815260200190815260200160002082815481106113fc576113fb61398c565b5b906000526020600020906004020160000160009054906101000a900473ffffffffffffffffffffffffffffffffffffffff1673ffffffffffffffffffffffffffffffffffffffff1614801561149257506004600085815260200190815260200160002081815481106114715761147061398c565b5b906000526020600020906004020160030160009054906101000a900460ff16155b156115335760006004600086815260200190815260200160002082815481106114be576114bd61398c565b5b906000526020600020906004020160030160006101000a81548160ff0219169083151502179055508273ffffffffffffffffffffffffffffffffffffffff16847f7f199c4b273ac707d8aaef42f3549b0b7b0293254783ddb899c8e82bbb5bddce60405160405180910390a360019150611546565b808061153e906139ea565b9150506113a2565b5080611587576040517f08c379a000000000000000000000000000000000000000000000000000000000815260040161157e90613aa4565b60405180910390fd5b505050565b611594612bf8565b6001600083815260200190815260200160002060405180610100016040529081600082015481526020016001820180546115cd90613826565b80601f01602080910402602001604051908101604052809291908181526020018280546115f990613826565b80156116465780601f1061161b57610100808354040283529160200191611646565b820191906000526020600020905b81548152906001019060200180831161162957829003601f168201915b505050505081526020016002820160009054906101000a900473ffffffffffffffffffffffffffffffffffffffff1673ffffffffffffffffffffffffffffffffffffffff1673ffffffffffffffffffffffffffffffffffffffff1681526020016003820180546116b590613826565b80601f01602080910402602001604051908101604052809291908181526020018280546116e190613826565b801561172e5780601f106117035761010080835404028352916020019161172e565b820191906000526020600020905b81548152906001019060200180831161171157829003601f168201915b50505050508152602001600482015481526020016005820160009054906101000a900460ff16151515158152602001600682015481526020016007820154815250509050919050565b6005602052816000526040600020818154811061179357600080fd5b9060005260206000209060040201600091509150508060000154908060010160009054906101000a900473ffffffffffffffffffffffffffffffffffffffff16908060020154908060030160009054906101000a900460ff16905084565b6000806001600085815260200190815260200160002060020160009054906101000a900473ffffffffffffffffffffffffffffffffffffffff1673ffffffffffffffffffffffffffffffffffffffff168373ffffffffffffffffffffffffffffffffffffffff1614806118be57506003600085815260200190815260200160002060008473ffffffffffffffffffffffffffffffffffffffff1673ffffffffffffffffffffffffffffffffffffffff16815260200190815260200160002060009054906101000a900460ff165b9050801591505092915050565b60606000805b600054811015611994578373ffffffffffffffffffffffffffffffffffffffff166001600083815260200190815260200160002060020160009054906101000a900473ffffffffffffffffffffffffffffffffffffffff1673ffffffffffffffffffffffffffffffffffffffff1614801561196d57506001600082815260200190815260200160002060050160009054906101000a900460ff16155b1561198157818061197d906139ea565b9250505b808061198c906139ea565b9150506118d1565b5060008167ffffffffffffffff8111156119b1576119b06134c9565b5b6040519080825280602002602001820160405280156119ea57816020015b6119d7612bf8565b8152602001906001900390816119cf5790505b5090506000805b600054811015611cad578573ffffffffffffffffffffffffffffffffffffffff166001600083815260200190815260200160002060020160009054906101000a900473ffffffffffffffffffffffffffffffffffffffff1673ffffffffffffffffffffffffffffffffffffffff16148015611a8c57506001600082815260200190815260200160002060050160009054906101000a900460ff165b15611c9a57600160008281526020019081526020016000206040518061010001604052908160008201548152602001600182018054611aca90613826565b80601f0160208091040260200160405190810160405280929190818152602001828054611af690613826565b8015611b435780601f10611b1857610100808354040283529160200191611b43565b820191906000526020600020905b815481529060010190602001808311611b2657829003601f168201915b505050505081526020016002820160009054906101000a900473ffffffffffffffffffffffffffffffffffffffff1673ffffffffffffffffffffffffffffffffffffffff1673ffffffffffffffffffffffffffffffffffffffff168152602001600382018054611bb290613826565b80601f0160208091040260200160405190810160405280929190818152602001828054611bde90613826565b8015611c2b5780601f10611c0057610100808354040283529160200191611c2b565b820191906000526020600020905b815481529060010190602001808311611c0e57829003601f168201915b50505050508152602001600482015481526020016005820160009054906101000a900460ff1615151515815260200160068201548152602001600782015481525050838381518110611c8057611c7f61398c565b5b60200260200101819052508180611c96906139ea565b9250505b8080611ca5906139ea565b9150506119f1565b50819350505050919050565b60006060806000806000806000600160008a81526020019081526020016000206040518061010001604052908160008201548152602001600182018054611cff90613826565b80601f0160208091040260200160405190810160405280929190818152602001828054611d2b90613826565b8015611d785780601f10611d4d57610100808354040283529160200191611d78565b820191906000526020600020905b815481529060010190602001808311611d5b57829003601f168201915b505050505081526020016002820160009054906101000a900473ffffffffffffffffffffffffffffffffffffffff1673ffffffffffffffffffffffffffffffffffffffff1673ffffffffffffffffffffffffffffffffffffffff168152602001600382018054611de790613826565b80601f0160208091040260200160405190810160405280929190818152602001828054611e1390613826565b8015611e605780601f10611e3557610100808354040283529160200191611e60565b820191906000526020600020905b815481529060010190602001808311611e4357829003601f168201915b50505050508152602001600482015481526020016005820160009054906101000a900460ff1615151515815260200160068201548152602001600782015481525050905080600001518160200151826060015183604001518460c001518560e001518660800151975097509750975097509750975050919395979092949650565b60006001600083815260200190815260200160002060050160009054906101000a900460ff169050919050565b80600160008381526020019081526020016000206000015414611f66576040517f08c379a0000000000000000000000000000000000000000000000000000000008152600401611f5d90613b7c565b60405180910390fd5b6003600082815260200190815260200160002060003373ffffffffffffffffffffffffffffffffffffffff1673ffffffffffffffffffffffffffffffffffffffff16815260200190815260200160002060009054906101000a900460ff1615612004576040517f08c379a0000000000000000000000000000000000000000000000000000000008152600401611ffb90613be8565b60405180910390fd5b6004600082815260200190815260200160002060405180608001604052803373ffffffffffffffffffffffffffffffffffffffff16815260200183815260200142815260200160001515815250908060018154018082558091505060019003906000526020600020906004020160009091909190915060008201518160000160006101000a81548173ffffffffffffffffffffffffffffffffffffffff021916908373ffffffffffffffffffffffffffffffffffffffff160217905550602082015181600101556040820151816002015560608201518160030160006101000a81548160ff02191690831515021790555050503373ffffffffffffffffffffffffffffffffffffffff16817fe9e3c8549c5502ab4b191ecaed1656277f749183703fe647e892b34c6cd8b7d160405160405180910390a350565b60036020528160005260406000206020528060005260406000206000915091509054906101000a900460ff1681565b60005481565b60006001600084815260200190815260200160002060020160009054906101000a900473ffffffffffffffffffffffffffffffffffffffff1673ffffffffffffffffffffffffffffffffffffffff168273ffffffffffffffffffffffffffffffffffffffff16036121e7576000905061228a565b6003600084815260200190815260200160002060008373ffffffffffffffffffffffffffffffffffffffff1673ffffffffffffffffffffffffffffffffffffffff16815260200190815260200160002060009054906101000a900460ff1615612253576000905061228a565b6001600084815260200190815260200160002060050160009054906101000a900460ff1615612285576000905061228a565b600190505b92915050565b6000600160008381526020019081526020016000206007015442119050919050565b60008083116122f6576040517f08c379a00000000000000000000000000000000000000000000000000000000081526004016122ed90613c7a565b60405180910390fd5b60405180610100016040528060005481526020018681526020013373ffffffffffffffffffffffffffffffffffffffff16815260200185815260200183815260200160011515815260200142815260200184426123539190613c9a565b81525060016000805481526020019081526020016000206000820151816000015560208201518160010190816123899190613e6b565b5060408201518160020160006101000a81548173ffffffffffffffffffffffffffffffffffffffff021916908373ffffffffffffffffffffffffffffffffffffffff16021790555060608201518160030190816123e69190613e6b565b506080820151816004015560a08201518160050160006101000a81548160ff02191690831515021790555060c0820151816006015560e08201518160070155905050600260003373ffffffffffffffffffffffffffffffffffffffff1673ffffffffffffffffffffffffffffffffffffffff16815260200190815260200160002060005490806001815401808255809150506001900390600052602060002001600090919091909150556000808154809291906124a2906139ea565b91905055503373ffffffffffffffffffffffffffffffffffffffff167ffe35dd0a2a2b1a13a2ecfe9e9714cbb3430db7ca9c258e25e74ba7c432721fbb60016000546124ee9190613f3d565b8787866001428a426125009190613c9a565b6040516125139796959493929190613f71565b60405180910390a2949350505050565b60006003600084815260200190815260200160002060008373ffffffffffffffffffffffffffffffffffffffff1673ffffffffffffffffffffffffffffffffffffffff16815260200190815260200160002060009054906101000a900460ff16905092915050565b60006001600084815260200190815260200160002090503373ffffffffffffffffffffffffffffffffffffffff168160020160009054906101000a900473ffffffffffffffffffffffffffffffffffffffff1673ffffffffffffffffffffffffffffffffffffffff1614612634576040517f08c379a000000000000000000000000000000000000000000000000000000000815260040161262b9061403a565b60405180910390fd5b600015158160050160009054906101000a900460ff1615151461268c576040517f08c379a0000000000000000000000000000000000000000000000000000000008152600401612683906140a6565b60405180910390fd5b81816004018190555060018160050160006101000a81548160ff0219169083151502179055503373ffffffffffffffffffffffffffffffffffffffff16837fa8c5d983dc7078455ae436e4ed5b3b05a1adbac2a83405e0c3af5b07b22620e683600101856040516126fe9291906138f0565b60405180910390a3505050565b80600160008381526020019081526020016000206000015414612763576040517f08c379a000000000000000000000000000000000000000000000000000000000815260040161275a90613b7c565b60405180910390fd5b60006001600083815260200190815260200160002060020160009054906101000a900473ffffffffffffffffffffffffffffffffffffffff1673ffffffffffffffffffffffffffffffffffffffff163373ffffffffffffffffffffffffffffffffffffffff16148061282f57506003600083815260200190815260200160002060003373ffffffffffffffffffffffffffffffffffffffff1673ffffffffffffffffffffffffffffffffffffffff16815260200190815260200160002060009054906101000a900460ff165b90506005600083815260200190815260200160002060405180608001604052808481526020013373ffffffffffffffffffffffffffffffffffffffff16815260200142815260200183151581525090806001815401808255809150506001900390600052602060002090600402016000909190919091506000820151816000015560208201518160010160006101000a81548173ffffffffffffffffffffffffffffffffffffffff021916908373ffffffffffffffffffffffffffffffffffffffff1602179055506040820151816002015560608201518160030160006101000a81548160ff021916908315150217905550505080612963576040517f08c379a000000000000000000000000000000000000000000000000000000000815260040161295a90614138565b60405180910390fd5b7fc083bacf997f451c75aafe358644c360f105a04631d5fea550402e38a1c5f76e82334260405161299693929190614158565b60405180910390a15050565b60016020528060005260406000206000915090508060000154908060010180546129cb90613826565b80601f01602080910402602001604051908101604052809291908181526020018280546129f790613826565b8015612a445780601f10612a1957610100808354040283529160200191612a44565b820191906000526020600020905b815481529060010190602001808311612a2757829003601f168201915b5050505050908060020160009054906101000a900473ffffffffffffffffffffffffffffffffffffffff1690806003018054612a7f90613826565b80601f0160208091040260200160405190810160405280929190818152602001828054612aab90613826565b8015612af85780601f10612acd57610100808354040283529160200191612af8565b820191906000526020600020905b815481529060010190602001808311612adb57829003601f168201915b5050505050908060040154908060050160009054906101000a900460ff16908060060154908060070154905088565b612b3182826117f1565b612b70576040517f08c379a0000000000000000000000000000000000000000000000000000000008152600401612b67906141db565b60405180910390fd5b8073ffffffffffffffffffffffffffffffffffffffff16827fdfaf16f598115f57c2553188dd0d6de487047f89c9529b994266f45c892b415960405160405180910390a35050565b604051806080016040528060008152602001600073ffffffffffffffffffffffffffffffffffffffff168152602001600081526020016000151581525090565b6040518061010001604052806000815260200160608152602001600073ffffffffffffffffffffffffffffffffffffffff168152602001606081526020016000815260200160001515815260200160008152602001600081525090565b600081519050919050565b600082825260208201905092915050565b6000819050602082019050919050565b6000819050919050565b612c9481612c81565b82525050565b6000612ca68383612c8b565b60208301905092915050565b6000602082019050919050565b6000612cca82612c55565b612cd48185612c60565b9350612cdf83612c71565b8060005b83811015612d10578151612cf78882612c9a565b9750612d0283612cb2565b925050600181019050612ce3565b5085935050505092915050565b60006020820190508181036000830152612d378184612cbf565b905092915050565b6000604051905090565b600080fd5b600080fd5b612d5c81612c81565b8114612d6757600080fd5b50565b600081359050612d7981612d53565b92915050565b600060208284031215612d9557612d94612d49565b5b6000612da384828501612d6a565b91505092915050565b600073ffffffffffffffffffffffffffffffffffffffff82169050919050565b6000612dd782612dac565b9050919050565b612de781612dcc565b8114612df257600080fd5b50565b600081359050612e0481612dde565b92915050565b60008060408385031215612e2157612e20612d49565b5b6000612e2f85828601612d6a565b9250506020612e4085828601612df5565b9150509250929050565b60008060408385031215612e6157612e60612d49565b5b6000612e6f85828601612d6a565b9250506020612e8085828601612d6a565b9150509250929050565b612e9381612dcc565b82525050565b612ea281612c81565b82525050565b60008115159050919050565b612ebd81612ea8565b82525050565b6000608082019050612ed86000830187612e8a565b612ee56020830186612e99565b612ef26040830185612e99565b612eff6060830184612eb4565b95945050505050565b600060208284031215612f1e57612f1d612d49565b5b6000612f2c84828501612df5565b91505092915050565b600081519050919050565b600082825260208201905092915050565b6000819050602082019050919050565b612f6a81612dcc565b82525050565b612f7981612ea8565b82525050565b608082016000820151612f956000850182612c8b565b506020820151612fa86020850182612f61565b506040820151612fbb6040850182612c8b565b506060820151612fce6060850182612f70565b50505050565b6000612fe08383612f7f565b60808301905092915050565b6000602082019050919050565b600061300482612f35565b61300e8185612f40565b935061301983612f51565b8060005b8381101561304a5781516130318882612fd4565b975061303c83612fec565b92505060018101905061301d565b5085935050505092915050565b600060208201905081810360008301526130718184612ff9565b905092915050565b600081519050919050565b600082825260208201905092915050565b6000819050602082019050919050565b600081519050919050565b600082825260208201905092915050565b60005b838110156130df5780820151818401526020810190506130c4565b60008484015250505050565b6000601f19601f8301169050919050565b6000613107826130a5565b61311181856130b0565b93506131218185602086016130c1565b61312a816130eb565b840191505092915050565b60006101008301600083015161314e6000860182612c8b565b506020830151848203602086015261316682826130fc565b915050604083015161317b6040860182612f61565b506060830151848203606086015261319382826130fc565b91505060808301516131a86080860182612c8b565b5060a08301516131bb60a0860182612f70565b5060c08301516131ce60c0860182612c8b565b5060e08301516131e160e0860182612c8b565b508091505092915050565b60006131f88383613135565b905092915050565b6000602082019050919050565b600061321882613079565b6132228185613084565b93508360208202850161323485613095565b8060005b85811015613270578484038952815161325185826131ec565b945061325c83613200565b925060208a01995050600181019050613238565b50829750879550505050505092915050565b6000602082019050818103600083015261329c818461320d565b905092915050565b6000610100830160008301516132bd6000860182612c8b565b50602083015184820360208601526132d582826130fc565b91505060408301516132ea6040860182612f61565b506060830151848203606086015261330282826130fc565b91505060808301516133176080860182612c8b565b5060a083015161332a60a0860182612f70565b5060c083015161333d60c0860182612c8b565b5060e083015161335060e0860182612c8b565b508091505092915050565b6000602082019050818103600083015261337581846132a4565b905092915050565b60006080820190506133926000830187612e99565b61339f6020830186612e8a565b6133ac6040830185612e99565b6133b96060830184612eb4565b95945050505050565b60006020820190506133d76000830184612eb4565b92915050565b600082825260208201905092915050565b60006133f9826130a5565b61340381856133dd565b93506134138185602086016130c1565b61341c816130eb565b840191505092915050565b600060e08201905061343c600083018a612e99565b818103602083015261344e81896133ee565b9050818103604083015261346281886133ee565b90506134716060830187612e8a565b61347e6080830186612e99565b61348b60a0830185612e99565b61349860c0830184612e99565b98975050505050505050565b60006020820190506134b96000830184612e99565b92915050565b600080fd5b600080fd5b7f4e487b7100000000000000000000000000000000000000000000000000000000600052604160045260246000fd5b613501826130eb565b810181811067ffffffffffffffff821117156135205761351f6134c9565b5b80604052505050565b6000613533612d3f565b905061353f82826134f8565b919050565b600067ffffffffffffffff82111561355f5761355e6134c9565b5b613568826130eb565b9050602081019050919050565b82818337600083830152505050565b600061359761359284613544565b613529565b9050828152602081018484840111156135b3576135b26134c4565b5b6135be848285613575565b509392505050565b600082601f8301126135db576135da6134bf565b5b81356135eb848260208601613584565b91505092915050565b6000806000806080858703121561360e5761360d612d49565b5b600085013567ffffffffffffffff81111561362c5761362b612d4e565b5b613638878288016135c6565b945050602085013567ffffffffffffffff81111561365957613658612d4e565b5b613665878288016135c6565b935050604061367687828801612d6a565b925050606061368787828801612d6a565b91505092959194509250565b6000610100820190506136a9600083018b612e99565b81810360208301526136bb818a6133ee565b90506136ca6040830189612e8a565b81810360608301526136dc81886133ee565b90506136eb6080830187612e99565b6136f860a0830186612eb4565b61370560c0830185612e99565b61371260e0830184612e99565b9998505050505050505050565b7f506174656e74206973206e6f7420666f722073616c6500000000000000000000600082015250565b60006137556016836133dd565b91506137608261371f565b602082019050919050565b6000602082019050818103600083015261378481613748565b9050919050565b7f496e73756666696369656e742066756e647320746f2062757920706174656e74600082015250565b60006137c16020836133dd565b91506137cc8261378b565b602082019050919050565b600060208201905081810360008301526137f0816137b4565b9050919050565b7f4e487b7100000000000000000000000000000000000000000000000000000000600052602260045260246000fd5b6000600282049050600182168061383e57607f821691505b602082108103613851576138506137f7565b5b50919050565b60008190508160005260206000209050919050565b6000815461387981613826565b61388381866133dd565b9450600182166000811461389e57600181146138b4576138e7565b60ff1983168652811515602002860193506138e7565b6138bd85613857565b60005b838110156138df578154818901526001820191506020810190506138c0565b808801955050505b50505092915050565b6000604082019050818103600083015261390a818561386c565b90506139196020830184612e99565b9392505050565b7f4f6e6c7920746865206f776e65722063616e20617070726f7665000000000000600082015250565b6000613956601a836133dd565b915061396182613920565b602082019050919050565b6000602082019050818103600083015261398581613949565b9050919050565b7f4e487b7100000000000000000000000000000000000000000000000000000000600052603260045260246000fd5b7f4e487b7100000000000000000000000000000000000000000000000000000000600052601160045260246000fd5b60006139f582612c81565b91507fffffffffffffffffffffffffffffffffffffffffffffffffffffffffffffffff8203613a2757613a266139bb565b5b600182019050919050565b7f417574686f72697a6174696f6e2072657175657374206e6f7420666f756e642060008201527f6f7220616c726561647920617070726f76656400000000000000000000000000602082015250565b6000613a8e6033836133dd565b9150613a9982613a32565b604082019050919050565b60006020820190508181036000830152613abd81613a81565b9050919050565b7f4f6e6c7920746865206f776e65722063616e2072656a65637400000000000000600082015250565b6000613afa6019836133dd565b9150613b0582613ac4565b602082019050919050565b60006020820190508181036000830152613b2981613aed565b9050919050565b7f506174656e7420646f6573206e6f742065786973740000000000000000000000600082015250565b6000613b666015836133dd565b9150613b7182613b30565b602082019050919050565b60006020820190508181036000830152613b9581613b59565b9050919050565b7f596f752061726520616c726561647920617574686f72697a6564000000000000600082015250565b6000613bd2601a836133dd565b9150613bdd82613b9c565b602082019050919050565b60006020820190508181036000830152613c0181613bc5565b9050919050565b7f4475726174696f6e206d7573742062652067726561746572207468616e207a6560008201527f726f000000000000000000000000000000000000000000000000000000000000602082015250565b6000613c646022836133dd565b9150613c6f82613c08565b604082019050919050565b60006020820190508181036000830152613c9381613c57565b9050919050565b6000613ca582612c81565b9150613cb083612c81565b9250828201905080821115613cc857613cc76139bb565b5b92915050565b60006020601f8301049050919050565b60008160020a8302905092915050565b600060088302613d1e7fffffffffffffffffffffffffffffffffffffffffffffffffffffffffffffffff82613cde565b613d288683613cde565b95508019841693508086168417925050509392505050565b6000819050919050565b6000613d65613d60613d5b84612c81565b613d40565b612c81565b9050919050565b6000819050919050565b613d7f83613d4a565b613d93613d8b82613d6c565b848454613cee565b825550505050565b600090565b613da8613d9b565b613db3818484613d76565b505050565b5b81811015613dd757613dcc600082613da0565b600181019050613db9565b5050565b601f821115613e1c57613ded81613857565b613df684613cce565b81016020851015613e05578190505b613e19613e1185613cce565b830182613db8565b50505b505050565b60008160020a8304905092915050565b6000613e4260001984600802613e21565b1980831691505092915050565b6000613e5b8383613e31565b9150826002028217905092915050565b613e74826130a5565b67ffffffffffffffff811115613e8d57613e8c6134c9565b5b613e978254613826565b613ea2828285613ddb565b600060209050601f831160018114613ed55760008415613ec3578287015190505b613ecd8582613e4f565b865550613f35565b601f198416613ee386613857565b60005b82811015613f0b57848901518255600182019150602085019450602081019050613ee6565b86831015613f285784890151613f24601f891682613e31565b8355505b6001600288020188555050505b505050505050565b6000613f4882612c81565b9150613f5383612c81565b9250828203905081811115613f6b57613f6a6139bb565b5b92915050565b600060e082019050613f86600083018a612e99565b8181036020830152613f9881896133ee565b90508181036040830152613fac81886133ee565b9050613fbb6060830187612e99565b613fc86080830186612eb4565b613fd560a0830185612e99565b613fe260c0830184612e99565b98975050505050505050565b7f596f7520617265206e6f7420746865206f776e65720000000000000000000000600082015250565b60006140246015836133dd565b915061402f82613fee565b602082019050919050565b6000602082019050818103600083015261405381614017565b9050919050565b7f506174656e7420697320616c726561647920666f722073616c65000000000000600082015250565b6000614090601a836133dd565b915061409b8261405a565b602082019050919050565b600060208201905081810360008301526140bf81614083565b9050919050565b7f596f7520646f206e6f742068617665207065726d697373696f6e20746f20757360008201527f65207468697320706174656e7400000000000000000000000000000000000000602082015250565b6000614122602d836133dd565b915061412d826140c6565b604082019050919050565b6000602082019050818103600083015261415181614115565b9050919050565b600060608201905061416d6000830186612e99565b61417a6020830185612e8a565b6141876040830184612e99565b949350505050565b7f4e6f20696e6672696e67656d656e742064657465637465640000000000000000600082015250565b60006141c56018836133dd565b91506141d08261418f565b602082019050919050565b600060208201905081810360008301526141f4816141b8565b905091905056fea26469706673582212205bdb7ac7432575fb1053737e3fca4ce0af4fea9bc6dd8a8accc2442c50ca3be864736f6c63430008150033",
  "immutableReferences": {},
  "source": "// SPDX-License-Identifier: MIT\r\npragma solidity ^0.8.0;\r\n\r\nimport \"./PatentRegistry.sol\";  // \r\n\r\ncontract PatentMarket is PatentRegistry {\r\n    // \r\n    struct AuthorizationRequest {\r\n        address applicant;       // \r\n        uint256 patentId;        //  ID\r\n        uint256 requestTime;     // \r\n        bool approved;           // \r\n    }\r\n\r\n    // \r\n    struct UseRecord {\r\n        uint256 patentId;       //  ID\r\n        address user;           // \r\n        uint256 useTime;        // \r\n        bool isAuthorized;      // \r\n    }\r\n\r\n    // ID\r\n    mapping(uint => mapping(address => bool)) public authorizedUsers;\r\n    mapping(uint256 => AuthorizationRequest[]) public authorizationRequests; // \r\n    mapping(uint256 => UseRecord[]) public useRecords; // \r\n    // \r\n    event PatentListed(uint indexed patentId, string name, address indexed owner, uint price);\r\n    event PatentSold(uint indexed patentId, string name, address indexed previousOwner, address indexed newOwner, uint price);\r\n    event PatentAuthorized(uint indexed patentId, address indexed user);\r\n    event PatentInfringementDetected(uint indexed patentId, address indexed infringer);\r\n    event LegalActionTriggered(uint indexed patentId, address indexed infringer);\r\n    // \r\n    event PatentAuthorizationRequested(uint256 indexed patentId, address indexed applicant);\r\n    // \r\n    event PatentAuthorizationRejected(uint256 indexed patentId, address indexed user);\r\n    \r\n    // \r\n    function listForSale(uint patentId, uint price) public {\r\n        Patent storage patent = patents[patentId];\r\n        require(patent.currentOwner == msg.sender, \"You are not the owner\");\r\n        require(patent.isForSale == false, \"Patent is already for sale\");\r\n\r\n        patent.price = price;\r\n        patent.isForSale = true;\r\n\r\n        emit PatentListed(patentId, patent.patentName, msg.sender, price);\r\n    }\r\n\r\n    // \r\n    function buyPatent(uint patentId) public payable {\r\n        Patent storage patent = patents[patentId];\r\n        require(patent.isForSale, \"Patent is not for sale\");\r\n        require(msg.value >= patent.price, \"Insufficient funds to buy patent\");\r\n\r\n        address previousOwner = patent.currentOwner;\r\n        patent.currentOwner = msg.sender;\r\n        patent.isForSale = false;\r\n\r\n        // \r\n        payable(previousOwner).transfer(msg.value);\r\n\r\n        emit PatentSold(patentId, patent.patentName, previousOwner, msg.sender, patent.price);\r\n    }\r\n\r\n    // \r\n    function canApplyForAuthorization(uint256 patentId, address user) public view returns (bool) {\r\n        // 1. \r\n        if (user == patents[patentId].currentOwner) {\r\n            return false;  // \r\n        }\r\n        \r\n        // 2. \r\n        if (authorizedUsers[patentId][user]) {\r\n            return false;  // \r\n        }\r\n\r\n        // 3. \r\n        if (patents[patentId].isForSale) {\r\n            return false;  // \r\n        }\r\n\r\n        // \r\n        return true;\r\n    }\r\n\r\n    // \r\n    function requestPatentAuthorization(uint256 patentId) public {\r\n        // \r\n        require(patents[patentId].patentId == patentId, \"Patent does not exist\");\r\n\r\n        // \r\n        require(!authorizedUsers[patentId][msg.sender], \"You are already authorized\");\r\n\r\n        // \r\n        authorizationRequests[patentId].push(AuthorizationRequest({\r\n            applicant: msg.sender,\r\n            patentId: patentId,      //  ID\r\n            requestTime: block.timestamp,\r\n            approved: false // \r\n        }));\r\n\r\n        emit PatentAuthorizationRequested(patentId, msg.sender);\r\n    }\r\n\r\n    // \r\n    function approveAuthorization(uint256 patentId, address user) public {\r\n        // \r\n        require(patents[patentId].currentOwner == msg.sender, \"Only the owner can approve\");\r\n\r\n        // \r\n        bool applicationFound = false;\r\n        for (uint i = 0; i < authorizationRequests[patentId].length; i++) {\r\n            if (authorizationRequests[patentId][i].applicant == user && !authorizationRequests[patentId][i].approved) {\r\n                // \r\n                authorizationRequests[patentId][i].approved = true;\r\n                authorizedUsers[patentId][user] = true;\r\n\r\n                emit PatentAuthorized(patentId, user);\r\n                applicationFound = true;\r\n                break;\r\n            }\r\n        }\r\n\r\n        require(applicationFound, \"Authorization request not found or already approved\");\r\n    }\r\n\r\n    // \r\n    function rejectAuthorization(uint256 patentId, address user) public {\r\n        // \r\n        require(patents[patentId].currentOwner == msg.sender, \"Only the owner can reject\");\r\n\r\n        // \r\n        bool applicationFound = false;\r\n        for (uint i = 0; i < authorizationRequests[patentId].length; i++) {\r\n            if (authorizationRequests[patentId][i].applicant == user && !authorizationRequests[patentId][i].approved) {\r\n                // \r\n                authorizationRequests[patentId][i].approved = false;\r\n\r\n                emit PatentAuthorizationRejected(patentId, user);\r\n                applicationFound = true;\r\n                break;\r\n            }\r\n        }\r\n        require(applicationFound, \"Authorization request not found or already approved\");\r\n    }\r\n\r\n    // \r\n    function usePatent(uint256 patentId) public {\r\n        // \r\n        require(patents[patentId].patentId == patentId, \"Patent does not exist\");\r\n\r\n        // \r\n        bool hasPermission = (msg.sender == patents[patentId].currentOwner || authorizedUsers[patentId][msg.sender]);\r\n\r\n        // \r\n        useRecords[patentId].push(UseRecord({\r\n            patentId: patentId,\r\n            user: msg.sender, \r\n            useTime: block.timestamp,\r\n            isAuthorized: hasPermission\r\n        }));\r\n\r\n        // \r\n        require(hasPermission, \"You do not have permission to use this patent\");\r\n\r\n        emit PatentUsed(patentId, msg.sender, block.timestamp);\r\n    }\r\n\r\n    // \r\n    function getOwnedPatentsUseRecords(address user) public view returns (UseRecord[] memory) {\r\n        uint256 ownedPatentsCount = 0;\r\n        // \r\n        for (uint256 i = 0; i < patentCount; i++) {\r\n            if (patents[i].currentOwner == user) {\r\n                ownedPatentsCount++;\r\n            }\r\n        }\r\n\r\n        // \r\n        UseRecord[] memory allUseRecords = new UseRecord[](ownedPatentsCount);\r\n\r\n        uint256 index = 0;\r\n        for (uint256 i = 0; i < patentCount; i++) {\r\n            if (patents[i].currentOwner == user) {\r\n                // \r\n                for (uint256 j = 0; j < useRecords[i].length; j++) {\r\n                    allUseRecords[index] = useRecords[i][j];\r\n                    index++;\r\n                }\r\n            }\r\n        }\r\n\r\n        return allUseRecords;\r\n    }\r\n\r\n    // \r\n    event PatentUsed(uint256 patentId, address user, uint256 useTime);\r\n\r\n    // \r\n    function detectIllegalUse(uint256 patentId, address user) public view returns (bool) {\r\n        // \r\n        bool hasPermission = (user == patents[patentId].currentOwner || authorizedUsers[patentId][user]);\r\n        return !hasPermission;\r\n    }\r\n\r\n    // \r\n    function triggerInfringementWarning(uint patentId, address infringer) public {\r\n        require(detectIllegalUse(patentId, infringer), \"No infringement detected\");\r\n\r\n        emit PatentInfringementDetected(patentId, infringer);\r\n    }\r\n\r\n    // \r\n    function getPatentInfo(uint patentId) public view returns (Patent memory) {\r\n        return patents[patentId];\r\n    }\r\n\r\n    // \r\n    function isPatentForSale(uint patentId) public view returns (bool) {\r\n        return patents[patentId].isForSale;\r\n    }\r\n\r\n    // \r\n    function isAuthorizedUser(uint patentId, address user) public view returns (bool) {\r\n        return authorizedUsers[patentId][user];\r\n    }\r\n\r\n    // \r\n    function fetchMarketPatents(address user) public view returns (Patent[] memory) {\r\n        uint count = 0;\r\n        uint[] memory availablePatentIds = new uint[](patentCount);\r\n\r\n        // \r\n        for (uint i = 0; i <= patentCount; i++) {\r\n            if (patents[i].isForSale  && patents[i].currentOwner != user) {\r\n                availablePatentIds[count] = i;\r\n                count++;\r\n            }\r\n        }\r\n\r\n        // Patent\r\n        Patent[] memory availablePatents = new Patent[](count);\r\n        for (uint i = 0; i < count; i++) {\r\n            uint patentId = availablePatentIds[i];\r\n            availablePatents[i] = patents[patentId];\r\n        }\r\n\r\n        return availablePatents;\r\n    }\r\n    // \r\n    function fetchPatentsCanSale(address user) public view returns (Patent[] memory) {\r\n        uint count = 0;\r\n        \r\n        // \r\n        for (uint i = 0; i < patentCount; i++) {\r\n            if (patents[i].currentOwner == user && !patents[i].isForSale) {\r\n                count++;\r\n            }\r\n        }\r\n\r\n        // \r\n        Patent[] memory userPatentsForSale = new Patent[](count);\r\n        uint index = 0;\r\n\r\n        // \r\n        for (uint i = 0; i < patentCount; i++) {\r\n            if (patents[i].currentOwner == user && patents[i].isForSale) {\r\n                userPatentsForSale[index] = patents[i];\r\n                index++;\r\n            }\r\n        }\r\n        return userPatentsForSale;\r\n    }\r\n}\r\n",
  "sourcePath": "/Users/ethan/Education/Blockchain/patent-dapp/contracts/PatentMarket.sol",
  "compiler": {
    "name": "solc",
    "version": "0.8.21+commit.d9974bed.Emscripten.clang"
  },
  "schemaVersion": "3.4.16",
  "updatedAt": "2024-12-21T12:05:21.021Z",
  "networkType": "ethereum",
  "devdoc": {
    "kind": "dev",
    "methods": {},
    "version": 1
  },
  "userdoc": {
    "kind": "user",
    "methods": {},
    "version": 1
  }
}