{
  "contractName": "PatentRegistry",
  "abi": [
    {
      "anonymous": false,
      "inputs": [
        {
          "indexed": false,
          "internalType": "uint256",
          "name": "patentId",
          "type": "uint256"
        },
        {
          "indexed": false,
          "internalType": "string",
          "name": "name",
          "type": "string"
        },
        {
          "indexed": true,
          "internalType": "address",
          "name": "owner",
          "type": "address"
        },
        {
          "indexed": false,
          "internalType": "string",
          "name": "description",
          "type": "string"
        },
        {
          "indexed": false,
          "internalType": "uint256",
          "name": "price",
          "type": "uint256"
        },
        {
          "indexed": false,
          "internalType": "bool",
          "name": "isForSale",
          "type": "bool"
        },
        {
          "indexed": false,
          "internalType": "uint256",
          "name": "registrationTime",
          "type": "uint256"
        },
        {
          "indexed": false,
          "internalType": "uint256",
          "name": "expiryTime",
          "type": "uint256"
        }
      ],
      "name": "PatentRegistered",
      "type": "event"
    },
    {
      "inputs": [],
      "name": "patentCount",
      "outputs": [
        {
          "internalType": "uint256",
          "name": "",
          "type": "uint256"
        }
      ],
      "stateMutability": "view",
      "type": "function",
      "constant": true
    },
    {
      "inputs": [
        {
          "internalType": "uint256",
          "name": "",
          "type": "uint256"
        }
      ],
      "name": "patents",
      "outputs": [
        {
          "internalType": "uint256",
          "name": "patentId",
          "type": "uint256"
        },
        {
          "internalType": "string",
          "name": "patentName",
          "type": "string"
        },
        {
          "internalType": "address",
          "name": "currentOwner",
          "type": "address"
        },
        {
          "internalType": "string",
          "name": "description",
          "type": "string"
        },
        {
          "internalType": "uint256",
          "name": "price",
          "type": "uint256"
        },
        {
          "internalType": "bool",
          "name": "isForSale",
          "type": "bool"
        },
        {
          "internalType": "uint256",
          "name": "registrationTime",
          "type": "uint256"
        },
        {
          "internalType": "uint256",
          "name": "expiryTime",
          "type": "uint256"
        }
      ],
      "stateMutability": "view",
      "type": "function",
      "constant": true
    },
    {
      "inputs": [
        {
          "internalType": "string",
          "name": "name",
          "type": "string"
        },
        {
          "internalType": "string",
          "name": "description",
          "type": "string"
        },
        {
          "internalType": "uint256",
          "name": "duration",
          "type": "uint256"
        }
      ],
      "name": "registerPatent",
      "outputs": [
        {
          "internalType": "uint256",
          "name": "",
          "type": "uint256"
        }
      ],
      "stateMutability": "nonpayable",
      "type": "function"
    },
    {
      "inputs": [
        {
          "internalType": "uint256",
          "name": "patentId",
          "type": "uint256"
        }
      ],
      "name": "getPatent",
      "outputs": [
        {
          "internalType": "uint256",
          "name": "",
          "type": "uint256"
        },
        {
          "internalType": "string",
          "name": "",
          "type": "string"
        },
        {
          "internalType": "string",
          "name": "",
          "type": "string"
        },
        {
          "internalType": "address",
          "name": "",
          "type": "address"
        },
        {
          "internalType": "uint256",
          "name": "",
          "type": "uint256"
        },
        {
          "internalType": "uint256",
          "name": "",
          "type": "uint256"
        }
      ],
      "stateMutability": "view",
      "type": "function",
      "constant": true
    },
    {
      "inputs": [
        {
          "internalType": "uint256",
          "name": "patentId",
          "type": "uint256"
        }
      ],
      "name": "isPatentExpired",
      "outputs": [
        {
          "internalType": "bool",
          "name": "",
          "type": "bool"
        }
      ],
      "stateMutability": "view",
      "type": "function",
      "constant": true
    },
    {
      "inputs": [],
      "name": "getUserPatents",
      "outputs": [
        {
          "internalType": "uint256[]",
          "name": "",
          "type": "uint256[]"
        }
      ],
      "stateMutability": "view",
      "type": "function",
      "constant": true
    }
  ],
  "bytecode": "0x608060405234801561001057600080fd5b506112e2806100206000396000f3fe608060405234801561001057600080fd5b506004361061007f576000357c01000000000000000000000000000000000000000000000000000000009004806309e6baf1146100845780634864810d146100a25780639c6d0d78146100d2578063b084c84114610107578063bf7b640414610125578063f422bc6814610155575b600080fd5b61008c61018c565b6040516100999190610924565b60405180910390f35b6100bc60048036038101906100b79190610acc565b610221565b6040516100c99190610b66565b60405180910390f35b6100ec60048036038101906100e79190610b81565b610492565b6040516100fe96959493929190610c6e565b60405180910390f35b61010f6106af565b60405161011c9190610b66565b60405180910390f35b61013f600480360381019061013a9190610b81565b6106b5565b60405161014c9190610cf8565b60405180910390f35b61016f600480360381019061016a9190610b81565b6106d7565b604051610183989796959493929190610d13565b60405180910390f35b6060600260003373ffffffffffffffffffffffffffffffffffffffff1673ffffffffffffffffffffffffffffffffffffffff16815260200190815260200160002080548060200260200160405190810160405280929190818152602001828054801561021757602002820191906000526020600020905b815481526020019060010190808311610203575b5050505050905090565b6000808211610265576040517f08c379a000000000000000000000000000000000000000000000000000000000815260040161025c90610e11565b60405180910390fd5b60405180610100016040528060005481526020018581526020013373ffffffffffffffffffffffffffffffffffffffff1681526020018481526020016000815260200160001515815260200142815260200183426102c39190610e60565b81525060016000805481526020019081526020016000206000820151816000015560208201518160010190816102f991906110a6565b5060408201518160020160006101000a81548173ffffffffffffffffffffffffffffffffffffffff021916908373ffffffffffffffffffffffffffffffffffffffff160217905550606082015181600301908161035691906110a6565b506080820151816004015560a08201518160050160006101000a81548160ff02191690831515021790555060c0820151816006015560e08201518160070155905050600260003373ffffffffffffffffffffffffffffffffffffffff1673ffffffffffffffffffffffffffffffffffffffff168152602001908152602001600020600054908060018154018082558091505060019003906000526020600020016000909190919091505560008081548092919061041290611178565b91905055503373ffffffffffffffffffffffffffffffffffffffff167ffe35dd0a2a2b1a13a2ecfe9e9714cbb3430db7ca9c258e25e74ba7c432721fbb600160005461045e91906111c0565b86866000804289426104709190610e60565b604051610483979695949392919061122f565b60405180910390a29392505050565b60006060806000806000806001600089815260200190815260200160002060405180610100016040529081600082015481526020016001820180546104d690610ec3565b80601f016020809104026020016040519081016040528092919081815260200182805461050290610ec3565b801561054f5780601f106105245761010080835404028352916020019161054f565b820191906000526020600020905b81548152906001019060200180831161053257829003601f168201915b505050505081526020016002820160009054906101000a900473ffffffffffffffffffffffffffffffffffffffff1673ffffffffffffffffffffffffffffffffffffffff1673ffffffffffffffffffffffffffffffffffffffff1681526020016003820180546105be90610ec3565b80601f01602080910402602001604051908101604052809291908181526020018280546105ea90610ec3565b80156106375780601f1061060c57610100808354040283529160200191610637565b820191906000526020600020905b81548152906001019060200180831161061a57829003601f168201915b50505050508152602001600482015481526020016005820160009054906101000a900460ff1615151515815260200160068201548152602001600782015481525050905080600001518160200151826060015183604001518460c001518560e001519650965096509650965096505091939550919395565b60005481565b6000600160008381526020019081526020016000206007015442119050919050565b600160205280600052604060002060009150905080600001549080600101805461070090610ec3565b80601f016020809104026020016040519081016040528092919081815260200182805461072c90610ec3565b80156107795780601f1061074e57610100808354040283529160200191610779565b820191906000526020600020905b81548152906001019060200180831161075c57829003601f168201915b5050505050908060020160009054906101000a900473ffffffffffffffffffffffffffffffffffffffff16908060030180546107b490610ec3565b80601f01602080910402602001604051908101604052809291908181526020018280546107e090610ec3565b801561082d5780601f106108025761010080835404028352916020019161082d565b820191906000526020600020905b81548152906001019060200180831161081057829003601f168201915b5050505050908060040154908060050160009054906101000a900460ff16908060060154908060070154905088565b600081519050919050565b600082825260208201905092915050565b6000819050602082019050919050565b6000819050919050565b61089b81610888565b82525050565b60006108ad8383610892565b60208301905092915050565b6000602082019050919050565b60006108d18261085c565b6108db8185610867565b93506108e683610878565b8060005b838110156109175781516108fe88826108a1565b9750610909836108b9565b9250506001810190506108ea565b5085935050505092915050565b6000602082019050818103600083015261093e81846108c6565b905092915050565b6000604051905090565b600080fd5b600080fd5b600080fd5b600080fd5b6000601f19601f8301169050919050565b7f4e487b7100000000000000000000000000000000000000000000000000000000600052604160045260246000fd5b6109ad82610964565b810181811067ffffffffffffffff821117156109cc576109cb610975565b5b80604052505050565b60006109df610946565b90506109eb82826109a4565b919050565b600067ffffffffffffffff821115610a0b57610a0a610975565b5b610a1482610964565b9050602081019050919050565b82818337600083830152505050565b6000610a43610a3e846109f0565b6109d5565b905082815260208101848484011115610a5f57610a5e61095f565b5b610a6a848285610a21565b509392505050565b600082601f830112610a8757610a8661095a565b5b8135610a97848260208601610a30565b91505092915050565b610aa981610888565b8114610ab457600080fd5b50565b600081359050610ac681610aa0565b92915050565b600080600060608486031215610ae557610ae4610950565b5b600084013567ffffffffffffffff811115610b0357610b02610955565b5b610b0f86828701610a72565b935050602084013567ffffffffffffffff811115610b3057610b2f610955565b5b610b3c86828701610a72565b9250506040610b4d86828701610ab7565b9150509250925092565b610b6081610888565b82525050565b6000602082019050610b7b6000830184610b57565b92915050565b600060208284031215610b9757610b96610950565b5b6000610ba584828501610ab7565b91505092915050565b600081519050919050565b600082825260208201905092915050565b60005b83811015610be8578082015181840152602081019050610bcd565b60008484015250505050565b6000610bff82610bae565b610c098185610bb9565b9350610c19818560208601610bca565b610c2281610964565b840191505092915050565b600073ffffffffffffffffffffffffffffffffffffffff82169050919050565b6000610c5882610c2d565b9050919050565b610c6881610c4d565b82525050565b600060c082019050610c836000830189610b57565b8181036020830152610c958188610bf4565b90508181036040830152610ca98187610bf4565b9050610cb86060830186610c5f565b610cc56080830185610b57565b610cd260a0830184610b57565b979650505050505050565b60008115159050919050565b610cf281610cdd565b82525050565b6000602082019050610d0d6000830184610ce9565b92915050565b600061010082019050610d29600083018b610b57565b8181036020830152610d3b818a610bf4565b9050610d4a6040830189610c5f565b8181036060830152610d5c8188610bf4565b9050610d6b6080830187610b57565b610d7860a0830186610ce9565b610d8560c0830185610b57565b610d9260e0830184610b57565b9998505050505050505050565b7f4475726174696f6e206d7573742062652067726561746572207468616e207a6560008201527f726f000000000000000000000000000000000000000000000000000000000000602082015250565b6000610dfb602283610bb9565b9150610e0682610d9f565b604082019050919050565b60006020820190508181036000830152610e2a81610dee565b9050919050565b7f4e487b7100000000000000000000000000000000000000000000000000000000600052601160045260246000fd5b6000610e6b82610888565b9150610e7683610888565b9250828201905080821115610e8e57610e8d610e31565b5b92915050565b7f4e487b7100000000000000000000000000000000000000000000000000000000600052602260045260246000fd5b60006002820490506001821680610edb57607f821691505b602082108103610eee57610eed610e94565b5b50919050565b60008190508160005260206000209050919050565b60006020601f8301049050919050565b60008160020a8302905092915050565b600060088302610f597fffffffffffffffffffffffffffffffffffffffffffffffffffffffffffffffff82610f19565b610f638683610f19565b95508019841693508086168417925050509392505050565b6000819050919050565b6000610fa0610f9b610f9684610888565b610f7b565b610888565b9050919050565b6000819050919050565b610fba83610f85565b610fce610fc682610fa7565b848454610f29565b825550505050565b600090565b610fe3610fd6565b610fee818484610fb1565b505050565b5b8181101561101257611007600082610fdb565b600181019050610ff4565b5050565b601f8211156110575761102881610ef4565b61103184610f09565b81016020851015611040578190505b61105461104c85610f09565b830182610ff3565b50505b505050565b60008160020a8304905092915050565b600061107d6000198460080261105c565b1980831691505092915050565b6000611096838361106c565b9150826002028217905092915050565b6110af82610bae565b67ffffffffffffffff8111156110c8576110c7610975565b5b6110d28254610ec3565b6110dd828285611016565b600060209050601f83116001811461111057600084156110fe578287015190505b611108858261108a565b865550611170565b601f19841661111e86610ef4565b60005b8281101561114657848901518255600182019150602085019450602081019050611121565b86831015611163578489015161115f601f89168261106c565b8355505b6001600288020188555050505b505050505050565b600061118382610888565b91507fffffffffffffffffffffffffffffffffffffffffffffffffffffffffffffffff82036111b5576111b4610e31565b5b600182019050919050565b60006111cb82610888565b91506111d683610888565b92508282039050818111156111ee576111ed610e31565b5b92915050565b6000819050919050565b600061121961121461120f846111f4565b610f7b565b610888565b9050919050565b611229816111fe565b82525050565b600060e082019050611244600083018a610b57565b81810360208301526112568189610bf4565b9050818103604083015261126a8188610bf4565b90506112796060830187611220565b6112866080830186610ce9565b61129360a0830185610b57565b6112a060c0830184610b57565b9897505050505050505056fea26469706673582212205fb1f0e6f9d5ba18dbf61c0a26f26a72278d083ec30e0c3b5b3e16f1b553f73764736f6c63430008150033",
  "immutableReferences": {},
  "source": "// SPDX-License-Identifier: MIT\r\npragma solidity ^0.8.0;\r\n\r\nimport \"./PatentBase.sol\";  // \r\n\r\ncontract PatentRegistry is PatentBase {\r\n    // \r\n     event PatentRegistered(\r\n        uint256 patentId,\r\n        string name,\r\n        address indexed owner,\r\n        string description,\r\n        uint256 price,\r\n        bool isForSale,\r\n        uint256 registrationTime,\r\n        uint256 expiryTime\r\n    );\r\n\r\n    mapping(address => uint256[]) private userPatents; //  => ID\r\n\r\n    function registerPatent(\r\n        string memory name,\r\n        string memory description,\r\n        uint256 duration\r\n    ) public returns (uint256) {\r\n        // require(patents[patentCount].patentId == 0, \"Patent ID already exists\");\r\n        require(duration > 0, \"Duration must be greater than zero\");\r\n\r\n        // \r\n        patents[patentCount] = Patent({\r\n            patentId: patentCount,\r\n            patentName: name,              // \r\n            currentOwner: msg.sender,      // \r\n            description: description,      // \r\n            price: 0,                  // \r\n            isForSale: false,          // \r\n            registrationTime: block.timestamp,  // \r\n            expiryTime: block.timestamp + duration  // \r\n        });\r\n\r\n        userPatents[msg.sender].push(patentCount);\r\n        patentCount++;\r\n\r\n        // \r\n        emit PatentRegistered(\r\n            patentCount - 1,\r\n            name,\r\n            msg.sender,\r\n            description,\r\n            0,\r\n            false,\r\n            block.timestamp,\r\n            block.timestamp + duration\r\n        );\r\n    }\r\n\r\n    // \r\n    function getPatent(uint256 patentId) public view returns (\r\n        uint256,\r\n        string memory,\r\n        string memory,\r\n        address,\r\n        uint256,\r\n        uint256\r\n    ) {\r\n        // require(patents[patentId].patentId != 0, \"Patent does not exist\");\r\n\r\n        Patent memory patent = patents[patentId];\r\n        return (\r\n            patent.patentId,\r\n            patent.patentName,\r\n            patent.description,\r\n            patent.currentOwner,\r\n            patent.registrationTime,\r\n            patent.expiryTime\r\n        );\r\n    }\r\n\r\n    // \r\n    function isPatentExpired(uint256 patentId) public view returns (bool) {\r\n        // require(patents[patentId].patentId != 0, \"Patent does not exist\");\r\n\r\n        return block.timestamp > patents[patentId].expiryTime;\r\n    }\r\n\r\n    // ID\r\n    function getUserPatents() public view returns (uint256[] memory) {\r\n        return userPatents[msg.sender];\r\n    }\r\n}\r\n",
  "sourcePath": "/Users/ethan/Education/Blockchain/patent-dapp/contracts/PatentRegistry.sol",
  "compiler": {
    "name": "solc",
    "version": "0.8.21+commit.d9974bed.Emscripten.clang"
  },
  "schemaVersion": "3.4.16",
  "updatedAt": "2024-12-21T08:44:32.049Z",
  "networkType": "ethereum",
  "devdoc": {
    "kind": "dev",
    "methods": {},
    "version": 1
  },
  "userdoc": {
    "kind": "user",
    "methods": {},
    "version": 1
  }
}