{
  "contractName": "PatentRegistry",
  "abi": [
    {
      "anonymous": false,
      "inputs": [
        {
          "indexed": true,
          "internalType": "uint256",
          "name": "patentId",
          "type": "uint256"
        },
        {
          "indexed": true,
          "internalType": "address",
          "name": "infringer",
          "type": "address"
        }
      ],
      "name": "LegalActionTriggered",
      "type": "event"
    },
    {
      "anonymous": false,
      "inputs": [
        {
          "indexed": true,
          "internalType": "uint256",
          "name": "patentId",
          "type": "uint256"
        },
        {
          "indexed": true,
          "internalType": "address",
          "name": "user",
          "type": "address"
        }
      ],
      "name": "PatentAuthorizationRejected",
      "type": "event"
    },
    {
      "anonymous": false,
      "inputs": [
        {
          "indexed": true,
          "internalType": "uint256",
          "name": "patentId",
          "type": "uint256"
        },
        {
          "indexed": true,
          "internalType": "address",
          "name": "applicant",
          "type": "address"
        }
      ],
      "name": "PatentAuthorizationRequested",
      "type": "event"
    },
    {
      "anonymous": false,
      "inputs": [
        {
          "indexed": true,
          "internalType": "uint256",
          "name": "patentId",
          "type": "uint256"
        },
        {
          "indexed": true,
          "internalType": "address",
          "name": "user",
          "type": "address"
        }
      ],
      "name": "PatentAuthorized",
      "type": "event"
    },
    {
      "anonymous": false,
      "inputs": [
        {
          "indexed": true,
          "internalType": "uint256",
          "name": "patentId",
          "type": "uint256"
        },
        {
          "indexed": true,
          "internalType": "address",
          "name": "infringer",
          "type": "address"
        }
      ],
      "name": "PatentInfringementDetected",
      "type": "event"
    },
    {
      "anonymous": false,
      "inputs": [
        {
          "indexed": true,
          "internalType": "uint256",
          "name": "patentId",
          "type": "uint256"
        },
        {
          "indexed": false,
          "internalType": "string",
          "name": "name",
          "type": "string"
        },
        {
          "indexed": true,
          "internalType": "address",
          "name": "owner",
          "type": "address"
        }
      ],
      "name": "PatentListed",
      "type": "event"
    },
    {
      "anonymous": false,
      "inputs": [
        {
          "indexed": false,
          "internalType": "uint256",
          "name": "patentId",
          "type": "uint256"
        },
        {
          "indexed": false,
          "internalType": "string",
          "name": "name",
          "type": "string"
        },
        {
          "indexed": true,
          "internalType": "address",
          "name": "owner",
          "type": "address"
        },
        {
          "indexed": false,
          "internalType": "string",
          "name": "description",
          "type": "string"
        },
        {
          "indexed": false,
          "internalType": "uint256",
          "name": "price",
          "type": "uint256"
        },
        {
          "indexed": false,
          "internalType": "bool",
          "name": "isForSale",
          "type": "bool"
        },
        {
          "indexed": false,
          "internalType": "uint256",
          "name": "registrationTime",
          "type": "uint256"
        },
        {
          "indexed": false,
          "internalType": "uint256",
          "name": "expiryTime",
          "type": "uint256"
        }
      ],
      "name": "PatentRegistered",
      "type": "event"
    },
    {
      "anonymous": false,
      "inputs": [
        {
          "indexed": true,
          "internalType": "uint256",
          "name": "patentId",
          "type": "uint256"
        },
        {
          "indexed": false,
          "internalType": "string",
          "name": "name",
          "type": "string"
        },
        {
          "indexed": true,
          "internalType": "address",
          "name": "previousOwner",
          "type": "address"
        },
        {
          "indexed": true,
          "internalType": "address",
          "name": "newOwner",
          "type": "address"
        },
        {
          "indexed": false,
          "internalType": "uint256",
          "name": "price",
          "type": "uint256"
        }
      ],
      "name": "PatentSold",
      "type": "event"
    },
    {
      "anonymous": false,
      "inputs": [
        {
          "indexed": false,
          "internalType": "uint256",
          "name": "patentId",
          "type": "uint256"
        },
        {
          "indexed": false,
          "internalType": "address",
          "name": "user",
          "type": "address"
        },
        {
          "indexed": false,
          "internalType": "uint256",
          "name": "useTime",
          "type": "uint256"
        }
      ],
      "name": "PatentUsed",
      "type": "event"
    },
    {
      "inputs": [
        {
          "internalType": "uint256",
          "name": "",
          "type": "uint256"
        },
        {
          "internalType": "uint256",
          "name": "",
          "type": "uint256"
        }
      ],
      "name": "authorizationRequests",
      "outputs": [
        {
          "internalType": "address",
          "name": "applicant",
          "type": "address"
        },
        {
          "internalType": "uint256",
          "name": "patentId",
          "type": "uint256"
        },
        {
          "internalType": "uint256",
          "name": "requestTime",
          "type": "uint256"
        },
        {
          "internalType": "bool",
          "name": "approved",
          "type": "bool"
        }
      ],
      "stateMutability": "view",
      "type": "function",
      "constant": true
    },
    {
      "inputs": [
        {
          "internalType": "uint256",
          "name": "",
          "type": "uint256"
        },
        {
          "internalType": "address",
          "name": "",
          "type": "address"
        }
      ],
      "name": "authorizedUsers",
      "outputs": [
        {
          "internalType": "bool",
          "name": "",
          "type": "bool"
        }
      ],
      "stateMutability": "view",
      "type": "function",
      "constant": true
    },
    {
      "inputs": [],
      "name": "patentCount",
      "outputs": [
        {
          "internalType": "uint256",
          "name": "",
          "type": "uint256"
        }
      ],
      "stateMutability": "view",
      "type": "function",
      "constant": true
    },
    {
      "inputs": [
        {
          "internalType": "uint256",
          "name": "",
          "type": "uint256"
        }
      ],
      "name": "patents",
      "outputs": [
        {
          "internalType": "uint256",
          "name": "patentId",
          "type": "uint256"
        },
        {
          "internalType": "string",
          "name": "patentName",
          "type": "string"
        },
        {
          "internalType": "address",
          "name": "currentOwner",
          "type": "address"
        },
        {
          "internalType": "string",
          "name": "description",
          "type": "string"
        },
        {
          "internalType": "uint256",
          "name": "price",
          "type": "uint256"
        },
        {
          "internalType": "bool",
          "name": "isForSale",
          "type": "bool"
        },
        {
          "internalType": "uint256",
          "name": "registrationTime",
          "type": "uint256"
        },
        {
          "internalType": "uint256",
          "name": "expiryTime",
          "type": "uint256"
        }
      ],
      "stateMutability": "view",
      "type": "function",
      "constant": true
    },
    {
      "inputs": [
        {
          "internalType": "uint256",
          "name": "",
          "type": "uint256"
        },
        {
          "internalType": "uint256",
          "name": "",
          "type": "uint256"
        }
      ],
      "name": "useRecords",
      "outputs": [
        {
          "internalType": "uint256",
          "name": "patentId",
          "type": "uint256"
        },
        {
          "internalType": "address",
          "name": "user",
          "type": "address"
        },
        {
          "internalType": "uint256",
          "name": "useTime",
          "type": "uint256"
        },
        {
          "internalType": "bool",
          "name": "isAuthorized",
          "type": "bool"
        }
      ],
      "stateMutability": "view",
      "type": "function",
      "constant": true
    },
    {
      "inputs": [
        {
          "internalType": "address",
          "name": "",
          "type": "address"
        },
        {
          "internalType": "uint256",
          "name": "",
          "type": "uint256"
        }
      ],
      "name": "userPatents",
      "outputs": [
        {
          "internalType": "uint256",
          "name": "",
          "type": "uint256"
        }
      ],
      "stateMutability": "view",
      "type": "function",
      "constant": true
    },
    {
      "inputs": [
        {
          "internalType": "string",
          "name": "name",
          "type": "string"
        },
        {
          "internalType": "string",
          "name": "description",
          "type": "string"
        },
        {
          "internalType": "uint256",
          "name": "duration",
          "type": "uint256"
        },
        {
          "internalType": "uint256",
          "name": "price",
          "type": "uint256"
        }
      ],
      "name": "registerPatent",
      "outputs": [
        {
          "internalType": "uint256",
          "name": "",
          "type": "uint256"
        }
      ],
      "stateMutability": "nonpayable",
      "type": "function"
    },
    {
      "inputs": [
        {
          "internalType": "uint256",
          "name": "patentId",
          "type": "uint256"
        }
      ],
      "name": "getPatent",
      "outputs": [
        {
          "internalType": "uint256",
          "name": "",
          "type": "uint256"
        },
        {
          "internalType": "string",
          "name": "",
          "type": "string"
        },
        {
          "internalType": "string",
          "name": "",
          "type": "string"
        },
        {
          "internalType": "address",
          "name": "",
          "type": "address"
        },
        {
          "internalType": "uint256",
          "name": "",
          "type": "uint256"
        },
        {
          "internalType": "uint256",
          "name": "",
          "type": "uint256"
        },
        {
          "internalType": "uint256",
          "name": "",
          "type": "uint256"
        }
      ],
      "stateMutability": "view",
      "type": "function",
      "constant": true
    },
    {
      "inputs": [
        {
          "internalType": "uint256",
          "name": "patentId",
          "type": "uint256"
        }
      ],
      "name": "isPatentExpired",
      "outputs": [
        {
          "internalType": "bool",
          "name": "",
          "type": "bool"
        }
      ],
      "stateMutability": "view",
      "type": "function",
      "constant": true
    },
    {
      "inputs": [],
      "name": "getUserPatents",
      "outputs": [
        {
          "internalType": "uint256[]",
          "name": "",
          "type": "uint256[]"
        }
      ],
      "stateMutability": "view",
      "type": "function",
      "constant": true
    },
    {
      "inputs": [
        {
          "internalType": "uint256",
          "name": "patentId",
          "type": "uint256"
        }
      ],
      "name": "listForSale",
      "outputs": [],
      "stateMutability": "nonpayable",
      "type": "function"
    },
    {
      "inputs": [
        {
          "internalType": "uint256",
          "name": "patentId",
          "type": "uint256"
        }
      ],
      "name": "buyPatent",
      "outputs": [],
      "stateMutability": "payable",
      "type": "function",
      "payable": true
    },
    {
      "inputs": [
        {
          "internalType": "uint256",
          "name": "patentId",
          "type": "uint256"
        },
        {
          "internalType": "address",
          "name": "user",
          "type": "address"
        }
      ],
      "name": "canApplyForAuthorization",
      "outputs": [
        {
          "internalType": "bool",
          "name": "",
          "type": "bool"
        }
      ],
      "stateMutability": "view",
      "type": "function",
      "constant": true
    },
    {
      "inputs": [
        {
          "internalType": "uint256",
          "name": "patentId",
          "type": "uint256"
        }
      ],
      "name": "requestPatentAuthorization",
      "outputs": [],
      "stateMutability": "nonpayable",
      "type": "function"
    },
    {
      "inputs": [
        {
          "internalType": "uint256",
          "name": "patentId",
          "type": "uint256"
        },
        {
          "internalType": "address",
          "name": "user",
          "type": "address"
        }
      ],
      "name": "approveAuthorization",
      "outputs": [],
      "stateMutability": "nonpayable",
      "type": "function"
    },
    {
      "inputs": [
        {
          "internalType": "uint256",
          "name": "patentId",
          "type": "uint256"
        },
        {
          "internalType": "address",
          "name": "user",
          "type": "address"
        }
      ],
      "name": "rejectAuthorization",
      "outputs": [],
      "stateMutability": "nonpayable",
      "type": "function"
    },
    {
      "inputs": [
        {
          "internalType": "uint256",
          "name": "patentId",
          "type": "uint256"
        }
      ],
      "name": "usePatent",
      "outputs": [],
      "stateMutability": "nonpayable",
      "type": "function"
    },
    {
      "inputs": [
        {
          "internalType": "address",
          "name": "user",
          "type": "address"
        }
      ],
      "name": "getOwnedPatentsUseRecords",
      "outputs": [
        {
          "components": [
            {
              "internalType": "uint256",
              "name": "patentId",
              "type": "uint256"
            },
            {
              "internalType": "address",
              "name": "user",
              "type": "address"
            },
            {
              "internalType": "uint256",
              "name": "useTime",
              "type": "uint256"
            },
            {
              "internalType": "bool",
              "name": "isAuthorized",
              "type": "bool"
            }
          ],
          "internalType": "struct PatentRegistry.UseRecord[]",
          "name": "",
          "type": "tuple[]"
        }
      ],
      "stateMutability": "view",
      "type": "function",
      "constant": true
    },
    {
      "inputs": [
        {
          "internalType": "uint256",
          "name": "patentId",
          "type": "uint256"
        },
        {
          "internalType": "address",
          "name": "user",
          "type": "address"
        }
      ],
      "name": "detectIllegalUse",
      "outputs": [
        {
          "internalType": "bool",
          "name": "",
          "type": "bool"
        }
      ],
      "stateMutability": "view",
      "type": "function",
      "constant": true
    },
    {
      "inputs": [
        {
          "internalType": "uint256",
          "name": "patentId",
          "type": "uint256"
        },
        {
          "internalType": "address",
          "name": "infringer",
          "type": "address"
        }
      ],
      "name": "triggerInfringementWarning",
      "outputs": [],
      "stateMutability": "nonpayable",
      "type": "function"
    },
    {
      "inputs": [
        {
          "internalType": "uint256",
          "name": "patentId",
          "type": "uint256"
        }
      ],
      "name": "getPatentInfo",
      "outputs": [
        {
          "components": [
            {
              "internalType": "uint256",
              "name": "patentId",
              "type": "uint256"
            },
            {
              "internalType": "string",
              "name": "patentName",
              "type": "string"
            },
            {
              "internalType": "address",
              "name": "currentOwner",
              "type": "address"
            },
            {
              "internalType": "string",
              "name": "description",
              "type": "string"
            },
            {
              "internalType": "uint256",
              "name": "price",
              "type": "uint256"
            },
            {
              "internalType": "bool",
              "name": "isForSale",
              "type": "bool"
            },
            {
              "internalType": "uint256",
              "name": "registrationTime",
              "type": "uint256"
            },
            {
              "internalType": "uint256",
              "name": "expiryTime",
              "type": "uint256"
            }
          ],
          "internalType": "struct PatentBase.Patent",
          "name": "",
          "type": "tuple"
        }
      ],
      "stateMutability": "view",
      "type": "function",
      "constant": true
    },
    {
      "inputs": [
        {
          "internalType": "uint256",
          "name": "patentId",
          "type": "uint256"
        }
      ],
      "name": "isPatentForSale",
      "outputs": [
        {
          "internalType": "bool",
          "name": "",
          "type": "bool"
        }
      ],
      "stateMutability": "view",
      "type": "function",
      "constant": true
    },
    {
      "inputs": [
        {
          "internalType": "uint256",
          "name": "patentId",
          "type": "uint256"
        },
        {
          "internalType": "address",
          "name": "user",
          "type": "address"
        }
      ],
      "name": "isAuthorizedUser",
      "outputs": [
        {
          "internalType": "bool",
          "name": "",
          "type": "bool"
        }
      ],
      "stateMutability": "view",
      "type": "function",
      "constant": true
    },
    {
      "inputs": [
        {
          "internalType": "address",
          "name": "user",
          "type": "address"
        }
      ],
      "name": "fetchMarketPatents",
      "outputs": [
        {
          "components": [
            {
              "internalType": "uint256",
              "name": "patentId",
              "type": "uint256"
            },
            {
              "internalType": "string",
              "name": "patentName",
              "type": "string"
            },
            {
              "internalType": "address",
              "name": "currentOwner",
              "type": "address"
            },
            {
              "internalType": "string",
              "name": "description",
              "type": "string"
            },
            {
              "internalType": "uint256",
              "name": "price",
              "type": "uint256"
            },
            {
              "internalType": "bool",
              "name": "isForSale",
              "type": "bool"
            },
            {
              "internalType": "uint256",
              "name": "registrationTime",
              "type": "uint256"
            },
            {
              "internalType": "uint256",
              "name": "expiryTime",
              "type": "uint256"
            }
          ],
          "internalType": "struct PatentBase.Patent[]",
          "name": "",
          "type": "tuple[]"
        }
      ],
      "stateMutability": "view",
      "type": "function",
      "constant": true
    },
    {
      "inputs": [],
      "name": "fetchPatentsCanSale",
      "outputs": [
        {
          "components": [
            {
              "internalType": "uint256",
              "name": "patentId",
              "type": "uint256"
            },
            {
              "internalType": "string",
              "name": "patentName",
              "type": "string"
            },
            {
              "internalType": "address",
              "name": "currentOwner",
              "type": "address"
            },
            {
              "internalType": "string",
              "name": "description",
              "type": "string"
            },
            {
              "internalType": "uint256",
              "name": "price",
              "type": "uint256"
            },
            {
              "internalType": "bool",
              "name": "isForSale",
              "type": "bool"
            },
            {
              "internalType": "uint256",
              "name": "registrationTime",
              "type": "uint256"
            },
            {
              "internalType": "uint256",
              "name": "expiryTime",
              "type": "uint256"
            }
          ],
          "internalType": "struct PatentBase.Patent[]",
          "name": "",
          "type": "tuple[]"
        }
      ],
      "stateMutability": "view",
      "type": "function",
      "constant": true
    }
  ],
  "bytecode": "0x608060405234801561001057600080fd5b50614358806100206000396000f3fe608060405260043610610183576000357c0100000000000000000000000000000000000000000000000000000000900480639c6d0d78116100ee578063bf7b6404116100a7578063cdba68b911610081578063cdba68b9146105ee578063f1d908dd1461062b578063f422bc6814610654578063fdc4294f1461069857610183565b8063bf7b64041461054b578063c5cf911314610588578063c7857fb5146105c557610183565b80639c6d0d78146103fd578063a1ab74b914610440578063a20b7d1b1461047d578063a5663a9f146104a6578063b084c841146104e3578063b735a3ff1461050e57610183565b806357cbe3cf1161014057806357cbe3cf146102a057806361d38b17146102dd5780636cd5ae3414610306578063763d19d4146103435780638c20cc4d1461038357806395aa3590146103c057610183565b806309e6baf114610188578063130772d3146101b357806313b356ad146101de5780631c1bff89146101fa5780632807745f14610223578063540ce76b14610263575b600080fd5b34801561019457600080fd5b5061019d6106c1565b6040516101aa9190612de3565b60405180910390f35b3480156101bf57600080fd5b506101c8610756565b6040516101d5919061306a565b60405180910390f35b6101f860048036038101906101f391906130cc565b610b43565b005b34801561020657600080fd5b50610221600480360381019061021c9190613125565b610d92565b005b34801561022f57600080fd5b5061024a60048036038101906102459190613165565b61108d565b60405161025a94939291906131d2565b60405180910390f35b34801561026f57600080fd5b5061028a60048036038101906102859190613217565b611107565b6040516102979190613348565b60405180910390f35b3480156102ac57600080fd5b506102c760048036038101906102c29190613217565b6113b6565b6040516102d4919061306a565b60405180910390f35b3480156102e957600080fd5b5061030460048036038101906102ff9190613125565b611789565b005b34801561031257600080fd5b5061032d600480360381019061032891906130cc565b611a1b565b60405161033a9190613421565b60405180910390f35b34801561034f57600080fd5b5061036a60048036038101906103659190613165565b611c06565b60405161037a9493929190613443565b60405180910390f35b34801561038f57600080fd5b506103aa60048036038101906103a59190613125565b611c80565b6040516103b79190613488565b60405180910390f35b3480156103cc57600080fd5b506103e760048036038101906103e291906134a3565b611d5a565b6040516103f491906134e3565b60405180910390f35b34801561040957600080fd5b50610424600480360381019061041f91906130cc565b611d8b565b6040516104379796959493929190613548565b60405180910390f35b34801561044c57600080fd5b50610467600480360381019061046291906130cc565b611fb3565b6040516104749190613488565b60405180910390f35b34801561048957600080fd5b506104a4600480360381019061049f91906130cc565b611fe0565b005b3480156104b257600080fd5b506104cd60048036038101906104c89190613125565b612210565b6040516104da9190613488565b60405180910390f35b3480156104ef57600080fd5b506104f861223f565b60405161050591906134e3565b60405180910390f35b34801561051a57600080fd5b5061053560048036038101906105309190613125565b612245565b6040516105429190613488565b60405180910390f35b34801561055757600080fd5b50610572600480360381019061056d91906130cc565b612362565b60405161057f9190613488565b60405180910390f35b34801561059457600080fd5b506105af60048036038101906105aa91906136fa565b612384565b6040516105bc91906134e3565b60405180910390f35b3480156105d157600080fd5b506105ec60048036038101906105e791906130cc565b6125f5565b005b3480156105fa57600080fd5b5061061560048036038101906106109190613125565b612769565b6040516106229190613488565b60405180910390f35b34801561063757600080fd5b50610652600480360381019061064d91906130cc565b6127d1565b005b34801561066057600080fd5b5061067b600480360381019061067691906130cc565b612a68565b60405161068f989796959493929190613799565b60405180910390f35b3480156106a457600080fd5b506106bf60048036038101906106ba9190613125565b612bed565b005b6060600260003373ffffffffffffffffffffffffffffffffffffffff1673ffffffffffffffffffffffffffffffffffffffff16815260200190815260200160002080548060200260200160405190810160405280929190818152602001828054801561074c57602002820191906000526020600020905b815481526020019060010190808311610738575b5050505050905090565b60606000805b60005481101561081f573373ffffffffffffffffffffffffffffffffffffffff166001600083815260200190815260200160002060020160009054906101000a900473ffffffffffffffffffffffffffffffffffffffff1673ffffffffffffffffffffffffffffffffffffffff161480156107f857506001600082815260200190815260200160002060050160009054906101000a900460ff16155b1561080c57818061080890613854565b9250505b808061081790613854565b91505061075c565b5060008167ffffffffffffffff81111561083c5761083b6135cf565b5b60405190808252806020026020018201604052801561087557816020015b610862612c7e565b81526020019060019003908161085a5790505b5090506000805b600054811015610b39573373ffffffffffffffffffffffffffffffffffffffff166001600083815260200190815260200160002060020160009054906101000a900473ffffffffffffffffffffffffffffffffffffffff1673ffffffffffffffffffffffffffffffffffffffff1614801561091857506001600082815260200190815260200160002060050160009054906101000a900460ff16155b15610b2657600160008281526020019081526020016000206040518061010001604052908160008201548152602001600182018054610956906138cb565b80601f0160208091040260200160405190810160405280929190818152602001828054610982906138cb565b80156109cf5780601f106109a4576101008083540402835291602001916109cf565b820191906000526020600020905b8154815290600101906020018083116109b257829003601f168201915b505050505081526020016002820160009054906101000a900473ffffffffffffffffffffffffffffffffffffffff1673ffffffffffffffffffffffffffffffffffffffff1673ffffffffffffffffffffffffffffffffffffffff168152602001600382018054610a3e906138cb565b80601f0160208091040260200160405190810160405280929190818152602001828054610a6a906138cb565b8015610ab75780601f10610a8c57610100808354040283529160200191610ab7565b820191906000526020600020905b815481529060010190602001808311610a9a57829003601f168201915b50505050508152602001600482015481526020016005820160009054906101000a900460ff1615151515815260200160068201548152602001600782015481525050838381518110610b0c57610b0b6138fc565b5b60200260200101819052508180610b2290613854565b9250505b8080610b3190613854565b91505061087c565b5081935050505090565b60006001600083815260200190815260200160002090508060050160009054906101000a900460ff16610bab576040517f08c379a0000000000000000000000000000000000000000000000000000000008152600401610ba290613977565b60405180910390fd5b8060040154341015610bf2576040517f08c379a0000000000000000000000000000000000000000000000000000000008152600401610be9906139e3565b60405180910390fd5b60008160020160009054906101000a900473ffffffffffffffffffffffffffffffffffffffff169050600260008273ffffffffffffffffffffffffffffffffffffffff1673ffffffffffffffffffffffffffffffffffffffff168152602001908152602001600020805480610c6a57610c69613a03565b5b60019003818190600052602060002001600090559055600260003373ffffffffffffffffffffffffffffffffffffffff1673ffffffffffffffffffffffffffffffffffffffff168152602001908152602001600020839080600181540180825580915050600190039060005260206000200160009091909190915055338260020160006101000a81548173ffffffffffffffffffffffffffffffffffffffff021916908373ffffffffffffffffffffffffffffffffffffffff16021790555060008260050160006101000a81548160ff0219169083151502179055508073ffffffffffffffffffffffffffffffffffffffff166108fc349081150290604051600060405180830381858888f19350505050158015610d8c573d6000803e3d6000fd5b50505050565b3373ffffffffffffffffffffffffffffffffffffffff166001600084815260200190815260200160002060020160009054906101000a900473ffffffffffffffffffffffffffffffffffffffff1673ffffffffffffffffffffffffffffffffffffffff1614610e36576040517f08c379a0000000000000000000000000000000000000000000000000000000008152600401610e2d90613a7e565b60405180910390fd5b6000805b6004600085815260200190815260200160002080549050811015611047578273ffffffffffffffffffffffffffffffffffffffff16600460008681526020019081526020016000208281548110610e9457610e936138fc565b5b906000526020600020906004020160000160009054906101000a900473ffffffffffffffffffffffffffffffffffffffff1673ffffffffffffffffffffffffffffffffffffffff16148015610f2a5750600460008581526020019081526020016000208181548110610f0957610f086138fc565b5b906000526020600020906004020160030160009054906101000a900460ff16155b15611034576001600460008681526020019081526020016000208281548110610f5657610f556138fc565b5b906000526020600020906004020160030160006101000a81548160ff02191690831515021790555060016003600086815260200190815260200160002060008573ffffffffffffffffffffffffffffffffffffffff1673ffffffffffffffffffffffffffffffffffffffff16815260200190815260200160002060006101000a81548160ff0219169083151502179055508273ffffffffffffffffffffffffffffffffffffffff16847f26273e1af82ccbf7153502c23c0b3d69e41c3e2f27a9f6d1472bab8eeb878f3b60405160405180910390a360019150611047565b808061103f90613854565b915050610e3a565b5080611088576040517f08c379a000000000000000000000000000000000000000000000000000000000815260040161107f90613b10565b60405180910390fd5b505050565b600460205281600052604060002081815481106110a957600080fd5b9060005260206000209060040201600091509150508060000160009054906101000a900473ffffffffffffffffffffffffffffffffffffffff16908060010154908060020154908060030160009054906101000a900460ff16905084565b60606000805b6000548110156111a2578373ffffffffffffffffffffffffffffffffffffffff166001600083815260200190815260200160002060020160009054906101000a900473ffffffffffffffffffffffffffffffffffffffff1673ffffffffffffffffffffffffffffffffffffffff160361118f57818061118b90613854565b9250505b808061119a90613854565b91505061110d565b5060008167ffffffffffffffff8111156111bf576111be6135cf565b5b6040519080825280602002602001820160405280156111f857816020015b6111e5612cdb565b8152602001906001900390816111dd5790505b5090506000805b6000548110156113aa578573ffffffffffffffffffffffffffffffffffffffff166001600083815260200190815260200160002060020160009054906101000a900473ffffffffffffffffffffffffffffffffffffffff1673ffffffffffffffffffffffffffffffffffffffff16036113975760005b6005600083815260200190815260200160002080549050811015611395576005600083815260200190815260200160002081815481106112b8576112b76138fc565b5b9060005260206000209060040201604051806080016040529081600082015481526020016001820160009054906101000a900473ffffffffffffffffffffffffffffffffffffffff1673ffffffffffffffffffffffffffffffffffffffff1673ffffffffffffffffffffffffffffffffffffffff168152602001600282015481526020016003820160009054906101000a900460ff161515151581525050848481518110611369576113686138fc565b5b6020026020010181905250828061137f90613854565b935050808061138d90613854565b915050611275565b505b80806113a290613854565b9150506111ff565b50819350505050919050565b6060600080805467ffffffffffffffff8111156113d6576113d56135cf565b5b6040519080825280602002602001820160405280156114045781602001602082028036833780820191505090505b50905060005b60005481116114ec576001600082815260200190815260200160002060050160009054906101000a900460ff1680156114a557508473ffffffffffffffffffffffffffffffffffffffff166001600083815260200190815260200160002060020160009054906101000a900473ffffffffffffffffffffffffffffffffffffffff1673ffffffffffffffffffffffffffffffffffffffff1614155b156114d957808284815181106114be576114bd6138fc565b5b60200260200101818152505082806114d590613854565b9350505b80806114e490613854565b91505061140a565b5060008267ffffffffffffffff811115611509576115086135cf565b5b60405190808252806020026020018201604052801561154257816020015b61152f612c7e565b8152602001906001900390816115275790505b50905060005b8381101561177d576000838281518110611565576115646138fc565b5b602002602001015190506001600082815260200190815260200160002060405180610100016040529081600082015481526020016001820180546115a8906138cb565b80601f01602080910402602001604051908101604052809291908181526020018280546115d4906138cb565b80156116215780601f106115f657610100808354040283529160200191611621565b820191906000526020600020905b81548152906001019060200180831161160457829003601f168201915b505050505081526020016002820160009054906101000a900473ffffffffffffffffffffffffffffffffffffffff1673ffffffffffffffffffffffffffffffffffffffff1673ffffffffffffffffffffffffffffffffffffffff168152602001600382018054611690906138cb565b80601f01602080910402602001604051908101604052809291908181526020018280546116bc906138cb565b80156117095780601f106116de57610100808354040283529160200191611709565b820191906000526020600020905b8154815290600101906020018083116116ec57829003601f168201915b50505050508152602001600482015481526020016005820160009054906101000a900460ff161515151581526020016006820154815260200160078201548152505083838151811061175e5761175d6138fc565b5b602002602001018190525050808061177590613854565b915050611548565b50809350505050919050565b3373ffffffffffffffffffffffffffffffffffffffff166001600084815260200190815260200160002060020160009054906101000a900473ffffffffffffffffffffffffffffffffffffffff1673ffffffffffffffffffffffffffffffffffffffff161461182d576040517f08c379a000000000000000000000000000000000000000000000000000000000815260040161182490613b7c565b60405180910390fd5b6000805b60046000858152602001908152602001600020805490508110156119d5578273ffffffffffffffffffffffffffffffffffffffff1660046000868152602001908152602001600020828154811061188b5761188a6138fc565b5b906000526020600020906004020160000160009054906101000a900473ffffffffffffffffffffffffffffffffffffffff1673ffffffffffffffffffffffffffffffffffffffff161480156119215750600460008581526020019081526020016000208181548110611900576118ff6138fc565b5b906000526020600020906004020160030160009054906101000a900460ff16155b156119c257600060046000868152602001908152602001600020828154811061194d5761194c6138fc565b5b906000526020600020906004020160030160006101000a81548160ff0219169083151502179055508273ffffffffffffffffffffffffffffffffffffffff16847f7f199c4b273ac707d8aaef42f3549b0b7b0293254783ddb899c8e82bbb5bddce60405160405180910390a3600191506119d5565b80806119cd90613854565b915050611831565b5080611a16576040517f08c379a0000000000000000000000000000000000000000000000000000000008152600401611a0d90613b10565b60405180910390fd5b505050565b611a23612c7e565b600160008381526020019081526020016000206040518061010001604052908160008201548152602001600182018054611a5c906138cb565b80601f0160208091040260200160405190810160405280929190818152602001828054611a88906138cb565b8015611ad55780601f10611aaa57610100808354040283529160200191611ad5565b820191906000526020600020905b815481529060010190602001808311611ab857829003601f168201915b505050505081526020016002820160009054906101000a900473ffffffffffffffffffffffffffffffffffffffff1673ffffffffffffffffffffffffffffffffffffffff1673ffffffffffffffffffffffffffffffffffffffff168152602001600382018054611b44906138cb565b80601f0160208091040260200160405190810160405280929190818152602001828054611b70906138cb565b8015611bbd5780601f10611b9257610100808354040283529160200191611bbd565b820191906000526020600020905b815481529060010190602001808311611ba057829003601f168201915b50505050508152602001600482015481526020016005820160009054906101000a900460ff16151515158152602001600682015481526020016007820154815250509050919050565b60056020528160005260406000208181548110611c2257600080fd5b9060005260206000209060040201600091509150508060000154908060010160009054906101000a900473ffffffffffffffffffffffffffffffffffffffff16908060020154908060030160009054906101000a900460ff16905084565b6000806001600085815260200190815260200160002060020160009054906101000a900473ffffffffffffffffffffffffffffffffffffffff1673ffffffffffffffffffffffffffffffffffffffff168373ffffffffffffffffffffffffffffffffffffffff161480611d4d57506003600085815260200190815260200160002060008473ffffffffffffffffffffffffffffffffffffffff1673ffffffffffffffffffffffffffffffffffffffff16815260200190815260200160002060009054906101000a900460ff165b9050801591505092915050565b60026020528160005260406000208181548110611d7657600080fd5b90600052602060002001600091509150505481565b60006060806000806000806000600160008a81526020019081526020016000206040518061010001604052908160008201548152602001600182018054611dd1906138cb565b80601f0160208091040260200160405190810160405280929190818152602001828054611dfd906138cb565b8015611e4a5780601f10611e1f57610100808354040283529160200191611e4a565b820191906000526020600020905b815481529060010190602001808311611e2d57829003601f168201915b505050505081526020016002820160009054906101000a900473ffffffffffffffffffffffffffffffffffffffff1673ffffffffffffffffffffffffffffffffffffffff1673ffffffffffffffffffffffffffffffffffffffff168152602001600382018054611eb9906138cb565b80601f0160208091040260200160405190810160405280929190818152602001828054611ee5906138cb565b8015611f325780601f10611f0757610100808354040283529160200191611f32565b820191906000526020600020905b815481529060010190602001808311611f1557829003601f168201915b50505050508152602001600482015481526020016005820160009054906101000a900460ff1615151515815260200160068201548152602001600782015481525050905080600001518160200151826060015183604001518460c001518560e001518660800151975097509750975097509750975050919395979092949650565b60006001600083815260200190815260200160002060050160009054906101000a900460ff169050919050565b80600160008381526020019081526020016000206000015414612038576040517f08c379a000000000000000000000000000000000000000000000000000000000815260040161202f90613be8565b60405180910390fd5b6003600082815260200190815260200160002060003373ffffffffffffffffffffffffffffffffffffffff1673ffffffffffffffffffffffffffffffffffffffff16815260200190815260200160002060009054906101000a900460ff16156120d6576040517f08c379a00000000000000000000000000000000000000000000000000000000081526004016120cd90613c54565b60405180910390fd5b6004600082815260200190815260200160002060405180608001604052803373ffffffffffffffffffffffffffffffffffffffff16815260200183815260200142815260200160001515815250908060018154018082558091505060019003906000526020600020906004020160009091909190915060008201518160000160006101000a81548173ffffffffffffffffffffffffffffffffffffffff021916908373ffffffffffffffffffffffffffffffffffffffff160217905550602082015181600101556040820151816002015560608201518160030160006101000a81548160ff02191690831515021790555050503373ffffffffffffffffffffffffffffffffffffffff16817fe9e3c8549c5502ab4b191ecaed1656277f749183703fe647e892b34c6cd8b7d160405160405180910390a350565b60036020528160005260406000206020528060005260406000206000915091509054906101000a900460ff1681565b60005481565b60006001600084815260200190815260200160002060020160009054906101000a900473ffffffffffffffffffffffffffffffffffffffff1673ffffffffffffffffffffffffffffffffffffffff168273ffffffffffffffffffffffffffffffffffffffff16036122b9576000905061235c565b6003600084815260200190815260200160002060008373ffffffffffffffffffffffffffffffffffffffff1673ffffffffffffffffffffffffffffffffffffffff16815260200190815260200160002060009054906101000a900460ff1615612325576000905061235c565b6001600084815260200190815260200160002060050160009054906101000a900460ff1615612357576000905061235c565b600190505b92915050565b6000600160008381526020019081526020016000206007015442119050919050565b60008083116123c8576040517f08c379a00000000000000000000000000000000000000000000000000000000081526004016123bf90613ce6565b60405180910390fd5b60405180610100016040528060005481526020018681526020013373ffffffffffffffffffffffffffffffffffffffff16815260200185815260200183815260200160001515815260200142815260200184426124259190613d06565b815250600160008054815260200190815260200160002060008201518160000155602082015181600101908161245b9190613eec565b5060408201518160020160006101000a81548173ffffffffffffffffffffffffffffffffffffffff021916908373ffffffffffffffffffffffffffffffffffffffff16021790555060608201518160030190816124b89190613eec565b506080820151816004015560a08201518160050160006101000a81548160ff02191690831515021790555060c0820151816006015560e08201518160070155905050600260003373ffffffffffffffffffffffffffffffffffffffff1673ffffffffffffffffffffffffffffffffffffffff168152602001908152602001600020600054908060018154018082558091505060019003906000526020600020016000909190919091505560008081548092919061257490613854565b91905055503373ffffffffffffffffffffffffffffffffffffffff167ffe35dd0a2a2b1a13a2ecfe9e9714cbb3430db7ca9c258e25e74ba7c432721fbb60016000546125c09190613fbe565b8787866000428a426125d29190613d06565b6040516125e59796959493929190613ff2565b60405180910390a2949350505050565b60006001600083815260200190815260200160002090503373ffffffffffffffffffffffffffffffffffffffff168160020160009054906101000a900473ffffffffffffffffffffffffffffffffffffffff1673ffffffffffffffffffffffffffffffffffffffff161461269e576040517f08c379a0000000000000000000000000000000000000000000000000000000008152600401612695906140bb565b60405180910390fd5b600015158160050160009054906101000a900460ff161515146126f6576040517f08c379a00000000000000000000000000000000000000000000000000000000081526004016126ed90614127565b60405180910390fd5b60018160050160006101000a81548160ff0219169083151502179055503373ffffffffffffffffffffffffffffffffffffffff16827fffe35e1035e1268e2cc014d1d290e60a0c09ad3a32ef71b88607b1f012cb06ab8360010160405161275d91906141cb565b60405180910390a35050565b60006003600084815260200190815260200160002060008373ffffffffffffffffffffffffffffffffffffffff1673ffffffffffffffffffffffffffffffffffffffff16815260200190815260200160002060009054906101000a900460ff16905092915050565b80600160008381526020019081526020016000206000015414612829576040517f08c379a000000000000000000000000000000000000000000000000000000000815260040161282090613be8565b60405180910390fd5b60006001600083815260200190815260200160002060020160009054906101000a900473ffffffffffffffffffffffffffffffffffffffff1673ffffffffffffffffffffffffffffffffffffffff163373ffffffffffffffffffffffffffffffffffffffff1614806128f557506003600083815260200190815260200160002060003373ffffffffffffffffffffffffffffffffffffffff1673ffffffffffffffffffffffffffffffffffffffff16815260200190815260200160002060009054906101000a900460ff165b90506005600083815260200190815260200160002060405180608001604052808481526020013373ffffffffffffffffffffffffffffffffffffffff16815260200142815260200183151581525090806001815401808255809150506001900390600052602060002090600402016000909190919091506000820151816000015560208201518160010160006101000a81548173ffffffffffffffffffffffffffffffffffffffff021916908373ffffffffffffffffffffffffffffffffffffffff1602179055506040820151816002015560608201518160030160006101000a81548160ff021916908315150217905550505080612a29576040517f08c379a0000000000000000000000000000000000000000000000000000000008152600401612a209061425f565b60405180910390fd5b7fc083bacf997f451c75aafe358644c360f105a04631d5fea550402e38a1c5f76e823342604051612a5c9392919061427f565b60405180910390a15050565b6001602052806000526040600020600091509050806000015490806001018054612a91906138cb565b80601f0160208091040260200160405190810160405280929190818152602001828054612abd906138cb565b8015612b0a5780601f10612adf57610100808354040283529160200191612b0a565b820191906000526020600020905b815481529060010190602001808311612aed57829003601f168201915b5050505050908060020160009054906101000a900473ffffffffffffffffffffffffffffffffffffffff1690806003018054612b45906138cb565b80601f0160208091040260200160405190810160405280929190818152602001828054612b71906138cb565b8015612bbe5780601f10612b9357610100808354040283529160200191612bbe565b820191906000526020600020905b815481529060010190602001808311612ba157829003601f168201915b5050505050908060040154908060050160009054906101000a900460ff16908060060154908060070154905088565b612bf78282611c80565b612c36576040517f08c379a0000000000000000000000000000000000000000000000000000000008152600401612c2d90614302565b60405180910390fd5b8073ffffffffffffffffffffffffffffffffffffffff16827fdfaf16f598115f57c2553188dd0d6de487047f89c9529b994266f45c892b415960405160405180910390a35050565b6040518061010001604052806000815260200160608152602001600073ffffffffffffffffffffffffffffffffffffffff168152602001606081526020016000815260200160001515815260200160008152602001600081525090565b604051806080016040528060008152602001600073ffffffffffffffffffffffffffffffffffffffff168152602001600081526020016000151581525090565b600081519050919050565b600082825260208201905092915050565b6000819050602082019050919050565b6000819050919050565b612d5a81612d47565b82525050565b6000612d6c8383612d51565b60208301905092915050565b6000602082019050919050565b6000612d9082612d1b565b612d9a8185612d26565b9350612da583612d37565b8060005b83811015612dd6578151612dbd8882612d60565b9750612dc883612d78565b925050600181019050612da9565b5085935050505092915050565b60006020820190508181036000830152612dfd8184612d85565b905092915050565b600081519050919050565b600082825260208201905092915050565b6000819050602082019050919050565b600081519050919050565b600082825260208201905092915050565b60005b83811015612e6b578082015181840152602081019050612e50565b60008484015250505050565b6000601f19601f8301169050919050565b6000612e9382612e31565b612e9d8185612e3c565b9350612ead818560208601612e4d565b612eb681612e77565b840191505092915050565b600073ffffffffffffffffffffffffffffffffffffffff82169050919050565b6000612eec82612ec1565b9050919050565b612efc81612ee1565b82525050565b60008115159050919050565b612f1781612f02565b82525050565b600061010083016000830151612f366000860182612d51565b5060208301518482036020860152612f4e8282612e88565b9150506040830151612f636040860182612ef3565b5060608301518482036060860152612f7b8282612e88565b9150506080830151612f906080860182612d51565b5060a0830151612fa360a0860182612f0e565b5060c0830151612fb660c0860182612d51565b5060e0830151612fc960e0860182612d51565b508091505092915050565b6000612fe08383612f1d565b905092915050565b6000602082019050919050565b600061300082612e05565b61300a8185612e10565b93508360208202850161301c85612e21565b8060005b8581101561305857848403895281516130398582612fd4565b945061304483612fe8565b925060208a01995050600181019050613020565b50829750879550505050505092915050565b600060208201905081810360008301526130848184612ff5565b905092915050565b6000604051905090565b600080fd5b600080fd5b6130a981612d47565b81146130b457600080fd5b50565b6000813590506130c6816130a0565b92915050565b6000602082840312156130e2576130e1613096565b5b60006130f0848285016130b7565b91505092915050565b61310281612ee1565b811461310d57600080fd5b50565b60008135905061311f816130f9565b92915050565b6000806040838503121561313c5761313b613096565b5b600061314a858286016130b7565b925050602061315b85828601613110565b9150509250929050565b6000806040838503121561317c5761317b613096565b5b600061318a858286016130b7565b925050602061319b858286016130b7565b9150509250929050565b6131ae81612ee1565b82525050565b6131bd81612d47565b82525050565b6131cc81612f02565b82525050565b60006080820190506131e760008301876131a5565b6131f460208301866131b4565b61320160408301856131b4565b61320e60608301846131c3565b95945050505050565b60006020828403121561322d5761322c613096565b5b600061323b84828501613110565b91505092915050565b600081519050919050565b600082825260208201905092915050565b6000819050602082019050919050565b6080820160008201516132866000850182612d51565b5060208201516132996020850182612ef3565b5060408201516132ac6040850182612d51565b5060608201516132bf6060850182612f0e565b50505050565b60006132d18383613270565b60808301905092915050565b6000602082019050919050565b60006132f582613244565b6132ff818561324f565b935061330a83613260565b8060005b8381101561333b57815161332288826132c5565b975061332d836132dd565b92505060018101905061330e565b5085935050505092915050565b6000602082019050818103600083015261336281846132ea565b905092915050565b6000610100830160008301516133836000860182612d51565b506020830151848203602086015261339b8282612e88565b91505060408301516133b06040860182612ef3565b50606083015184820360608601526133c88282612e88565b91505060808301516133dd6080860182612d51565b5060a08301516133f060a0860182612f0e565b5060c083015161340360c0860182612d51565b5060e083015161341660e0860182612d51565b508091505092915050565b6000602082019050818103600083015261343b818461336a565b905092915050565b600060808201905061345860008301876131b4565b61346560208301866131a5565b61347260408301856131b4565b61347f60608301846131c3565b95945050505050565b600060208201905061349d60008301846131c3565b92915050565b600080604083850312156134ba576134b9613096565b5b60006134c885828601613110565b92505060206134d9858286016130b7565b9150509250929050565b60006020820190506134f860008301846131b4565b92915050565b600082825260208201905092915050565b600061351a82612e31565b61352481856134fe565b9350613534818560208601612e4d565b61353d81612e77565b840191505092915050565b600060e08201905061355d600083018a6131b4565b818103602083015261356f818961350f565b90508181036040830152613583818861350f565b905061359260608301876131a5565b61359f60808301866131b4565b6135ac60a08301856131b4565b6135b960c08301846131b4565b98975050505050505050565b600080fd5b600080fd5b7f4e487b7100000000000000000000000000000000000000000000000000000000600052604160045260246000fd5b61360782612e77565b810181811067ffffffffffffffff82111715613626576136256135cf565b5b80604052505050565b600061363961308c565b905061364582826135fe565b919050565b600067ffffffffffffffff821115613665576136646135cf565b5b61366e82612e77565b9050602081019050919050565b82818337600083830152505050565b600061369d6136988461364a565b61362f565b9050828152602081018484840111156136b9576136b86135ca565b5b6136c484828561367b565b509392505050565b600082601f8301126136e1576136e06135c5565b5b81356136f184826020860161368a565b91505092915050565b6000806000806080858703121561371457613713613096565b5b600085013567ffffffffffffffff8111156137325761373161309b565b5b61373e878288016136cc565b945050602085013567ffffffffffffffff81111561375f5761375e61309b565b5b61376b878288016136cc565b935050604061377c878288016130b7565b925050606061378d878288016130b7565b91505092959194509250565b6000610100820190506137af600083018b6131b4565b81810360208301526137c1818a61350f565b90506137d060408301896131a5565b81810360608301526137e2818861350f565b90506137f160808301876131b4565b6137fe60a08301866131c3565b61380b60c08301856131b4565b61381860e08301846131b4565b9998505050505050505050565b7f4e487b7100000000000000000000000000000000000000000000000000000000600052601160045260246000fd5b600061385f82612d47565b91507fffffffffffffffffffffffffffffffffffffffffffffffffffffffffffffffff820361389157613890613825565b5b600182019050919050565b7f4e487b7100000000000000000000000000000000000000000000000000000000600052602260045260246000fd5b600060028204905060018216806138e357607f821691505b6020821081036138f6576138f561389c565b5b50919050565b7f4e487b7100000000000000000000000000000000000000000000000000000000600052603260045260246000fd5b7f506174656e74206973206e6f7420666f722073616c6500000000000000000000600082015250565b60006139616016836134fe565b915061396c8261392b565b602082019050919050565b6000602082019050818103600083015261399081613954565b9050919050565b7f496e73756666696369656e742066756e647320746f2062757920706174656e74600082015250565b60006139cd6020836134fe565b91506139d882613997565b602082019050919050565b600060208201905081810360008301526139fc816139c0565b9050919050565b7f4e487b7100000000000000000000000000000000000000000000000000000000600052603160045260246000fd5b7f4f6e6c7920746865206f776e65722063616e20617070726f7665000000000000600082015250565b6000613a68601a836134fe565b9150613a7382613a32565b602082019050919050565b60006020820190508181036000830152613a9781613a5b565b9050919050565b7f417574686f72697a6174696f6e2072657175657374206e6f7420666f756e642060008201527f6f7220616c726561647920617070726f76656400000000000000000000000000602082015250565b6000613afa6033836134fe565b9150613b0582613a9e565b604082019050919050565b60006020820190508181036000830152613b2981613aed565b9050919050565b7f4f6e6c7920746865206f776e65722063616e2072656a65637400000000000000600082015250565b6000613b666019836134fe565b9150613b7182613b30565b602082019050919050565b60006020820190508181036000830152613b9581613b59565b9050919050565b7f506174656e7420646f6573206e6f742065786973740000000000000000000000600082015250565b6000613bd26015836134fe565b9150613bdd82613b9c565b602082019050919050565b60006020820190508181036000830152613c0181613bc5565b9050919050565b7f596f752061726520616c726561647920617574686f72697a6564000000000000600082015250565b6000613c3e601a836134fe565b9150613c4982613c08565b602082019050919050565b60006020820190508181036000830152613c6d81613c31565b9050919050565b7f4475726174696f6e206d7573742062652067726561746572207468616e207a6560008201527f726f000000000000000000000000000000000000000000000000000000000000602082015250565b6000613cd06022836134fe565b9150613cdb82613c74565b604082019050919050565b60006020820190508181036000830152613cff81613cc3565b9050919050565b6000613d1182612d47565b9150613d1c83612d47565b9250828201905080821115613d3457613d33613825565b5b92915050565b60008190508160005260206000209050919050565b60006020601f8301049050919050565b60008160020a8302905092915050565b600060088302613d9f7fffffffffffffffffffffffffffffffffffffffffffffffffffffffffffffffff82613d5f565b613da98683613d5f565b95508019841693508086168417925050509392505050565b6000819050919050565b6000613de6613de1613ddc84612d47565b613dc1565b612d47565b9050919050565b6000819050919050565b613e0083613dcb565b613e14613e0c82613ded565b848454613d6f565b825550505050565b600090565b613e29613e1c565b613e34818484613df7565b505050565b5b81811015613e5857613e4d600082613e21565b600181019050613e3a565b5050565b601f821115613e9d57613e6e81613d3a565b613e7784613d4f565b81016020851015613e86578190505b613e9a613e9285613d4f565b830182613e39565b50505b505050565b60008160020a8304905092915050565b6000613ec360001984600802613ea2565b1980831691505092915050565b6000613edc8383613eb2565b9150826002028217905092915050565b613ef582612e31565b67ffffffffffffffff811115613f0e57613f0d6135cf565b5b613f1882546138cb565b613f23828285613e5c565b600060209050601f831160018114613f565760008415613f44578287015190505b613f4e8582613ed0565b865550613fb6565b601f198416613f6486613d3a565b60005b82811015613f8c57848901518255600182019150602085019450602081019050613f67565b86831015613fa95784890151613fa5601f891682613eb2565b8355505b6001600288020188555050505b505050505050565b6000613fc982612d47565b9150613fd483612d47565b9250828203905081811115613fec57613feb613825565b5b92915050565b600060e082019050614007600083018a6131b4565b8181036020830152614019818961350f565b9050818103604083015261402d818861350f565b905061403c60608301876131b4565b61404960808301866131c3565b61405660a08301856131b4565b61406360c08301846131b4565b98975050505050505050565b7f596f7520617265206e6f7420746865206f776e65720000000000000000000000600082015250565b60006140a56015836134fe565b91506140b08261406f565b602082019050919050565b600060208201905081810360008301526140d481614098565b9050919050565b7f506174656e7420697320616c726561647920666f722073616c65000000000000600082015250565b6000614111601a836134fe565b915061411c826140db565b602082019050919050565b6000602082019050818103600083015261414081614104565b9050919050565b60008154614154816138cb565b61415e81866134fe565b94506001821660008114614179576001811461418f576141c2565b60ff1983168652811515602002860193506141c2565b61419885613d3a565b60005b838110156141ba5781548189015260018201915060208101905061419b565b808801955050505b50505092915050565b600060208201905081810360008301526141e58184614147565b905092915050565b7f596f7520646f206e6f742068617665207065726d697373696f6e20746f20757360008201527f65207468697320706174656e7400000000000000000000000000000000000000602082015250565b6000614249602d836134fe565b9150614254826141ed565b604082019050919050565b600060208201905081810360008301526142788161423c565b9050919050565b600060608201905061429460008301866131b4565b6142a160208301856131a5565b6142ae60408301846131b4565b949350505050565b7f4e6f20696e6672696e67656d656e742064657465637465640000000000000000600082015250565b60006142ec6018836134fe565b91506142f7826142b6565b602082019050919050565b6000602082019050818103600083015261431b816142df565b905091905056fea26469706673582212200b30a809a4b28e7a79961809b02c48c8eecb98f861cec3bb4a2ba0203e81d24f64736f6c63430008150033",
  "immutableReferences": {},
  "source": "// SPDX-License-Identifier: MIT\r\npragma solidity ^0.8.0;\r\n\r\nimport \"./PatentBase.sol\";  // \r\n\r\ncontract PatentRegistry is PatentBase {\r\n    // \r\n    struct AuthorizationRequest {\r\n        address applicant;       // \r\n        uint256 patentId;        //  ID\r\n        uint256 requestTime;     // \r\n        bool approved;           // \r\n    }\r\n\r\n    // \r\n    struct UseRecord {\r\n        uint256 patentId;       //  ID\r\n        address user;           // \r\n        uint256 useTime;        // \r\n        bool isAuthorized;      // \r\n    }\r\n\r\n    // \r\n     event PatentRegistered(\r\n        uint256 patentId,\r\n        string name,\r\n        address indexed owner,\r\n        string description,\r\n        uint256 price,\r\n        bool isForSale,\r\n        uint256 registrationTime,\r\n        uint256 expiryTime\r\n    );\r\n    // \r\n    event PatentListed(uint indexed patentId, string name, address indexed owner);\r\n    event PatentSold(uint indexed patentId, string name, address indexed previousOwner, address indexed newOwner, uint price);\r\n    event PatentAuthorized(uint indexed patentId, address indexed user);\r\n    event PatentInfringementDetected(uint indexed patentId, address indexed infringer);\r\n    event LegalActionTriggered(uint indexed patentId, address indexed infringer);\r\n    // \r\n    event PatentAuthorizationRequested(uint256 indexed patentId, address indexed applicant);\r\n    // \r\n    event PatentAuthorizationRejected(uint256 indexed patentId, address indexed user);\r\n\r\n    mapping(address => uint256[]) public userPatents; //  => ID\r\n    // ID\r\n    mapping(uint => mapping(address => bool)) public authorizedUsers;\r\n    mapping(uint256 => AuthorizationRequest[]) public authorizationRequests; // \r\n    mapping(uint256 => UseRecord[]) public useRecords; // \r\n\r\n    function registerPatent(\r\n        string memory name,\r\n        string memory description,\r\n        uint256 duration,\r\n        uint256 price\r\n    ) public returns (uint256) {\r\n        // require(patents[patentCount].patentId == 0, \"Patent ID already exists\");\r\n        require(duration > 0, \"Duration must be greater than zero\");\r\n\r\n        // \r\n        patents[patentCount] = Patent({\r\n            patentId: patentCount,\r\n            patentName: name,              // \r\n            currentOwner: msg.sender,      // \r\n            description: description,      // \r\n            price: price,                  // \r\n            isForSale: false,          // \r\n            registrationTime: block.timestamp,  // \r\n            expiryTime: block.timestamp + duration  // \r\n        });\r\n\r\n        userPatents[msg.sender].push(patentCount);\r\n        patentCount++;\r\n\r\n        // \r\n        emit PatentRegistered(\r\n            patentCount - 1,\r\n            name,\r\n            msg.sender,\r\n            description,\r\n            price,\r\n            false,\r\n            block.timestamp,\r\n            block.timestamp + duration\r\n        );\r\n    }\r\n\r\n    // \r\n    function getPatent(uint256 patentId) public view returns (\r\n        uint256,\r\n        string memory,\r\n        string memory,\r\n        address,\r\n        uint256,\r\n        uint256,\r\n        uint256\r\n    ) {\r\n        // require(patents[patentId].patentId != 0, \"Patent does not exist\");\r\n\r\n        Patent memory patent = patents[patentId];\r\n        return (\r\n            patent.patentId,\r\n            patent.patentName,\r\n            patent.description,\r\n            patent.currentOwner,\r\n            patent.registrationTime,\r\n            patent.expiryTime,\r\n            patent.price\r\n        );\r\n    }\r\n\r\n    // \r\n    function isPatentExpired(uint256 patentId) public view returns (bool) {\r\n        // require(patents[patentId].patentId != 0, \"Patent does not exist\");\r\n\r\n        return block.timestamp > patents[patentId].expiryTime;\r\n    }\r\n\r\n    // ID\r\n    function getUserPatents() public view returns (uint256[] memory) {\r\n        return userPatents[msg.sender];\r\n    }\r\n\r\n    // \r\n    function listForSale(uint patentId) public {\r\n        Patent storage patent = patents[patentId];\r\n        require(patent.currentOwner == msg.sender, \"You are not the owner\");\r\n        require(patent.isForSale == false, \"Patent is already for sale\");\r\n\r\n        patent.isForSale = true;\r\n\r\n        emit PatentListed(patentId, patent.patentName, msg.sender);\r\n    }\r\n\r\n    // \r\n// \r\n    function buyPatent(uint patentId) public payable {\r\n        Patent storage patent = patents[patentId];\r\n        require(patent.isForSale, \"Patent is not for sale\");\r\n        require(msg.value >= patent.price, \"Insufficient funds to buy patent\");\r\n\r\n        address previousOwner = patent.currentOwner;\r\n\r\n\r\n\r\n        userPatents[previousOwner].pop();\r\n\r\n        userPatents[msg.sender].push(patentId);\r\n        patent.currentOwner = msg.sender;\r\n        patent.isForSale = false;\r\n        // \r\n        payable(previousOwner).transfer(msg.value);\r\n    }\r\n\r\n    // \r\n    function canApplyForAuthorization(uint256 patentId, address user) public view returns (bool) {\r\n        // 1. \r\n        if (user == patents[patentId].currentOwner) {\r\n            return false;  // \r\n        }\r\n\r\n        // 2. \r\n        if (authorizedUsers[patentId][user]) {\r\n            return false;  // \r\n        }\r\n\r\n        // 3. \r\n        if (patents[patentId].isForSale) {\r\n            return false;  // \r\n        }\r\n\r\n        // \r\n        return true;\r\n    }\r\n\r\n    // \r\n    function requestPatentAuthorization(uint256 patentId) public {\r\n        // \r\n        require(patents[patentId].patentId == patentId, \"Patent does not exist\");\r\n\r\n        // \r\n        require(!authorizedUsers[patentId][msg.sender], \"You are already authorized\");\r\n\r\n        // \r\n        authorizationRequests[patentId].push(AuthorizationRequest({\r\n            applicant: msg.sender,\r\n            patentId: patentId,      //  ID\r\n            requestTime: block.timestamp,\r\n            approved: false // \r\n        }));\r\n\r\n        emit PatentAuthorizationRequested(patentId, msg.sender);\r\n    }\r\n\r\n    // \r\n    function approveAuthorization(uint256 patentId, address user) public {\r\n        // \r\n        require(patents[patentId].currentOwner == msg.sender, \"Only the owner can approve\");\r\n\r\n        // \r\n        bool applicationFound = false;\r\n        for (uint i = 0; i < authorizationRequests[patentId].length; i++) {\r\n            if (authorizationRequests[patentId][i].applicant == user && !authorizationRequests[patentId][i].approved) {\r\n                // \r\n                authorizationRequests[patentId][i].approved = true;\r\n                authorizedUsers[patentId][user] = true;\r\n\r\n                emit PatentAuthorized(patentId, user);\r\n                applicationFound = true;\r\n                break;\r\n            }\r\n        }\r\n\r\n        require(applicationFound, \"Authorization request not found or already approved\");\r\n    }\r\n\r\n    // \r\n    function rejectAuthorization(uint256 patentId, address user) public {\r\n        // \r\n        require(patents[patentId].currentOwner == msg.sender, \"Only the owner can reject\");\r\n\r\n        // \r\n        bool applicationFound = false;\r\n        for (uint i = 0; i < authorizationRequests[patentId].length; i++) {\r\n            if (authorizationRequests[patentId][i].applicant == user && !authorizationRequests[patentId][i].approved) {\r\n                // \r\n                authorizationRequests[patentId][i].approved = false;\r\n\r\n                emit PatentAuthorizationRejected(patentId, user);\r\n                applicationFound = true;\r\n                break;\r\n            }\r\n        }\r\n        require(applicationFound, \"Authorization request not found or already approved\");\r\n    }\r\n\r\n    // \r\n    function usePatent(uint256 patentId) public {\r\n        // \r\n        require(patents[patentId].patentId == patentId, \"Patent does not exist\");\r\n\r\n        // \r\n        bool hasPermission = (msg.sender == patents[patentId].currentOwner || authorizedUsers[patentId][msg.sender]);\r\n\r\n        // \r\n        useRecords[patentId].push(UseRecord({\r\n            patentId: patentId,\r\n            user: msg.sender,\r\n            useTime: block.timestamp,\r\n            isAuthorized: hasPermission\r\n        }));\r\n\r\n        // \r\n        require(hasPermission, \"You do not have permission to use this patent\");\r\n\r\n        emit PatentUsed(patentId, msg.sender, block.timestamp);\r\n    }\r\n\r\n    // \r\n    function getOwnedPatentsUseRecords(address user) public view returns (UseRecord[] memory) {\r\n        uint256 ownedPatentsCount = 0;\r\n        // \r\n        for (uint256 i = 0; i < patentCount; i++) {\r\n            if (patents[i].currentOwner == user) {\r\n                ownedPatentsCount++;\r\n            }\r\n        }\r\n\r\n        // \r\n        UseRecord[] memory allUseRecords = new UseRecord[](ownedPatentsCount);\r\n\r\n        uint256 index = 0;\r\n        for (uint256 i = 0; i < patentCount; i++) {\r\n            if (patents[i].currentOwner == user) {\r\n                // \r\n                for (uint256 j = 0; j < useRecords[i].length; j++) {\r\n                    allUseRecords[index] = useRecords[i][j];\r\n                    index++;\r\n                }\r\n            }\r\n        }\r\n\r\n        return allUseRecords;\r\n    }\r\n\r\n    // \r\n    event PatentUsed(uint256 patentId, address user, uint256 useTime);\r\n\r\n    // \r\n    function detectIllegalUse(uint256 patentId, address user) public view returns (bool) {\r\n        // \r\n        bool hasPermission = (user == patents[patentId].currentOwner || authorizedUsers[patentId][user]);\r\n        return !hasPermission;\r\n    }\r\n\r\n    // \r\n    function triggerInfringementWarning(uint patentId, address infringer) public {\r\n        require(detectIllegalUse(patentId, infringer), \"No infringement detected\");\r\n\r\n        emit PatentInfringementDetected(patentId, infringer);\r\n    }\r\n\r\n    // \r\n    function getPatentInfo(uint patentId) public view returns (Patent memory) {\r\n        return patents[patentId];\r\n    }\r\n\r\n    // \r\n    function isPatentForSale(uint patentId) public view returns (bool) {\r\n        return patents[patentId].isForSale;\r\n    }\r\n\r\n    // \r\n    function isAuthorizedUser(uint patentId, address user) public view returns (bool) {\r\n        return authorizedUsers[patentId][user];\r\n    }\r\n\r\n    // \r\n    function fetchMarketPatents(address user) public view returns (Patent[] memory) {\r\n        uint count = 0;\r\n        uint[] memory availablePatentIds = new uint[](patentCount);\r\n\r\n        // \r\n        for (uint i = 0; i <= patentCount; i++) {\r\n            if (patents[i].isForSale  && patents[i].currentOwner != user) {\r\n                availablePatentIds[count] = i;\r\n                count++;\r\n            }\r\n        }\r\n\r\n        // Patent\r\n        Patent[] memory availablePatents = new Patent[](count);\r\n        for (uint i = 0; i < count; i++) {\r\n            uint patentId = availablePatentIds[i];\r\n            availablePatents[i] = patents[patentId];\r\n        }\r\n\r\n        return availablePatents;\r\n    }\r\n\r\n    // \r\n    function fetchPatentsCanSale() public view returns (Patent[] memory) {\r\n        uint count = 0;\r\n\r\n        // \r\n        for (uint i = 0; i < patentCount; i++) {\r\n            if (patents[i].currentOwner == msg.sender && !patents[i].isForSale) {\r\n                count++;\r\n            }\r\n        }\r\n\r\n        // \r\n        Patent[] memory userPatentsForSale = new Patent[](count);\r\n        uint index = 0;\r\n\r\n        // \r\n        for (uint i = 0; i < patentCount; i++) {\r\n            if (patents[i].currentOwner == msg.sender && !patents[i].isForSale) {\r\n                userPatentsForSale[index] = patents[i];\r\n                index++;\r\n            }\r\n        }\r\n        return userPatentsForSale;\r\n    }\r\n}\r\n",
  "sourcePath": "/Users/ethan/Education/Blockchain/patent-dapp/contracts/PatentRegistry.sol",
  "compiler": {
    "name": "solc",
    "version": "0.8.21+commit.d9974bed.Emscripten.clang"
  },
  "schemaVersion": "3.4.16",
  "updatedAt": "2024-12-21T19:06:09.228Z",
  "networkType": "ethereum",
  "devdoc": {
    "kind": "dev",
    "methods": {},
    "version": 1
  },
  "userdoc": {
    "kind": "user",
    "methods": {},
    "version": 1
  }
}