{
  "contractName": "UserIdentityManagement",
  "abi": [
    {
      "anonymous": false,
      "inputs": [
        {
          "indexed": true,
          "internalType": "address",
          "name": "userAddress",
          "type": "address"
        },
        {
          "indexed": false,
          "internalType": "enum UserIdentityManagement.Role",
          "name": "newRole",
          "type": "uint8"
        }
      ],
      "name": "RoleUpdated",
      "type": "event"
    },
    {
      "anonymous": false,
      "inputs": [
        {
          "indexed": true,
          "internalType": "address",
          "name": "userAddress",
          "type": "address"
        },
        {
          "indexed": false,
          "internalType": "string",
          "name": "name",
          "type": "string"
        },
        {
          "indexed": false,
          "internalType": "enum UserIdentityManagement.Role",
          "name": "role",
          "type": "uint8"
        }
      ],
      "name": "UserRegistered",
      "type": "event"
    },
    {
      "inputs": [
        {
          "internalType": "address",
          "name": "",
          "type": "address"
        }
      ],
      "name": "users",
      "outputs": [
        {
          "internalType": "address",
          "name": "addr",
          "type": "address"
        },
        {
          "internalType": "string",
          "name": "name",
          "type": "string"
        },
        {
          "internalType": "string",
          "name": "email",
          "type": "string"
        },
        {
          "internalType": "enum UserIdentityManagement.Role",
          "name": "role",
          "type": "uint8"
        },
        {
          "internalType": "bool",
          "name": "isRegistered",
          "type": "bool"
        }
      ],
      "stateMutability": "view",
      "type": "function",
      "constant": true
    },
    {
      "inputs": [
        {
          "internalType": "string",
          "name": "name",
          "type": "string"
        },
        {
          "internalType": "string",
          "name": "email",
          "type": "string"
        },
        {
          "internalType": "enum UserIdentityManagement.Role",
          "name": "role",
          "type": "uint8"
        }
      ],
      "name": "registerUser",
      "outputs": [],
      "stateMutability": "nonpayable",
      "type": "function"
    },
    {
      "inputs": [
        {
          "internalType": "address",
          "name": "userAddress",
          "type": "address"
        },
        {
          "internalType": "enum UserIdentityManagement.Role",
          "name": "newRole",
          "type": "uint8"
        }
      ],
      "name": "updateUserRole",
      "outputs": [],
      "stateMutability": "nonpayable",
      "type": "function"
    },
    {
      "inputs": [
        {
          "internalType": "address",
          "name": "userAddress",
          "type": "address"
        }
      ],
      "name": "getUser",
      "outputs": [
        {
          "components": [
            {
              "internalType": "address",
              "name": "addr",
              "type": "address"
            },
            {
              "internalType": "string",
              "name": "name",
              "type": "string"
            },
            {
              "internalType": "string",
              "name": "email",
              "type": "string"
            },
            {
              "internalType": "enum UserIdentityManagement.Role",
              "name": "role",
              "type": "uint8"
            },
            {
              "internalType": "bool",
              "name": "isRegistered",
              "type": "bool"
            }
          ],
          "internalType": "struct UserIdentityManagement.User",
          "name": "",
          "type": "tuple"
        }
      ],
      "stateMutability": "view",
      "type": "function",
      "constant": true
    },
    {
      "inputs": [],
      "name": "patentHolderOnlyFunction",
      "outputs": [],
      "stateMutability": "nonpayable",
      "type": "function"
    },
    {
      "inputs": [],
      "name": "registeredUserFunction",
      "outputs": [],
      "stateMutability": "nonpayable",
      "type": "function"
    }
  ],
  "bytecode": "0x608060405234801561001057600080fd5b5061169f806100206000396000f3fe608060405234801561001057600080fd5b506004361061007f576000357c0100000000000000000000000000000000000000000000000000000000900480632e17a931146100845780636f77926b146100a0578063a87430ba146100d0578063b736b43e14610104578063c291fe621461010e578063f45600521461012a575b600080fd5b61009e60048036038101906100999190610d93565b610134565b005b6100ba60048036038101906100b59190610e7c565b6103d5565b6040516100c79190611046565b60405180910390f35b6100ea60048036038101906100e59190610e7c565b61068b565b6040516100fb9594939291906110df565b60405180910390f35b61010c61080b565b005b61012860048036038101906101239190611140565b6108c4565b005b610132610b2b565b005b6000803373ffffffffffffffffffffffffffffffffffffffff1673ffffffffffffffffffffffffffffffffffffffff16815260200190815260200160002060030160019054906101000a900460ff16156101c3576040517f08c379a00000000000000000000000000000000000000000000000000000000081526004016101ba906111cc565b60405180910390fd5b600060038111156101d7576101d6610f37565b5b8160038111156101ea576101e9610f37565b5b0361022a576040517f08c379a000000000000000000000000000000000000000000000000000000000815260040161022190611238565b60405180910390fd5b6040518060a001604052803373ffffffffffffffffffffffffffffffffffffffff1681526020018481526020018381526020018260038111156102705761026f610f37565b5b8152602001600115158152506000803373ffffffffffffffffffffffffffffffffffffffff1673ffffffffffffffffffffffffffffffffffffffff16815260200190815260200160002060008201518160000160006101000a81548173ffffffffffffffffffffffffffffffffffffffff021916908373ffffffffffffffffffffffffffffffffffffffff16021790555060208201518160010190816103169190611474565b50604082015181600201908161032c9190611474565b5060608201518160030160006101000a81548160ff0219169083600381111561035857610357610f37565b5b021790555060808201518160030160016101000a81548160ff0219169083151502179055509050503373ffffffffffffffffffffffffffffffffffffffff167fc2e5d5da58bd71d1a2d14cdef02a4256d971b728088f8190d067ccfbae3bd73e84836040516103c8929190611546565b60405180910390a2505050565b6103dd610bbb565b6000808373ffffffffffffffffffffffffffffffffffffffff1673ffffffffffffffffffffffffffffffffffffffff16815260200190815260200160002060030160019054906101000a900460ff1661046b576040517f08c379a0000000000000000000000000000000000000000000000000000000008152600401610462906115c2565b60405180910390fd5b6000808373ffffffffffffffffffffffffffffffffffffffff1673ffffffffffffffffffffffffffffffffffffffff1681526020019081526020016000206040518060a00160405290816000820160009054906101000a900473ffffffffffffffffffffffffffffffffffffffff1673ffffffffffffffffffffffffffffffffffffffff1673ffffffffffffffffffffffffffffffffffffffff16815260200160018201805461051a90611287565b80601f016020809104026020016040519081016040528092919081815260200182805461054690611287565b80156105935780601f1061056857610100808354040283529160200191610593565b820191906000526020600020905b81548152906001019060200180831161057657829003601f168201915b505050505081526020016002820180546105ac90611287565b80601f01602080910402602001604051908101604052809291908181526020018280546105d890611287565b80156106255780601f106105fa57610100808354040283529160200191610625565b820191906000526020600020905b81548152906001019060200180831161060857829003601f168201915b505050505081526020016003820160009054906101000a900460ff16600381111561065357610652610f37565b5b600381111561066557610664610f37565b5b81526020016003820160019054906101000a900460ff1615151515815250509050919050565b60006020528060005260406000206000915090508060000160009054906101000a900473ffffffffffffffffffffffffffffffffffffffff16908060010180546106d490611287565b80601f016020809104026020016040519081016040528092919081815260200182805461070090611287565b801561074d5780601f106107225761010080835404028352916020019161074d565b820191906000526020600020905b81548152906001019060200180831161073057829003601f168201915b50505050509080600201805461076290611287565b80601f016020809104026020016040519081016040528092919081815260200182805461078e90611287565b80156107db5780601f106107b0576101008083540402835291602001916107db565b820191906000526020600020905b8154815290600101906020018083116107be57829003601f168201915b5050505050908060030160009054906101000a900460ff16908060030160019054906101000a900460ff16905085565b60018060038111156108205761081f610f37565b5b6000803373ffffffffffffffffffffffffffffffffffffffff1673ffffffffffffffffffffffffffffffffffffffff16815260200190815260200160002060030160009054906101000a900460ff16600381111561088157610880610f37565b5b146108c1576040517f08c379a00000000000000000000000000000000000000000000000000000000081526004016108b89061162e565b60405180910390fd5b50565b60018060038111156108d9576108d8610f37565b5b6000803373ffffffffffffffffffffffffffffffffffffffff1673ffffffffffffffffffffffffffffffffffffffff16815260200190815260200160002060030160009054906101000a900460ff16600381111561093a57610939610f37565b5b1461097a576040517f08c379a00000000000000000000000000000000000000000000000000000000081526004016109719061162e565b60405180910390fd5b6000808473ffffffffffffffffffffffffffffffffffffffff1673ffffffffffffffffffffffffffffffffffffffff16815260200190815260200160002060030160019054906101000a900460ff16610a08576040517f08c379a00000000000000000000000000000000000000000000000000000000081526004016109ff906115c2565b60405180910390fd5b60006003811115610a1c57610a1b610f37565b5b826003811115610a2f57610a2e610f37565b5b03610a6f576040517f08c379a0000000000000000000000000000000000000000000000000000000008152600401610a6690611238565b60405180910390fd5b816000808573ffffffffffffffffffffffffffffffffffffffff1673ffffffffffffffffffffffffffffffffffffffff16815260200190815260200160002060030160006101000a81548160ff02191690836003811115610ad357610ad2610f37565b5b02179055508273ffffffffffffffffffffffffffffffffffffffff167fc3f8f61911a1537261f77e2703626e158e299a98e341024ecaa26bbd1d884c6483604051610b1e919061164e565b60405180910390a2505050565b6000803373ffffffffffffffffffffffffffffffffffffffff1673ffffffffffffffffffffffffffffffffffffffff16815260200190815260200160002060030160019054906101000a900460ff16610bb9576040517f08c379a0000000000000000000000000000000000000000000000000000000008152600401610bb0906115c2565b60405180910390fd5b565b6040518060a00160405280600073ffffffffffffffffffffffffffffffffffffffff168152602001606081526020016060815260200160006003811115610c0557610c04610f37565b5b81526020016000151581525090565b6000604051905090565b600080fd5b600080fd5b600080fd5b600080fd5b6000601f19601f8301169050919050565b7f4e487b7100000000000000000000000000000000000000000000000000000000600052604160045260246000fd5b610c7b82610c32565b810181811067ffffffffffffffff82111715610c9a57610c99610c43565b5b80604052505050565b6000610cad610c14565b9050610cb98282610c72565b919050565b600067ffffffffffffffff821115610cd957610cd8610c43565b5b610ce282610c32565b9050602081019050919050565b82818337600083830152505050565b6000610d11610d0c84610cbe565b610ca3565b905082815260208101848484011115610d2d57610d2c610c2d565b5b610d38848285610cef565b509392505050565b600082601f830112610d5557610d54610c28565b5b8135610d65848260208601610cfe565b91505092915050565b60048110610d7b57600080fd5b50565b600081359050610d8d81610d6e565b92915050565b600080600060608486031215610dac57610dab610c1e565b5b600084013567ffffffffffffffff811115610dca57610dc9610c23565b5b610dd686828701610d40565b935050602084013567ffffffffffffffff811115610df757610df6610c23565b5b610e0386828701610d40565b9250506040610e1486828701610d7e565b9150509250925092565b600073ffffffffffffffffffffffffffffffffffffffff82169050919050565b6000610e4982610e1e565b9050919050565b610e5981610e3e565b8114610e6457600080fd5b50565b600081359050610e7681610e50565b92915050565b600060208284031215610e9257610e91610c1e565b5b6000610ea084828501610e67565b91505092915050565b610eb281610e3e565b82525050565b600081519050919050565b600082825260208201905092915050565b60005b83811015610ef2578082015181840152602081019050610ed7565b60008484015250505050565b6000610f0982610eb8565b610f138185610ec3565b9350610f23818560208601610ed4565b610f2c81610c32565b840191505092915050565b7f4e487b7100000000000000000000000000000000000000000000000000000000600052602160045260246000fd5b60048110610f7757610f76610f37565b5b50565b6000819050610f8882610f66565b919050565b6000610f9882610f7a565b9050919050565b610fa881610f8d565b82525050565b60008115159050919050565b610fc381610fae565b82525050565b600060a083016000830151610fe16000860182610ea9565b5060208301518482036020860152610ff98282610efe565b915050604083015184820360408601526110138282610efe565b91505060608301516110286060860182610f9f565b50608083015161103b6080860182610fba565b508091505092915050565b600060208201905081810360008301526110608184610fc9565b905092915050565b61107181610e3e565b82525050565b600082825260208201905092915050565b600061109382610eb8565b61109d8185611077565b93506110ad818560208601610ed4565b6110b681610c32565b840191505092915050565b6110ca81610f8d565b82525050565b6110d981610fae565b82525050565b600060a0820190506110f46000830188611068565b81810360208301526111068187611088565b9050818103604083015261111a8186611088565b905061112960608301856110c1565b61113660808301846110d0565b9695505050505050565b6000806040838503121561115757611156610c1e565b5b600061116585828601610e67565b925050602061117685828601610d7e565b9150509250929050565b7f5573657220697320616c72656164792072656769737465726564000000000000600082015250565b60006111b6601a83611077565b91506111c182611180565b602082019050919050565b600060208201905081810360008301526111e5816111a9565b9050919050565b7f496e76616c696420726f6c650000000000000000000000000000000000000000600082015250565b6000611222600c83611077565b915061122d826111ec565b602082019050919050565b6000602082019050818103600083015261125181611215565b9050919050565b7f4e487b7100000000000000000000000000000000000000000000000000000000600052602260045260246000fd5b6000600282049050600182168061129f57607f821691505b6020821081036112b2576112b1611258565b5b50919050565b60008190508160005260206000209050919050565b60006020601f8301049050919050565b60008160020a8302905092915050565b60006008830261131d7fffffffffffffffffffffffffffffffffffffffffffffffffffffffffffffffff826112dd565b61132786836112dd565b95508019841693508086168417925050509392505050565b6000819050919050565b6000819050919050565b600061136e6113696113648461133f565b611349565b61133f565b9050919050565b6000819050919050565b61138883611353565b61139c61139482611375565b8484546112ed565b825550505050565b600090565b6113b16113a4565b6113bc81848461137f565b505050565b5b818110156113e0576113d56000826113a9565b6001810190506113c2565b5050565b601f821115611425576113f6816112b8565b6113ff846112cd565b8101602085101561140e578190505b61142261141a856112cd565b8301826113c1565b50505b505050565b60008160020a8304905092915050565b600061144b6000198460080261142a565b1980831691505092915050565b6000611464838361143a565b9150826002028217905092915050565b61147d82610eb8565b67ffffffffffffffff81111561149657611495610c43565b5b6114a08254611287565b6114ab8282856113e4565b600060209050601f8311600181146114de57600084156114cc578287015190505b6114d68582611458565b86555061153e565b601f1984166114ec866112b8565b60005b82811015611514578489015182556001820191506020850194506020810190506114ef565b86831015611531578489015161152d601f89168261143a565b8355505b6001600288020188555050505b505050505050565b600060408201905081810360008301526115608185611088565b905061156f60208301846110c1565b9392505050565b7f55736572206973206e6f74207265676973746572656400000000000000000000600082015250565b60006115ac601683611077565b91506115b782611576565b602082019050919050565b600060208201905081810360008301526115db8161159f565b9050919050565b7f4163636573732064656e6965643a20496e73756666696369656e7420726f6c65600082015250565b6000611618602083611077565b9150611623826115e2565b602082019050919050565b600060208201905081810360008301526116478161160b565b9050919050565b600060208201905061166360008301846110c1565b9291505056fea26469706673582212206a286ceb74a44ac8de4f7ede4f30dc3252d3ec97338b79d9a487ff2553e5157364736f6c63430008150033",
  "immutableReferences": {},
  "source": "// SPDX-License-Identifier: MIT\r\npragma solidity ^0.8.0;\r\n\r\ncontract UserIdentityManagement {\r\n    // \r\n    enum Role { Unregistered, PatentHolder, Buyer, Licensor }\r\n\r\n    // \r\n    struct User {\r\n        address addr;       // \r\n        string name;        // \r\n        string email;        // \r\n        Role role;          // \r\n        bool isRegistered;  // \r\n    }\r\n\r\n    //  -> \r\n    mapping(address => User) public users;\r\n\r\n    // \r\n    event UserRegistered(address indexed userAddress, string name, Role role);\r\n    event RoleUpdated(address indexed userAddress, Role newRole);\r\n\r\n    // \r\n    modifier onlyRegistered() {\r\n        require(users[msg.sender].isRegistered, \"User is not registered\");\r\n        _;\r\n    }\r\n\r\n    // \r\n    modifier onlyRole(Role requiredRole) {\r\n        require(users[msg.sender].role == requiredRole, \"Access denied: Insufficient role\");\r\n        _;\r\n    }\r\n\r\n    // \r\n    function registerUser(string memory name, string memory email, Role role) public {\r\n        require(!users[msg.sender].isRegistered, \"User is already registered\");\r\n        require(role != Role.Unregistered, \"Invalid role\");\r\n\r\n        users[msg.sender] = User({\r\n            addr: msg.sender,\r\n            name: name,\r\n            email: email,\r\n            role: role,\r\n            isRegistered: true\r\n        });\r\n\r\n        emit UserRegistered(msg.sender, name, role);\r\n    }\r\n\r\n    // \r\n    function updateUserRole(address userAddress, Role newRole) public onlyRole(Role.PatentHolder) {\r\n        require(users[userAddress].isRegistered, \"User is not registered\");\r\n        require(newRole != Role.Unregistered, \"Invalid role\");\r\n\r\n        users[userAddress].role = newRole;\r\n\r\n        emit RoleUpdated(userAddress, newRole);\r\n    }\r\n\r\n    // \r\n    function getUser(address userAddress) public view returns (User memory) {\r\n        require(users[userAddress].isRegistered, \"User is not registered\");\r\n        return users[userAddress];\r\n    }\r\n\r\n    // \r\n    function patentHolderOnlyFunction() public onlyRole(Role.PatentHolder) {\r\n        // \r\n    }\r\n\r\n    // \r\n    function registeredUserFunction() public onlyRegistered {\r\n        // \r\n    }\r\n}\r\n",
  "sourcePath": "/Users/ethan/Education/Blockchain/patent-dapp/contracts/User.sol",
  "compiler": {
    "name": "solc",
    "version": "0.8.21+commit.d9974bed.Emscripten.clang"
  },
  "schemaVersion": "3.4.16",
  "updatedAt": "2024-12-21T10:24:52.283Z",
  "networkType": "ethereum",
  "devdoc": {
    "kind": "dev",
    "methods": {},
    "version": 1
  },
  "userdoc": {
    "kind": "user",
    "methods": {},
    "version": 1
  }
}